:020000040800F2
:10000000783C0024AD020008294D00081147000883
:10001000214D000819030008218B00080000000092
:10002000000000000000000000000000B9650008AA
:100030002103000800000000414D0008C1650008D0
:10004000C7020008C7020008C7020008C70200086C
:10005000C7020008C7020008C7020008C70200085C
:10006000C7020008C7020008C7020008C70200084C
:10007000C7020008C7020008C7020008C70200083C
:10008000C7020008C7020008C7020008C70200082C
:10009000C7020008C7020008C7020008C70200081C
:1000A000C7020008C7020008C7020008C70200080C
:1000B000C7020008C7020008C7020008C7020008FC
:1000C000C7020008C7020008C7020008C7020008EC
:1000D000C7020008C7020008C7020008C7020008DC
:1000E000C7020008C702000800000000C70200089D
:1000F000C7020008C7020008C7020008C7020008BC
:10010000C7020008C15B0008C7020008C702000858
:10011000C7020008C7020008C7020008C70200089B
:10012000C7020008C7020008C7020008C70200088B
:10013000C7020008C7020008C7020008C70200087B
:1001400000000000000000000000000000000000AF
:10015000C7020008C7020008C7020008C70200085B
:10016000C7020008C7020008C7020008C70200084B
:10017000C7020008C7020008C7020008C70200083B
:10018000C7020008C7020008C7020008C70200082B
:10019000C7020008C7020008C7020008C70200081B
:1001A000C7020008C7020008C7020008C70200080B
:1001B000C7020008C7020008C7020008C7020008FB
:1001C000C7020008C7020008C7020008C7020008EB
:1001D000C7020008314D0008C7020008C702000826
:1001E000C7020008C7020008C7020008C7020008CB
:1001F000C7020008C7020008C7020008C7020008BB
:10020000C7020008C7020008C7020008C7020008AA
:10021000C7020008C7020008C7020008C70200089A
:10022000C7020008C7020008C7020008000000005B
:10023000C7020008C702000800000000C70200084B
:10024000C7020008C7020008C7020008C70200086A
:10025000C7020008C7020008C7020008C70200085A
:10026000C7020008C7020008C7020008C70200084A
:10027000C7020008C7020008C7020008000000000B
:10028000C7020008C7020008C702000800000000FB
:1002900000000000C7020008DFF80CD000F02AF8C8
:1002A00000480047298B0008783C00240648804716
:1002B00006480047FEE7FEE7FEE7FEE7FEE7FEE74B
:1002C000FEE7FEE7FEE7FEE7F16600089902000898
:1002D000D2B201E000F8012B491EFBD27047002288
:1002E000F6E710B513460A4604461946FFF7F0FF35
:1002F000204610BD064C074D06E0E06840F00103C3
:1003000094E8070098471034AC42F6D3FFF7C8FFD3
:10031000808D0008A08D0008FEE7000000000000AE
:10032000704700000000000041F20004C5F602041E
:1003300008210122204600F0FBF840F2F31000F003
:100340000BF808210022204600F0F2F840F2F310EA
:1003500000F002F8ECE70000B0B5044600F0F8F851
:1003600040F200010546C2F20041621C097818BF44
:100370000C4400BF00F0ECF8401BA042FAD3B0BD23
:100380002DE9F04F82B00D68002D00F0CB8000F118
:10039000264242F2004302F1FF72C5F602030A262A
:1003A00098424FEAB22444F2F44E08BF0926092CC1
:1003B00040F2040C38BF4FEAB226C5F6020EC5F66D
:1003C000000C009600220027002609E001360D6887
:1003D00035FA06F307F1040702F1020200F0A280E9
:1003E000012303FA06F415EA0408EFD0D1F804A0BB
:1003F00003230AF0030B9340ABF101056FEA0309F5
:10040000012D0FD88368CD6803EA090395402B437B
:100410008360CAF300154368A34305FA06F4234337
:10042000436005E0BBF1030F02D14FF0030B21E065
:10043000C3688C6803EA09039440BBF1020F43EAE6
:100440000403C36016D16FF0030307F01C0503EA31
:1004500056030F24034404FA05FBD3F820A00C69CB
:100460002AEA0B0AAC4044EA0A041C62D1F804A050
:100470000AF0030B03680BFA02F403EA09031AF407
:10048000403F43EA04030360A0D0DEF8003040F2AE
:10049000084A43F00203CEF80030DEF80030C5F61B
:1004A000000A03F00203019326F00303019C07F006
:1004B0000C040F2553F80A90A54029EA0509009D70
:1004C00005FA04F444EA090443F80A404FF0B04A3C
:1004D000DAF800904C6849EA0805E30258BF29EAB7
:1004E0000805A302CAF80050DCF8009049EA0805A4
:1004F00058BF29EA0805A303CCF80050DCF8809027
:1005000049EA080558BF29EA0805E403CCF88050F9
:10051000DCF87C3043EA080558BF23EA0805CCF82C
:100520007C5053E702B0BDE8F08F000000000000EF
:10053000002A08BF09048161704700000000000024
:1005400041F20000C5F600400068000C7047000052
:1005500041F67040C2F200400068704700000000A1
:1005600040F2000041F67041C2F20040C2F2004188
:1005700000780A681044086070470000000000001E
:1005800080B5032000F0FCF802F0D6FC44F21841DC
:1005900048F64A53C5F60201C0F600030A68096826
:1005A00001F00F01C2F30322595C9A5C01F01F01B4
:1005B00002F01F02D04040F20C02C2F2004220FAC8
:1005C00001F1116040F20801C2F200410860002010
:1005D00000F00AF800281CBF012080BD00F07CF864
:1005E000002080BD0000000070B540F20006C2F29D
:1005F00000463178E1B1044640F20800C2F2004002
:100600004FF47A72B2FBF1F10068B0FBF1F004F044
:1006100067F80F2C4FF0010508D838B94FF0FF30BC
:1006200000222146002500F07BF87460284670BD4A
:10063000012070BD00000000B0B502784EF69C5C51
:10064000CEF2000C43784CF8043CFAB14368CCF885
:100650000030037BC17A90F80AE0457B447A42EA95
:100660000372837B42EA0161C27B41EACE41007A98
:1006700041EA854141EA434141EA024141EA04211C
:1006800041EA4000CCF80400B0BD00BF0020CCF827
:100690000000CCF80400B0BD4EF62450CEF20000AD
:1006A000BFF35F8F016821F4803101600021016791
:1006B00070470000000000004EF6245140F0010099
:1006C000CEF200010867086840F480300860BFF38C
:1006D0004F8FBFF36F8F704781B044F2F440C5F67F
:1006E0000200016841F002010160006800F00200B0
:1006F0000090009801B07047002848BF704781B251
:1007000000F01F000122490902FA00F04EF2001227
:10071000CEF2000242F82100704700000000000005
:1007200070B54EF60C5C4FF0FF36CEF2000C00F1C7
:10073000604505F56445DCF80030C3F3022E8EF009
:100740000703042B28BF0423BEF1030406FA03F3B6
:1007500021EA030100F00F0338BF0024043B002806
:10076000634406FA04F048BF03F10C05A14022EAF5
:10077000000008430001287070BD00000000000068
:100780004EF60C514FF6FF03CEF200010A681A40F4
:1007900060F30A2242F0806040F0FD70086070470C
:1007A00001680122C0F80025002280F8F42488693D
:1007B00040F000608861486D40F08052002042F0B7
:1007C00003024A6570470000704700000000000007
:1007D00002680020516270472DE9F04F81B0D0F8D7
:1007E0000080D8F8240099B1D8F82830B1F1010E72
:1007F00000EB134375D0AEF101000EF00307C0B259
:1008000003280DD201214FF0000A002F50D168E0DB
:1008100040EA0240C8F82800002001B0BDE8F08F8F
:1008200008F1F4050021009741F0010408F5827CED
:1008300055F8100FE4B241F00207FFB203EB104B82
:100840005CF8244041F00303D8B25CF827600B1D2C
:100850000EF0FC095FFA83FA0BEB1444CA4504EB73
:1008600016445CF820001ED0194643F00103DBB2A9
:1008700004EB104A41F0020455F8106FE4B241F065
:100880000307FFB25CF823000B1D0AEB16465FFA64
:1008900083FA5CF8244006EB1046CA455CF8270052
:1008A00006EB1444E0D104EB10430531009FC7B1BF
:1008B00008EB8A00012FD0F8040103EB104310D09D
:1008C000C8B2022F08EB8000D0F8040103EB1043FC
:1008D00007D0481CC0B208EB8000D0F8040103EB3D
:1008E000104308EB8E0043EA0241C0F804110020D7
:1008F00001B0BDE8F08F0000D0F8080506F034BA6A
:1009000001EBC10200EB8202D0F80805926C06F000
:100910008FB900000000000001EBC10200EB820271
:10092000D0F80805D2F8882206F0E2B900000000ED
:10093000D0F8080506F01CBA10B54AB2044601F01A
:100940000F00B2F1FF3F00EBC00104EB81020BDDB1
:1009500002F51F71002382F87D3294F8BC240870E0
:10096000012A0BD1022010BD02F13C01012382F8C3
:100970003D3094F8BC240870012AF3D0012084F89B
:10098000BC04206807F098F9002084F8BC0410BD6E
:10099000B0B5044601F00F006268824202D2012025
:1009A000B0BD00BF49B2B1F1FF3F09DD00EBC001AE
:1009B000002304EB810202F51F7182F87D3208E00A
:1009C00000EBC001012304EB810202F13C0182F83B
:1009D0003D3094F8BC2400258D70012A087001D1A7
:1009E0000220B0BD012084F8BC04206807F04CFC54
:1009F000284684F8BC54B0BD10B5044690F8BC0439
:100A0000012801D1022010BD48B20122B0F1FF3F00
:100A1000206884F8BC2405DD07F01AFE002084F865
:100A2000BC0410BD01F00F0107F06EFE002084F839
:100A3000BC0410BD0000000001F00F0101EBC1017A
:100A400000EB8100D0F89002704700000000000029
:100A500070B54CB2064601F00F00B4F1FF3F00EB59
:100A6000C00107DD06EB8104002504F51F7184F841
:100A70007D5206E006EB810C01240CF13C018CF860
:100A80003D404D7808708A60002D0B7118BF488377
:100A9000022B01D10020487196F8BC04012801D135
:100AA000022070BD012086F8BC04306806F0ACFF5F
:100AB000002086F8BC0470BD80B501F00F0E0EEB6F
:100AC000CE0100EB810C0021CCE9A331C368CCF846
:100AD00088228CF87D12012B8CF87CE20CF51F71BA
:100AE00008BFCCF89822DAB2006807F019FC0020A1
:100AF00080BD000000000000B0B5044601F00F0505
:100B00004068854202D90120B0BD00BF48B2B0F1B3
:100B1000FF3F09DD01EBC100002204EB800000F57E
:100B20001F7180F87D2208E005EBC500012204EB6F
:100B3000800000F13C0180F83D2094F8BC240120A5
:100B40008870012A0D7001D10220B0BD84F8BC0468
:100B5000206807F0C5FB1DB1002084F8BC04B0BDBF
:100B6000217B206804F2C44207F05EFB002084F879
:100B7000BC04B0BD0000000080B501F00F0E0EEB0C
:100B8000CE0100EB810C614601F83CEF4FF0000E06
:100B9000C1F814E04FF0010E81F801E0D0F80CE04C
:100BA000CA60BEF1010F0B6108BFCCF858205FFA94
:100BB0008EF2006807F0B4FB002080BD000000004A
:100BC0002DE9F04F89B005688246284607F008FEF7
:100BD00010B109B0BDE8F08FDAF8000007F030FE80
:100BE0000028F6D0D5F80808C0F30D20CAF8FC0498
:100BF000DAF8000007F024FE8007DAF8000003D5D9
:100C0000416901F00201416105F50061049107F0BD
:100C100017FEC006DAF8000005953BD5816921F082
:100C2000100181612C6A04F00F05C4F343400628CB
:100C300018D0022827D147F6F07014EA000622D017
:100C400005EBC50034090AEB800705982246D7F862
:100C5000881207F0F9FDD7F8880200EB1610C7F8E4
:100C6000880207E00AF2C4410822059807F0ECFD6B
:100C7000C4F30A1405EBC5000AEB8000D0F890120B
:100C80002144C0F89012DAF80000816941F01001A7
:100C90008161059D07F0D4FD0003CDF820A040F14F
:100CA0000381DAF8000007F0A7FD002800F0FC80BF
:100CB00006460AF527784FF430644FF0000B0AF22D
:100CC000C440079009E000BF0BF1010B760804F166
:100CD000200408F1240800F0E780F007F4D05FFA60
:100CE0008BF9DAF80000494607F0A2FD8246C007FA
:100CF0006DD0281901218160089F38682118036C84
:100D00008A68FF68012F29D117073BD497065BD467
:100D100012F0280F059D5AD143F20B07C4F6547701
:100D2000BB4202D312F400424AD1D8F8002009692C
:100D30006FF3DF41BBF1000FA2EB0101059D48F805
:100D40000C1C19D1089BD3F88C22002A00F0A68035
:100D5000D3F888020844C3F888020DE043F20B0779
:100D6000C4F65477FF37BB421AD1100428D490063A
:100D7000059D01D52020886008984946FFF7CCFDE5
:100D800025E000BF43F20B00059DC4F6547083427A
:100D90001DD312F400401AD04FF40040886016E0D2
:100DA000BBF1000F07D10899D1F88C1219B90021B5
:100DB000079A07F039FA08984946FFF7ADFD05E0B4
:100DC0004FF4004001E000BF20208860059D5FEAED
:100DD0000A7025D528190821816043F20B01089873
:100DE000C4F654714F1E0068056C2044BD428168F2
:100DF00005D911F400411CBF4FF4004181600898EF
:100E000000F0FEFCBD42059D0AD90898C068012883
:100E100006D108980121079A006807F005FA00BF7B
:100E20005FEACA600CD45FEA8A700FD45FEA8A6016
:100E300025D45FEA8A40DDF820A07FF545AF27E0A2
:100E40002819102181605FEA8A70EFD56869000671
:100E500004D50499486840F48060486018F81D0C77
:100E6000012806D1002008F81D0C0898494600F01A
:100E700097FB2819022181605FEA8A60D9D5281979
:100E8000202181605FEA8A40DDF820A07FF51CAF59
:100E900028194FF40051816016E700BF0121079A1D
:100EA00007F0C2F968E700BFDAF80000AB4607F0C8
:100EB000C7FC400340F1E080DAF8000007F094FC42
:100EC000002800F0D980064600270BF5106003903B
:100ED0000AF2C440029004E0760807F1010700F02E
:100EE000CB80F007F8D0F9B2DAF80000079107F0EC
:100EF0008BFC0446C007039D0AD1200734D4E006CA
:100F000038D460063CD4A00740D42006E4D556E08F
:100F1000049B07F00F004FF0010C05EB47120CFA91
:100F200000F0596B21EA00005863C2F808C0DAF8F3
:100F30000C00012812D107EBC7000AEB8000D0E9B2
:100F40001112114481644FB9DAF84C0030B9DAF863
:100F500000000121029A07F067F900BF5046079987
:100F6000FFF7CEFC2007CAD505EB471008218160AA
:100F7000E006C6D505EB4710102181606006C2D59A
:100F800005EB471040218160A007BED55846394681
:100F900007F0BAFB07EBC7000AEB800010F83F1F11
:100FA000012905D1002101705046079900F0F4FA9B
:100FB00005EB47100221816020067FF58DAF07EB1E
:100FC000C7000AEB8002914659F84C1FC84658F8F2
:100FD000040F8142FFF480AF9346DAF800400B1A09
:100FE0005BF8445FAB4238BF1D4604EB47130694E1
:100FF00005F1030CD3F81859ADB2B5EB9C0F29D30A
:1010000003F5106A02F14805D9F8001081421FD992
:10101000081A0899DBF80040A0420A7B38BF044652
:1010200029680092A3B2DDE9060207F03DFD2868B9
:10103000E11C20442860D8F800002044C8F80000D3
:10104000DAF8182092B2B2EB910FDDD2D9F8001085
:10105000DDF820A0DDF814B081423FF63DAF069ADE
:1010600007F00F00012101FA00F0D2F8341821EA4C
:101070000000C2F834082FE7DAF8000007F0E0FBC0
:1010800000281DD4DAF8000007F0DAFB000536D49A
:10109000DAF8000007F0D4FB000141D4DAF80000D0
:1010A00007F0CEFBC0044DD4DAF80000DDF8108064
:1010B00007F0C6FB8004DAF8000000F164817DE1EE
:1010C0000499486820F0010048609AF8F404012867
:1010D00008D100208AF8F40400215046FFF774FB81
:1010E00003E000BF504600F06FFBDAF800004169F2
:1010F00001F00041416107F0A3FB0005C8D5049849
:101100008068C00702D0504600F0A2FBDAF8000069
:10111000416901F40061416107F092FB0001BDD516
:10112000DAF80000416901F0006141619AF8F414B5
:10113000F1B1504600F08CFBDAF8000007F080FBBC
:10114000C004B1D50499486820F001004860DAF87D
:101150000000102107F0D8FADAF80400002800F0A7
:10116000D780411E00F0030C032915D2002181E035
:1011700001218AF8F414406D0121C0F38300CAF8FC
:10118000F8045046FFF720FBDAF8000007F058FBA0
:10119000C0047FF589AFD5E720F0030E4FF6A058C5
:1011A0004FF6C0554FF6E0544FF600600BF536632E
:1011B00000214FF67F37CFF6FF78CFF6FF75CFF6D9
:1011C000FF74CFF6FF7000BFA3F51872A3F5107679
:1011D000043197608E4553F8082022F4001243F83A
:1011E000082043F8587C53F8602C22F4001243F88E
:1011F000602C53F8602C42F0006243F8602CB7601A
:10120000A3F508765A5922F400125A5143F8387C53
:1012100053F8402C22F4001243F8402C53F8402C91
:1012200042F0006243F8402CB760A3F500761A59EB
:1012300022F400121A5143F8187C53F8202C22F49F
:10124000001243F8202C53F8202C42F0006243F89F
:10125000202CB7601A5822F400121A509F601A68A6
:1012600022F400121A601A6842F000621A6003F158
:101270008003A9D1BCF1000F059849D000F5106298
:1012800000F5306002EB41174FF67F334E01BCF1A1
:10129000010FBB6000EB4115975927F400179751D8
:1012A000AB60875927F400178751875947F00067CB
:1012B00087512DD04F1CBCF1020F4FEA471502EBAE
:1012C000471600EB4717B360565926F400165651DF
:1012D000BB60435923F400134351435943F0006367
:1012E000435115D002314FF67F364F0102EB4113C7
:1012F00000EB41119E60D35923F40013D3518E604B
:10130000C15921F40011C151C15941F00061C151CD
:10131000DDF81080D8F81C0040F00110C8F81C005F
:10132000DAF8300040B1D8F8840040F00B00C8F87B
:10133000840008F1440008E0D8F8140042F22B01C0
:101340000843C8F8140008F1100001680AF2C4420A
:1013500041F00B010160D8F8000020F4FE60C8F8ED
:1013600000009AF80C10DAF8000006F05DFFDAF8D9
:101370000000416901F48051416107F061FA800485
:10138000DAF800001AD506F087FBDAF8000007F05B
:1013900017FACAF81000DAF8004001F075FD9AF863
:1013A00010200146204607F0EFFA504600F0F4F90D
:1013B000DAF80000416901F40051416107F040FA98
:1013C000000707D4DAF8000007F03AFA00060ED456
:1013D00036E000BF504600F0FBF9DAF80000416942
:1013E00001F00801416107F02BFA000628D50599A4
:1013F000886920F080008861DAF8040002281FD391
:10140000012440F2A32503E001342435844217D29D
:101410001AF805100129F7D104F00F00220600EB9D
:10142000C0000AEB800000F13C0158BF00F51F71BD
:10143000DAF8000007F07CF8DAF80400E4E700BF0F
:10144000DAF8000007F0FCF9C00251D4DAF8000025
:1014500007F0F6F98002059D40F18080DAF804106B
:1014600002292BD305F5326001390AF529720123CF
:1014700006E000BF013900F1200002F124021DD076
:1014800007681678012EF5D1B7F1FF3FF2DCDAF8E4
:10149000FC6407F4803706F00106B742EAD102F88F
:1014A000013CAF6947F08007AF616F693F06E1D447
:1014B000D8F8040040F40070C8F80400DAF800001E
:1014C000416901F40011416107F0BAF940004BD5C0
:1014D0005046FFF711FADAF80000416901F0804147
:1014E000416107F0ADF9400745D4FFF772BB00BF7B
:1014F000DAF80400022825D305990AF1640501F5FC
:1015000012640126012705E001372034874205F1E6
:10151000240517D221682A78012AF5D1B1F1FF3FBD
:10152000F2DC07F00F0005F8016C00EBC0000AEBDD
:10153000800000F13C01DAF8000006F0F9FFDAF86B
:101540000400E1E7DAF80000416901F4801141612B
:1015500007F076F98002059D3FF580AFDAF80000CC
:1015600007F06EF94000B3D4DAF8000007F068F92C
:1015700040077FF52EABDAF800004468610704D518
:101580005046FFF7D5F9DAF8000041682143416081
:1015900009B0BDE8F08F0000D0F8080505F060BC88
:1015A000D0F8080505F070BC2DE9F04F8BB000288D
:1015B00000F085800446056890F8BD0428B9002035
:1015C00084F8BC04204600F093F8032084F8BD049E
:1015D000E86BC00501D40020E060206806F01CFE26
:1015E00020680A9004F1040E04F11C0AD4E90C509E
:1015F0009EE80E589AE8C007CDE9085003A88DE888
:10160000005880E8C0070A9806F056FA002853D11F
:1016100020680021002507F06FF9616871B301208F
:101620000023002203EBC30304EB8307D3B287F844
:101630003C200132A7F85630D3B287F83D009942DA
:1016400087F840507D64BD64FD64EBD80020002322
:10165000002200BF03EBC30304EB830787F87C225F
:101660000132D3B287F87D02994287F88002C7F829
:101670008402C7F88802C7F88C02EBD804F1140E74
:1016800004F1240A2268A0680A90D4E903379EE88E
:1016900040589AE80007D4E90C50CDE9085002A858
:1016A000CDE9007680E8005805A880E800071046DC
:1016B0000A9A06F065FB38B1022084F8BD040120C7
:1016C0000BB0BDE8F08F00BF002084F83800012087
:1016D00084F8BD04606A012802D12046FFF760F853
:1016E000206806F03DFB00200BB0BDE8F08F000045
:1016F000B0B5B8B002A9044601F10800B821FEF760
:10170000EEFD00212068C4F20801884202D038B002
:10171000B0BD00BF4FF4802002904FF480102490A1
:1017200002A80024039400F0DBFC08B1FEF7FCFDE6
:1017300000F0D2F844F2D84533A9C5F60205A868EE
:1017400040F00100A860A86800F0010033903398D1
:101750004FF4C05033900220CDE934040A20379072
:1017600000203694C5F60200FEF70AFE2868002124
:1017700040F0006028602868002200F000600190BE
:1017800001986520FEF7CCFF6520FEF7B5FF38B065
:10179000B0BD00000000000010B50446006918B19B
:1017A000022803D1012104E0002102E0FEF7BCFD84
:1017B0000121D4F8080505F0F3FBD4F80805BDE8CD
:1017C000104005F09DBB0000D0F8080505F0CCBB2B
:1017D000D0F8080505F0D4BB10B5044690F8BC0459
:1017E000012801D1022010BD012084F8BC0484F836
:1017F0003810206807F0B4F8002084F8BC0410BD4D
:10180000D0F8082500F2C441104605F0E1BB000005
:1018100010B5044690F8BC04012801D1022010BD87
:101820002068012184F8BC14C16BC90506D4A16AE3
:10183000012903D1816B41F48031816306F000FFFF
:10184000206806F07DFA002084F8BC0410BD00007A
:1018500010B50446D0F8080505F016FC2068D0F84D
:10186000001E41F00101C0F8001E206A002808BFD8
:1018700010BD4EF61050CEF20000016841F0060196
:10188000016010BD00000000B0B544F60C05C5F6BF
:10189000020529684907296806D401F00701081ADA
:1018A00018BF0120B0BD00BF21F007010843286028
:1018B000FEF74EFE044600BF55F8080C800407D41E
:1018C000FEF746FE001BB0F57A7FF5D90120B0BDCA
:1018D0000020B0BD0000000044F60C00C5F6020078
:1018E000016841F080710160704700000000000055
:1018F00080B544F2304EC5F6020E5EF8083C5EF844
:10190000081CC1F3051C5EF8041CBCF1000FDEF8D6
:10191000042019D001F0010103F003034942022B16
:1019200001EAD2016FF35F3100EE101AB8EE400AFF
:1019300010D0012B12D01BB95EF8301C890611D4CF
:101940009FED361A1CE000BF00218160C0E9001144
:1019500080BD00BF9FED301A12E000BF9FED2D1A31
:101960000EE000BF5EF8301C49F20002C0F2D03237
:10197000C1F3C10122FA01F101EE101AB8EE411AC9
:10198000DEF800109FED263A6FF35F2102EE101A89
:10199000DEF80010C1F34621B8EE422A00EE032A19
:1019A00000EE10CAB7EE003AB8EE400A81EE000A27
:1019B00032EE031A02EE101AB8EE422A20EE010AA5
:1019C00032EE031A80EE011ABCEEC11A80ED001A45
:1019D000DEF80010C1F3064101EE101AB8EE411A0C
:1019E00031EE031A80EE011ABCEEC11A80ED011A25
:1019F000DEF80010C1F3066101EE101AB8EE411ACC
:101A000031EE031A80EE010ABCEEC00A10EE101A85
:101A1000816080BD0024744A20BCBE4B0024744CFD
:101A2000000000390000000080B544F2384EC5F6D1
:101A3000020E5EF8103C5EF8101C5EF80C2CC1F330
:101A4000053CDEF80410BCF1000F15D0C908D20621
:101A500001EAE2716FF35F3100EE101A03F0030147
:101A60000229B8EE400A0DD081B95EF8381C89060B
:101A700010D49FED361A1BE000218160C0E90011EF
:101A800080BD00BF9FED301A12E000BF9FED2D1A00
:101A90000EE000BF5EF8381C49F20002C0F2D032FE
:101AA000C1F3C10122FA01F101EE101AB8EE411A98
:101AB000DEF800109FED263A6FF35F2102EE101A58
:101AC000DEF80010C1F34621B8EE422A00EE032AE8
:101AD00000EE10CAB7EE003AB8EE400A81EE000AF6
:101AE00032EE031A02EE101AB8EE422A20EE010A74
:101AF00032EE031A80EE011ABCEEC11A80ED001A14
:101B0000DEF80010C1F3064101EE101AB8EE411ADA
:101B100031EE031A80EE011ABCEEC11A80ED011AF3
:101B2000DEF80010C1F3066101EE101AB8EE411A9A
:101B300031EE031A80EE010ABCEEC00A10EE101A54
:101B4000816080BD0024744A20BCBE4B0024744CCC
:101B5000000000390000000080B544F2404EC5F698
:101B6000020E5EF8183C5EF8181C5EF8142CC1F3E7
:101B7000055CDEF80410BCF1000F15D0C908D205D1
:101B800001EAE2716FF35F3100EE101A03F0030116
:101B90000229B8EE400A0DD081B95EF8401C8906D2
:101BA00010D49FED361A1BE000218160C0E90011BE
:101BB00080BD00BF9FED301A12E000BF9FED2D1ACF
:101BC0000EE000BF5EF8401C49F20002C0F2D032C5
:101BD000C1F3C10122FA01F101EE101AB8EE411A67
:101BE000DEF800109FED263A6FF35F2102EE101A27
:101BF000DEF80010C1F34621B8EE422A00EE032AB7
:101C000000EE10CAB7EE003AB8EE400A81EE000AC4
:101C100032EE031A02EE101AB8EE422A20EE010A42
:101C200032EE031A80EE011ABCEEC11A80ED001AE2
:101C3000DEF80010C1F3064101EE101AB8EE411AA9
:101C400031EE031A80EE011ABCEEC11A80ED011AC2
:101C5000DEF80010C1F3066101EE101AB8EE411A69
:101C600031EE031A80EE010ABCEEC00A10EE101A23
:101C7000816080BD0024744A20BCBE4B0024744C9B
:101C8000000000390000000010B584B0024641F6A3
:101C9000FF7300209B1A70EB01033BDB40F2FF3324
:101CA0009B1A70EB010361DA82F480630B4300F04E
:101CB000F78082F400630B4300F0188182F48052B5
:101CC000114340F0868144F20041C5F60201086DDF
:101CD000C0F30232042A00F2548148F20000C0F23C
:101CE000BB00DFE812F01501370141017601050064
:101CF000C86C0A68520700F04052086802D5002AF2
:101D000000F0B981C00540F17581B2F1805F00F04B
:101D1000CC816FE147F6FF739B1A70EB010355DA34
:101D200082F400430B4300F0F58082F480330B43D0
:101D300000F0008182F40022114340F04A8144F215
:101D40000040C5F60200816D01F44031B1F5003F5D
:101D500000F02081B1F5803F00F02A81002940F099
:101D600010810068000140F10C81F6E082F480737C
:101D70000B4357D082F40072114340F02A8144F2A1
:101D80000041C5F60201086DC0F38212042A00F278
:101D9000F88048F20000C0F2BB00DFE812F0B900A2
:101DA000DB00E5001A010500C86C0A68520700F064
:101DB0004052086802D5002A00F05D81C00540F15C
:101DC0001981B2F1805F00F0708113E182F4005359
:101DD0000B434DD082F48042114340F0FA8044F22C
:101DE0000044C5F60204A06DC0F30270052800F29D
:101DF000C880DFE810F007001101130115011B0175
:101E00001D0100BF01F040F8216A48F64A52C0F6B1
:101E10000002C1F30211515C01F01F01C84004B07F
:101E200010BD00BF44F20041C5F60201086D00F08C
:101E30000702042A00F2A58048F20000C0F2BB00AD
:101E4000DFE802F0668892C7040000BFC86C0A6829
:101E5000520700F04052086802D5002A00F00B81BA
:101E6000C00540F1C780B2F1805F00F01E81C1E083
:101E700044F20040C5F60200016DC1F3024105299C
:101E800000F27F80DFE811F00600DE00E800F200DB
:101E90000201540004B0BDE8104001F01DB800BFBD
:101EA00044F20041C5F60201886DC0F34252042A93
:101EB00000F2678048F20000C0F2BB00DFE802F0E9
:101EC000284A5489040000BFC86C0A68520700F011
:101ED0004052086802D5002A00F0CD80C00540F1CC
:101EE0008980B2F1805F00F0E08083E044F200413D
:101EF000C5F60201886DC0F30262042A41D848F297
:101F00000000C0F2BB00DFE802F003252F64670089
:101F1000086834E044F20040C5F60200016D01F0AB
:101F20004051B1F1005F4DD0B1F1805F26D041BB8F
:101F300000687EE044F20040C5F60200C16C006813
:101F4000C9031CD500011CD501A8FFF76DFD03983E
:101F500004B010BD0868000113D501A8FFF764FDA7
:101F6000019804B010BD00BF0868800009D501A821
:101F7000FFF7F2FD019804B010BD00BF00688001BA
:101F800002D4002004B010BD01A8FFF7B1FC0298F4
:101F900004B010BDC16C0268520701F040510268E4
:101FA00040F17E80002940F07B80C2F3C10064E0F4
:101FB00000688000E5D501A8FFF7CEFD039804B0C6
:101FC00010BD00BF00680001DBD501A8FFF72CFDA4
:101FD000029804B010BD00BFC86C0A68520700F038
:101FE0004052086801D5002A45D0C00502D5B2F19B
:101FF000805F5AD00868B2F1005F00F400314FF002
:10200000000004BF47F64000C0F27D10002908BF61
:10201000084604B010BD00BF206814E020681CE032
:1020200020684007ADD5206825E000BF20682EE07D
:10203000206847F640018003C0F27D1101EAE0709C
:1020400004B010BD006800019BD501A8FFF7ECFCAF
:10205000029804B010BD00BF006880007FF591AF0A
:1020600001A8FFF779FD029804B010BD0168490787
:102070007FF587AF0068C0F3C10049F20001C0F2EC
:10208000D03121FA00F004B010BD00BF006840F666
:102090000011C005C0F23D0101EAE07004B010BDBE
:1020A000D20509D5B1F1805F06D140F60010C0F22B
:1020B0003D0004B010BD00BF0068B1F1005F00F446
:1020C00000324FF0000004BF47F64000C0F27D1020
:1020D000002A08BF104604B010BD00000000000038
:1020E0002DE9F0470446C07844F22C480007C5F6B5
:1020F000020833D5A06E4FEA305103290CD8DFE82F
:1021000001F003111D2600BFD8F8001041F4003182
:10211000C8F800101BE000BF01266078C0070BD094
:1021200020E000BF04F10800022102F00DFE064687
:1021300060B16078C00715D1354646E004F128004B
:10214000022102F095FE06460028F2D1A06ED8F8D2
:10215000241021F440110843C8F8240000266078B8
:10216000C007E9D0A06D04280ED83546DFE800F09E
:102170000412181E1E0000BFD8F80000354640F4B7
:102180000030C8F8000011E00125012760788007C1
:102190001FD452E004F10800002102F0D5FD04E054
:1021A00004F12800002102F063FE05462F461DB110
:1021B000607880070DD440E0D8F82400A16D20F0AD
:1021C000070000250843C8F82400374660788007D8
:1021D00033D5E06D4FEAB01004280DD8DFE800F0E9
:1021E0000412181E1E0000BFD8F8000040F4003092
:1021F000C8F8000012E000BF012501266078400702
:102200001FD455E004F10800002102F09DFD04E018
:1022100004F12800002102F02BFE05462E461DB1D8
:10222000607840070DD443E0D8F82400E16D20F435
:10223000E07000250843C8F824003E466078400757
:1022400036D5D4F8A8004FEA705004280CD8DFE83F
:1022500000F00313191F1F00D8F8000040F40030ED
:10226000C8F8000014E000BF01254FF001096078B4
:10227000000721D456E000BF04F10800002102F05D
:1022800063FD04E004F12800002102F0F1FD0546A1
:10229000A9461DB1607800070ED443E0D8F82C00A1
:1022A000D4F8A81020F4600000250843C8F82C00DA
:1022B000B1466078000735D5D4F8AC004FEA3060FD
:1022C00004280DD8DFE800F00412181E1E0000BF1D
:1022D000D8F8000040F40030C8F8000012E000BF59
:1022E00001250127E078800720D44EE004F10800A2
:1022F000002102F029FD04E004F12800002102F091
:10230000B7FD05462F461DB1E07880070ED43CE0AE
:10231000D8F82C00D4F8AC1020F0E0600025084379
:10232000C8F82C004F46E07880072ED5E06C4FEAC5
:10233000301003280ED8DFE800F00903130900BFAE
:10234000D8F8000040F40030C8F800002E467DB9EF
:1023500012E000BF012501266078C00619D44CE0C8
:1023600004F10800022102F0EFFC05462E461DB1E3
:102370006078C0060DD440E0D8F82000E16C20F071
:10238000300000250843C8F820003E466078C006AB
:1023900033D5206E4FEA303004280DD8DFE800F046
:1023A0000412181E1E0000BFD8F8000040F40030D0
:1023B000C8F8000012E000BF012501276078800600
:1023C0001FD44EE004F10800002102F0BDFC04E03F
:1023D00004F12800002102F04BFD05462F461DB1F7
:1023E000607880060DD43CE0D8F82400216E20F4FB
:1023F000E04000250843C8F824003746607880068E
:102400002FD5606E4FEA3040052809D8DFE800F08C
:10241000040E1404040400BF2E46ADB918E000BF3A
:1024200001250126607840061FD44FE004F1080022
:10243000012102F089FC04E004F12800012102F0EE
:1024400017FD05462E461DB1607840060DD43DE0CF
:10245000D8F82400616E20F4E02000250843C8F875
:1024600024003E466078400630D5D4F8B0004FEAEC
:102470003070052808D8DFE800F0030D13030303CC
:102480002F46ADB918E000BF01250127607800068E
:1024900020D442E004F10800012102F055FC04E0E0
:1024A00004F12800012102F0E3FC05462F461DB18E
:1024B000607800060ED430E0D8F82C00D4F8B010C4
:1024C00020F0E04000250843C8F82C00374660782B
:1024D000000622D5206F58B1B0F1005F0CD0B0F1EA
:1024E000805F2FD1D8F8000040F40030C8F8000019
:1024F0002E469DB908E000BF04F10800012102F05A
:1025000023FC05462E464DB9D8F82400216F20F053
:10251000405000250843C8F824003E46E078C00734
:1025200033D0A06C032813D8DFE800F008021A08A3
:10253000D8F8000040F40030C8F80000A946BDB942
:102540001AE000BF01250126E078C007E9D11CE0B0
:1025500001254FF00109A07840061AD51CE000BF04
:1025600004F10800022102F0EFFB0546A9461DB167
:10257000A07840060DD50FE0D8F82000A16C20F01F
:10258000030000250843C8F82000B146A0784006A3
:1025900002D44F4618E000BFD8F8D40340F480704E
:1025A000C8F8D403FDF7D4FF064600BFD8F8D4031B
:1025B000C00507D4FDF7CCFF801B6428F6D903259E
:1025C000032701E02F468DB12078C00761D0E06F6E
:1025D0004FEAF00005283BD8DFE800F0044046044D
:1025E000040400BF002D2E4646D149E0D8F844101F
:1025F000D4F8B400414011F4407F11D0D8F8441011
:10260000D8F8442042F48032C8F84420D8F8442056
:1026100021F4407122F48032C8F84420C8F84410F4
:10262000B0F5807F40F0DE82FDF792FF064641F272
:10263000883A0325032700BFD8F84400800700F13B
:10264000CF82FDF785FF801B5045F5D9BCE700BF61
:1026500001260125207880071FD44CE004F10800F2
:10266000012102F071FB04E004F12800012102F0D5
:10267000FFFB05462E461DB1207880070DD43AE0B9
:10268000D8F82800E16F20F0380000250843C8F88A
:1026900028003E46207880072DD5A06F052809D850
:1026A000DFE800F0040E1404040400BF2F46ADB9A7
:1026B00018E000BF01270125207840071FD44DE016
:1026C00004F10800012102F03FFB04E004F12800BE
:1026D000012102F0CDFB05462F461DB120784007B1
:1026E0000DD43BE0D8F82800A16F20F007000025AA
:1026F0000843C8F828003746207840072ED5D4F87C
:102700009400052808D8DFE800F0030D1303030345
:102710002E46ADB918E000BF0126012520788006BD
:1027200020D451E004F10800012102F00DFB04E087
:1027300004F12800012102F09BFB05462E461DB145
:10274000207880060ED43FE0D8F82C00D4F89410FE
:1027500020F0070000250843C8F82C003E462078EA
:10276000800631D5D4F890004FEA3070052809D89A
:10277000DFE800F0040E1404040400BF2F46ADB9D6
:1027800018E000BF012701252078400620D451E041
:1027900004F10800002102F0D7FA04E004F1280057
:1027A000022102F065FB05462F461DB12078400648
:1027B0000ED43FE0D8F82800D4F8901020F0E04084
:1027C00000250843C8F8280037462078400631D550
:1027D000D4F89C004FEAB020052809D8DFE800F0C3
:1027E000040E1404040400BF2E46ADB918E000BF67
:1027F000012601252078000620D454E004F10800C9
:10280000002102F0A1FA04E004F12800022102F004
:102810002FFB05462E461DB1207800060ED442E05F
:10282000D8F82C00D4F89C1020F4E0500025084380
:10283000C8F82C003E462078000634D5D4F8A00015
:102840004FEA703005280FD8DFE800F004141A04AE
:10285000040400BF2F46E5B12068010727D4C10654
:102860003ED4000355D475E00127012520680107F7
:10287000F5D51CE004F10800002102F065FA04E03F
:1028800004F12800022102F0F3FA0546002D2F463C
:10289000E2D1D8F82C00D4F8A01020F46040002534
:1028A0000843C8F82C00374620680107D7D5D4F86C
:1028B0008400B0F5805F09D104F12800022102F004
:1028C000D7FA002818BF0127D4F88400D8F82810B8
:1028D00021F440510843C8F828002068C106C0D53B
:1028E000D4F89800B0F5807F09D104F128000221C6
:1028F00002F0BEFA002818BF0127D4F89800D8F8D3
:102900002C1021F440710843C8F82C002068000303
:1029100020D5D4F8A400B0F5003F0FD0B0F5803F2B
:1029200006D078BB04F10800002102F00DFA04E0A3
:1029300004F12800022102F09BFA05462E4655B903
:10294000D8F82C00D4F8A41020F440300025084317
:10295000C8F82C003E46A07840072BD5D4F8880054
:10296000B0F5401F0BD0B0F5001F11D0B0F5801F9F
:102970002AD1D8F8000040F40030C8F800002F46F3
:10298000CDB90DE001260125A0784007E6D411E07D
:1029900004F12800012102F06BFA05462F4655B9D3
:1029A000D8F82800D4F8881020F4401000250843F7
:1029B000C8F828003746A078C0070AD13E462168EB
:1029C000880016D533E000BF01270125A078C00795
:1029D000F4D0206DB0F5803F10D018BBD8F80000BF
:1029E00040F40030C8F800002E4685B12168880008
:1029F0001DD460688A0326D469E000BF04F1080092
:102A0000022102F0A1F90546002D2E46EED1D8F89C
:102A10002000216D20F4803000250843C8F82000F4
:102A2000CCE700BF0126012521688800E1D504F12B
:102A30002800022102F01CFA002818BF0126D4E960
:102A400000108A0343D5D4F880206FF0010303EB14
:102A50003223022B0BD34FEA322343B1012B40F038
:102A6000B980D8F8003043F40033C8F800303DB3E3
:102A7000CA022FD4CA0037D48A0240D44A0048D4AC
:102A8000CA0F55D109025DD4C10766D181076FD441
:102A9000410779D4010700F18380C10600F18C80E1
:102AA000800607D504F12800022102F0E1F9002890
:102AB00018BF0125002D18BF01252846BDE8F08765
:102AC000D8F8283023F440731A43C8F82820354634
:102AD000CA02CFD5D8F82420636F22F000421A43EF
:102AE000C8F82420CA00C7D558F81C2CD4F8B83030
:102AF00022F480421A4348F81C2C8A02BED5D8F82A
:102B00002420E36E22F080721A43C8F824204A0081
:102B1000B6D558F81C2C22F4004248F81C2CD4F8E6
:102B2000BC2058F81C3C1A4348F81C2CCA0FA9D0EA
:102B3000D8F82020636D22F040521A43C8F82020B4
:102B40000902A1D5D8F82810D4F88C2021F440012E
:102B50001143C8F82810C10798D004F108000021DB
:102B600002F0F2F8002818BF0546606881078FD58B
:102B700004F10800012102F0E7F8002818BF05461B
:102B8000606841077FF586AF04F10800022102F07A
:102B9000DBF8002818BF0546606801077FF57DAFA8
:102BA00004F12800002102F063F9002818BF05464F
:102BB0006068C1067FF574AF04F12800012102F0BE
:102BC00057F9002818BF0546606880067FF572AF88
:102BD00068E700BF0125CA027FF54CAF7AE700BF66
:102BE000D4F8B4004FF6CF7358F81C2CC0F2FF0392
:102BF00000F4407122F47C5203EA10136FF31F308B
:102C0000B1F5407F08BF1A43002548F81C2CD8F8BE
:102C100044100843C8F84400FFF7BBBC00000000A4
:102C20002DE9F04381B0002800F02A8142F200082B
:102C30000446C5F200288946D8F8000000F00F00CD
:102C400088420ED2D8F8000020F00F0040EA0900B8
:102C5000C8F80000D8F8000000F00F00484540F028
:102C60000F81206844F218474107C5F602070AD5CC
:102C700021693A6802F07002914204D93A6822F060
:102C800070021143396001070AD561697A6802F060
:102C90007002914204D97A6822F07002114379607F
:102CA000C1060AD5A1697A6802F4E062914204D9AA
:102CB0007A6822F4E0621143796081060AD5E169FD
:102CC000BA6802F07002914204D9BA6822F0700228
:102CD0001143B96010F002010AD0E2683B6803F0CA
:102CE0000F039A4204D93B6823F00F031A433A605A
:102CF000C20746D0386820F47061D4E90102012887
:102D000041EA0201396009D003280DD0022811D10F
:102D100057F8181C890340F1B38010E057F8181CCD
:102D2000C90540F1AD800AE057F8181C890140F14F
:102D3000A78004E057F8181C490740F1A18057F814
:102D4000081C21F00701084347F8080CFDF700FCB8
:102D5000064641F2883500BF57F8080C616800F05C
:102D60003800B0EBC10F09D0FDF7F2FB801BA84281
:102D7000F2D9032001B0BDE8F08300BF206800F065
:102D8000020151B1E1683A6802F00F02914204D2A7
:102D90003A6822F00F0211433960D8F8001001F0B0
:102DA0000F0149450DD9D8F8001021F00F0141EA73
:102DB0000901C8F80010D8F8001001F00F014945CA
:102DC0005ED141070AD521693A6802F0700291424A
:102DD00004D23A6822F070021143396001070AD523
:102DE00061697A6802F07002914204D27A6822F036
:102DF000700211437960C1060AD5A1697A6802F4AC
:102E0000E062914204D27A6822F4E0621143796070
:102E100080060AD5E069B96801F07001884204D2E1
:102E2000B96821F070010843B86000F085F839688E
:102E300048F64A533A68C0F60003C1F3032102F092
:102E40000F02595C9A5C01F01F0120FA01F102F0B7
:102E50001F0040F20C0221FA00F0C2F200421060A2
:102E600040F2040040F20802C2F20040C2F2004206
:102E70000068116001B0BDE8F043FDF7B5BB00BFCD
:102E8000012001B0BDE8F08380B500F055F844F2B0
:102E9000184148F64A53C5F60201C0F600030A6815
:102EA000096801F00F01C2F30322595C9A5C02F039
:102EB0001F0220FA02F201F01F0040F20C0122FA78
:102EC00000F0C2F20041086040F20801C2F2004185
:102ED0000A6080BD0000000080B500F02DF844F2CB
:102EE000184C48F64A51C5F6020CC0F60001DCF851
:102EF0000020DCF8003003F00F03C2F30322CB5CA8
:102F00008A5C02F01F02D04003F01F0240F20C0363
:102F100020FA02F2C2F200431A6040F20803C2F241
:102F200000431860DCF80400C0F30210085C00F0F5
:102F30001F0022FA00F080BD44F20041C5F60201F4
:102F40000869C0F3C200032810D002282ED098BB15
:102F50000868800649F20000C0F2D03058BF7047C0
:102F60000968C1F3C101C840704700BF8A6A886A16
:102F7000C0F3051CC86ABCF1000F4B6B22D000F0F7
:102F8000010002F003024042022A00EAD3006FF37C
:102F90005F3000EE100AB8EE400A15D0C2B90868DA
:102FA000800619D49FED281A23E000BF47F64000A1
:102FB000C0F27D10704700BF40F60010C0F23D0027
:102FC000704700BF002070479FED1E1A11E000BF40
:102FD0009FED1B1A0DE000BF086849F20002C0F225
:102FE000D032C0F3C10022FA00F001EE100AB8EEB0
:102FF000411A086B9FED153A6FF35F2002EE100A3D
:10300000086BC0F34620B8EE422A013000EE032AD6
:1030100000EE10CAB7EE003AB8EE400A81EE000AA0
:1030200032EE031A20EE010A01EE100AB8EE411A40
:1030300080EE010ABCEEC00A10EE100A704700BF15
:103040000024744A20BCBE4B0024744C000000399C
:10305000F0B581B0002800F063810446007844F2A6
:103060000046C007C5F6020622D12078800740F14D
:10307000BC80306910F03801B06A3FD0182908BF11
:103080005FEA80703AD0E0683168002862D021F0B1
:10309000190108433060FDF75BFA054630684007C8
:1030A00048D4FDF755FA401B0228F7D977E100BF55
:1030B000306900F03801B06A102905D018290BD109
:1030C00000F00300022807D130688003CDD5606886
:1030D0000028CAD124E100BF606800284CD0B0F5B8
:1030E000A02F61D0B0F5803F62D0306820F48030EE
:1030F0003060306820F480205DE000BF3068400719
:10310000E06802D5002800F00B81316821F0190138
:1031100008433060FDF71CFA054600BF30684007E1
:1031200008D4FDF715FA401B02284FF00300F5D92B
:1031300021E200BFFDF704FA41F20301884249D8B9
:1031400020697168402821F47C314BD141F4003072
:103150004AE000BF21F001003060FDF7F9F90546B3
:103160003068400741D5FDF7F3F9401B02284FF0C6
:103170000300F5D9FFE100BF306820F480303060F3
:10318000306820F480203060FDF7E2F9054600BF8A
:10319000306880037FF569AFFDF7DAF9401B6428DA
:1031A0004FF00300F4D9E6E1306840F4802030604D
:1031B000306840F480303060FDF7CAF9054600BF42
:1031C000306880033FF551AFFDF7C2F9401B64281A
:1031D000F6D9E4E07068216920F0FE4040EA016021
:1031E00002E000BF41EA003070602078C00654D58C
:1031F000306900F03801B06A082905D0182919D1C2
:1032000000F00300012815D13068C00503D5E0693E
:10321000802840F08580FDF793F941F20301884250
:103220001ED8206A7168202821F0F84132D141F07F
:10323000804031E0E0690028306819D040F080001B
:103240003060FDF785F905463068C005E3D4FDF729
:103250007FF9401B02284FF00300F5D98BE100BF36
:10326000F068216A20F07C5040EA0160F06014E0D0
:1032700020F080003060FDF76BF905463068C0052E
:103280000BD5FDF765F9401B02284FF00300F5D977
:1032900071E100BF41EA806070602078000743D48C
:1032A0002078800654D42078400765D4656A9DB3A1
:1032B000306900F03800182840F0A880012DB16A6C
:1032C000306B2DD001F00302A36A9A4228D1C1F3DA
:1032D0000511E26A914223D10146226B6FF35F210F
:1032E000013A91421CD1C0F34622616B01398A42F6
:1032F00016D1C0F30642A16B01398A4210D1C0F346
:103300000660E16B013988420AD1706BA16CC0F391
:10331000CC00814240F03281002001B0F0BD00BFFE
:10332000012001B0F0BD00BF60690028706F39D086
:1033300040F001007067FDF70BF90546706F8007DC
:10334000AED4FDF705F9401B0228F7D927E000BFEE
:10335000A0690028306847D040F480503060FDF705
:10336000F7F80546306880049DD4FDF7F1F8401B5E
:103370000228F7D913E000BFD6F8000440F48070AB
:10338000C6F80004FDF7E4F8054600BFD6F80004CF
:10339000C00519D4FDF7DCF8401B6428F6D90320DA
:1033A00001B0F0BD20F001007067FDF7D1F80546CF
:1033B000706F80077FF574AFFDF7CAF8401B0228D5
:1033C0004FF00300F4D9D6E0A068002840D00528CB
:1033D00058D001285AD0306F20F001003067306F8C
:1033E00020F0040055E000BF20F480503060FDF76D
:1033F000AFF80546306880047FF555AFFDF7A8F8B3
:10340000401B02284FF00300F4D9B4E0306820F0EC
:1034100080703060FDF79CF8022D05460CD100BF8E
:103420003068800148D5FDF793F8401B02284FF023
:103430000300F5D99FE000BF306880017FF56CAFD5
:10344000FDF786F8401B02284FF00300F4D992E004
:10345000306F20F001003067306F20F004003067DB
:10346000FDF776F8054641F28837306F80077FF523
:103470001DAFFDF76DF8401BB8424FF00300F4D9C3
:1034800079E000BF306F40F004003067306F40F0EB
:1034900001003067FDF75CF8054641F2883700BF50
:1034A000306F80073FF502AFFDF752F8401BB8427E
:1034B0004FF00300F4D95EE004F12807B06A40F24F
:1034C000F33188438ECF0843591E40EA02104FF46F
:1034D0007E426FF35F21B06202EB47204FF4FE02A1
:1034E00080B2E36B0844A16B02EB01414FF0FE4256
:1034F00001F4FE0102EB0362084402F0FE410844BD
:103500003063F06A4FF6F87120F00100F062706BE2
:10351000A26C884340EAC2007063F06A216C20F01C
:103520000C000843F062F06A616C20F0020008436E
:10353000F062F06A40F48030F062F06A40F40030EB
:10354000F062F06A40F48020F062F06A40F001001E
:10355000F062306840F080703060FCF7F9FF04469C
:10356000306880013FF5D8AEFCF7F2FF001B02285F
:103570004FF00300F4D901B0F0BD00BFF06A20F0B5
:103580000100F062FCF7E4FF0546FCF7E1FFA8420A
:10359000FBD0706B4FF6F871A26C884340EAC20012
:1035A0007063F06A40F00100F062002001B0F0BDED
:1035B000704700000000000070470000000000009D
:1035C000704700000000000070470000000000008D
:1035D0002DE9F04184B0044603200D4684F8300004
:1035E000A06B032810D14FF08050616B40F6FF783C
:1035F00008436063606BC1F6E07868B32068C0F888
:10360000388001258EE000BF002D53D0B5F5004F66
:10361000E9D0B5F5804F65D100200021CDE9020049
:10362000206802F0B5FE800160D402A9204602F0B5
:10363000DBFE0028D9D19DF80E0040074ED5616C05
:103640002068090402F0C4FA0028CED120680221C3
:1036500002F032FBC9E700BF4FF480300021FEF7D3
:1036600013FB08B343F689316369C5F2E651A268DA
:10367000A0FB01166168D4F810C0B3EB166F4AD2F4
:10368000A76DB7F5007F46D0B7F5807F32D1002B0C
:103690003ED05F00B0FBF7F04FF28007C0F2FA2790
:1036A000B84288BF730E36E0606B40F00060606324
:1036B000A7E700BF00200021CDE90200206802F04A
:1036C00067FE800112D402A9204602F08DFE002878
:1036D0007FF48BAF9DF80E00C00737D14FF08060AC
:1036E00083E700BF4FF000607FE700BF4FF400604A
:1036F0007BE700BF4FEA166663B15F00B0FBF7F0EF
:1037000047F64007C0F27D17B84288BF334602E053
:10371000730E00E033462068CDE900C32B4602F06B
:103720003BFE002520684FF4007102F0B1FA30B181
:1037300021680125C1F83880616B0843606301206E
:1037400084F83000284604B0BDE8F081616C206840
:10375000090402F03DFA00287FF447AF20680021F9
:1037600002F0AAFA41E700007047000000000000E4
:10377000D0E91B2C130E0B70130A4B80120642EA81
:103780001C224A60D0E91C230A721A0E4A7290F871
:103790007B2042EA0322CA60806FC0F303520A749E
:1037A000C0F30B224A82C0B20122400808750020F3
:1037B0004A7570470000000080B5D0F838C0D0E9E5
:1037C000173EBCF1010F4FEA93720A70C3F3836294
:1037D0004A70C3F301628A704FEA1342CA704FEA1B
:1037E00013220A714B714FEA1E52CA80CEF3034274
:1037F0000A72CEF3C0324A72CEF380328A72CEF3AE
:103800004032CA72CEF300320A734FF000024A739C
:1038100038D0BCF1000F40F0898040F6FC72436E56
:1038200002EA8E0242EA93720A61426EC2F3C263F6
:103830000B75C2F302634B75C2F342538B75C2F32F
:103840008243CB75C2F3C2330B76D1F810C00B7E26
:103850000CF1010C03F0070302330CFA03FCC0F86F
:1038600048C00B7A03F00F0E012303FA0EF3C36472
:103870004FEA532E0EFB0CF303654FF400734365C0
:1038800013E000BF0EF03F02B0F8663043EA024298
:103890000A610A694FF4806303EB822282644FF469
:1038A00000734365C0E91332426EC2F380334B7636
:1038B000C2F3C6138B7602F07F02CA76806EC20F07
:1038C0000A77C0F341724A77C0F382628A77C0F305
:1038D0008352CA77C0F3405281F82020C0F30043DE
:1038E000002281F8212081F82230C0F3C03381F812
:1038F0002330C0F3803381F82430C0F3403381F8A3
:103900002530C0F3003381F82630C0F3812381F8DD
:103910002730C0F3012381F82830C0B2400881F875
:103920002900012081F82A00104680BD016840F678
:10393000FF72C1F6E0728A630122416B41F080514F
:10394000416380F83020104680BD00000000000078
:103950000246806B0860D36B106C4B60536CC1E9FE
:103960000203906C0861D06C4861106D8861002082
:10397000526DCA617047000010B5416C0446006882
:10398000090402F039FB28B1616B08436063002031
:1039900010BD00BF2068002102F0FAFCC0F34320F4
:1039A00010BD0000000000002DE9F04196B0044673
:1039B00090F83000032805D10125284616B0BDE84F
:1039C000F08100BF40F6FF780D46C1F6E078FCF7C5
:1039D000BFFD06462068002102F0DAFC800125D4F4
:1039E0002068402102F054F90146E0B9616C20687A
:1039F000090402F0EDF80146A8B94FF0FF3010902D
:103A0000402011906020129002201390002014900A
:103A100001201590206810A902F0D6FB206802F062
:103A20006FFB0146F0B1606B606301E04FF4006131
:103A300020680125C0F83880626B1143616384F807
:103A400030504FF4007102F023F90028B5D02168FE
:103A50000125C1F83880606384F83050284616B0DC
:103A6000BDE8F0816F4606E0FCF772FD801B4FF069
:103A700000410130DCD02068416B11F4957F416B2F
:103A800022D10904F0D502F0A3FC3860206802F0CE
:103A90009FFC7860206802F09BFCB860206802F010
:103AA00097FCF860206802F093FC3861206802F00F
:103AB0008FFC7861206802F08BFCB861206802F00E
:103AC00087FCF8612037CFE7090715D4416B8907D8
:103AD00014D4406B800613D42068416BC90411D5FF
:103AE00002F076FC47F8040BFCF732FD801B4FF028
:103AF00000410130F0D19BE7082199E7022197E7C7
:103B0000202195E740F63A716FF0FF0CC1F60001F5
:103B100081639DE88E00CEB2B6092E70C1F34016C7
:103B20006E700CEA112646EA1161698011BA69606B
:103B30002B72190AFAB26972C3F30351A9720CEA23
:103B400013411144A981C7F38521A973C7F301214A
:103B5000E9731109297407F00F0169749DF81310B6
:103B6000A97400254FF4007102F092F800287FF448
:103B70006EAF22E70000000070B582B00446006816
:103B8000E56A416B090405F008062BD556B3A16A16
:103B9000202925D3656A02F01BFC2860206802F00A
:103BA00017FC6860206802F013FCA860206802F02F
:103BB0000FFCE860206802F00BFC2861206802F02E
:103BC00007FC6861206802F003FCA861206802F02D
:103BD000FFFBE86105F120006062A06A2038A06266
:103BE00002B070BD416BC90540D4416B49046FD52B
:103BF000002E6DD0216A2029F2D3E66901AD31682B
:103C00000191294602F0E8FB70680190206829467E
:103C100002F0E2FBB06801902068294602F0DCFB6C
:103C2000F06801902068294602F0D6FB30690190C7
:103C30002068294602F0D0FB70690190206829466F
:103C400002F0CAFBB06901902068294602F0C4FB6B
:103C5000F069019020682946203602F0BDFB206AF9
:103C6000E6612038206202B070BD00BF4FF4807161
:103C70008163C16B4CF23A129143C163C16B002E58
:103C800021F08051C163C16821F04001C1606BD156
:103C90002906A5D5002615F0220F8662C6620665A4
:103CA00008D002F041FA28B1616B084360632046F6
:103CB000FFF75AFD15F0300F4FF0010084F8300087
:103CC000E66202D0204600F0E3FBA80766D187E752
:103CD000416B11F03A0F416B66D089077CD4416B80
:103CE000090700F18180416B890600F18580416BF5
:103CF000C90603D5616B41F01001616340F63A716A
:103D0000C1F600018163C16B21F49D71C163C1687B
:103D100021F04001C160C16A41F40051C162C16833
:103D200041F08001C16002F0FFF92168626B10432D
:103D30006063C868002E20F08000C8604FF4006007
:103D4000886363D128067FF54BAF606B00283FF492
:103D500047AFC86B20F08050C86300200865012081
:103D600084F8300057E000BF15F0220F08D002F0B1
:103D7000DBF928B1616B084360632046FFF7F4FC70
:103D8000206840F63A71C1F600018163012084F891
:103D90003000A8074FF00000E06217D0204602B0C4
:103DA000BDE8704000F070BBC9007FF519AF4FF05F
:103DB00080518163006D400705F0200032D4C8BBFC
:103DC000204602B0BDE87040FFF7F6BB204602B0C7
:103DD000BDE8704000F05CBB616B41F002016163C3
:103DE000416B09077FF57FAF616B41F008016163AB
:103DF000416B89067FF57BAF616B41F02001616308
:103E0000416BC9063FF576AF78E700BF012084F823
:103E100030000020E062204602B0BDE87040FFF7AD
:103E2000A3BC00BF60B9204602B0BDE87040FFF7F8
:103E3000BFBB00BF204602B0BDE87040FFF7C4BB67
:103E4000204602B0BDE87040FFF7BABB000000009A
:103E5000B0B586B050B3044690F8300020B90020C9
:103E60002076204600F084F9042084F830002046B3
:103E700000F04AF8D0B901A92046FFF795FDA8B98E
:103E80009DF814009DF81510A26B012A04D1084377
:103E900004D04FF4007003E0002001E04FF4807084
:103EA000A065E1682046FFF793FB18B1012006B03A
:103EB000B0BD00BFFCF74CFB054607E0616B084353
:103EC0006063FCF745FB401B013013D0616C206838
:103ED000090402F091F80028F0D12068002102F0D6
:103EE00057FA00F4F050B0F5006FEAD1002060639B
:103EF000E06203E04FF0004060630320012184F89A
:103F0000301006B0B0BD0000F0B58FB004464FF4DD
:103F1000803000210027FDF7B7FEA8B348F65931DD
:103F20000546000AC0F24F11A0FB010120680022E3
:103F300000230E0900210097019602F02DFA206857
:103F400002F03EFA43F20050C0F20C00854202D368
:103F50007000B5FBF0F542F21010C0F20100B0FBAA
:103F6000F5F00130FCF7F8F900200490206801F02A
:103F7000B7FE98B1012184F83010626B1043606382
:103F800008460FB0F0BD00BF012184F830104FF09B
:103F90000060606308460FB0F0BD00BF206801F00C
:103FA000D7FEB0F1004F0BD10020E063206801F094
:103FB00097FE0028DED1E06B012803D00AE000BFA5
:103FC0000120E0632068002101F002FE10B14FF0F3
:103FD0008050CFE704984FF6FE76B0421ED80025F9
:103FE000CCF210152068002101F0F2FD0028C1D1AB
:103FF0002068294601F000FEC0BB2068002102F0C5
:10400000C7F90499013104910499B14202D8B0F181
:10401000FF3FE7DCC0F3807001E000BF002004999F
:104020004FF6FF72914203D34FF08070A2E700BFBA
:10403000A0630020ADF80E00FCF78AFA0546206860
:1040400002F0A2F9B0B1A06B032817D120680421B7
:1040500002F09EF9000D206404A92046FFF7ACFB96
:1040600000285DD04FF0805084E700BF4FF08050B3
:1040700080E700BF4FF080607CE700BF206801F060
:10408000FFFE00287FF476AF2068002102F080F95F
:10409000E0662068042102F07BF92067206808218F
:1040A00002F076F9606720680C2102F071F9A16BCB
:1040B000A0670329CAD00DF10E0641F287372068A8
:1040C000314601F0ADFF00287FF454AFFCF740FA11
:1040D000401BB84246D8BDF80E100029EFD0A06BA7
:1040E0000328B3D061642068090401F01DFF002893
:1040F0007FF440AF2068002102F04AF9E0652068B3
:10410000042102F045F920662068082102F040F9F8
:10411000606620680C2102F03BF9A06696E700BFBC
:10412000616C2068090401F097FE00287FF422AF3B
:1041300020684FF4007101F0ABFD78B1216840F6C2
:10414000FF72C1F6E0728A63616B0843012160630C
:1041500084F8301008460FB0F0BD00BF00210846BB
:104160000FB0F0BD4FF0004004E700000000000079
:104170002DE9F043B7B0044602A828309821002565
:104180003295CDE93555CDE93355FCF7A8F847F21E
:1041900000012068C5F20021884203D037B0BDE895
:1041A000F08300BF4FF480300290169002A8039570
:1041B0004FF00209CDF810904FF00C08CDE90589B9
:1041C000CDF81C9001210891C02109912021CDE951
:1041D0000A15FDF785FF08B1FCF7A6F844F2E040A8
:1041E00040F60004C5F60200C5F6020432AD002612
:1041F00050F80C1C032741F4803140F80C1C50F897
:104200000C1C01F4803101910199016841F0040115
:104210000160016801F0040101910199016841F018
:10422000080101600068294600F00800019001982B
:104230004FF4F850CDE9320920463496CDE935786F
:10424000FCF79EF804202946CDE9320934A880E81D
:10425000C00104F58060FCF793F8312000210022B2
:10426000FCF75EFA3120FCF747FA37B0BDE8F0837F
:104270002DE9F04387B0984615460E460446FCF7F4
:1042800067F99EB1074694F83000012816D1002145
:10429000616308EB0500226D904217D9606B40F016
:1042A00000706063012007B0BDE8F083606B40F0F0
:1042B00000606063012007B0BDE8F083606B40F0F0
:1042C00000506063012007B0BDE8F083032084F84C
:1042D000300020684FF0FF33A26B4FF00209C1623B
:1042E000012A01934FEA482302934FF0900303936E
:1042F000CDF81090059118BF6D02069101A901F04B
:1043000063FF2068B8F1020FC16841F04001C1604D
:1043100016D32946C4F82C9001F076FDB8B1216877
:1043200040F6FF72C1F6E0728A63616B0843606316
:10433000012084F830000021E16207B0BDE8F0837D
:104340000121E162294601F073FD0028E7D1DDF883
:104350003890029D05E000BFFCF7FAF8C01B484505
:1043600048D22068416B11F4957F27D1416B090435
:10437000F2D5202DF0D302F02BF83060206802F047
:1043800027F87060206802F023F8B060206802F01F
:104390001FF8F060206802F01BF83061206802F01E
:1043A00017F87061206802F013F8B061206802F01D
:1043B0000FF8F0612036203DCEE700BFC168B8F1AC
:1043C000020F21F04001C160416B27D311F48071CD
:1043D00024D0A16B032921D001F0A6FE01460028BC
:1043E00020681BD040F6FF72C1F6E0728263606BFA
:1043F00008439CE7206840F6FF71C1F6E0718163D5
:10440000606B40F000406063012084F830000020C1
:10441000E062032007B0BDE8F08300BF416B0907ED
:1044200012D4416B890719D4416B890620D440F618
:104430003A71C1F600018163012084F83000002048
:1044400007B0BDE8F08300BF40F6FF71C1F6E07130
:104450008163606B40F0080069E700BF40F6FF71C0
:10446000C1F6E0718163606B40F002005FE700BF5E
:1044700040F6FF71C1F6E0718163606B40F020008F
:1044800055E7000000000000704700000000000039
:1044900070470000000000002DE9F04788B0984602
:1044A00015460E460446FCF753F89EB1824694F832
:1044B0003000012816D10021616308EB0500226D50
:1044C000904217D9606B40F000706063012008B023
:1044D000BDE8F087606B40F000606063012008B0C9
:1044E000BDE8F087606B40F000506063012008B0C9
:1044F000BDE8F087032084F8300020684FF0FF33D8
:10450000A26BC162012A02934FEA482303934FF042
:104510009003CDE90431069118BF6D02079102A9FD
:1045200001F052FE2068B8F1020FC16841F040016D
:10453000C16017D32021E162294601F01DFEC0B100
:10454000216840F6FF72C1F6E0728A63616B08432E
:104550006063012084F830000021E16208B0BDE80A
:10456000F08700BF1021E162294601F019FE002802
:10457000E6D1DDF84090039F01AD05E0FBF7E8FFD1
:10458000A0EB0A00484563D22068416B11F48D7F8F
:1045900042D1416B4904F1D5202FEFD331780191FD
:1045A000727841EA02210191B27841EA0241019117
:1045B000F27841EA02610191294601F00DFF70682D
:1045C00001902068294601F007FFB068019020683B
:1045D000294601F001FFF06801902068294601F0AA
:1045E000FBFE306901902068294601F0F5FE7069F4
:1045F00001902068294601F0EFFEB0690190206823
:10460000294601F0E9FEF06901902068294620362C
:1046100001F0E2FE203FB1E7C168B8F1020F21F0DE
:104620004001C160416B25D311F4807122D0A16B90
:1046300003291FD001F078FD01460028206819D019
:1046400040F6FF72C1F6E0728263606B08437FE759
:10465000206840F6FF71C1F6E0718163606B6063B2
:10466000012084F830000020E062032008B0BDE89B
:10467000F08700BF416B090712D4416B890719D439
:10468000416BC90620D440F63A71C1F6000181633E
:10469000012084F83000002008B0BDE8F08700BF9A
:1046A00040F6FF71C1F6E0718163606B40F0080075
:1046B0004EE700BF40F6FF71C1F6E0718163606BA9
:1046C00040F0020044E700BF40F6FF71C1F6E07120
:1046D0008163606B40F010003AE7000000000000CA
:1046E000411E0020B0EB116F02D00120704700BFC7
:1046F0004EF21002F023CEF2000251604EF623512A
:10470000CEF200010B70072190601160704700002D
:10471000FEE700000000000070B50446D0F8D402A7
:1047200004EB8000D0F8C052002D08BF70BD41F2EC
:10473000180028440179D9B140F210062046C2F28F
:104740000046317802F078FC687A02280ED1317880
:10475000204602F071FC40F21100C2F200400178E4
:104760002046BDE8704002F067BC00BF70BD00BFCE
:1047700000680028E0D0687A0028DDD140F21100FE
:10478000C2F200400178204602F056FCD4E7000057
:10479000B0B50446D0F8D40204EB8000D0F8C05283
:1047A000002D08BFB0BD687A022811D140F2100078
:1047B000C2F200400178204602F03EFC40F21100B7
:1047C000C2F2004001782046BDE8B04002F034BC9F
:1047D00049B2B1F1FF3F25DC012823D041F230007E
:1047E0000D232A1845F25530C5F2423010600120E1
:1047F000107340F21000C2F20040017800202872CD
:10480000204602F051FC40F211001F23C2F200408A
:10481000017841F210002A182046BDE8B04002F0AD
:104820005BBB00BFB0BD0000B0B50446D0F8D402F9
:1048300004EB8000D0F8C052ADB3287AC11E022923
:1048400022D241F230002A1845F25530C5F24230EA
:1048500010600020107340F210000D23C2F20040DF
:10486000017800202872204602F01EFC40F2110060
:104870001F23C2F20040017841F210002A1820469E
:10488000BDE8B04002F028BB02280CD141F21D0067
:104890002844017841F21F002A18204600F0A8FBA6
:1048A000B0F1FF3F00DDB0BDD4F8D40204EB8000CE
:1048B000D0F8C052002D08BFB0BD41F230002A1818
:1048C00045F25530C5F24230106001201073C2E746
:1048D000F0B581B00446D0F8D40204EB8000D0F8E3
:1048E000C052002D5AD0287A41F210016F180128C9
:1048F0004AD0002852D140F21106C2F20046D7E950
:104900000101C7E909013178204602F055FA1F2854
:104910000ED145F255313868C4F24231884207D190
:10492000797B012904D8B87B113810F1110F71D8A7
:10493000797B05222023204601F01EF9D4F8D40209
:1049400004EB8000D0F8C0720220687237B341F2E5
:10495000180038440179002950D040F21005204653
:10496000C2F20045297802F067FB787A022815D157
:104970002978204602F060FB3178204601B0BDE87E
:10498000F04002F059BB00BF797B41F21F002A18AA
:10499000204600F02DFBB0F1FF3F01DD01B0F0BD7E
:1049A000D4F8D40204EB8000D0F8C052002DF5D02A
:1049B00041F230000D232A1845F25530C4F242303E
:1049C00000F1805010600120107340F21000C2F21C
:1049D0000040017800202872204602F065FB40F27A
:1049E00011001F23C2F20040017841F210002A1882
:1049F000204601B0BDE8F04002F06EBA0068002821
:104A0000ABD0787A0028A8D13178204602F014FB88
:104A1000A3E700BF41F21F002A18204600F0E8FA81
:104A2000297AB0F1FF3F0DDD481E0328B6D3EA68AE
:104A300092B105F11001204601B0BDE8F04000F050
:104A4000A7B800BF052901D1012106E0204601B029
:104A5000BDE8F040FFF760BE0021204601B0BDE890
:104A6000F04000F065B80000D0F8D41200EB8100EF
:104A7000D0F8C00200281CBF00210172704700005E
:104A800070B50446D0F8D40204EB8000D0F8C052D0
:104A9000002D08BF70BD05F5835100222A810A80D0
:104AA000D0F8C4028A7001680020884740F21106DD
:104AB0002046C2F20046317802F06AF940F2100056
:104AC000C2F200400178204602F062F9317841F2EA
:104AD00010002A181F232046BDE8704002F0FCB9E0
:104AE00070B50446D0F8D40204EB8000D0F8C05270
:104AF000002D08BF70BD40F21000C2F200400178E6
:104B00004FF480702881204602F06AF840F21106C6
:104B10002046C2F20046317802F062F8317841F264
:104B200010002A181F232046BDE8704002F0D4B9B7
:104B3000B0B50446D0F8D40204EB8000D0F8C052DF
:104B4000002D08BFB0BD41F230000D232A1845F2F8
:104B50005530C5F24230106040F21000C2F2004001
:104B60001173017800202872204602F09DFA40F26D
:104B700011001F23C2F20040017841F210002A18F0
:104B80002046BDE8B04002F0A7B9000000000000D8
:104B900010B5D0F8D43200EB8303D3F8C0E2BEF1F5
:104BA000000F08BF10BD8C4641F2180171440C6A19
:104BB0000B68A41A0C62002481F8244040F2100112
:104BC000C2F20041934228BF1346097804228EF8AE
:104BD00008206246BDE8104002F066BA00000000FE
:104BE00070B586B044F2E0400025C5F60200059598
:104BF00041F2000400220168C5F6020441F01001F0
:104C000001600168082601F0100100910099016817
:104C100041F080010160016801F08001009100997C
:104C2000016841F004010160016801F00401009194
:104C30000099016841F001010160016801F0010182
:104C400000910099016841F00801016000680821A5
:104C500000F00800009000982046FBF769FC012056
:104C600001A9CDE90205204601960495FBF788FBD2
:104C700006B070BD0000000080B541F6F43047F288
:104C80000001C2F20040C5F200214FF480420160F1
:104C90000021C0E90111C0E9032105214161FFF7AD
:104CA000D7F8002808BF80BDBDE88040FBF73CBBBB
:104CB00080B541F20C4040F21401C2F20040C2F251
:104CC0000041002201F078FF08B1FBF72DFB41F213
:104CD0000C4040F28801C2F20040C2F2004102F0F2
:104CE0008BFB08B1FBF720FB41F20C4040F2EC01DA
:104CF000C2F20040C2F2004102F0E6FA08B1FBF74E
:104D000013FB41F20C40C2F2004002F0A1FB08B1DB
:104D1000FBF70AFBBDE88040FCF7DEBD00000000A9
:104D2000FEE70000000000007047000000000000E7
:104D300041F2E860C2F20040FBF742BF0000000011
:104D40007047000000000000F0B581B044F22C472D
:104D5000C5F6020757F8042C02F00302032A03D118
:104D6000012001B0F0BD00BF054657F82C0C0C46E1
:104D700020F0806047F82C0CFBF7EAFB064600BFEA
:104D800057F82C0C000105D5FBF7E2FB801B02282D
:104D9000F6D964E057F8040CEE6895E80E0020F4AC
:104DA0007C30012C40EA0130A2F101016FF35F2158
:104DB0004FF47E4202EB432247F8040C92B24FF0CC
:104DC000FE4302EB01004FF4FE012A6901EB0641AC
:104DD00001F4FE0103EB0262084402F0FE410844C4
:104DE000F8603868696920F0C00040EA0100386066
:104DF0003868A96920F0200040EA0100386038686E
:104E00004FF6F87120F0100038603869EA6920EA3E
:104E100001004FF4001140EAC2003861386808BF51
:104E20004FF4801140F01000002C386008BF4FF4A0
:104E3000002138680843386057F82C0C40F0806037
:104E400047F82C0CFBF784FB044600BF57F82C0CEA
:104E5000000107D4FBF77CFB001B0328F6D30320DB
:104E600001B0F0BD002001B0F0BD00000000000066
:104E7000F0B581B044F22C47C5F6020757F8042C70
:104E800002F00302032A03D1012001B0F0BD00BFEC
:104E9000054657F82C0C0C4620F0805047F82C0C97
:104EA000FBF756FB064600BF57F82C0C800005D5D3
:104EB000FBF74EFB801B0228F6D964E057F8040C80
:104EC000EE6895E80E0020F07C70012C40EA01505D
:104ED000A2F101016FF35F214FF47E4202EB432206
:104EE00047F8040C92B24FF0FE4302EB01004FF47E
:104EF000FE012A6901EB064101F4FE0103EB0262A7
:104F0000084402F0FE41084478613868696920F479
:104F1000406040EA010038603868A96920F40070F8
:104F200040EA0100386038684FF6F87120F480706C
:104F30003860B869EA6920EA01004FF0807140EA00
:104F4000C200B861386808BF4FF4000140F48070B7
:104F5000002C386008BF4FF480013868084338607F
:104F600057F82C0C40F0805047F82C0CFBF7F0FA67
:104F7000044600BF57F82C0C800007D4FBF7E8FA72
:104F8000001B0328F6D3032001B0F0BD002001B0C0
:104F9000F0BD00000000000080B5D0F8D41200EB96
:104FA0008100D0F8C012D1B141F261001A44084426
:104FB000D0F807309A4215D902784FF4825C052365
:104FC00001EBC20101F5825E01F80C30511CCAB23E
:104FD0002123043AAEF8043018BF0A460270FF20BD
:104FE00040B280BD002040B280BD00000000000043
:104FF0002DE9F04782B00446D0F8D40204EB8000DB
:10500000D0F8C072002F00F0CD840E4611781546FE
:1050100041F218029D2907EB020A00F37B805A290E
:1050200000F27E82DFE811F05C007C027C02B400BA
:105030007C027C027C027C027C027C027C027C0280
:105040007C027C027C027C027C027C02E8007C0206
:105050007C027C027C027C027C027C0220014601F4
:105060007C027C025A017C027C027C027C0266018A
:105070007C0292017C027C02BC017C02F0017C0279
:105080007C027C027C02FC017C027C027C027C02B1
:105090007C027C027C027C027C027C027C027C0220
:1050A0007C027C027C027C027C027C027C027C0210
:1050B0007C027C027C027C027C027C027C027C0200
:1050C0007C027C027C027C027C027C027C027C02F0
:1050D0007C027C027C027C027C027C02160200BF05
:1050E000DAF80010002900F035829AF849004FF4F0
:1050F000825207EBC001013001F5825305278F541E
:105100002022C1B29A80043918BF0146FF208AF8D4
:10511000491083E39E2900F0C381A82900F0F281A1
:10512000AA2940F0FD81397A002940F07181DAF82E
:105130000010002900F047829AF90410B1F1FF3FF6
:1051400040F34182D0F8C402816830468847002885
:10515000D4F8D40200F08C8304EB8000D0F8C002B5
:10516000002800F0A88341F261014FF48256022426
:10517000425C00EBC203013203F582559C553A268E
:10518000D3B2AE80043B18BF1346435493E300BF31
:10519000DAF80000002800F016829AF84800002192
:1051A0009AF84920C7F8151087F821109042C7F8DF
:1051B0001D10C7F81910C7F811104FF0700139749D
:1051C0004FF00C01F97510D007EBC0014FF482527B
:1051D00001F582530130895CB9749A88C1B2BA83EF
:1051E000043918BF01468AF848101220F86028795F
:1051F000122800F2F6826DE2DAF80010002900F0C1
:10520000E2816978C90740F0EB81D0F8C40206EB6F
:10521000C6022D79C06900EB820319790531A942D4
:1052200038BF0D46002DFD6000F0DB8215F0030C49
:10523000A5F1010600F0D282B9199C5DBCF1010F05
:105240000C74314600F0CB82A91EBCF1020F07EBB3
:10525000010E5C5C8EF8104000F0C182E91E7D18E2
:105260005B5C2B74BBE200BF2B79172B28BF172385
:10527000002BFB6000F0B58240F24B0013F00306F8
:10528000A3F10102C2F2004000F0D881B918855C98
:10529000012E0D74114600F0D281991E022E07EBEB
:1052A0000105445C2C7400F0CA81D91E7B18465C51
:1052B0001E74C4E19AF84A10287900F0030001290D
:1052C00002D1022800F09C810021012818BF032888
:1052D00040F0AE818AF84A1006E000BF2879002825
:1052E00018BF01208AF84A000020F86040B202B0DE
:1052F000BDE8F087D0F8C40269460DF106024368A4
:105300003046984720B99AF84A00022840F0CE81EA
:10531000D4F8D40204EB8000D0F8C002002800F0DA
:10532000418341F261014FF482570225425C00EB58
:10533000C203013203F58256DD553A27D3B2B78056
:10534000043B18BF134643542CE300BFD0F8C402FB
:105350000AF150050AF14C08294643683046424696
:105360009847002840F0AD809AF84A00022800F0E3
:10537000A88028680138F874010E3974010C79741A
:10538000010AB974B8F800100020B88209BA090CF3
:10539000F9820821F96040B202B0BDE8F08700BF91
:1053A000397A002940F0B1809AF90410002940F1BF
:1053B0000A819AF84A10022900F0F281D0F8C4025A
:1053C00081683046884700287BD1D5F802003146F5
:1053D00002BACAF85420B5F8070043BA2046CAF802
:1053E0005830FFF7D9FD002800F1DC82DAF85800C8
:1053F000BAF84C104843DAF80010814240F0BC8201
:105400000220387281E000BF397A002900F0BC80A8
:105410002046314602B0BDE8F04700F03DBB00BF7A
:105420006878800700F1EC80DAF85810DAE9142087
:10543000084490427FF658AF9AF849004FF48252E0
:1054400007EBC001013001F5825305278F5421225B
:10545000E2E000BF2B7A1B2B28BF1B23002BFB6035
:1054600000F0BF8140F2300013F00306A3F1010207
:10547000C2F2004000F0FE80B918855C012E0D7468
:10548000114600F0F880991E022E07EB0105445CDE
:105490002C7400F0F080D91E7B18465C1E74EAE084
:1054A000D0F8C4020AF150090AF14C084946436891
:1054B00030464246984720B99AF84A00022840F000
:1054C0003581D4F8D40204EB8000D0F8C002002863
:1054D00000F0688241F261014FF482570225425C7C
:1054E00000EBC203013203F58256DD553A27D3B2F1
:1054F000B780043B18BF13464354FF2040B202B0AC
:10550000BDE8F087397A002958D04FF48050F86010
:105510002046314602B0BDE8F04700F049BA00BF6E
:105520009AF849004FF48252052607EBC00101307A
:1055300001F582538E542022C1B29A80043918BFDB
:105540000146022078728AF84910FF2040B202B06A
:10555000BDE8F0879AF84A10022940F0C1809AF815
:1055600049004FF48252022607EBC001013001F5D9
:1055700082538E543A22C1B29A80043918BF014630
:1055800005203872DFE700BFDAF80010D9B19AF9C8
:105590000410B1F1FF3F16DDD0F8C4028168304637
:1055A00088470028D4F8D40200F08C8104EB8000F6
:1055B000D0F8C00200288DD1F4E100BF9AF90410A0
:1055C000002900F1E9809AF849004FF4825207EB74
:1055D000C001013001F5825305278F5420221BE0C2
:1055E000A878802800F0EA8050B940F262010620D5
:1055F000C2F20041F8608888B8820868E7E000BF1E
:105600009AF849004FF4825207EBC001013001F5CE
:10561000825305278F542422C1B29A80043918BFBF
:105620000146FF208AF8491040B202B0BDE8F08779
:1056300002287FF459AE02214CE600BF1946032A26
:10564000C0F0CF80821E002350187E180433043F20
:1056500045789942F573555CA2F10402B57310F8D0
:10566000015C757310F8020C30734FF00000EBD141
:10567000D4E000BF1946032AC0F0B380821E002385
:1056800050187E180433043F45789942F573555CF1
:10569000A2F10402B57310F8015C757310F8020CE6
:1056A00030734FF00000EBD1B8E000BF4FF0006066
:1056B000386100980138F875010E3975010C79755B
:1056C000BDF80610020ABA750220388309BA080C20
:1056D00078830C20F860002040B202B0BDE8F0876B
:1056E000D0F8C40281683046884700283FF4FCADFA
:1056F000D4F8D40204EB8000D0F8C002002800F0F7
:10570000DA8041F261014FF482560224425C00EBE0
:10571000C203013203F582559C553A26D3B2AE80BE
:10572000043B18BF13464354C5E000BFD5F80A0038
:1057300000BAF860B0B1002000217A184B1C107438
:10574000FE68B3420ED250748B1CFE68B3423FBF5A
:105750009074CB1CFE68B34204D2D0740431FA6852
:105760009142EAD3D9F800000138F875010E397575
:10577000010C7975010AB975B8F80010002038835A
:1057800009BA090C7983D5F80A1009BAF96040B250
:1057900002B0BDE8F08700BF9AF84A10022941D153
:1057A0009AF849004FF4825207EBC001013001F52D
:1057B000825302278F543A222EE700BF40F268013D
:1057C0000820C2F20041F8600868496879613861D0
:1057D000002040B202B0BDE8F08700BF2946032E8A
:1057E00004D2002040B202B0BDE8F087920000234E
:1057F0001044821E50187E180433043F45789942A5
:10580000F573555CA2F10402B57310F8015C757371
:1058100010F8020C30734FF00000EBD140B202B030
:10582000BDE8F087D0F8C402816830468847002878
:105830007FF447AED5F80200314602BACAF85420C8
:10584000D5F8060003BA2046CAF85830FFF7A4FB83
:10585000002800F1A780DAF85800BAF84C10484345
:10586000DAF80010814240F08780022038724CE65E
:1058700004EB8000D0F8C402C16830468847002895
:105880003ED0D4F8D40204EB8000D0F8C00290B12E
:1058900041F261014FF482560224425C00EBC203E4
:1058A000013203F582559C552726D3B2AE80043BC6
:1058B00018BF1346435405203872FF2040B202B08F
:1058C000BDE8F08704EB8000D0F8C402C168304620
:1058D0008847F8B1D4F8D40204EB8000D0F8C002B5
:1058E00000285FD041F261014FF482570225425CEB
:1058F00000EBC203013203F58256DD552727F6E59A
:10590000D5F80200314602BACAF85420D5F806008C
:1059100003BA08E0D5F80200314602BACAF85420AA
:10592000B5F8070043BA2046CAF85830FFF734FBF1
:10593000002837D4DAF85800BAF84C1000FB01F30D
:10594000DAF80000984217D140F21100B3F5805FF9
:10595000C2F200404FF0010228BF4FF4805301789B
:105960003A7207F11002204601F0B6FA002040B268
:1059700002B0BDE8F08700BFD4F8D40204EB800089
:10598000D0F8C00270B141F261014FF48257052591
:10599000425C00EBC203013203F58256DD5520273D
:1059A000A5E500BFFF2040B202B0BDE8F0870000CF
:1059B0002DE9F04381B00446D0F8D40204EB800016
:1059C000D0F8C072002F5BD041F2380207F1100806
:1059D000BE18B26BB38D02FB03F5B5F5805F28BF2F
:1059E0004FF48055D0F8C402726BB5FBF3F3D0F8D6
:1059F00010C008464146E047B0F1FF3F20DD40F2CD
:105A000010004246C2F200402B461FFA85F9017889
:105A1000204601F049FBB08D3168D6E90D23B9FB72
:105A2000F0F00244181A7263B063A1EB0500306015
:105A30002CD103203872002040B201B0BDE8F083C1
:105A4000D4F8D40204EB8000D0F8C002C0B141F217
:105A500061014FF482570425425C00EBC20301321E
:105A600003F58256DD551127D3B2B780043B18BF2A
:105A700013464354FF2040B201B0BDE8F08300BF9D
:105A8000FF2040B201B0BDE8F08300BF002040B26B
:105A900001B0BDE8F08300002DE9F0410446D0F8E4
:105AA000D40204EB8002D2F8C00200284AD041F2AE
:105AB000380300F11008C61808464146B36BB58D8F
:105AC00003FB05F7B7F5805F28BF4FF48057B7FB9E
:105AD000F5F3D2F8C452726B6D69A847B0F1FF3F7D
:105AE00016DDB9B2B08DD6E90D35B1FBF0F13268F3
:105AF0000B44691A7363B163A2EB0702326025D1CC
:105B0000002120460025FFF713F868B2BDE8F081B8
:105B1000D4F8D40204EB8000D0F8C00290B141F276
:105B200061014FF482570425425C00EBC20301324D
:105B300003F58256DD550327D3B2B780043B18BF67
:105B400013464354FF2568B2BDE8F08101FB00F322
:105B500040F21100C2F200404246B3F5805F017886
:105B6000204628BF4FF4805301F0B6F9002568B2F3
:105B7000BDE8F08100000000B0B5D0F8D41200EB11
:105B80008100D0F8C002002808BFB0BD41F2610C0E
:105B90004FF4825410F80CE000EBCE0101F5825571
:105BA0000A550EF10101CAB22B71043A4FF00003FD
:105BB0006B7118BF0A4600F80C20B0BD0000000051
:105BC00041F6F430C2F20040FDF7D6BF00000000FD
:105BD00081604EF2C002C168CFF6FE7201EA020394
:105BE00041F2371C372141F2883243EA0C03C3608B
:105BF00000F002BB0000000081604EF2C002C168EC
:105C0000CFF6FE72114041F229121143C16040F2F9
:105C1000080144F6D352C2F20041C1F2620209689F
:105C2000A1FB0212510A41F2883251436FF0030284
:105C3000514000BF043127D0426B12F0450F02D013
:105C400012F4005214D0426B12F0450F02D012F43D
:105C500000520DD0426B12F0450F02D012F40052E8
:105C600006D0426B12F0450FE4D012F40052E1D19D
:105C7000416B042211F0040104BFC522C0F22002CE
:105C800082630846704700BF4FF000407047000035
:105C900081604EF2C002C168CFF6FE7201EA0203D3
:105CA00041F2101C102141F2883243EA0C03C36018
:105CB00000F0A2BA0000000081604EF2C002C1688C
:105CC000CFF6FE7201EA020341F2061C062141F200
:105CD000883243EA0C03C36000F08EBA0000000073
:105CE000002181604EF2C002C168CFF6FE72114001
:105CF00044F6D35201F58051C16040F20801C1F26F
:105D00006202C2F200410968A1FB0212510A41F28B
:105D1000883251436FF003025140043112D0426B7C
:105D2000120609D4426B12065CBF426B5FEA026244
:105D300002D4426B1206F0D5C521C0F22001816366
:105D4000002070474FF00040704700000000000046
:105D50004FF4D57181604EF2C002C168CFF6FE7279
:105D6000114041F208121143C16040F2080144F6AB
:105D7000D352C2F20041C1F262020968A1FB0212D1
:105D8000510A41F2883251436FF00302514000BF83
:105D900004312DD0426B12F0450F02D012F40052A4
:105DA00014D0426B12F0450F02D012F400520DD005
:105DB000426B12F0450F02D012F4005206D0426B33
:105DC00012F0450FE4D012F40052E1D1416B4907C3
:105DD0000AD4416BC9070FD1416B49064FF000014E
:105DE0000DD540220AE000BF0422042106E000BFD6
:105DF0004FF00040704700BF012201218263084636
:105E0000704700000000000081604EF2C002C168CF
:105E1000CFF6FE7201EA020341F2121C122141F296
:105E2000883243EA0C03C36000F0E6B900000000CA
:105E300081604EF2C002C168CFF6FE7201EA020331
:105E400041F2111C112141F2883243EA0C03C36074
:105E500000F0D2B90000000081604EF2C002C168BB
:105E6000CFF6FE7201EA020341F2071C072141F25C
:105E7000883243EA0C03C36000F0BEB900000000A2
:105E8000002181604EF2C002C168CFF6FE7211405F
:105E900041F202321143C16040F2080144F6D3528C
:105EA000C2F20041C1F262020968A1FB0212510A6A
:105EB00041F2883251436FF00302514004312BD03C
:105EC000426B12F0450F02D012F4005214D0426B14
:105ED00012F0450F02D012F400520DD0426B12F0B6
:105EE000450F02D012F4005206D0426B12F0450F5B
:105EF000E4D012F40052E1D1416B490708D4416B60
:105F0000C9070DD1C521C0F220018163002070476F
:105F100004218163084670474FF00040704700BF7E
:105F2000012181630846704781604EF2C002C1685A
:105F3000CFF6FE72114041F209321143C16040F2C6
:105F4000080144F6D352C2F20041C1F2620209686C
:105F5000A1FB0212510A41F2883251436FF0030251
:105F6000514000BF04312BD0426B12F0450F02D0DC
:105F700012F4005214D0426B12F0450F02D012F40A
:105F800000520DD0426B12F0450F02D012F40052B5
:105F900006D0426B12F0450FE4D012F40052E1D16A
:105FA000416B490708D4416BC9070DD1C521C0F227
:105FB00020018163002070470421816308467047F7
:105FC0004FF00040704700BF0121816308467047D1
:105FD000002181604EF2C002C168CFF6FE7241F22C
:105FE000331C01EA0203332141F2883243EA0C03F5
:105FF000C36000F001B9000081604EF2C002C168C8
:10600000CFF6FE7201EA020341F20D1C0D2141F2AE
:10601000883243EA0C03C36000F0EEB800000000D1
:10602000002282604EF2C003C268CFF6FE731A40AF
:1060300041F203131A43C26040F2080244F6D353FC
:10604000C2F20042C1F262031268A2FB03235A0AA1
:1060500041F288335A436FF003035A4004323BD075
:10606000436B13F0450F02D013F4005314D0436B6D
:1060700013F0450F02D013F400530DD0436B13F00F
:10608000450F02D013F4005306D0436B13F0450FB5
:10609000E4D013F40053E1D1426B520718D4426BA1
:1060A000D2071DD10269D2B2032A1DD1C522C0F286
:1060B00020028263406910F4604F17D0410419D464
:1060C0004FF48051000458BF4FF4803108467047A8
:1060D00004218163084670474FF00040704700BFBD
:1060E000012181630846704701207047000C088039
:1060F000002070474FF4005070470000000000007F
:10610000002181604EF2C002C168CFF6FE7241F2FA
:106110000D1C01EA02030D2141F2883243EA0C030F
:10612000C36000F069B8000010B50446C06840F0D4
:1061300080004EF2C001E060CFF6FE71E0684EF2E2
:10614000001220F04000E0600020A060E068C0F293
:10615000F552084041F20C110843E0600C21204642
:1061600000F04AF8B0F1007108BF0846E16821F07C
:106170008001E16010BD000081604EF2C002C16884
:10618000CFF6FE7201EA020341F2191C192141F215
:10619000883243EA0C03C36000F02EB80000000010
:1061A00081604EF2C002C168CFF6FE7201EA0203BE
:1061B00041F2181C182141F2883243EA0C03C360F3
:1061C00000F01AB80000000080B50246D1E900E3F3
:1061D000D1E902C0C2F824E040EA0C0093620B69E6
:1061E000496918430143D06A20F0FF030020194396
:1061F000D16280BD0000000040F20803C2F20043FB
:10620000D3F800C044F6D353C1F26203ACFB033CA5
:106210004FEA5C2340F2450C53430246C0F2200C87
:10622000002B5FD0506B10EA0C0F02D010F400501E
:106230001BD0012B56D0506B10EA0C0F02D010F47B
:10624000005012D0022B4DD0506B10EA0C0F02D030
:1062500010F4005009D0043B581C43D0506B10EA96
:106260000C0FDDD010F40050DAD1506B40073DD454
:10627000506BC0073ED10CF1800090631069C0B232
:1062800088423BD14EF208015069CFF6FF510842D7
:1062900036D0002836D4410038D4810038D4C1002B
:1062A00038D401013AD441013CD4C1013ED40102A9
:1062B00040D4410242D4810244D4C10246D44103B5
:1062C00048D481034AD4C1034CD401044ED44104C0
:1062D00050D4810452D400074FF4000058BF4FF44B
:1062E000803070474FF00040704700BF042090633B
:1062F000704700BF01209063704700BF01207047C6
:10630000002070474FF00070704700BF402070477A
:10631000802070474FF48070704700BF4FF40070CA
:10632000704700BF4FF48060704700BF4FF40060BB
:10633000704700BF4FF48050704700BF4FF40050CB
:10634000704700BF4FF48040704700BF4FF40040DB
:10635000704700BF4FF40030704700BF4FF48020FB
:10636000704700BF4FF40020704700BF4FF480100B
:10637000704700BF4FF40010704700BF4FF480001B
:106380007047000000000000006800F00300704744
:1063900008444069704700001143009A1943019B6B
:1063A0000A4301461A4342F600434068CFF6C073E1
:1063B000034000201A434A607047000000000000BC
:1063C00001460268002042F003020A6070470000A4
:1063D000D0F8800070470000024600200968C2F82B
:1063E00080107047000000002DE9F04786B00C4691
:1063F0000546FAF7ADF8064628680821FFF748FC7D
:1064000010B106B0BDE8F087696C28680904FFF791
:10641000DFFB0028F5D14FF0FF30009008200190FD
:10642000302002900220039000200490012005906B
:1064300028686946FFF7C8FE2868FFF7C9FD0028ED
:10644000DFD1002740F22A594FF000084FF0000A30
:1064500007E000BFFAF77CF8801B01304FF00040E6
:10646000CFD02968486B10EA090F486B0ED100F4B1
:1064700000203843EED10846FFF7AAFF804628687F
:10648000FFF7A6FF82460127E4E700BF000715D407
:10649000486B800714D4486B800613D440F63A70DA
:1064A000C1F6000088639AFA8AF098FA88F1C4E984
:1064B0000001002006B0BDE8F08700BF082002E020
:1064C000022000E02020886306B0BDE8F0870000CD
:1064D000B0B58AB041F6F4300D46C2F2004001A9D1
:1064E0001446FDF735FA18B1FF2040B20AB0B0BD2E
:1064F000DDE90701013828600020218040B20AB0A0
:10650000B0BD000000000000002070470000000047
:10651000002070470000000080B541F6F430C2F260
:106520000040FDF729FA043818BF4FF0FF3080BD56
:10653000002070470000000010B582B0642003FB0B
:1065400000F441F6F430C2F200400094FDF790FEF2
:1065500020B1FF2040B202B010BD00BF41F6F434BC
:10656000C2F200442046FDF707FA0428FAD10020C1
:1065700040B202B010BD000010B582B0642003FB31
:1065800000F441F6F430C2F200400094FDF784FFBD
:1065900020B1FF2040B202B010BD00BF41F6F4347C
:1065A000C2F200442046FDF7E7F90428FAD10020A2
:1065B00040B202B010BD00007047000000000000B3
:1065C000F9F7CEBF0000000070B59CB044F6180487
:1065D00009A84C21C5F60204F9F781FE0220002526
:1065E000CDE90755CDE90555CDE90355CDE901556F
:1065F0000226FBF749F940F22C400095C5F6000051
:10660000016821F001010160006800F001000090C4
:10661000206866F38F302060206800F440400090CE
:1066200000982068800409D4206880045CBF20683A
:106630005FEA804002D420688004F2D501200990EE
:106640004FF480300A9002200521CDE91200149108
:106650006021CDE915100A210825CDE9171009A8F8
:1066600019950024CDE91A44FCF7F2FCC0B141F2BF
:106670000004C5F6020400BF082101222046F9F7F4
:1066800057FF40F2F310F9F767FE08210022204679
:10669000F9F74EFF40F2F310F9F75EFEECE700BFAA
:1066A00002A93F200190032031C101A80221CDE9B8
:1066B0000544CDE90744FCF7B3FAB8B141F2000450
:1066C000C5F60204082101222046F9F731FF40F205
:1066D000F310F9F741FE082100222046F9F728FFC0
:1066E00040F2F310F9F738FEECE700BF1CB070BDC4
:1066F0004EF6885C4EF67F50CEF2000CCEF6F620B9
:10670000DCF8001041F47001CCF8001044F20041B4
:10671000C5F602010A6842F001020A6000220A611D
:106720000B68184008608A61CA610A628A62CA629C
:106730000A634A638A63CA630A644A64086820F485
:106740008020086041F200000A66C5F6004000683B
:10675000B2EB507F05D148F208100121C5F20010BC
:1067600001604FF000604CF8800C704700000000A2
:1067700080B5D0F8B82252689047002818BF03208F
:1067800080BD0000000000000020704700000000F5
:10679000002070470000000080B513460A46002123
:1067A00000F09AFB002080BD80B513460A46002108
:1067B00000F07AFC002080BD10B58021044600F076
:1067C0003BFC00212046BDE8104000F035BC000035
:1067D00080B50521C0F8941200210022002300F0AA
:1067E0007BFB002080BD000080B50223C0F89432FE
:1067F000134682610A460021C36100F055FC002067
:1068000080BD00000000000080B50421C0F8941293
:1068100000210022002300F047FC002080BD000082
:1068200010B540F294140A46C2F2004402A0214678
:1068300000F056F9204610BD4D534320436F6E665D
:10684000696700000000000040F270001222C2F2EE
:1068500000400A807047000010B540F294140A46C8
:10686000C2F2004402A0214600F03AF9204610BDD1
:106870004D534320496E7465726661636500000084
:1068800040F284000422C2F200400A8070470000F7
:1068900010B540F294140A46C2F2004402A0214608
:1068A00000F01EF9204610BD53544D6963726F65A8
:1068B0006C656374726F6E696373000000000000A2
:1068C00010B540F294140A46C2F2004402A02146D8
:1068D00000F006F9204610BD53544D3332204D616F
:1068E00073732053746F72616765000000000000CD
:1068F000B0B54EF6000EC1F6F17EDEF80000DEF80F
:106900000830C0184FF01A030B8000F0A3804FF03E
:10691000370C010F0CEB1072B0F1204F38BF01F1B2
:10692000300240F20C11DEF80430C0F30364C2F20E
:1069300000414FF0000E8A700201B2F1204F81F841
:1069400003E00CEB127538BF04F13005020281F848
:1069500005E0C0F303540D710CEB1275B2F1204F3A
:1069600038BF04F13005020381F807E0C0F30344A7
:106970008D710CEB1275B2F1204F38BF04F1300568
:10698000020481F809E0C0F303340D720CEB1275B8
:10699000B2F1204F38BF04F13005020581F80BE059
:1069A000C0F303248D720CEB1275B2F1204F38BF87
:1069B00004F13005020681F80DE0C0F303140D73F5
:1069C0000CEB1275B2F1204F38BF04F1300502070D
:1069D00000F00F0000F137048D73B2F1204F81F801
:1069E0000FE038BF00F13004180FB3F1204F0CEB6B
:1069F00013720C7481F811E038BF00F130021801F5
:106A000081F813E08A74B0F1204FC3F303620CEBFA
:106A1000107438BF02F13004180281F815E0C3F396
:106A200003520C750CEB1074B0F1204F4FEA033099
:106A300038BF02F13004C3F30342B0F1204F0CEB36
:106A400010738C7581F817E038BF02F1300381F8BC
:106A500019E00B7640F20C10C2F20040B0BD00000D
:106A600080B5B0F802C003789C4505D8002080BDF1
:106A700073449AB26245F9D290F800E070444278CB
:106A8000052A02D182788A4226D073449AB262459E
:106A9000ECD290F800E070444278052A02D1827866
:106AA0008A4219D073449AB26245DFD290F800E06E
:106AB00070444278052A02D182788A420CD073440D
:106AC0009AB26245D2D290F800E070444278052A2A
:106AD000CED182788A42CBD180BD00000000000078
:106AE00010B5002866D00378B3B100F1020E4FF064
:106AF000000C00BF1EF8013C93B19EF800309BB122
:106B00009EF80130A3B19EF802300CF1040C0EF196
:106B1000040E002BEED10DE04FF0000C0AE000BF98
:106B20004CF0010C06E000BF4CF0020C02E000BF8C
:106B30004CF0030C5FFA8CFC022303EB4C03138034
:106B40000B7003224A7090F800E0BEF1000F08BFFE
:106B500010BD023002224FF0000CD3B243F001040A
:106B600001F803E001F804C010F8013C13B3941CD1
:106B7000E4B244F0010E0B5501F80EC00378002B6F
:106B80001FBF141DE4B244F0010E0B551EBF01F8E7
:106B90000EC04378002B0DD0941D0832E4B244F0AF
:106BA000010E0B5501F80EC090F802E00430BEF162
:106BB000000FD2D110BD000080B10023C0F8B83260
:106BC000C0F8C4320029C0F8D03218BFC0F8B412DF
:106BD000012180F89C12027000F0F2B80320704787
:106BE00080B5D0F8C802F9F7D3FE40F20032C100F8
:106BF000C0F20132032822FA01F188BF0321C8B292
:106C000080BD00000000000080B5D0F8C802F9F790
:106C100093FE40F20032C100C0F20132032822FA92
:106C200001F188BF0321C8B280BD00000000000050
:106C3000B0B5044681B194F89C02032827D1D4F85A
:106C4000B80242691AB30020C4F8D4022046904723
:106C5000002808BF0020B0BDD4F89402022810D14B
:106C6000D4E90701884215D9431A204611461A462D
:106C7000E361FFF799FD002100220023204600F088
:106C80002BF994F8A00210B1002084F8A002002093
:106C9000B0BD00BF10D1A16981420DD3D4F89802D4
:106CA000814209D20021002220460025FFF77CFD09
:106CB000C4F89852DFE700BF94F89C02032808D17B
:106CC000D4F8B802C16821B10020C4F8D40220462B
:106CD00088478021204600F0AFF92046FFF778FD75
:106CE00094F8A0020028CFD1D1E7000000000000F6
:106CF00010B5044681B194F89C0203281FD1D4F842
:106D0000B8028269DAB10020C4F8D4022046904764
:106D1000002808BF002010BDD4F8940203280ED12B
:106D2000D4E9570398420DD9C01AC4F85C019842BF
:106D3000114638BF034620461A46FFF72DFD0020B6
:106D400010BD00BF94F89C02032808D1D4F8B80203
:106D5000016921B10020C4F8D402204688472046AA
:106D6000FFF752FD002010BD00207047000000001A
:106D700080B5012180F89C12D0F8B82232B1017997
:106D800052689047002818BF032080BD002080BDB6
:106D900080B5D0F8C802F9F72FFE40F20032C100EA
:106DA000C0F20132032822FA01F188BF0321C8B2E0
:106DB00080BD000000000000D0F8C802F9F73CBE1A
:106DC00010B5017811B1002010BD00BF41F2E8619B
:106DD000C2F20041C0F8C812C1F808050020C4F290
:106DE00008000860092048600120C860022008618E
:106DF00088610020C1E90700C1E90900C1E90B0071
:106E00000846FAF7D1FB08B1F9F78EFA41F2E864C7
:106E10008021C2F200442046F9F7DAFC002140222A
:106E20002046F9F7D9FC012180222046F9F7D4FC4D
:106E3000002010BD0000000001F07F02D0F8C80261
:106E400049B202EBC202002900EB820000F27E226E
:106E500048BF00F13E0210787047000000000000BB
:106E600080B5D0F8D42200EB8202D2F8B8224AB121
:106E700090F89C32032B02D1126A02B19047002095
:106E800080BD00BF032080BD80B5D0F8D42200EBC8
:106E90008202D2F8B8224AB190F89C32032B02D178
:106EA000526A02B19047002080BD00BF032080BD20
:106EB00080B59446D0F8C8021A466346F9F7C8FD73
:106EC00040F20032C100C0F20132032822FA01F17F
:106ED00088BF0321C8B280BD80B5D0F8C802F9F7D9
:106EE000EBFD40F20032C100C0F20132032822FA69
:106EF00001F188BF0321C8B280BD0000000000007E
:106F0000F0B581B0012680F89C620025C0F894524B
:106F100004464560D0F8B802C4F8A45284F8A052E0
:106F200058B1426842B100212046904705460028EA
:106F300018BF032501E000BF0025002100224023E7
:106F400020464027FFF7B4FF80210022402320463F
:106F5000A4F86461C4F86071FFF7AAFFA68428460C
:106F6000276201B0F0BD000090F89C12042903D103
:106F700090F89D1280F89C120020704700000000DD
:106F800080B590F89C12032905D1D0F8B81211B140
:106F9000C96901B18847002080BD000000000000E1
:106FA000024600201174704780B5D0F8C802FAF785
:106FB00013FC40F20032C100C0F20132032822FA71
:106FC00001F188BF0321C8B280BD000000000000AD
:106FD000B0B500F2AA250446284600F001FA0120C7
:106FE000C4F8940294F8AA02B4F8B02200F01F0189
:106FF000C4F89822022909D001290DD091B9204660
:107000002946BDE8B04000F027BA00BF2046294617
:10701000BDE8B04000F0E0BB20462946BDE8B040E6
:1070200000F09ABC00F080012046BDE8B04000F0BE
:1070300003B800000000000080B5D0F8C802F9F7DE
:107040005BFD40F20032C100C0F20132032822FA97
:1070500001F188BF0321C8B280BD0000000000001C
:1070600080B5D0F8C802FAF7D3FB40F20032C10075
:10707000C0F20132032822FA01F188BF0321C8B20D
:1070800080BD000000000000014690F89C0204282A
:1070900003D091F89C0281F89D020020042281F81F
:1070A0009C2270470000000080B5D0F8C802F9F7B4
:1070B00063FD40F20032C100C0F20132032822FA1F
:1070C00001F188BF0321C8B280BD000000000000AC
:1070D00080B5FDF7A9FB002080BD00000000000086
:1070E00080B5FDF7F5FB002080BD0000000000002A
:1070F00070B540F210060446C2F200467178FFF700
:1071000083FD7078002500F00F0000EB800004EB99
:107110008000A0F8645120463178FFF775FD307883
:10712000D4F8D41200F00F0004EB810100EB8000D2
:10713000D1F8C01204EB8000858481B12046FDF7B0
:1071400093FCD4F8D40204F5307656F8200000F011
:107150004FFCD4F8D40246F82050C4F8BC520020AA
:1071600070BD00000000000040F2E0010A22C2F2FF
:10717000004102800846704770B540F2C0060446E0
:10718000C2F2004681213046FFF76AFC0546012124
:107190003046FFF765FC002D1CBF4021A980002868
:1071A0001CBF4021818040F2C0002021C2F200407B
:1071B000218070BD0000000070B540F2C00604469A
:1071C000C2F2004681213046FFF74AFC0546012104
:1071D0003046FFF745FC002D1CBF4FF40071A9801D
:1071E00000281CBF4FF40071818040F2C0002021B4
:1071F000C2F20040218070BD70B540F2C006044666
:10720000C2F2004681213046FFF72AFC05460121E3
:107210003046FFF725FC002D1CBF4021A980002827
:107220001CBF4021818040F2C0002021C2F20040FA
:10723000218070BD00000000F0B581B0044641F22D
:10724000740000F0D9FBD4F8D41204EB810101F5ED
:10725000307188B340F21006227CC2F2004640250D
:107260000860002A7178C4F8BC0208BF4FF40075AA
:10727000022220462B46FFF71BFE707801270222D0
:107280002B4600F00F0000EB800004EB8000A0F81C
:10729000647120463178FFF70BFE307800F00F0064
:1072A00000EB800004EB800087842046FDF7E8FBBC
:1072B000002001B0F0BD00BF00200860022001B036
:1072C000F0BD00000000000041B1D0F8D42200EB76
:1072D0008200C0F8C4120020704700BF032070472E
:1072E00070B582B00446D0F8D4020D46002104EBFC
:1072F0008000ADF80610D0F8C062002E00F06A8061
:10730000297811F0600219D0202A5FD149B26A7839
:10731000FF2A27D0FE2A59D16A88002A56D1EA8846
:10732000012A53D1B1F1FF3F50DCD0F8C40280698B
:107330008047306001222046314638E068780B28CB
:1073400044D8DFE800F0071B434343434343434330
:107350002D3900BF94F89C02032837D10DF10601A6
:10736000022223E0688888BBE88878BB00292DD4F6
:107370002046FDF7B5FB002002B070BD94F89C02DA
:10738000032816D16888A0B929792046FFF700FDA7
:1073900029792046FDF7FCF9002002B070BD00BF3E
:1073A00094F89C02032811D1311D01222046FFF7D9
:1073B0001BFA002002B070BD94F89C02032805D18E
:1073C000A8787060002002B070BD00BF204629463A
:1073D000FFF7F2F9032002B070BD000000000000CA
:1073E0000A7802704A7842704A8842808A8882808D
:1073F000C988C1807047000010B582B004464FF0C4
:107400000000ADF80600B9B1D4F8D40204F52E722C
:10741000C4F8B81252F82000C16A21B10DF106007B
:107420008847C4F8D002D4F8D8020130C4F8D80292
:10743000002002B010BD00BF032002B010BD00004C
:10744000D0F8B82212B11268104700BF0020704770
:10745000FFF706BE00000000B0B582B00D46097807
:10746000044611F0600111D0402918BF20292FD106
:10747000D4F8D402294604EB8000D0F8B802826820
:10748000204602B0BDE8B040104700BF6878092828
:1074900000F2D280DFE800F00628D03AD04666D06D
:1074A000809400BF94F89C020138022800F2C48046
:1074B000E888022840F0C080D4F8A4020322002803
:1074C000214608BF0122204641F80C2F022261E12B
:1074D00080212046FFF7B0FD002120460025FFF760
:1074E000ABFD284602B0B0BD94F89C0201380228DA
:1074F00000F2A280688800250128F2D12046C4F855
:10750000A452FFF781F9284602B0B0BD688802286E
:1075100000F08880012840F08F800120C4F8A40288
:107520003EE100BFA888002840F08680E888002857
:1075300040F0828068887F2800F27E8094F89C1258
:10754000032900F07980C5B284F89E0220462946BE
:10755000FFF72AFD2046FFF757F9002D00F0348190
:10756000022032E168884FF0FF310022ADF806209A
:1075700001EB1021062900F21B81DFE811F0070062
:10758000690077001901190185009100D4F8B4123F
:10759000207C0A68EFE000BFE88801284CD194F80D
:1075A0009C02411E022941D221460122204600258B
:1075B00041F8085FFFF718F9284602B0B0BD00BFD8
:1075C000688840F29015C2F2004510F0FE0F287056
:1075D0000CD080212046FFF72FFD00212046FFF729
:1075E0002BFD0325284602B0B0BD00BFC1B294F800
:1075F0009C22032A62D0022A40F08280002900F0F7
:10760000CF8020466160FFF71BFF002800F09880C4
:10761000054680212046FFF70FFD00212046FFF799
:107620000BFD67E0687984F8A002B9E0032803D174
:10763000211D01222046ADE080212046FFF7FCFC01
:10764000002120460025FFF7F7FC284602B0B0BD18
:10765000207C0028D4F8B8020CBF816AC16A0DF101
:10766000060088470146022026E000BFC0B2052878
:1076700000F29E80DFE800F0046A6E72767A00BF46
:10768000D4F8B402426874E0207C002840F0908076
:10769000D4F8B802416B0DF1060088476EE000BFD8
:1076A000207C002840F08480D4F8B802016B0DF1F2
:1076B0000600884701460720487060E081B3606893
:1076C00088426DD0C1B22046FFF752F82978204693
:1076D0006160FFF7B5FE002862D005468021204694
:1076E000FFF7AAFC00212046FFF7A6FC21792046DF
:1076F000FFF73EF8022084F89C02284602B0B0BD95
:1077000080212046FFF798FC00212046FFF794FCDB
:1077100029782046FFF72CF80325284602B0B0BD93
:10772000022084F89C026160002120460025FFF7BA
:107730001FF82046FFF768F8284602B0B0BD00BF2A
:107740002046FFF761F803203FE000BFD4F8B40201
:1077500082680EE0D4F8B402C2680AE0D4F8B40239
:10776000026906E0D4F8B402426902E0D4F8B40237
:107770008269EAB1207C0DF1060190470146EA8852
:1077800072B1BDF8060098B1904238BF024620465B
:10779000ADF80620FFF728F80025284602B0B0BD56
:1077A0002046FFF731F80025284602B0B0BD00BFE3
:1077B00080212046FFF740FC00212046FFF73CFCDB
:1077C0000025284602B0B0BD012084F89C020025A7
:1077D000284602B0B0BD000070B50E4609780446D8
:1077E000357911F060010BD0402918BF202940F0F5
:1077F0009F8020462946FEF7C7FFE8B1002070BDF4
:10780000707838B3012841D0032840F0918094F873
:107810009C0203283ED1708840B915F07F0005D046
:10782000F08818B920462946FFF706FC2046FEF7E7
:10783000EBFF002070BD00BFD4F8B80282680020C2
:10784000002AC4F8D402D9D020463146BDE87040A1
:10785000104700BF94F89C02032829D0022808BFD3
:107860005FEA456064D115F080004FF0140008BF56
:107870004FF4AA7004F114014FF0000208BF04F5A0
:10788000AA7122500222204661E000BF94F89C02B7
:10789000032819D002284BD1680649D02046294632
:1078A000FFF7CAFB80212046FFF7C6FB002070BD12
:1078B00005F00F00802D00EB800004EB80001FD24C
:1078C000B0F864011DE000BF7088002896D16806FA
:1078D00003D020462946FFF783F92046FEF794FFA0
:1078E00020462946FEF750FF00287FF487AFD4F8E2
:1078F000B80282680020002AC4F8D402A4D17DE72F
:10790000808CA8B105F07F00802D00EB800004EB97
:10791000800000F1140638BF00F5AA76680611D081
:1079200020462946FFF788FA002818BF01200AE000
:1079300080212046FFF780FB00212046FFF77CFBDB
:10794000002070BD00203060022220463146FEF744
:107950004BFF002070BD0000B0B50D46097804460D
:1079600011F0600118BF402914D194F89C0201382D
:10797000022803D8A88810F0FE0F19D080212046D5
:10798000FFF75AFB002120460025FFF755FB28464C
:10799000B0BD00BF2029E8D080212046FFF74CFB76
:1079A000002120460025FFF747FB2846B0BD00BF59
:1079B000C1B22046FEF7ECFE10B10320B0BD00BFFF
:1079C000D4F8B8028268002AF7D00020C4F8D402A4
:1079D000204629469047E9880546002908BF002D22
:1079E000E3D12046FEF710FF0020B0BD00000000EC
:1079F000704700000000000040F29430C2F20040E6
:107A0000704700000000000010B50A784B78D0F8ED
:107A10001CC802F00F044FEA421E012B1AD10123A9
:107A200003FA04F400EB0E0344EA0C04C0F81C480B
:107A3000D3F8000900042AD403F510600B79896893
:107A40006FF3DF21046841EA834144EA8252114323
:107A500018E000BF4FF4803202FA04F300EB0E028C
:107A600043EA0C03C0F81C38D2F8000B00040ED413
:107A70000B7902F5306089686FF3DF21026841EA13
:107A80008341114341F0805141F4004101600020E5
:107A900010BD0000000000000146D0F8000940F2CF
:107AA000FF729043C1F80009D1F80428002042F485
:107AB0008072C1F80428704780B582B00699012908
:107AC00040F64051C0F2030174D1826BDDF834C03E
:107AD00022F4803282634FF6BF72D0F80CE0CFF60A
:107AE000BD72BCF1010F02EA0E02C260C26822F44C
:107AF0004012C26003D1C26842F48012C260002208
:107B00000092009A01320092009A8A4200F2B280FA
:107B10000269002A1ED4009A01320092009A8A4219
:107B200000F2A8800269002A14D4009A013200925F
:107B3000009A8A4200F29E800269002A0AD4009AC2
:107B400001320092009A8A4200F294800269B2F1F6
:107B5000FF3FD6DC00220092026942F0010202617E
:107B6000009A01320092009A8A4200F283800269F0
:107B7000D2071AD0009A01320092009A8A4279D82C
:107B80000269D20711D0009A01320092009A8A420B
:107B900070D80269D20708D0009A01320092009A88
:107BA0008A4267D80269D207DAD10021012B40F05E
:107BB00080806DE0DDF828C0C26842F04002C260FB
:107BC00000220192019A01320192019A8A4255D80B
:107BD0000269002A1BD4019A01320192019A8A4259
:107BE0004CD80269002A12D4019A01320192019AFA
:107BF0008A4243D80269002A09D4019A01320192CB
:107C0000019A8A423AD80269B2F1FF3FDADC0022D7
:107C10000192026942F001020261019A013201926D
:107C2000019A8A422AD80269D2071AD0019A0132EF
:107C30000192019A8A4221D80269D20711D0019A91
:107C400001320192019A8A4218D80269D20708D0FB
:107C5000019A01320192019A8A420FD80269D20731
:107C6000DBD10021BCF1000F826B0CD142F48032D9
:107C70000BE000BF0321012B1BD109E00321BCF164
:107C8000000F826BF2D022F480328263012B10D17C
:107C9000C26D92B2C265C26D42F0007242F0F772DC
:107CA000C265826842F006028260826842F0200269
:107CB0008260084602B080BD80B54A780978012A02
:107CC0004FEA41122AD1024447F6000CCEF6334C5B
:107CD0004FF0010ED2F8003902F51062002B07D5E3
:107CE000136843F000631360136843F0804313602C
:107CF00001F00F01D0F83C380EFA01F18B43C0F8C7
:107D00003C38D0F81C3823EA0101C0F81C1811686F
:107D1000002001EA0C01116080BD00BF831847F606
:107D2000000C03F53062CEF6334CD3F8003B0CF177
:107D3000707CB3F1FF3F4FF4803ED9DCD0E7000008
:107D40000146D0F8000E20F00300C1F8000E00201C
:107D5000D1F8042822F00202C1F80428704700007C
:107D60000146D0F8000E20F00300C1F8000E0020FC
:107D7000D1F8042842F00202C1F80428704700003C
:107D80002DE9F04F83B0DDF84C809946B8F1000F33
:107D90000E9B4FF00002C0F80421C0F80821C0F883
:107DA0000C21C0F81021C0F81421C0F81821C0F827
:107DB0001C21C0F82021C0F82421C0F82821C0F8D7
:107DC0002C21C0F83021C0F83421C0F83821C0F887
:107DD0003C2107D0826B00F5006E42F400128263F2
:107DE00014E000BFD0F8042800F5006E42F0020253
:107DF000C0F80428826B22F400128263026842F009
:107E000040020260076847F0800707600027C0F85B
:107E1000007E012BD0F80038C0F8003808D10C9F44
:107E2000DEF80030002F18BF43F0010304E000BF6C
:107E3000DEF8003043F0030340F64055DDF83CB077
:107E4000C0F20305C0F8003800230193019B013301
:107E50000193019BAB4249D80369002B1BD4019BC2
:107E600001330193019BAB4240D80369002B12D42C
:107E7000019B01330193019BAB4237D80369002B6F
:107E800009D4019B01330193019BAB422ED80369B6
:107E9000B3F1FF3FDADC002301934FF48463036105
:107EA000019B01330193019BAB421FD803699B06E1
:107EB0001AD5019B01330193019BAB4216D803698C
:107EC0009B0611D5019B01330193019BAB420DD859
:107ED00003699B0608D5019B01330193019BAB42CB
:107EE00004D803699B06DBD4002700E001270023A8
:107EF0000293029B01330293029BAB4248D8036971
:107F0000002B1BD4029B01330293029BAB423FD850
:107F10000369002B12D4029B01330293029BAB42F4
:107F200036D80369002B09D4029B01330293029BCC
:107F3000AB422DD80369B3F1FF3FDADC0023029393
:107F400010230361029B01330293029BAB421FD8B3
:107F50000369DB061DD5029B01330293029BAB42F2
:107F600016D80369DB0614D5029B01330293029BEA
:107F7000AB420DD80369DB060BD5029B013302939C
:107F8000029BAB4204D80369DB06DBD401E000BFEF
:107F900001274FF0000A0029CEF810A0CEF814A057
:107FA000CEF81CA000F00881D0F800394FF0006234
:107FB0004E1E4FF67F3502EA1313C0F80039C0F8A1
:107FC00010A9C0F808597DD08B1E3A46032B06F045
:107FD000030B05D22024BBF1000F44D169E000BFA0
:107FE000CDF8009026F0030400274FF090484FF69C
:107FF0007F3C4FF0000900BF00EB0903043C09F18E
:108000008009D3F8205908EAE575C3F82059C3F868
:108010003079C3F828C9D3F8405908EAE575C3F8A0
:108020004059C3F85079C3F848C9D3F8605908EAF1
:10803000E575C3F86059C3F87079C3F868C9D3F817
:10804000805908EAE575C3F88059C3F89079C3F8F8
:1080500088C9D1D109F12004DDF84C80DDF8009009
:10806000BBF1000F25D000F510634FF0904C1F19A5
:10807000BBF1010F1D590CEAE5751D514FF00004CD
:108080004FF67F333C61BB6013D03D6ABBF1020FFA
:108090000CEAE5753D623C63BB620AD03B6C4FF075
:1080A000904505EAE3733B6400233B654FF67F335D
:1080B000BB640029DDF83CB017464FF000624FF674
:1080C0007F3579D0D0F8003B002E02EA1313C0F8B8
:1080D000003B4FF00003C0F8103BC0F8085B6BD0CA
:1080E000023906F0030C032904D22023BCF1000F4F
:1080F0003CD161E0009726F0030400264FF0904742
:108100004FF67F31002300BFC518043C03F1800304
:10811000D5F8202B07EAE272C5F8202BC5F8306BA2
:10812000C5F8281BD5F8402B07EAE272C5F8402BAA
:10813000C5F8506BC5F8481BD5F8602B07EAE2720A
:10814000C5F8602BC5F8706BC5F8681BD5F8802B97
:1081500007EAE272C5F8802BC5F8906BC5F8881B5A
:10816000D2D12033009FBCF1000F25D000F5306242
:108170004FF09044D118BCF1010FD5584FF67F361F
:1081800004EAE575D5504FF000030B618E6013D003
:108190000A6ABCF1020F04EAE2720A620B638E62A1
:1081A0000AD00A6C4FF0904303EAE2720A6400229C
:1081B0000A654FF67F328A64DEF81010B9F1000FBD
:1081C00021F48071CEF81010C0F818A06FF0804133
:1081D000416103D1816941F01001816143F60002E0
:1081E0008169C8F23C02BBF1000F41EA02018161E2
:1081F00003D0816941F008018161B8F1010F05D117
:10820000816941F0804141F004018161384603B049
:10821000BDE8F08F0000000001468268002022F0D7
:1082200001028A607047000043F20B03D0F840C09F
:10823000C4F654739C4503D3D0F8003B002B1ED4E6
:108240000023C0F8103BD0F8103B012943F4002371
:10825000C0F8103BD0F8103B43F01803C0F8103BB7
:10826000D0F8103B43F0C041C0F8101B07D1C0F854
:10827000142BD0F8001B41F08021C0F8001B002017
:1082800070470000000000004A780B78012A4FEA8E
:10829000431210440ED1D0F8002922F40012C0F885
:1082A0000029097901F0FE01022914D100F51060BE
:1082B0000DE000BFD0F8002B22F40012C0F8002B14
:1082C000097901F0FE01022905D100F5306001684D
:1082D00041F0805101600020704700000000000064
:1082E0000A784B785101012B084407D1D0F80019C6
:1082F000002900F5106107D50CE000BFD0F8001B85
:10830000002900F5306105D4002A1EBF086820F05E
:10831000804008600A68002042F400120A6070473A
:1083200070B54B7891F800C0012B1FD100EB4C1EAB
:108330000D69002D0EF51063DEF810493ED06FF385
:1083400012041C611C69BCF1000F6FF3DC441C615A
:108350008C6863D02E19013EB6FBF4F40026C1F6FA
:10836000F87606EAC4441E695FE000BF00EB4C16D5
:10837000BCF1000FD6F8103B6FF31203C6F8103BA8
:10838000D6F8105B06F530636FF3DC45C6F8105B7A
:108390008C680E691ED00EB32644013EB6FBF4F67F
:1083A000B5B26C4300250C62C1F6F87505EAC64605
:1083B0001D696FF3DF442E431E6116E06FF3DC444A
:1083C0001C611C69002544F400241C611C696FF3C6
:1083D00012043CE0002E18BF0C610C626FF3DF4406
:1083E0001E6926431E614FF400241E69012A46EAD5
:1083F00004021A6103D1CA68002A18BF5A610979B8
:10840000012940F08E80D0F80808C0054FF0805058
:1084100058BF4FF000501968084381E0A54201D9C8
:1084200025460C611C694FF4002634431C612C4620
:108430001E696FF3DF4434431C610C79012C07D1B2
:108440001C6924F0C0441C611C6944F000541C6188
:10845000012A11D1CA69002A18BFCEF81429097956
:1084600001295ED1D0F80808C005DEF8000955D40E
:1084700040F0005054E000BF00F510634FEA4C1488
:108480001E5946F004461E510E79012E3CD1D0F8FB
:108490000868F6054FF0805658BF4FF0005654F864
:1084A00003E0002A4EEA0602E2503FD1AAB2EAB344
:1084B000D61C4FF0FF32C96800F5805002EB9603DE
:1084C0004FEA0C32032BC6F381030FD3B60826F014
:1084D000030400BF0E6816504E6816508E68165082
:1084E000CE68043C01F110011650F3D1F3B1012B19
:1084F0000E6816501AD0022B4B68135016D089689C
:108500001150002070BD00BF85B10CF00F01012299
:1085100002FA01F100F6340305E000BF40F080509C
:1085200018604FF00441186808431860002070BDBF
:1085300081B0002200924A780978012A4FEA41115D
:108540003AD100F510625058B0F1FF3F3ADC88583C
:1085500042F2107340F000608850885840F080402C
:1085600088500098013000900098984264D888584C
:10857000B0F1FF3F26DC009801300090009898424F
:108580005AD88858B0F1FF3F1CDC009801300090A9
:108590000098984250D88858B0F1FF3F12DC0098FC
:1085A000013000900098984246D8885800284FF033
:1085B0000000D6D43DE000BF00F530625058B0F165
:1085C000FF3F03DD002001B0704700BF885842F232
:1085D000107340F000608850885840F08040885008
:1085E0000098013000900098984225D88858B0F142
:1085F000FF3FE7DC009801300090009898421BD8BC
:108600008858B0F1FF3FDDDC009801300090009801
:10861000984211D88858B0F1FF3FD3DC0098013060
:1086200000900098984207D8885800284FF0000022
:10863000D6D401B0704700BF012001B070470000E0
:1086400001468268002042F001028A607047000003
:1086500081B040F640510022C0F203010092009A1E
:1086600001320092009A8A424AD80269002A1BD439
:10867000009A01320092009A8A4241D80269002A87
:1086800012D4009A01320092009A8A4238D80269C4
:10869000002A09D4009A01320092009A8A422FD807
:1086A0000269B2F1FF3FDADC00220092102202617F
:1086B000009A01320092009A8A4221D80269D206B9
:1086C0001AD5009A01320092009A8A4218D802699B
:1086D000D20611D5009A01320092009A8A420FD830
:1086E0000269D20608D5009A01320092009A8A42A5
:1086F00006D80269D206DBD4002001B0704700BF63
:10870000032001B07047000081B040F640520023C2
:10871000C0F203020093009B01330093009B93423D
:108720004AD80369002B1BD4009B01330093009BA4
:10873000934241D80369002B12D4009B013300936C
:10874000009B934238D80369002B09D4009B013366
:108750000093009B93422FD80369B3F1FF3FDADC0B
:1087600089010023009320310161009901310091BA
:108770000099914220D8016989061AD500990131E2
:1087800000910099914217D80169890611D5009985
:1087900001310091009991420ED80169890608D5EE
:1087A0000099013100910099914205D8016989062B
:1087B000DBD4002001B07047032001B070470000F7
:1087C000D0F8081888074FF0020001F0060158BFE2
:1087D0000F20002908BF0846704700000000000075
:1087E000406900F001007047D0F81818D0F81C0854
:1087F000084080B270470000D0F81818D0F81C0864
:108800000840000C70470000D0F810C8D0F8343889
:1088100001F00F0200EB411023FA02F2D201D0F86E
:108820000809D1B241EA0C0108407047000000007D
:1088300000EB4111D1F8081BD0F81408084070472C
:10884000416980690840704710B5930802F0030E33
:108850002CD05A1E03F0030C032A0FD323F003037A
:108860004FF4805284580C6084584C6084588C605B
:108870008458043BCC6001F11001F3D1BCF1000F2E
:1088800014D04FF480520B46BCF1010F845843F8CA
:10889000044B05D11946BEF1000F0AD128E000BFF4
:1088A000BCF1020F82584A601AD10831BEF1000FA4
:1088B0001ED04FF48052BEF1010F80580A4602F8D4
:1088C000010B01D1104610BDBEF1020F4FEA10227C
:1088D0004A7001D1881C10BD000C8870033107E07C
:1088E0004FF4805282588A600C31BEF1000FE0D103
:1088F000084610BD00000000B0B50446C06820F076
:10890000C040E06091B1012926D1E068002540F027
:108910000050E0600120F7F71FFD6069C00705F116
:10892000010014D1312D0546F4D310E0E068002594
:1089300040F08040E06000BF0120F7F70DFD606966
:10894000C00705F1010002D0312D0546F4D33238BD
:10895000B0FA80F04009B0BD0120B0BD00000000B9
:108960000246D0F8000820F4FE6001F07F01C2F852
:1089700000080020D2F8003843EA0111C2F80018BC
:108980007047000000000000022A02460ED145F2A6
:10899000403043F20053CFF62770C0F20C03084476
:1089A00098420FD24FF4705102E000BF4FF41051C3
:1089B000D06820F47050D060D36800201943D16093
:1089C000704700BF41F6406044F24023CFF61B7071
:1089D000C0F20F030844984202D24FF46051E7E717
:1089E000A1F5740044F68073A0F51050C0F2120394
:1089F000984203D24FF45051DAE700BFA1F18370DF
:108A00004DF22063A0F5E740C0F21303984203D271
:108A10004FF44051CCE700BF4BF260604EF2603340
:108A2000CFF6E560C0F216030844984202D24FF434
:108A30003051BDE74DF2003047F24073CFF6CE60C3
:108A4000C0F21B030844984202D24FF42051AFE712
:108A500045F6C03049F2C013CFF6B360C0F221032F
:108A60000844984202D24FF41051A1E7A1F1B77027
:108A700047F22053A0F55850C0F23803984203D271
:108A80004FF4005194E700BF45F2E04049F6E0435F
:108A9000CFF65960C0F2410308444FF4C0519842E8
:108AA00038BF4FF4E05183E780B5DDF808C0BCF172
:108AB000000F33D193B303334FF0FF3C00F5805EDA
:108AC00012030CEB930CBCF1030FC3F3810C13D313
:108AD0009B0823F0030300BF086842F80E004868B3
:108AE00042F80E00886842F80E00C868043B01F1A5
:108AF000100142F80E00EFD1BCF1000F0ED0BCF116
:108B0000010F086842F80E0008D0BCF1020F486857
:108B100042F80E0002D0886842F80E00002080BDA6
:108B2000FEE700000000000086B04EF660750124EC
:108B3000CEF200050294F7F7AFFD059402AC1B20BE
:108B40008DF8100020464FF0104603964FF00008B5
:108B50008DF813804FF48077ADF81170F7F76CFD46
:108B600040F20110ADF8080016208DF81000052025
:108B70008DF8130000200396C0F2011005902046E6
:108B8000ADF81170F7F758FD40F20120ADF808007C
:108B90004FF01050039012208DF8100003208DF834
:108BA000130040F20010ADF81170C0F201100590F2
:108BB0002046F7F741FD0420F7F77EFD4FF6B4514C
:108BC000CFF6FF716858800311D4BFF34F8FBFF306
:108BD0006F8F45F8108CBFF34F8FBFF36F8F6858BE
:108BE00040F400306850BFF34F8FBFF36F8F685869
:108BF000C00361D44FF624600021CFF6FF7001233B
:108C000043F6E07B29504FF62060CFF6FF70BFF3AC
:108C10004F8F2858C208C0F3C907C0F34E317E1EDB
:108C200003EBD000A7F1020A930700F003044FEA18
:108C3000867E4FEA8A700190F81E009004E000BF23
:108C40000029A1F1010129D00BEA41103A467CB17B
:108C5000012C43EA00022A60324609D0022C4EEA77
:108C600000022A60524603D0019A02432A60009A09
:108C7000032FE5D340EA8270013200F1404C80F0CE
:108C8000004800F1804900BF043A2860C5F800C0E0
:108C9000C5F80080C5F80090F6D1D1E74FF6B45181
:108CA000CFF6FF71BFF34F8F685840F480306850A3
:108CB000BFF34F8FBFF36F8F41F20004C5F602047C
:108CC000F7F75EFCFDF780FCFBF78AFFFBF7D4FFAC
:108CD00041F6F43540F22816C2F20045C2F20046D1
:108CE00028463146FAF744FD06F13C012846FAF7DA
:108CF00063FD06F118012846FAF72AFE3220F7F73D
:108D00002BFBFBF7D5FF00BF082101222046F7F718
:108D10000FFC0420F7F720FB082100222046F7F77C
:108D200007FC40F2F310F7F717FBEDE702E008C885
:108D3000121F08C1002AFAD170477047002001E0D5
:108D400001C1121F002AFBD1704700000000010280
:108D500003040102030406070809008002021F0041
:108D6000000053544D202020202050726F64756302
:108D700074202020202020202020302E30310000A0
:108D8000A08D000800000024280100002C8D0008A0
:108D9000C88E000828010024503B00003C8D0008CC
:108DA00001000000100000000090D0030090D003EC
:108DB0008101000049680008816800089168000886
:108DC000C1680008F16800082168000859680008B7
:108DD0000026000000000000081200000000000053
:108DE0000000000000000000000000220000000859
:108DF0001200000000000000000000000000000061
:108E000000000000000200800080000820202020D8
:108E1000120100020000004083042A5700020102F0
:108E2000030100000403090439720008F17000080E
:108E3000E17200080000000000000000D17000088E
:108E4000E1700008000000000000000000000000C9
:108E5000B971000879710008F9710008697100089A
:108E600009022000010104C03209040000020806C2
:108E7000500507058102400000070501024000007F
:108E80000A06000200000040010000001165000811
:108E9000D1640008196500083165000839650008CB
:108EA00079650008096500085A8D00081A0300005A
:108EB00000000000000000000000000000000000B2
:088EC0000000000000000000AA
:040000050800029954
:00000001FF
