:0200000490006A
:1000000028040024AD020090191E0090511D00909C
:10001000111E009019030090D921009000000000EB
:1000200000000000000000000000000079200090A7
:100030002103009000000000211E0090812000900C
:10004000C7020090C7020090C7020090C70200904C
:10005000C7020090C7020090C7020090C70200903C
:10006000C7020090C7020090C7020090C70200902C
:10007000C7020090C7020090C7020090C70200901C
:10008000C7020090C7020090C7020090C70200900C
:10009000C7020090C7020090C7020090C7020090FC
:1000A000C7020090C7020090C7020090C7020090EC
:1000B000C7020090C7020090C7020090C7020090DC
:1000C000C7020090C7020090C7020090C7020090CC
:1000D000C7020090C7020090C7020090C7020090BC
:1000E000C7020090C702009000000000C702009005
:1000F000C7020090C7020090C7020090C70200909C
:10010000C7020090C7020090C7020090C70200908B
:10011000C7020090C7020090C7020090C70200907B
:10012000C7020090C7020090C7020090C70200906B
:10013000C7020090C7020090C7020090C70200905B
:1001400000000000000000000000000000000000AF
:10015000C7020090C7020090C7020090C70200903B
:10016000C7020090C7020090C7020090C70200902B
:10017000C7020090C7020090C7020090C70200901B
:10018000C7020090C7020090C7020090C70200900B
:10019000C7020090C7020090C7020090C7020090FB
:1001A000C7020090C7020090C7020090C7020090EB
:1001B000C7020090C7020090C7020090C7020090DB
:1001C000C7020090C7020090C7020090C7020090CB
:1001D000C7020090C7020090C7020090C7020090BB
:1001E000C7020090C7020090C7020090C7020090AB
:1001F000C7020090C7020090C7020090C70200909B
:10020000C7020090C7020090C7020090C70200908A
:10021000C7020090C7020090C7020090C70200907A
:10022000C7020090C7020090C702009000000000C3
:10023000C7020090C702009000000000C7020090B3
:10024000C7020090C7020090C7020090C70200904A
:10025000C7020090C7020090C7020090C70200903A
:10026000C7020090C7020090C7020090C70200902A
:10027000C7020090C7020090C70200900000000073
:10028000C7020090C7020090C70200900000000063
:1002900000000000C7020090DFF80CD000F02AF840
:1002A00000480047E12100902804002406488047C8
:1002B00006480047FEE7FEE7FEE7FEE7FEE7FEE74B
:1002C000FEE7FEE7FEE7FEE7592100909902009065
:1002D000D2B201E000F8012B491EFBD27047002288
:1002E000F6E710B513460A4604461946FFF7F0FF35
:1002F000204610BD064C074D06E0E06840F00103C3
:1003000094E8070098471034AC42F6D3FFF7C8FFD3
:10031000CC230090EC230090FEE7000000000000DA
:10032000704700000000000070470000000000005F
:10033000B0B5044600F000F940F200010546C2F2F3
:100340000041621C097818BF0C4400BF00F0F4F8AB
:10035000401BA042FAD3B0BD2DE9F04F82B00D682A
:10036000002D00F0CB8000F1264242F2004302F162
:10037000FF72C5F602030A2698424FEAB22444F2FD
:10038000F44E08BF0926092C40F2040C38BF4FEA8E
:10039000B226C5F6020EC5F6000C00960022002714
:1003A000002609E001360D6835FA06F307F1040767
:1003B00002F1020200F0A280012303FA06F415EA1A
:1003C0000408EFD0D1F804A003230AF0030B9340F4
:1003D000ABF101056FEA0309012D0FD88368CD68E1
:1003E00003EA090395402B438360CAF30015436871
:1003F000A34305FA06F42343436005E0BBF1030F72
:1004000002D14FF0030B21E0C3688C6803EA0903B3
:100410009440BBF1020F43EA0403C36016D16FF0AE
:10042000030307F01C0503EA56030F24034404FAF0
:1004300005FBD3F820A00C692AEA0B0AAC4044EA79
:100440000A041C62D1F804A00AF0030B03680BFA3B
:1004500002F403EA09031AF4403F43EA0403036089
:10046000A0D0DEF8003040F2084A43F00203CEF894
:100470000030DEF80030C5F6000A03F002030193F5
:1004800026F00303019C07F00C040F2553F80A9093
:10049000A54029EA0509009D05FA04F444EA090487
:1004A00043F80A404FF0B04ADAF800904C6849EA45
:1004B0000805E30258BF29EA0805A302CAF800505C
:1004C000DCF8009049EA080558BF29EA0805A303AB
:1004D000CCF80050DCF8809049EA080558BF29EABA
:1004E0000805E403CCF88050DCF87C3043EA0805CA
:1004F00058BF23EA0805CCF87C5053E702B0BDE8AA
:10050000F08F000000000000426902EA01039143FD
:1005100041EA034181617047002A08BF09048161F3
:10052000704700000000000041F20000C5F60040E6
:100530000068000C7047000040F22400C2F2004046
:10054000006870470000000040F2000040F2240103
:10055000C2F20040C2F2004100780A68104408600C
:10056000704700000000000080B5032000F0E8F8AC
:1005700000F0F2FF44F2184142F2BC33C5F602012A
:10058000C9F200030A68096801F00F01C2F30322EF
:10059000595C9A5C01F01F0102F01F02D04040F24A
:1005A0000C02C2F2004220FA01F1116040F208018F
:1005B000C2F200410860002000F00AF800281CBFC9
:1005C000012080BD00F07CF8002080BD000000000C
:1005D00070B540F20006C2F200463178E1B104463F
:1005E00040F20800C2F200404FF47A72B2FBF1F11F
:1005F0000068B0FBF1F001F093FB0F2C4FF0010508
:1006000008D838B94FF0FF3000222146002500F00D
:1006100067F87460284670BD012070BD00000000BE
:10062000B0B502784EF69C5CCEF2000C43784CF8E4
:10063000043CFAB14368CCF80030037BC17A90F8EF
:100640000AE0457B447A42EA0372837B42EA016115
:10065000C27B41EACE41007A41EA854141EA434109
:1006600041EA024141EA042141EA4000CCF8040099
:10067000B0BD00BF0020CCF80000CCF80400B0BD35
:100680004EF62450CEF20000BFF35F8F016821F4D4
:100690008031016000210167704700000000000008
:1006A0004EF6245140F00100CEF2000108670868C0
:1006B00040F480300860BFF34F8FBFF36F8F7047F7
:1006C00081B044F2F440C5F60200016841F0020135
:1006D0000160006800F002000090009801B07047CF
:1006E00070B54EF60C5C4FF0FF36CEF2000C00F108
:1006F000604505F56445DCF80030C3F3022E8EF04A
:100700000703042B28BF0423BEF1030406FA03F3F6
:1007100021EA030100F00F0338BF0024043B002846
:10072000634406FA04F048BF03F10C05A14022EA35
:10073000000008430001287070BD000000000000A8
:100740004EF60C514FF6FF03CEF200010A681A4034
:1007500060F30A2242F0806040F0FD70086070474C
:10076000B0B544F60C05C5F60205296849072968A5
:1007700006D401F00701081A18BF0120B0BD00BF60
:1007800021F0070108432860FFF7D6FE044600BFAA
:1007900055F8080C800407D4FFF7CEFE001BB0F517
:1007A0007A7FF5D90120B0BD0020B0BD0000000067
:1007B0002DE9F0470446C07844F22C480007C5F6FE
:1007C000020833D5A06E4FEA305103290CD8DFE878
:1007D00001F003111D2600BFD8F8001041F40031CC
:1007E000C8F800101BE000BF01266078C0070BD0DE
:1007F00020E000BF04F10800022101F015FB0646CD
:1008000060B16078C00715D1354646E004F1280094
:10081000022101F09DFB06460028F2D1A06ED8F817
:10082000241021F440110843C8F824000026607801
:10083000C007E9D0A06D04280ED83546DFE800F0E7
:100840000412181E1E0000BFD8F80000354640F400
:100850000030C8F8000011E001250127607880070A
:100860001FD452E004F10800002101F0DDFA04E099
:1008700004F12800002101F06BFB05462F461DB155
:10088000607880070DD440E0D8F82400A16D20F0F6
:10089000070000250843C8F8240037466078800721
:1008A00033D5E06D4FEAB01004280DD8DFE800F032
:1008B0000412181E1E0000BFD8F8000040F40030DB
:1008C000C8F8000012E000BF01250126607840074B
:1008D0001FD455E004F10800002101F0A5FA04E05E
:1008E00004F12800002101F033FB05462E461DB11E
:1008F000607840070DD443E0D8F82400E16D20F47F
:10090000E07000250843C8F824003E4660784007A0
:1009100036D5D4F8A8004FEA705004280CD8DFE888
:1009200000F00313191F1F00D8F8000040F4003036
:10093000C8F8000014E000BF01254FF001096078FD
:10094000000721D456E000BF04F10800002101F0A7
:100950006BFA04E004F12800002101F0F9FA0546E1
:10096000A9461DB1607800070ED443E0D8F82C00EA
:10097000D4F8A81020F4600000250843C8F82C0023
:10098000B1466078000735D5D4F8AC004FEA306046
:1009900004280DD8DFE800F00412181E1E0000BF66
:1009A000D8F8000040F40030C8F8000012E000BFA2
:1009B00001250127E078800720D44EE004F10800EB
:1009C000002101F031FA04E004F12800002101F0D7
:1009D000BFFA05462F461DB1E07880070ED43CE0F3
:1009E000D8F82C00D4F8AC1020F0E06000250843C3
:1009F000C8F82C004F46E07880072ED5E06C4FEA0F
:100A0000301003280ED8DFE800F00903130900BFF7
:100A1000D8F8000040F40030C8F800002E467DB938
:100A200012E000BF012501266078C00619D44CE011
:100A300004F10800022101F0F7F905462E461DB128
:100A40006078C0060DD440E0D8F82000E16C20F0BA
:100A5000300000250843C8F820003E466078C006F4
:100A600033D5206E4FEA303004280DD8DFE800F08F
:100A70000412181E1E0000BFD8F8000040F4003019
:100A8000C8F8000012E000BF012501276078800649
:100A90001FD44EE004F10800002101F0C5F904E084
:100AA00004F12800002101F053FA05462F461DB13C
:100AB000607880060DD43CE0D8F82400216E20F444
:100AC000E04000250843C8F82400374660788006D7
:100AD0002FD5606E4FEA3040052809D8DFE800F0D6
:100AE000040E1404040400BF2E46ADB918E000BF84
:100AF00001250126607840061FD44FE004F108006C
:100B0000012101F091F904E004F12800012101F034
:100B10001FFA05462E461DB1607840060DD43DE013
:100B2000D8F82400616E20F4E02000250843C8F8BE
:100B300024003E466078400630D5D4F8B0004FEA35
:100B40003070052808D8DFE800F0030D1303030315
:100B50002F46ADB918E000BF0125012760780006D7
:100B600020D442E004F10800012101F05DF904E025
:100B700004F12800012101F0EBF905462F461DB1D3
:100B8000607800060ED430E0D8F82C00D4F8B0100D
:100B900020F0E04000250843C8F82C003746607874
:100BA000000622D5206F58B1B0F1005F0CD0B0F133
:100BB000805F2FD1D8F8000040F40030C8F8000062
:100BC0002E469DB908E000BF04F10800012101F0A4
:100BD0002BF905462E464DB9D8F82400216F20F098
:100BE000405000250843C8F824003E46E078C0077E
:100BF00033D0A06C032813D8DFE800F008021A08ED
:100C0000D8F8000040F40030C8F80000A946BDB98B
:100C10001AE000BF01250126E078C007E9D11CE0F9
:100C200001254FF00109A07840061AD51CE000BF4D
:100C300004F10800022101F0F7F80546A9461DB1AC
:100C4000A07840060DD50FE0D8F82000A16C20F068
:100C5000030000250843C8F82000B146A0784006EC
:100C600002D44F4618E000BFD8F8D40340F4807097
:100C7000C8F8D403FFF760FC064600BFD8F8D403D9
:100C8000C00507D4FFF758FC801B6428F6D903255C
:100C9000032701E02F468DB12078C00761D0E06FB7
:100CA0004FEAF00005283BD8DFE800F00440460496
:100CB000040400BF002D2E4646D149E0D8F8441068
:100CC000D4F8B400414011F4407F11D0D8F844105A
:100CD000D8F8442042F48032C8F84420D8F84420A0
:100CE00021F4407122F48032C8F84420C8F844103E
:100CF000B0F5807F40F0DE82FFF71EFC064641F231
:100D0000883A0325032700BFD8F84400800700F184
:100D1000CF82FFF711FC801B5045F5D9BCE700BF1F
:100D200001260125207880071FD44CE004F108003B
:100D3000012101F079F804E004F12800012101F01B
:100D400007F905462E461DB1207880070DD43AE0FC
:100D5000D8F82800E16F20F0380000250843C8F8D3
:100D600028003E46207880072DD5A06F052809D899
:100D7000DFE800F0040E1404040400BF2F46ADB9F0
:100D800018E000BF01270125207840071FD44DE05F
:100D900004F10800012101F047F804E004F1280003
:100DA000012101F0D5F805462F461DB120784007F6
:100DB0000DD43BE0D8F82800A16F20F007000025F3
:100DC0000843C8F828003746207840072ED5D4F8C5
:100DD0009400052808D8DFE800F0030D130303038F
:100DE0002E46ADB918E000BF012601252078800607
:100DF00020D451E004F10800012101F015F804E0CD
:100E000004F12800012101F0A3F805462E461DB18A
:100E1000207880060ED43FE0D8F82C00D4F8941047
:100E200020F0070000250843C8F82C003E46207833
:100E3000800631D5D4F890004FEA3070052809D8E3
:100E4000DFE800F0040E1404040400BF2F46ADB91F
:100E500018E000BF012701252078400620D451E08A
:100E600004F10800002100F0DFFF04E004F1280095
:100E7000022101F06DF805462F461DB1207840068D
:100E80000ED43FE0D8F82800D4F8901020F0E040CD
:100E900000250843C8F8280037462078400631D599
:100EA000D4F89C004FEAB020052809D8DFE800F00C
:100EB000040E1404040400BF2E46ADB918E000BFB0
:100EC000012601252078000620D454E004F1080012
:100ED000002100F0A9FF04E004F12800022101F044
:100EE00037F805462E461DB1207800060ED442E0A4
:100EF000D8F82C00D4F89C1020F4E05000250843CA
:100F0000C8F82C003E462078000634D5D4F8A0005E
:100F10004FEA703005280FD8DFE800F004141A04F7
:100F2000040400BF2F46E5B12068010727D4C1069D
:100F30003ED4000355D475E0012701252068010740
:100F4000F5D51CE004F10800002100F06DFF04E07D
:100F500004F12800022100F0FBFF0546002D2F467A
:100F6000E2D1D8F82C00D4F8A01020F4604000257D
:100F70000843C8F82C00374620680107D7D5D4F8B5
:100F80008400B0F5805F09D104F12800022100F04F
:100F9000DFFF002818BF0127D4F88400D8F82810F4
:100FA00021F440510843C8F828002068C106C0D584
:100FB000D4F89800B0F5807F09D104F1280002210F
:100FC00000F0C6FF002818BF0127D4F89800D8F811
:100FD0002C1021F440710843C8F82C00206800034D
:100FE00020D5D4F8A400B0F5003F0FD0B0F5803F75
:100FF00006D078BB04F10800002100F015FF04E0E2
:1010000004F12800022100F0A3FF05462E4655B941
:10101000D8F82C00D4F8A41020F440300025084360
:10102000C8F82C003E46A07840072BD5D4F888009D
:10103000B0F5401F0BD0B0F5001F11D0B0F5801FE8
:101040002AD1D8F8000040F40030C8F800002F463C
:10105000CDB90DE001260125A0784007E6D411E0C6
:1010600004F12800012100F073FF05462F4655B911
:10107000D8F82800D4F8881020F440100025084340
:10108000C8F828003746A078C0070AD13E46216834
:10109000880016D533E000BF01270125A078C007DE
:1010A000F4D0206DB0F5803F10D018BBD8F8000008
:1010B00040F40030C8F800002E4685B12168880051
:1010C0001DD460688A0326D469E000BF04F10800DB
:1010D000022100F0A9FE0546002D2E46EED1D8F8DB
:1010E0002000216D20F4803000250843C8F820003E
:1010F000CCE700BF0126012521688800E1D504F175
:101100002800022100F024FF002818BF0126D4E99E
:1011100000108A0343D5D4F880206FF0010303EB5D
:101120003223022B0BD34FEA322343B1012B40F081
:10113000B980D8F8003043F40033C8F800303DB32C
:10114000CA022FD4CA0037D48A0240D44A0048D4F5
:10115000CA0F55D109025DD4C10766D181076FD48A
:10116000410779D4010700F18380C10600F18C802A
:10117000800607D504F12800022100F0E9FE0028CE
:1011800018BF0125002D18BF01252846BDE8F087AE
:10119000D8F8283023F440731A43C8F8282035467D
:1011A000CA02CFD5D8F82420636F22F000421A4338
:1011B000C8F82420CA00C7D558F81C2CD4F8B83079
:1011C00022F480421A4348F81C2C8A02BED5D8F873
:1011D0002420E36E22F080721A43C8F824204A00CB
:1011E000B6D558F81C2C22F4004248F81C2CD4F830
:1011F000BC2058F81C3C1A4348F81C2CCA0FA9D034
:10120000D8F82020636D22F040521A43C8F82020FD
:101210000902A1D5D8F82810D4F88C2021F4400177
:101220001143C8F82810C10798D004F10800002124
:1012300000F0FAFD002818BF0546606881078FD5C9
:1012400004F10800012100F0EFFD002818BF054659
:10125000606841077FF586AF04F10800022100F0C5
:10126000E3FD002818BF0546606801077FF57DAFE4
:1012700004F12800002100F06BFE002818BF05468D
:101280006068C1067FF574AF04F12800012100F009
:101290005FFE002818BF0546606880067FF572AFC4
:1012A00068E700BF0125CA027FF54CAF7AE700BFAF
:1012B000D4F8B4004FF6CF7358F81C2CC0F2FF03DB
:1012C00000F4407122F47C5203EA10136FF31F30D4
:1012D000B1F5407F08BF1A43002548F81C2CD8F808
:1012E00044100843C8F84400FFF7BBBC00000000EE
:1012F0002DE9F04381B0002800F02A8142F2000875
:101300000446C5F200288946D8F8000000F00F0016
:1013100088420ED2D8F8000020F00F0040EA090001
:10132000C8F80000D8F8000000F00F00484540F071
:101330000F81206844F218474107C5F602070AD515
:1013400021693A6802F07002914204D93A6822F0A9
:1013500070021143396001070AD561697A6802F0A9
:101360007002914204D97A6822F0700211437960C8
:10137000C1060AD5A1697A6802F4E062914204D9F3
:101380007A6822F4E0621143796081060AD5E16946
:10139000BA6802F07002914204D9BA6822F0700271
:1013A0001143B96010F002010AD0E2683B6803F013
:1013B0000F039A4204D93B6823F00F031A433A60A3
:1013C000C20746D0386820F47061D4E901020128D0
:1013D00041EA0201396009D003280DD0022811D159
:1013E00057F8181C890340F1B38010E057F8181C17
:1013F000C90540F1AD800AE057F8181C890140F199
:10140000A78004E057F8181C490740F1A18057F85D
:10141000081C21F00701084347F8080CFFF78CF877
:10142000064641F2883500BF57F8080C616800F0A5
:101430003800B0EBC10F09D0FFF77EF8801BA8423F
:10144000F2D9032001B0BDE8F08300BF206800F0AE
:10145000020151B1E1683A6802F00F02914204D2F0
:101460003A6822F00F0211433960D8F8001001F0F9
:101470000F0149450DD9D8F8001021F00F0141EABC
:101480000901C8F80010D8F8001001F00F01494513
:101490005ED141070AD521693A6802F07002914293
:1014A00004D23A6822F070021143396001070AD56C
:1014B00061697A6802F07002914204D27A6822F07F
:1014C000700211437960C1060AD5A1697A6802F4F5
:1014D000E062914204D27A6822F4E06211437960BA
:1014E00080060AD5E069B96801F07001884204D22B
:1014F000B96821F070010843B86000F02DF8396830
:1015000042F2BC333A68C9F20003C1F3032102F08E
:101510000F02595C9A5C01F01F0120FA01F102F000
:101520001F0040F20C0221FA00F0C2F200421060EB
:1015300040F2040040F20802C2F20040C2F200424F
:101540000068116001B0BDE8F043FFF741B800BF8B
:10155000012001B0BDE8F08344F20041C5F602016C
:101560000869C0F3C200032810D002282ED098BB0F
:101570000868800649F20000C0F2D03058BF7047BA
:101580000968C1F3C101C840704700BF8A6A886A10
:10159000C0F3051CC86ABCF1000F4B6B22D000F0F1
:1015A000010002F003024042022A00EAD3006FF376
:1015B0005F3000EE100AB8EE400A15D0C2B90868D4
:1015C000800619D49FED281A23E000BF47F640009B
:1015D000C0F27D10704700BF40F60010C0F23D0021
:1015E000704700BF002070479FED1E1A11E000BF3A
:1015F0009FED1B1A0DE000BF086849F20002C0F21F
:10160000D032C0F3C10022FA00F001EE100AB8EEA9
:10161000411A086B9FED153A6FF35F2002EE100A36
:10162000086BC0F34620B8EE422A013000EE032AD0
:1016300000EE10CAB7EE003AB8EE400A81EE000A9A
:1016400032EE031A20EE010A01EE100AB8EE411A3A
:1016500080EE010ABCEEC00A10EE100A704700BF0F
:101660000024744A20BCBE4B0024744C0000003996
:10167000F0B581B0002800F063810446007844F2A0
:101680000046C007C5F6020622D12078800740F147
:10169000BC80306910F03801B06A3FD0182908BF0B
:1016A0005FEA80703AD0E0683168002862D021F0AB
:1016B000190108433060FEF73FFF054630684007D8
:1016C00048D4FEF739FF401B0228F7D977E100BF65
:1016D000306900F03801B06A102905D018290BD103
:1016E00000F00300022807D130688003CDD5606880
:1016F0000028CAD124E100BF606800284CD0B0F5B2
:10170000A02F61D0B0F5803F62D0306820F48030E7
:101710003060306820F480205DE000BF3068400712
:10172000E06802D5002800F00B81316821F0190132
:1017300008433060FEF700FF054600BF30684007F1
:1017400008D4FEF7F9FE401B02284FF00300F5D93C
:1017500021E200BFFEF7E8FE41F20301884249D8CA
:1017600020697168402821F47C314BD141F400306C
:101770004AE000BF21F001003060FEF7DDFE0546C3
:101780003068400741D5FEF7D7FE401B02284FF0D6
:101790000300F5D9FFE100BF306820F480303060ED
:1017A000306820F480203060FEF7C6FE054600BF9A
:1017B000306880037FF569AFFEF7BEFE401B6428EA
:1017C0004FF00300F4D9E6E1306840F48020306047
:1017D000306840F480303060FEF7AEFE054600BF52
:1017E000306880033FF551AFFEF7A6FE401B64282A
:1017F000F6D9E4E07068216920F0FE4040EA01601B
:1018000002E000BF41EA003070602078C00654D585
:10181000306900F03801B06A082905D0182919D1BB
:1018200000F00300012815D13068C00503D5E06938
:10183000802840F08580FEF777FE41F20301884260
:101840001ED8206A7168202821F0F84132D141F079
:10185000804031E0E0690028306819D040F0800015
:101860003060FEF769FE05463068C005E3D4FEF738
:1018700063FE401B02284FF00300F5D98BE100BF47
:10188000F068216A20F07C5040EA0160F06014E0CA
:1018900020F080003060FEF74FFE05463068C0053E
:1018A0000BD5FEF749FE401B02284FF00300F5D987
:1018B00071E100BF41EA806070602078000743D486
:1018C0002078800654D42078400765D4656A9DB39B
:1018D000306900F03800182840F0A880012DB16A66
:1018E000306B2DD001F00302A36A9A4228D1C1F3D4
:1018F0000511E26A914223D10146226B6FF35F2109
:10190000013A91421CD1C0F34622616B01398A42EF
:1019100016D1C0F30642A16B01398A4210D1C0F33F
:101920000660E16B013988420AD1706BA16CC0F38B
:10193000CC00814240F03281002001B0F0BD00BFF8
:10194000012001B0F0BD00BF60690028706F39D080
:1019500040F001007067FEF7EFFD0546706F8007ED
:10196000AED4FEF7E9FD401B0228F7D927E000BFFF
:10197000A0690028306847D040F480503060FEF7FE
:10198000DBFD0546306880049DD4FEF7D5FD401B85
:101990000228F7D913E000BFD6F8000440F48070A5
:1019A000C6F80004FEF7C8FD054600BFD6F80004DF
:1019B000C00519D4FEF7C0FD401B6428F6D90320EA
:1019C00001B0F0BD20F001007067FEF7B5FD0546DF
:1019D000706F80077FF574AFFEF7AEFD401B0228E5
:1019E0004FF00300F4D9D6E0A068002840D00528C5
:1019F00058D001285AD0306F20F001003067306F86
:101A000020F0040055E000BF20F480503060FEF765
:101A100093FD0546306880047FF555AFFEF78CFDD9
:101A2000401B02284FF00300F4D9B4E0306820F0E6
:101A300080703060FEF780FD022D05460CD100BF9E
:101A40003068800148D5FEF777FD401B02284FF033
:101A50000300F5D99FE000BF306880017FF56CAFCF
:101A6000FEF76AFD401B02284FF00300F4D992E014
:101A7000306F20F001003067306F20F004003067D5
:101A8000FEF75AFD054641F28837306F80077FF533
:101A90001DAFFEF751FD401BB8424FF00300F4D9D3
:101AA00079E000BF306F40F004003067306F40F0E5
:101AB00001003067FEF740FD054641F2883700BF60
:101AC000306F80073FF502AFFEF736FD401BB8428E
:101AD0004FF00300F4D95EE004F12807B06A40F249
:101AE000F33188438ECF0843591E40EA02104FF469
:101AF0007E426FF35F21B06202EB47204FF4FE029B
:101B000080B2E36B0844A16B02EB01414FF0FE424F
:101B100001F4FE0102EB0362084402F0FE410844B6
:101B20003063F06A4FF6F87120F00100F062706BDC
:101B3000A26C884340EAC2007063F06A216C20F016
:101B40000C000843F062F06A616C20F00200084368
:101B5000F062F06A40F48030F062F06A40F40030E5
:101B6000F062F06A40F48020F062F06A40F0010018
:101B7000F062306840F080703060FEF7DDFC0446B3
:101B8000306880013FF5D8AEFEF7D6FC001B022876
:101B90004FF00300F4D901B0F0BD00BFF06A20F0AF
:101BA0000100F062FEF7C8FC0546FEF7C5FCA8423E
:101BB000FBD0706B4FF6F871A26C884340EAC2000C
:101BC0007063F06A40F00100F062002001B0F0BDE7
:101BD00070B50446007A012802D1022070BD00BF12
:101BE00001202072607A01281ED10D460220607209
:101BF000FEF7A2FC21684A68D2071BD1064602E024
:101C00004868C00716D1FEF797FC801B216803289F
:101C1000F6D34868C007F3D1012060720221E16069
:101C20000021217270BD00BF0420E060012000216E
:101C3000217270BD886820612860012060720020D8
:101C40000021217270BD0000B0B518B30446407A7F
:101C500020B900202072204600F036F80220607281
:101C6000D4E90001026822F02002114301600168FA
:101C700041F004010160406840060DD4FEF75CFCB1
:101C80002168496849070BD4012060720020E06098
:101C9000B0BD00BF0120B0BD042060720120B0BD06
:101CA000054602E040684007EED5FEF745FC401BC4
:101CB00003282068F6D341684907F3D504206072F1
:101CC0000220E0600120B0BD10B5B2B002A9044608
:101CD00001F10800B821FEF702FB41F6000120687F
:101CE000C4F60201884201D032B010BD002003903A
:101CF0004FF40030029002A8FEF75AFD08B1FEF73B
:101D000013FB44F2DC40C5F60200016841F04001DB
:101D10000160006800F040000190019832B010BDF1
:101D2000411E0020B0EB116F02D00120704700BFB0
:101D30004EF21002F023CEF2000251604EF6235113
:101D4000CEF200010B700721906011607047000017
:101D5000FEE700000000000070B586B044F2E040ED
:101D60000025C5F60200059541F200040022016835
:101D7000C5F6020441F0100101600168082601F077
:101D8000100100910099016841F0040101600168AF
:101D900001F0040100910099016841F080010160A7
:101DA000016801F0800100910099016841F0010192
:101DB00001600068082100F00100009000982046B2
:101DC000FEF7AAFB012001A9CDE9020520460196F4
:101DD0000495FEF7C1FA06B070BD000000000000D7
:101DE00080B540F2100041F60001C2F20040C4F696
:101DF0000201016000214160FFF726FF002808BFB3
:101E000080BDBDE88040FEF78FBA000000000000F2
:101E1000FEE7000000000000704700000000000026
:101E20007047000000000000F0B581B044F22C477C
:101E3000C5F6020757F8042C02F00302032A03D167
:101E4000012001B0F0BD00BF054657F82C0C0C4630
:101E500020F0806047F82C0CFEF76EFB064600BFB2
:101E600057F82C0C000105D5FEF766FB801B0228F5
:101E7000F6D964E057F8040CEE6895E80E0020F4FB
:101E80007C30012C40EA0130A2F101016FF35F21A7
:101E90004FF47E4202EB432247F8040C92B24FF01B
:101EA000FE4302EB01004FF4FE012A6901EB0641FB
:101EB00001F4FE0103EB0262084402F0FE41084413
:101EC000F8603868696920F0C00040EA01003860B5
:101ED0003868A96920F0200040EA010038603868BD
:101EE0004FF6F87120F0100038603869EA6920EA8E
:101EF00001004FF4001140EAC2003861386808BFA1
:101F00004FF4801140F01000002C386008BF4FF4EF
:101F1000002138680843386057F82C0C40F0806086
:101F200047F82C0CFEF708FB044600BF57F82C0CB2
:101F3000000107D4FEF700FB001B0328F6D30320A3
:101F400001B0F0BD002001B0F0BD000000000000B5
:101F5000F0B581B044F22C47C5F6020757F8042CBF
:101F600002F00302032A03D1012001B0F0BD00BF3B
:101F7000054657F82C0C0C4620F0805047F82C0CE6
:101F8000FEF7DAFA064600BF57F82C0C800005D59C
:101F9000FEF7D2FA801B0228F6D964E057F8040C49
:101FA000EE6895E80E0020F07C70012C40EA0150AC
:101FB000A2F101016FF35F214FF47E4202EB432255
:101FC00047F8040C92B24FF0FE4302EB01004FF4CD
:101FD000FE012A6901EB064101F4FE0103EB0262F6
:101FE000084402F0FE41084478613868696920F4C9
:101FF000406040EA010038603868A96920F4007048
:1020000040EA0100386038684FF6F87120F48070BB
:102010003860B869EA6920EA01004FF0807140EA4F
:10202000C200B861386808BF4FF4000140F4807006
:10203000002C386008BF4FF48001386808433860CE
:1020400057F82C0C40F0805047F82C0CFEF774FA2F
:10205000044600BF57F82C0C800007D4FEF76CFA3A
:10206000001B0328F6D3032001B0F0BD002001B00F
:10207000F0BD0000000000007047000000000000FC
:10208000FEF762BA0000000070B59CB044F6180478
:1020900009A84C21C5F60204FEF721F9022000250B
:1020A000CDE90755CDE90555CDE90355CDE90155F4
:1020B0000226FEF755FB40F22C400095C5F60000C5
:1020C000016821F001010160006800F0010000904A
:1020D000206866F38F302060206800F44040009054
:1020E00000982068800409D4206880045CBF2068C0
:1020F0005FEA804002D420688004F2D52120099054
:102100004FF480300A9001200F9002200521CDE984
:1021100012001491C02115910421CDE9161009A8CF
:102120001891082419940025CDE91A55FFF7A0FA53
:102130003F20019003204FF48061CDE9020540204B
:102140000494CDE90500CDE9071001A80221FFF7AD
:10215000CFF81CB070BD00004EF6885C4EF67F5084
:10216000CEF2000CCEF6F620DCF8001041F470013F
:10217000CCF8001044F20041C5F602010A6842F0B2
:1021800001020A6000220A610B68184008608A6137
:10219000CA610A628A62CA620A634A638A63CA635C
:1021A0000A644A64086820F48020086041F2000054
:1021B0000A66C5F600400068B2EB507F05D148F2D0
:1021C00008100121C5F2001001604FF000604CF8CA
:1021D000800C704700000000FEE7000000000000D7
:1021E00086B04EF660754FF6A850CEF20005CFF6D9
:1021F000FF704FF0104701242F500294FEF740FA71
:10220000059402AC1B208DF81000204603974FF078
:1022100000088DF813804FF48076ADF81160FEF75A
:10222000FFF940F20110ADF8080016208DF81000FB
:1022300005208DF8130000200397C0F201100590CF
:102240002046ADF81160FEF7EBF90420FEF728FAFE
:102250004FF6B451CFF6FF716858800311D4BFF325
:102260004F8FBFF36F8F45F8108CBFF34F8FBFF3C5
:102270006F8F685840F400306850BFF34F8FBFF342
:102280006F8F6858C00361D44FF624600021CFF6E9
:10229000FF70012343F6E07B29504FF62060CFF614
:1022A000FF70BFF34F8F2858C208C0F3C907C0F3AF
:1022B0004E317E1E03EBD000A7F1020A930700F017
:1022C00003044FEA867E4FEA8A700190F81E009060
:1022D00004E000BF0029A1F1010129D00BEA41105F
:1022E0003A467CB1012C43EA00022A60324609D00A
:1022F000022C4EEA00022A60524603D0019A0243A1
:102300002A60009A032FE5D340EA8270013200F17F
:10231000404C80F0004800F1804900BF043A28603A
:10232000C5F800C0C5F80080C5F80090F6D1D1E727
:102330004FF6B451CFF6FF71BFF34F8F685840F49A
:1023400080306850BFF34F8FBFF36F8FFEF70CF9EB
:10235000FFF79AFEFFF700FDFFF742FD40F210087D
:1023600041F2000648F2B517C2F2004802ADC5F6C8
:102370000206C1F64E374FF4167400BF4046294698
:10238000FFF726FC08213046FEF7BEF80298A0FBB6
:102390000712910901FB1400FDF7CAFFEEE702E006
:1023A00008C8121F08C1002AFAD1704770470020E0
:1023B00001E001C1121F002AFBD17047000000009C
:1023C000010203040102030406070809F023009038
:1023D00000000024100000009E23009000240090C4
:1023E0001000002418040000AE230090000000003C
:1023F00001000000100000000090D0030090D00306
:0400000590000299CC
:00000001FF
