:0200000490006A
:10000000D00A0024AD020090B13F00906931009009
:10001000A93F0090C10300904157009000000000EC
:10002000000000000000000000000000C15300902C
:10003000C903009000000000B93F0090C953009030
:10004000C7020090C7020090C7020090C70200904C
:10005000C7020090C7020090C7020090C70200903C
:10006000C7020090C7020090C7020090C70200902C
:10007000C7020090C7020090C7020090C70200901C
:10008000C7020090C7020090C7020090C70200900C
:10009000C7020090C7020090C7020090C7020090FC
:1000A000C7020090C7020090C7020090C7020090EC
:1000B000C7020090C7020090C7020090C7020090DC
:1000C000C7020090C7020090C7020090C7020090CC
:1000D000C7020090C7020090C7020090C7020090BC
:1000E000C7020090C702009000000000C702009005
:1000F000C7020090C7020090C7020090C70200909C
:10010000C7020090C7020090C7020090C70200908B
:10011000C7020090C7020090C7020090C70200907B
:10012000C7020090C7020090C7020090C70200906B
:10013000C7020090C7020090C7020090C70200905B
:1001400000000000000000000000000000000000AF
:10015000C7020090C7020090C7020090C70200903B
:10016000C7020090C7020090C7020090C70200902B
:10017000C7020090C7020090C7020090C70200901B
:10018000C7020090C7020090C7020090C70200900B
:10019000C7020090C7020090C7020090C7020090FB
:1001A000C7020090C7020090C7020090C7020090EB
:1001B000C7020090C7020090C7020090C7020090DB
:1001C000C7020090C7020090C7020090C7020090CB
:1001D000C7020090C7020090C7020090C7020090BB
:1001E000C7020090C7020090C7020090C7020090AB
:1001F000C7020090C7020090C7020090C70200909B
:10020000C7020090C7020090C7020090C70200908A
:10021000C7020090C7020090C7020090C70200907A
:10022000C7020090C7020090C702009000000000C3
:10023000C7020090C702009000000000C7020090B3
:10024000C7020090C7020090C7020090C70200904A
:10025000C7020090C7020090C7020090C70200903A
:10026000C7020090C7020090C7020090C70200902A
:10027000C7020090C7020090C70200900000000073
:10028000C7020090C7020090C70200900000000063
:1002900000000000C7020090DFF80CD000F05CF80E
:1002A00000480047F1580090D00A002406488047D3
:1002B00006480047FEE7FEE7FEE7FEE7FEE7FEE74B
:1002C000FEE7FEE7FEE7FEE7695500909902009021
:1002D000D2B201E000F8012B491EFBD27047002288
:1002E000F6E710B513460A4604461946FFF7F0FF35
:1002F000204610BD2DE9F05F0546002092469B4642
:1003000088460646814640241BE02846414647462B
:10031000224600F042F853465A46C01A914110D383
:1003200011461846224600F029F82D1A67EB0108FD
:100330004F4622460120002100F020F817EB00096B
:100340004E41201EA4F10104DFDC484631462A4616
:100350004346BDE8F09F0000064C074D06E0E0680C
:1003600040F0010394E8070098471034AC42F6D3FC
:10037000FFF796FF1013019030130190202A04DB41
:10038000203A00FA02F1002070479140C2F12003A8
:1003900020FA03F3194390407047202A04DB203AE7
:1003A00021FA02F00021704721FA02F3D040C2F195
:1003B00020029140084319467047000000000000E9
:1003C000FEE7000000000000704700000000000091
:1003D00010B541F200040821C5F6020401222046AE
:1003E00000F006F940F2F31000F00EF808210022A8
:1003F000204600F0FDF840F2F310BDE8104000F098
:1004000003B8000000000000B0B5044600F008F991
:1004100040F200010546C2F20041621C097818BF93
:100420000C4400BF00F0FCF8401BA042FAD3B0BD62
:100430002DE9F04F82B00D68002D00F0CB8000F167
:10044000264242F2004302F1FF72C5F602030A2679
:1004500098424FEAB22444F2F44E08BF0926092C10
:1004600040F2040C38BF4FEAB226C5F6020EC5F6BC
:10047000000C009600220027002609E001360D68D6
:1004800035FA06F307F1040702F1020200F0A28038
:10049000012303FA06F415EA0408EFD0D1F804A00A
:1004A00003230AF0030B9340ABF101056FEA030944
:1004B000012D0FD88368CD6803EA090395402B43CB
:1004C0008360CAF300154368A34305FA06F4234387
:1004D000436005E0BBF1030F02D14FF0030B21E0B5
:1004E000C3688C6803EA09039440BBF1020F43EA36
:1004F0000403C36016D16FF0030307F01C0503EA81
:1005000056030F24034404FA05FBD3F820A00C691A
:100510002AEA0B0AAC4044EA0A041C62D1F804A09F
:100520000AF0030B03680BFA02F403EA09031AF456
:10053000403F43EA04030360A0D0DEF8003040F2FD
:10054000084A43F00203CEF80030DEF80030C5F66A
:10055000000A03F00203019326F00303019C07F055
:100560000C040F2553F80A90A54029EA0509009DBF
:1005700005FA04F444EA090443F80A404FF0B04A8B
:10058000DAF800904C6849EA0805E30258BF29EA06
:100590000805A302CAF80050DCF8009049EA0805F3
:1005A00058BF29EA0805A303CCF80050DCF8809076
:1005B00049EA080558BF29EA0805E403CCF8805049
:1005C000DCF87C3043EA080558BF23EA0805CCF87C
:1005D0007C5053E702B0BDE8F08F0000000000003F
:1005E0000069084018BF01207047000000000000AB
:1005F000002A08BF09048161704700000000000064
:1006000041F20000C5F6004000686FF31F307047EC
:1006100041F20000C5F600400068000C7047000081
:1006200040F2C860C2F2004000687047000000005D
:1006300040F2000040F2C861C2F20040C2F2004144
:1006400000780A681044086070470000000000004D
:1006500080B5032000F0E8F800F0FEFF44F21841F6
:1006600046F23803C5F60201C9F200030A680968B8
:1006700001F00F01C2F30322595C9A5C01F01F01E3
:1006800002F01F02D04040F20C02C2F2004220FAF7
:1006900001F1116040F20801C2F20041086000203F
:1006A00000F00AF800281CBF012080BD00F07CF893
:1006B000002080BD0000000070B540F20006C2F2CC
:1006C00000463178E1B1044640F20800C2F2004031
:1006D0004FF47A72B2FBF1F10068B0FBF1F002F076
:1006E0003BF90F2C4FF0010508D838B94FF0FF3017
:1006F00000222146002500F067F87460284670BD8E
:10070000012070BD00000000B0B502784EF69C5C80
:10071000CEF2000C43784CF8043CFAB14368CCF8B4
:100720000030037BC17A90F80AE0457B447A42EAC4
:100730000372837B42EA0161C27B41EACE41007AC7
:1007400041EA854141EA434141EA024141EA04214B
:1007500041EA4000CCF80400B0BD00BF0020CCF856
:100760000000CCF80400B0BD4EF62450CEF20000DC
:10077000BFF35F8F016821F48031016000210167C0
:1007800070470000000000004EF6245140F00100C8
:10079000CEF200010867086840F480300860BFF3BB
:1007A0004F8FBFF36F8F704781B044F2F440C5F6AE
:1007B0000200016841F002010160006800F00200DF
:1007C0000090009801B0704770B54EF60C5C4FF089
:1007D000FF36CEF2000C00F1604505F56445DCF80B
:1007E0000030C3F3022E8EF00703042B28BF04232E
:1007F000BEF1030406FA03F321EA030100F00F033C
:1008000038BF0024043B0028634406FA04F048BFC4
:1008100003F10C05A14022EA000008430001287002
:1008200070BD0000000000004EF60C514FF6FF03B3
:10083000CEF200010A681A4060F30A2242F080609A
:1008400040F0FD7008607047B0B544F60C05C5F681
:10085000020529684907296806D401F00701081A2A
:1008600018BF0120B0BD00BF21F007010843286078
:10087000FFF7D6FE044600BF55F8080C800407D4E5
:10088000FFF7CEFE001BB0F57A7FF5D90120B0BD91
:100890000020B0BD0000000044F60000C5F60200D4
:1008A000016841F4807101607047000000000000A1
:1008B0002DE9F0470446C07844F22C480007C5F6FD
:1008C000020833D5A06E4FEA305103290CD8DFE877
:1008D00001F003111D2600BFD8F8001041F40031CB
:1008E000C8F800101BE000BF01266078C0070BD0DD
:1008F00020E000BF04F10800022103F061FB06467E
:1009000060B16078C00715D1354646E004F1280093
:10091000022103F0E9FB06460028F2D1A06ED8F8C8
:10092000241021F440110843C8F824000026607800
:10093000C007E9D0A06D04280ED83546DFE800F0E6
:100940000412181E1E0000BFD8F80000354640F4FF
:100950000030C8F8000011E0012501276078800709
:100960001FD452E004F10800002103F029FB04E049
:1009700004F12800002103F0B7FB05462F461DB106
:10098000607880070DD440E0D8F82400A16D20F0F5
:10099000070000250843C8F8240037466078800720
:1009A00033D5E06D4FEAB01004280DD8DFE800F031
:1009B0000412181E1E0000BFD8F8000040F40030DA
:1009C000C8F8000012E000BF01250126607840074A
:1009D0001FD455E004F10800002103F0F1FA04E00F
:1009E00004F12800002103F07FFB05462E461DB1CF
:1009F000607840070DD443E0D8F82400E16D20F47E
:100A0000E07000250843C8F824003E46607840079F
:100A100036D5D4F8A8004FEA705004280CD8DFE887
:100A200000F00313191F1F00D8F8000040F4003035
:100A3000C8F8000014E000BF01254FF001096078FC
:100A4000000721D456E000BF04F10800002103F0A4
:100A5000B7FA04E004F12800002103F045FB054645
:100A6000A9461DB1607800070ED443E0D8F82C00E9
:100A7000D4F8A81020F4600000250843C8F82C0022
:100A8000B1466078000735D5D4F8AC004FEA306045
:100A900004280DD8DFE800F00412181E1E0000BF65
:100AA000D8F8000040F40030C8F8000012E000BFA1
:100AB00001250127E078800720D44EE004F10800EA
:100AC000002103F07DFA04E004F12800002103F086
:100AD0000BFB05462F461DB1E07880070ED43CE0A5
:100AE000D8F82C00D4F8AC1020F0E06000250843C2
:100AF000C8F82C004F46E07880072ED5E06C4FEA0E
:100B0000301003280ED8DFE800F00903130900BFF6
:100B1000D8F8000040F40030C8F800002E467DB937
:100B200012E000BF012501266078C00619D44CE010
:100B300004F10800022103F043FA05462E461DB1D8
:100B40006078C0060DD440E0D8F82000E16C20F0B9
:100B5000300000250843C8F820003E466078C006F3
:100B600033D5206E4FEA303004280DD8DFE800F08E
:100B70000412181E1E0000BFD8F8000040F4003018
:100B8000C8F8000012E000BF012501276078800648
:100B90001FD44EE004F10800002103F011FA04E034
:100BA00004F12800002103F09FFA05462F461DB1ED
:100BB000607880060DD43CE0D8F82400216E20F443
:100BC000E04000250843C8F82400374660788006D6
:100BD0002FD5606E4FEA3040052809D8DFE800F0D5
:100BE000040E1404040400BF2E46ADB918E000BF83
:100BF00001250126607840061FD44FE004F108006B
:100C0000012103F0DDF904E004F12800012103F0E3
:100C10006BFA05462E461DB1607840060DD43DE0C6
:100C2000D8F82400616E20F4E02000250843C8F8BD
:100C300024003E466078400630D5D4F8B0004FEA34
:100C40003070052808D8DFE800F0030D1303030314
:100C50002F46ADB918E000BF0125012760780006D6
:100C600020D442E004F10800012103F0A9F904E0D6
:100C700004F12800012103F037FA05462F461DB183
:100C8000607800060ED430E0D8F82C00D4F8B0100C
:100C900020F0E04000250843C8F82C003746607873
:100CA000000622D5206F58B1B0F1005F0CD0B0F132
:100CB000805F2FD1D8F8000040F40030C8F8000061
:100CC0002E469DB908E000BF04F10800012103F0A1
:100CD00077F905462E464DB9D8F82400216F20F04B
:100CE000405000250843C8F824003E46E078C0077D
:100CF00033D0A06C032813D8DFE800F008021A08EC
:100D0000D8F8000040F40030C8F80000A946BDB98A
:100D10001AE000BF01250126E078C007E9D11CE0F8
:100D200001254FF00109A07840061AD51CE000BF4C
:100D300004F10800022103F043F90546A9461DB15C
:100D4000A07840060DD50FE0D8F82000A16C20F067
:100D5000030000250843C8F82000B146A0784006EB
:100D600002D44F4618E000BFD8F8D40340F4807096
:100D7000C8F8D403FFF754FC064600BFD8F8D403E4
:100D8000C00507D4FFF74CFC801B6428F6D9032567
:100D9000032701E02F468DB12078C00761D0E06FB6
:100DA0004FEAF00005283BD8DFE800F00440460495
:100DB000040400BF002D2E4646D149E0D8F8441067
:100DC000D4F8B400414011F4407F11D0D8F8441059
:100DD000D8F8442042F48032C8F84420D8F844209F
:100DE00021F4407122F48032C8F84420C8F844103D
:100DF000B0F5807F40F0DE82FFF712FC064641F23C
:100E0000883A0325032700BFD8F84400800700F183
:100E1000CF82FFF705FC801B5045F5D9BCE700BF2A
:100E200001260125207880071FD44CE004F108003A
:100E3000012103F0C5F804E004F12800012103F0CA
:100E400053F905462E461DB1207880070DD43AE0AF
:100E5000D8F82800E16F20F0380000250843C8F8D2
:100E600028003E46207880072DD5A06F052809D898
:100E7000DFE800F0040E1404040400BF2F46ADB9EF
:100E800018E000BF01270125207840071FD44DE05E
:100E900004F10800012103F093F804E004F12800B4
:100EA000012103F021F905462F461DB120784007A6
:100EB0000DD43BE0D8F82800A16F20F007000025F2
:100EC0000843C8F828003746207840072ED5D4F8C4
:100ED0009400052808D8DFE800F0030D130303038E
:100EE0002E46ADB918E000BF012601252078800606
:100EF00020D451E004F10800012103F061F804E07E
:100F000004F12800012103F0EFF805462E461DB13B
:100F1000207880060ED43FE0D8F82C00D4F8941046
:100F200020F0070000250843C8F82C003E46207832
:100F3000800631D5D4F890004FEA3070052809D8E2
:100F4000DFE800F0040E1404040400BF2F46ADB91E
:100F500018E000BF012701252078400620D451E089
:100F600004F10800002103F02BF804E004F128004C
:100F7000022103F0B9F805462F461DB1207840063E
:100F80000ED43FE0D8F82800D4F8901020F0E040CC
:100F900000250843C8F8280037462078400631D598
:100FA000D4F89C004FEAB020052809D8DFE800F00B
:100FB000040E1404040400BF2E46ADB918E000BFAF
:100FC000012601252078000620D454E004F1080011
:100FD000002102F0F5FF04E004F12800022103F0F3
:100FE00083F805462E461DB1207800060ED442E057
:100FF000D8F82C00D4F89C1020F4E05000250843C9
:10100000C8F82C003E462078000634D5D4F8A0005D
:101010004FEA703005280FD8DFE800F004141A04F6
:10102000040400BF2F46E5B12068010727D4C1069C
:101030003ED4000355D475E001270125206801073F
:10104000F5D51CE004F10800002102F0B9FF04E02E
:1010500004F12800022103F047F80546002D2F4631
:10106000E2D1D8F82C00D4F8A01020F4604000257C
:101070000843C8F82C00374620680107D7D5D4F8B4
:101080008400B0F5805F09D104F12800022103F04B
:101090002BF8002818BF0127D4F88400D8F82810AE
:1010A00021F440510843C8F828002068C106C0D583
:1010B000D4F89800B0F5807F09D104F1280002210E
:1010C00003F012F8002818BF0127D4F89800D8F8C8
:1010D0002C1021F440710843C8F82C00206800034C
:1010E00020D5D4F8A400B0F5003F0FD0B0F5803F74
:1010F00006D078BB04F10800002102F061FF04E093
:1011000004F12800022102F0EFFF05462E4655B9F2
:10111000D8F82C00D4F8A41020F44030002508435F
:10112000C8F82C003E46A07840072BD5D4F888009C
:10113000B0F5401F0BD0B0F5001F11D0B0F5801FE7
:101140002AD1D8F8000040F40030C8F800002F463B
:10115000CDB90DE001260125A0784007E6D411E0C5
:1011600004F12800012102F0BFFF05462F4655B9C2
:10117000D8F82800D4F8881020F44010002508433F
:10118000C8F828003746A078C0070AD13E46216833
:10119000880016D533E000BF01270125A078C007DD
:1011A000F4D0206DB0F5803F10D018BBD8F8000007
:1011B00040F40030C8F800002E4685B12168880050
:1011C0001DD460688A0326D469E000BF04F10800DA
:1011D000022102F0F5FE0546002D2E46EED1D8F88C
:1011E0002000216D20F4803000250843C8F820003D
:1011F000CCE700BF0126012521688800E1D504F174
:101200002800022102F070FF002818BF0126D4E94F
:1012100000108A0343D5D4F880206FF0010303EB5C
:101220003223022B0BD34FEA322343B1012B40F080
:10123000B980D8F8003043F40033C8F800303DB32B
:10124000CA022FD4CA0037D48A0240D44A0048D4F4
:10125000CA0F55D109025DD4C10766D181076FD489
:10126000410779D4010700F18380C10600F18C8029
:10127000800607D504F12800022102F035FF00287E
:1012800018BF0125002D18BF01252846BDE8F087AD
:10129000D8F8283023F440731A43C8F8282035467C
:1012A000CA02CFD5D8F82420636F22F000421A4337
:1012B000C8F82420CA00C7D558F81C2CD4F8B83078
:1012C00022F480421A4348F81C2C8A02BED5D8F872
:1012D0002420E36E22F080721A43C8F824204A00CA
:1012E000B6D558F81C2C22F4004248F81C2CD4F82F
:1012F000BC2058F81C3C1A4348F81C2CCA0FA9D033
:10130000D8F82020636D22F040521A43C8F82020FC
:101310000902A1D5D8F82810D4F88C2021F4400176
:101320001143C8F82810C10798D004F10800002123
:1013300002F046FE002818BF0546606881078FD579
:1013400004F10800012102F03BFE002818BF054609
:10135000606841077FF586AF04F10800022102F0C2
:101360002FFE002818BF0546606801077FF57DAF96
:1013700004F12800002102F0B7FE002818BF05463E
:101380006068C1067FF574AF04F12800012102F006
:10139000ABFE002818BF0546606880067FF572AF77
:1013A00068E700BF0125CA027FF54CAF7AE700BFAE
:1013B000D4F8B4004FF6CF7358F81C2CC0F2FF03DA
:1013C00000F4407122F47C5203EA10136FF31F30D3
:1013D000B1F5407F08BF1A43002548F81C2CD8F807
:1013E00044100843C8F84400FFF7BBBC00000000ED
:1013F0002DE9F04381B0002800F02A8142F2000874
:101400000446C5F200288946D8F8000000F00F0015
:1014100088420ED2D8F8000020F00F0040EA090000
:10142000C8F80000D8F8000000F00F00484540F070
:101430000F81206844F218474107C5F602070AD514
:1014400021693A6802F07002914204D93A6822F0A8
:1014500070021143396001070AD561697A6802F0A8
:101460007002914204D97A6822F0700211437960C7
:10147000C1060AD5A1697A6802F4E062914204D9F2
:101480007A6822F4E0621143796081060AD5E16945
:10149000BA6802F07002914204D9BA6822F0700270
:1014A0001143B96010F002010AD0E2683B6803F012
:1014B0000F039A4204D93B6823F00F031A433A60A2
:1014C000C20746D0386820F47061D4E901020128CF
:1014D00041EA0201396009D003280DD0022811D158
:1014E00057F8181C890340F1B38010E057F8181C16
:1014F000C90540F1AD800AE057F8181C890140F198
:10150000A78004E057F8181C490740F1A18057F85C
:10151000081C21F00701084347F8080CFFF780F882
:10152000064641F2883500BF57F8080C616800F0A4
:101530003800B0EBC10F09D0FFF772F8801BA8424A
:10154000F2D9032001B0BDE8F08300BF206800F0AD
:10155000020151B1E1683A6802F00F02914204D2EF
:101560003A6822F00F0211433960D8F8001001F0F8
:101570000F0149450DD9D8F8001021F00F0141EABB
:101580000901C8F80010D8F8001001F00F01494512
:101590005ED141070AD521693A6802F07002914292
:1015A00004D23A6822F070021143396001070AD56B
:1015B00061697A6802F07002914204D27A6822F07E
:1015C000700211437960C1060AD5A1697A6802F4F4
:1015D000E062914204D27A6822F4E06211437960B9
:1015E00080060AD5E069B96801F07001884204D22A
:1015F000B96821F070010843B86000F02DF839682F
:1016000046F238033A68C9F20003C1F3032102F03D
:101610000F02595C9A5C01F01F0120FA01F102F0FF
:101620001F0040F20C0221FA00F0C2F200421060EA
:1016300040F2040040F20802C2F20040C2F200424E
:101640000068116001B0BDE8F043FFF735B800BF96
:10165000012001B0BDE8F08344F20041C5F602016B
:101660000869C0F3C200032810D002282ED098BB0E
:101670000868800649F20000C0F2D03058BF7047B9
:101680000968C1F3C101C840704700BF8A6A886A0F
:10169000C0F3051CC86ABCF1000F4B6B22D000F0F0
:1016A000010002F003024042022A00EAD3006FF375
:1016B0005F3000EE100AB8EE400A15D0C2B90868D3
:1016C000800619D49FED281A23E000BF47F640009A
:1016D000C0F27D10704700BF40F60010C0F23D0020
:1016E000704700BF002070479FED1E1A11E000BF39
:1016F0009FED1B1A0DE000BF086849F20002C0F21E
:10170000D032C0F3C10022FA00F001EE100AB8EEA8
:10171000411A086B9FED153A6FF35F2002EE100A35
:10172000086BC0F34620B8EE422A013000EE032ACF
:1017300000EE10CAB7EE003AB8EE400A81EE000A99
:1017400032EE031A20EE010A01EE100AB8EE411A39
:1017500080EE010ABCEEC00A10EE100A704700BF0E
:101760000024744A20BCBE4B0024744C0000003995
:10177000F0B581B0002800F063810446007844F29F
:101780000046C007C5F6020622D12078800740F146
:10179000BC80306910F03801B06A3FD0182908BF0A
:1017A0005FEA80703AD0E0683168002862D021F0AA
:1017B000190108433060FEF733FF054630684007E3
:1017C00048D4FEF72DFF401B0228F7D977E100BF70
:1017D000306900F03801B06A102905D018290BD102
:1017E00000F00300022807D130688003CDD560687F
:1017F0000028CAD124E100BF606800284CD0B0F5B1
:10180000A02F61D0B0F5803F62D0306820F48030E6
:101810003060306820F480205DE000BF3068400711
:10182000E06802D5002800F00B81316821F0190131
:1018300008433060FEF7F4FE054600BF30684007FD
:1018400008D4FEF7EDFE401B02284FF00300F5D947
:1018500021E200BFFEF7DCFE41F20301884249D8D5
:1018600020697168402821F47C314BD141F400306B
:101870004AE000BF21F001003060FEF7D1FE0546CE
:101880003068400741D5FEF7CBFE401B02284FF0E1
:101890000300F5D9FFE100BF306820F480303060EC
:1018A000306820F480203060FEF7BAFE054600BFA5
:1018B000306880037FF569AFFEF7B2FE401B6428F5
:1018C0004FF00300F4D9E6E1306840F48020306046
:1018D000306840F480303060FEF7A2FE054600BF5D
:1018E000306880033FF551AFFEF79AFE401B642835
:1018F000F6D9E4E07068216920F0FE4040EA01601A
:1019000002E000BF41EA003070602078C00654D584
:10191000306900F03801B06A082905D0182919D1BA
:1019200000F00300012815D13068C00503D5E06937
:10193000802840F08580FEF76BFE41F2030188426B
:101940001ED8206A7168202821F0F84132D141F078
:10195000804031E0E0690028306819D040F0800014
:101960003060FEF75DFE05463068C005E3D4FEF743
:1019700057FE401B02284FF00300F5D98BE100BF52
:10198000F068216A20F07C5040EA0160F06014E0C9
:1019900020F080003060FEF743FE05463068C00549
:1019A0000BD5FEF73DFE401B02284FF00300F5D992
:1019B00071E100BF41EA806070602078000743D485
:1019C0002078800654D42078400765D4656A9DB39A
:1019D000306900F03800182840F0A880012DB16A65
:1019E000306B2DD001F00302A36A9A4228D1C1F3D3
:1019F0000511E26A914223D10146226B6FF35F2108
:101A0000013A91421CD1C0F34622616B01398A42EE
:101A100016D1C0F30642A16B01398A4210D1C0F33E
:101A20000660E16B013988420AD1706BA16CC0F38A
:101A3000CC00814240F03281002001B0F0BD00BFF7
:101A4000012001B0F0BD00BF60690028706F39D07F
:101A500040F001007067FEF7E3FD0546706F8007F8
:101A6000AED4FEF7DDFD401B0228F7D927E000BF0A
:101A7000A0690028306847D040F480503060FEF7FD
:101A8000CFFD0546306880049DD4FEF7C9FD401B9C
:101A90000228F7D913E000BFD6F8000440F48070A4
:101AA000C6F80004FEF7BCFD054600BFD6F80004EA
:101AB000C00519D4FEF7B4FD401B6428F6D90320F5
:101AC00001B0F0BD20F001007067FEF7A9FD0546EA
:101AD000706F80077FF574AFFEF7A2FD401B0228F0
:101AE0004FF00300F4D9D6E0A068002840D00528C4
:101AF00058D001285AD0306F20F001003067306F85
:101B000020F0040055E000BF20F480503060FEF764
:101B100087FD0546306880047FF555AFFEF780FDF0
:101B2000401B02284FF00300F4D9B4E0306820F0E5
:101B300080703060FEF774FD022D05460CD100BFA9
:101B40003068800148D5FEF76BFD401B02284FF03E
:101B50000300F5D99FE000BF306880017FF56CAFCE
:101B6000FEF75EFD401B02284FF00300F4D992E01F
:101B7000306F20F001003067306F20F004003067D4
:101B8000FEF74EFD054641F28837306F80077FF53E
:101B90001DAFFEF745FD401BB8424FF00300F4D9DE
:101BA00079E000BF306F40F004003067306F40F0E4
:101BB00001003067FEF734FD054641F2883700BF6B
:101BC000306F80073FF502AFFEF72AFD401BB84299
:101BD0004FF00300F4D95EE004F12807B06A40F248
:101BE000F33188438ECF0843591E40EA02104FF468
:101BF0007E426FF35F21B06202EB47204FF4FE029A
:101C000080B2E36B0844A16B02EB01414FF0FE424E
:101C100001F4FE0102EB0362084402F0FE410844B5
:101C20003063F06A4FF6F87120F00100F062706BDB
:101C3000A26C884340EAC2007063F06A216C20F015
:101C40000C000843F062F06A616C20F00200084367
:101C5000F062F06A40F48030F062F06A40F40030E4
:101C6000F062F06A40F48020F062F06A40F0010017
:101C7000F062306840F080703060FEF7D1FC0446BE
:101C8000306880013FF5D8AEFEF7CAFC001B022881
:101C90004FF00300F4D901B0F0BD00BFF06A20F0AE
:101CA0000100F062FEF7BCFC0546FEF7B9FCA84255
:101CB000FBD0706B4FF6F871A26C884340EAC2000B
:101CC0007063F06A40F00100F062002001B0F0BDE6
:101CD000006800EB8100006D70470000000000000C
:101CE000006800EB81000265704700000000000002
:101CF000B0B50068002A40684FEA104300F03F0C7E
:101D0000C0F3042ECB70C0F3423281F801E081F8B9
:101D100002C00A7002D00020B0BD00BFDAB24FEAA4
:101D20001E14120903F00F03050A00F00F0002EB66
:101D3000820205F00F0503EB4202CA7044EA8403F5
:101D40004FEA1C1405EB43034B7044EA840200EB9A
:101D5000420088700020B0BDB0B50068002A836AD8
:101D60004B6003696FF3DF338B60006800F07F0C1A
:101D700081F802C0C0F305430B70C0F3062E81F852
:101D800001E0C0F38052CA7002D00020B0BD00BF95
:101D90001B09020C43EA830302F00F024FEA1E14F0
:101DA00002EB43020A7004EB84034FEA1C14050A99
:101DB00000F00F0004EB840205F00F0505EB430370
:101DC0004B7000EB420088700020B0BD00000000A6
:101DD000B0B5002846D0044690F8210028B900206C
:101DE00084F82000204600F05BF8022084F82100EF
:101DF0002168C868C00643D4CA204862532048629C
:101E0000C868400614D44FF0FF30C860FEF708FCE5
:101E10002168CA6852060BD4054600BFFEF700FCD5
:101E2000401BB0F57A7F31D82168C8684006F5D5E7
:101E30004FF6BF728868CFF68F72251D10408860FC
:101E40002DCD2843A56928438D682843886043EA3F
:101E500002400861204602F0DBF9216820B1FF2230
:101E60004A62B0BD0120B0BDC86C20F00300C86458
:101E70006069E2691043CA6C1043C864FF2048627D
:101E8000012084F821000020B0BD00BF032084F8A9
:101E900021002168CA68FF224A62B0BD000000002C
:101EA00010B5B0B06946044601F10800B821FEF74C
:101EB00016FA44F200012068C5F60001884201D0FC
:101EC00030B010BD002001904FF4800000904FF41E
:101ED00080702D906846FEF7EBFC08B1FEF778FAAB
:101EE00044F27040C5F60200016841F4004101600F
:101EF00030B010BD000000002DE9F041044690F81C
:101F0000200001284FF0020008BFBDE8F0814FF02B
:101F1000010384F8203084F821003AB14878CA7867
:101F20008E78000240EA024845E000BF4878C206C9
:101F300003D500F0EF000A304870CA784FF0CD0C9E
:101F4000A0F10A054FF0010EA2F10A03092ADFB23F
:101F500007FB0CF74FEAD72606EB8606A3EB4608ED
:101F6000EEB206FB0CF30EEBD72688BF48EA06124A
:101F7000DF0A8E780EEBD3230928D2B207EB87074E
:101F8000A5EB470588BF45EA0310A6F10A03092E11
:101F9000DDB2C0B205FB0CF74FEA00204FEAD725AF
:101FA00040EA024805EB85000EEBD722A3EB400088
:101FB00088BF40EA021622680F78CA205062532078
:101FC0005062D068400613D44FF0FF30D060FEF767
:101FD00027FB2268D16849060AD40546FEF720FB94
:101FE000401BB0F57A7F23D82268D0684006F5D52B
:101FF000F0B2790340EA080020F0C00008435060C6
:10200000204602F005F921684FF0FF024A6228B12C
:10201000002184F82010BDE8F08100BF012084F881
:1020200021000020002184F82010BDE8F08100BFCD
:10203000032084F821002168CA68FF224A62002137
:1020400084F82010BDE8F0812DE9F047044690F8AF
:10205000200001284FF0020008BFBDE8F0870D46C0
:10206000012184F82010164684F82100CA20216836
:10207000486253204862C868400614D44FF0FF30CD
:10208000C860FEF7CDFA2168CA6852060BD407462D
:10209000FEF7C6FAC01BB0F57A7F00F28D8021688A
:1020A000C8684006F4D5886800F0400036B158B9D9
:1020B0004FF0000E85F803E009E000BF70B94FF063
:1020C000000E85F803E00CE0E8784FEA805E28789F
:1020D0006B78AA781B0243EA004341E0E8784FEAB4
:1020E000805E2B784FF0CD0C68784FF00109A3F19A
:1020F0000A02092BD7B207FB0CFA4FEADA2609EBE2
:10210000DA2A06EB8606A2EB4608A0F10A06F2B22E
:1021100002FB0CF788BF48EA0A13FA0A0928DBB267
:1021200009EBD72702EB8208AA78A6EB480688BFFE
:1021300046EA0710A2F10A06092AF7B2C0B207FB65
:102140000CF74FEA00204FEAD72C40EA03430CEB90
:102150008C0009EBD727A6EB400088BF40EA0712A6
:10216000D0B247F67F721843C0F27F0240EA0E00F9
:1021700010400860886820F480208860D5E9030258
:1021800010438A6810438860204602F041F82168B5
:102190004FF0FF024A6228B1002184F82010BDE808
:1021A000F08700BF012084F821000020002184F87E
:1021B0002010BDE8F08700BF032084F821002168CB
:1021C000CA68FF224A62002184F82010BDE8F08727
:1021D0002DE9F04381B000285BD043F600010446AE
:1021E0000068C4F2000143F2000E43F6004C88423E
:1021F000C4F2010EC4F2000C4FF00002A26203D040
:10220000604518BF704541D1E36B0125E268884203
:1022100002F1080205EB53134FEAD20202FB03F36B
:1022200018BF704526D1102B33D894F8810028B9F7
:10223000002084F88000204600F0AAF8022084F8EC
:102240008100D4E90009D4F818800368B8F1806FE0
:1022500023F001030360836803F4F81E26D1B9F16B
:10226000000F1BD0B9F5800F20D1A36BD3B14FF471
:10227000800921E0604518BF082B0AD80CF574418D
:10228000884218BF6045CED0CFE700BFE3680F2B70
:10229000BAD9012001B0BDE8F08300BFA36BB3F150
:1022A000805F71D1036843F4805303605FEA492380
:1022B00002D44FF0010C0FE0E368072B0AD3056846
:1022C00025F4807C256D45EA0C0505604FF0000C77
:1022D00007E000BF4FF0000C036823F48073036035
:1022E000E368E769A26A47EA0E07E16B3A43A5682B
:1022F00011432669676919438160B9F1000F626A69
:10230000D4E90D1341EA0201226A41EA0301E36CB8
:1023100041EA060141EA070141EA0201A26C41EAF1
:102320000301A36D41EA050141EA020141EA03010B
:1023300041EA080141EA0901C1600DD0016DBCF11B
:10234000000F21F00101016514D1C168626D21F017
:1023500000411143C1600DE08168012262F3CC218C
:1023600081608168022262F34A218160016D21F05F
:10237000010101650020C4F88400012184F8811066
:1023800001B0BDE8F08300BF4FF0000991E7000005
:1023900010B5B6B06946044601F10800B821FDF752
:1023A0009EFF43F200412068C4F20101884201D03F
:1023B00036B010BD4FF400500090684600240194E0
:1023C000FEF776FA08B1FEF703F844F2E040C5F6EE
:1023D0000200016941F400510161016901F40051F9
:1023E00031913199016841F010010160006831A913
:1023F00000F01000319031984FF4A040319002204D
:10240000CDE9320434900520359041F20000C5F644
:102410000200FEF70DF836B010BD0000000000000D
:102420002DE9F04381B0044690F8800001281CD0CB
:102430001D4617460E46D4F80090012084F880000F
:10244000FEF7EEF894F8811001290BD1002E18BF89
:10245000002F0FD1002084F88000012001B0BDE8DA
:10246000F08300BF002084F88000022001B0BDE8A6
:10247000F08300BF8046042084F881000020C4F867
:1024800084006666A4F86870A4F86A70E065A4F831
:102490006000A4F86200A1682067B1F5C02F6067F2
:1024A000206805D1016821F40061016005E000BFEA
:1024B000C168022262F35241C16041684FF6FF7267
:1024C000914339444160016841F001010160616854
:1024D000B1F5800F03D1016841F400710160E1683A
:1024E000102925D3B4F86A00002800F0CA80681CBF
:1024F00000F0AC8048F208060FE000BF006B616E90
:1025000041F8040B6166B4F86A000138A4F86A0067
:10251000B4F86A00002800F0B480206841693142B4
:10252000ECD1FEF77DF8A0EB0800A842F0D35FE005
:10253000B4F86A0007293BD9002800F0A280681C83
:1025400010D121E0B9F83000616E21F8020B61660C
:10255000B4F86A000138A4F86A00B4F86A000028E8
:1025600000F08F8020684069C007EBD1FEF758F873
:10257000A0EB0800A842F0D33AE000BFFEF750F805
:10258000B4F86A0000287CD020684069C007F5D004
:10259000B9F83000616E21F8020B6166B4F86A0088
:1025A0000138A4F86A00B4F86A000028ECD168E0A9
:1025B000002866D0681C11D133E000BF90F83000CD
:1025C000616E0870606E01306066B4F86A000138B0
:1025D000A4F86A00B4F86A00002852D02068416963
:1025E000C907EBD1FEF71CF8A0EB0800A842F1D315
:1025F000204601F055FE002084F88000D4F88400C5
:1026000040F48070C4F88400012084F88100032025
:1026100001B0BDE8F08300BFFEF702F8B4F86A002D
:1026200078B320684169C907F6D090F83000616E30
:102630000870606E01306066B4F86A000138A4F872
:102640006A00B4F86A000028EBD11AE048F20805E5
:1026500005E000BFFDF7E4FFB4F86A0088B1206828
:1026600041692942F6D0006B616E41F8040B616646
:10267000B4F86A000138A4F86A00B4F86A000028C7
:10268000EDD1204601F00CFE002084F880000120EE
:1026900084F88100D4F88400002818BF012001B01C
:1026A000BDE8F083000000002DE9F047044690F8F3
:1026B0008000012802D10220BDE8F0871D461746A0
:1026C0000E46D4F80090012084F88000FDF7A8FFA2
:1026D00094F88110012909D1002E18BF002F0BD1C9
:1026E000002084F880000120BDE8F087002084F8F5
:1026F00080000220BDE8F0878046032084F8810036
:102700000020C4F88400E665A4F86070A4F8627044
:102710006066A4F86800A4F86A00A1682067B1F5B3
:10272000C02F6067206805D1016841F40061016035
:1027300005E000BFC168012262F35241C1604168F7
:102740004FF6FF72914339444160016841F0010145
:1027500001606168B1F5800F03D1016841F4007137
:102760000160E16810294DD3B4F86200002800F040
:10277000C780681C0FD132E0E16D51F8042B026272
:10278000E165B4F862000138A4F86200B4F86200B0
:10279000002800F0B580206841698907ECD4FDF776
:1027A0003FFFA0EB0800A842F0D3204601F078FDDF
:1027B000002084F88000D4F8840040F48070C4F8CD
:1027C0008400012084F881000320BDE8F08700BF69
:1027D000FDF726FFB4F86200002800F09180206821
:1027E00041698907F4D5E16D51F8042B0262E16576
:1027F000B4F862000138A4F86200B4F8620000285E
:10280000EDD17DE0B4F86200072933D9002877D0F4
:102810004FF6FE706E1C471C10E000BFE16D31F8F2
:10282000020BA9F820003846E165B4F862100844AC
:10283000A4F86200B4F86200002861D02068416901
:10284000890709D4FDF7ECFE002EF3D0A0EB0800B9
:10285000A842EFD3A9E700BFB4F862100229DDD384
:10286000E16B0029DAD0E16D51F8042B02624FF6DA
:10287000FE70D9E7002843D04FF6FE706E1CA0F121
:10288000020A471C10E000BFE16D097880F82010B3
:10289000E06D411C3846E165B4F862100844A4F8C4
:1028A0006200B4F8620058B320684169890709D40E
:1028B000FDF7B6FE002EF4D0A0EB0800A842F0D33E
:1028C00073E700BFB4F86210042909D3E16B412912
:1028D00006D3E16D51F8042B02625046DBE700BFDE
:1028E000B4F862100229CFD3E16B0029CCD0E16D9E
:1028F00031F8020BA9F820004FF6FE70CBE700BFBD
:10290000681C13D020684069000713D4FDF788FEC7
:10291000A0EB0800A842F5D3D4F8840040F02000D2
:10292000C4F8840006E000BFFDF77AFE2068406925
:102930000007F9D5204601F0B3FC002084F88000A0
:10294000012084F88100D4F88400002818BF0120F9
:10295000BDE8F08700000000411E0020B0EB116FC1
:1029600002D00120704700BF4EF21002F023CEF2D9
:10297000000251604EF62351CEF200010B70072188
:102980009060116070470000B0B590F83C20012ABB
:1029900002D10220B0BD00BFCB6848F2FF7ED1E972
:1029A00001C223F47C5322F47052CFF6F07E1A4316
:1029B0000CEA0E03D1F800C042EA030E2CF4772390
:1029C0000A6943EA0E0322F47622D0F800E01A43A3
:1029D0004B691A438B6A22F4742C23F470238A699E
:1029E00040F200454EF48064C4F2010543EA0C0352
:1029F000AC4243EA02430FD1002523F07C724B6ABC
:102A0000CFF6F045CC6905EA03531A4324F000736E
:102A1000096A1A4342EA01030021CEF8443080F8E3
:102A20003C100846B0BD0000B0B590F83C20012A2B
:102A30004FF002025BD080F83D2040F2004C02686B
:102A4000C4F2010C42F4806363455368D2F808E095
:102A500002BF23F470034C68234341F2FF740D68F6
:102A6000C4F2000423F07003A24243EA050353605A
:102A70000CDC40F2FF73C4F200039A4216DCB2F1A0
:102A8000804F29D040F2004318E000BF40F2FF33EE
:102A9000C4F201039A4217DC41F60003C4F20003BA
:102AA0009A4219D00023C4F2010309E040F6000362
:102AB000C4F200039A420FD040F60043C4F2000370
:102AC0009A4209D00DE000BF44F20003C4F20103B2
:102AD0009A4201D0624504D12EF0800389681943DF
:102AE00091600022012180F83D1080F83C201046C2
:102AF000B0BD00000000000051B1082910D0042929
:102B000016D100F145021278012A0ED115E000BF5E
:102B100090F84420012A08D1022280F844201BE0CA
:102B200000F146021278012A07D00120704700BF49
:102B300000F147021278012AF7D10222082905D0B4
:102B4000042907D180F8452006E000BF80F8462020
:102B500002E000BF80F84720026801F01F00042156
:102B600001FA00F0116A81431162116A0843106290
:102B700041F2FF70516CC4F20000824241F4004007
:102B800050640DDC40F2FF70C4F20000824215DC9C
:102B9000B2F1804F2AD040F20040C4F2000023E09E
:102BA00040F2FF30C4F20100824213DC41F6000023
:102BB000C4F20000824219D0002013E040F6000069
:102BC000C4F20000824211D040F60040C4F200007E
:102BD0000AE000BF44F20000C4F20100824205D0C6
:102BE00040F20040C4F2010082420BD107219068FC
:102BF000C0F2010101400020062918BFB1F5803F55
:102C000000D17047106840F001001060002070474C
:102C10002DE9F04190F83C30012B03D10220BDE8B2
:102C2000F08100BF4FEAB202052A31D8DFE812F086
:102C3000060038007600B400DA000001036843F6AD
:102C4000FF76C4F201061A6AB34222F001021A6248
:102C50001A461C6AD3F804E024F0020452F818CF94
:102C60008D6844EA0504D1F8008040F3078144F2FE
:102C70000007C4F20107BB4200F00B8144F60007D5
:102C8000C4F20107BB4200F0048144F20047FCE0BB
:102C90000121002280F83C200846BDE8F08100BFF9
:102CA000036840F2004E43F48067C4F2010E1A6AD2
:102CB000774522F010021A621A461C6A5D6824F0F9
:102CC000200452F818CF8E6844EA061407D1CE6863
:102CD0006FF0400724F0C00407EA0616344343F6B9
:102CE000FF76D1F80080C4F20106B34240F3EC80D5
:102CF00044F20007C4F20107BB4200F0EC8044F646
:102D00000007C4F20107BB4200F0E58044F200472F
:102D1000C4F20107BB4200F0DE80E3E0036840F24A
:102D2000004E43F48067C4F2010E1A6A774522F41C
:102D300080721A621A461C6A5D6824F4007452F8A4
:102D40001CCF8E6844EA062407D1CE6840F2FF47C4
:102D5000360224F44064BE43344343F6FF76D1F890
:102D60000080C4F20106B34240F3D48044F200076D
:102D7000C4F20107BB4200F0D48044F60007C4F25D
:102D80000107BB4200F0CD8044F20047C4F20107C6
:102D9000BB4200F0C680CBE0036843F6FF77C4F285
:102DA00001071A6ABB4222F480521A621A46D3F80B
:102DB00020C05C6852F81C6F0D68D1F808E040F341
:102DC000CF8044F20007C4F20107BB4200F0D38079
:102DD00044F60007C4F20107BB4200F0CC8044F285
:102DE0000047C4E0036843F6FF77C4F201071A6A9C
:102DF000BB4222F480321A621A46D3F820C05C68C3
:102E000052F8546F0D68D1F808E040F3D38044F2D3
:102E10000007C4F20107BB4200F0D78044F6000768
:102E2000C4F20107BB4200F0D08044F20047C8E082
:102E3000036843F6FF77C4F201071A6ABB4222F423
:102E400080121A621A46D3F820C05C6852F8546F98
:102E50000D68D1F808E040F3D98044F20007C4F2CD
:102E60000107BB4200F0DD8044F60007C4F2010711
:102E7000BB4200F0D68044F20047CEE00027C4F207
:102E80000107BB4205D040F20047C4F20107BB4234
:102E900005D1CF6824F00C0427F004073C43B3426B
:102EA00040F3E28044F20006C4F20106B34200F0AF
:102EB000E68044F60006C4F20106B34200F0DF806B
:102EC00044F20046D7E000BF0027C4F20107BB422E
:102ED00001D0734506D1D1E90576374325F4406624
:102EE00046EA870548F6FF475D60CFF6FF6707EAC9
:102EF0000C0747EA08279F614F6809699F631C62B6
:102F00009F6947F400679F619F6927F480679F610D
:102F1000A7E000BF0027C4F20107BB4201D0734500
:102F200006D1D1E90576374325F4405646EA071520
:102F30004FF68C775D60CFF6FE7707EA0C0747EA1D
:102F40000807DF614F680969DF631C62DF6947F0CA
:102F50000807DF61DF6927F00407DF61ADE000BF2C
:102F60000027C4F20107BB4205D040F20047C4F27B
:102F70000107BB4204D14F6924F4804444EA87141A
:102F800048F6FF475C60CFF6FF673E402CF40057E1
:102F900046EA0524DC614E6809691E6447EA0E377B
:102FA0001F62DF6947F40067DF61DF6927F480672C
:102FB000DF6156E00027C4F20107BB4205D040F2B2
:102FC0000047C4F20107BB4204D14F6924F48034A6
:102FD00044EA07244FF68C775C60CFF6FE77033720
:102FE0003E402CF4003746EA05045C654E680969EA
:102FF0009E6547EA0E471F625F6D47F008075F65F1
:103000005F6D27F004075F6557E000BF0027C4F23B
:103010000107BB4205D040F20047C4F20107BB42A2
:1030200004D14F6924F4802444EA872448F6FF47FA
:103030005C60CFF6FF6707F540773E402CF4001741
:1030400046EA05245C654E680969DE6547EA0E5765
:103050001F625F6D47F400675F655F6D27F48067EF
:103060005F65090229E000BF0026C4F20106B342F1
:1030700005D040F20046C4F20106B34206D12EF458
:103080004077D1E90565374347EA050E4FF68C7561
:10309000C3F804E0CFF6FE750CEA050747EA080717
:1030A0009F614F6809695F631C629F6947F0080769
:1030B0009F619F6927F004079F611368194311609E
:1030C0000021002280F83C200846BDE8F081000085
:1030D00060B310B5044690F83D0028B9002084F88C
:1030E0003C00204600F024F8022084F83D002068CF
:1030F000211D02F079FA012084F8480084F83E008E
:1031000084F83F0084F8400084F8410084F84200CD
:1031100084F8430084F8440084F8450084F84600AD
:1031200084F8470084F83D00002010BD012070475E
:1031300081B000210068C4F20101884202D001B0D0
:10314000704700BF44F2F040C5F60200016841F04C
:1031500001010160006800F001000090009801B0DA
:103160007047000000000000FEE7000000000000C3
:103170002DE9F04F03AF8FB04FF008080C2B08BFBC
:103180004FF006081C468A4608FB03F347F8380C44
:1031900040F210010720C2F20041164600EB430046
:1031A00047F840DC20F007000988ADEB000047F845
:1031B000301CD7F8189047F81C0C854640F2800B5D
:1031C000A7F11801C2F2004B0BF10805284601F0E7
:1031D00067FCA7F11401284647F8445C01F068FC3D
:1031E000B9F1000FA6F1200300F03881002C00F0A7
:1031F000AF82D9B240F21000C2F2004057F814BCBE
:1032000057F838CC5546008802BA100C47F82C0CF9
:103210004A0057F8180C47F8280C52FA83F040F689
:10322000FF42C9F2010247F8200C02EB0110002115
:10323000002247F8240C00BF40F68B060C2C57E9FF
:103240000930C9F201064FEA510E08BF06EB8003B0
:103250005B56B3F1FF3F0ADC96B257F81C0C08FB33
:1032600006F600EB460657F82C0C26F81E00013235
:10327000002096B2A64205F10106B6B228BF02466A
:10328000B34540F27182A6EB0A06A64200F0D68052
:103290005FFA83F95FEA49630AD593B257F81C0CC9
:1032A00008FB03F300EB430357F82C0C23F81E0034
:1032B0000132002093B2A34205F102039BB228BF62
:1032C00002469B4540F25082A3EB0A03A34200F062
:1032D000B5805FEA89630AD593B257F81C0C08FBE6
:1032E00003F300EB430357F82C0C23F81E000132C4
:1032F000002093B2A34205F103039BB228BF02460C
:103300009B4540F23182A3EB0A03A34200F0968072
:103310005FEAC9630AD593B257F81C0C08FB03F3A4
:1033200000EB430357F82C0C23F81E000132002059
:1033300093B2A34205F104039BB228BF02469B450A
:1033400040F21282A3EB0A03A34277D05FEA09732B
:103350000AD593B257F81C0C08FB03F300EB4303A8
:1033600057F82C0C23F81E000132002093B2A34220
:1033700005F105039BB228BF02469B4540F2F4814C
:10338000A3EB0A03A34259D05FEA49730AD593B26B
:1033900057F81C0C08FB03F300EB430357F82C0C05
:1033A00023F81E000132002093B2A34205F1060368
:1033B0009BB228BF02469B4540F2D681A3EB0A038D
:1033C000A3423BD05FEA89730AD593B257F81C0C2D
:1033D00008FB03F300EB430357F82C0C23F81E0003
:1033E0000132002093B2A34205F107039BB228BF2C
:1033F00002469B4540F2B881A3EB0A03A3421DD0CD
:103400005FEAC9730AD093B257F81C0C08FB03F3A8
:1034100000EB430357F82C0C23F81E000835ABB221
:103420009B4540F2A1810132A3EB0A0396B2002032
:10343000A64228BF0246A3420AD100BF0CF1010CEC
:1034400057F8280C1FFA8CF35546984240F28C81AD
:1034500001318C427FF4F0AE7AE100BF002C00F025
:103460007781DAB2BBF800004FF0000B4FF0000993
:1034700057F838CC554600BA000C47F8200C57F8DE
:10348000300C40BA47F8240C57F8140C47F8280CB5
:1034900057F8180C47F83C0C500050FA83F047F8E6
:1034A0002C0C40F6FF40C9F2010000EB021047F877
:1034B000340C00BF40F68B0257F8340C57F82C1C24
:1034C000C9F201020C2C2BF0010E08BF02EB8100A7
:1034D0001FFA89F209F1010910F90B3008FB02F219
:1034E00057E909101FFA89F6002B48BF084657F81C
:1034F0001C1CA64205F10106B6B201EB42024FF0D8
:10350000000128BF894657F8281C22F80E00B14256
:1035100040F22A81A6EB0A01A14200F0FB801FFACB
:1035200089F009F10109DBB208FB00F258064FF0FF
:10353000000657E9091048BF084657F81C1C4FEA17
:103540005B0E01EB42011FFA89F2A24205F1020271
:1035500092B228BFB14657F8286C21F81E00964257
:1035600040F20281A2EB0A01A14200F0D3801FFACF
:1035700089F009F1010908FB00F1980657E90920D3
:1035800048BF104657F81C2C002602EB41011FFAD9
:1035900089F2A24205F1030292B228BFB14657F860
:1035A000286C21F81E00964240F2DE80A2EB0A0150
:1035B000A14200F0AF801FFA89F009F1010908FB70
:1035C00000F1D80657E9092048BF104657F81C2CCF
:1035D000002602EB41011FFA89F2A24205F1040222
:1035E00092B228BFB14657F8286C21F81E009642C7
:1035F00040F2BA80A2EB0A01A14200F08B801FFAD0
:1036000089F009F1010908FB00F1180757E90920C1
:1036100048BF104657F81C2C002602EB41011FFA48
:1036200089F2A24205F1050292B228BFB14657F8CD
:10363000286C21F81E00964240F29680A2EB0A0107
:10364000A14267D01FFA89F009F1010908FB00F1D6
:10365000580757E9092048BF104657F81C2C002688
:1036600002EB41011FFA89F2A24205F1060292B271
:1036700028BFB14657F8286C21F81E00964273D92E
:10368000A2EB0A01A14245D01FFA89F009F1010914
:1036900008FB00F1980757E9092048BF104657F882
:1036A0001C2C002602EB41011FFA89F2A24205F10F
:1036B000070292B228BFB14657F8286C21F81E00C5
:1036C000964251D9A2EB0A01A14223D01FFA89F1F7
:1036D000D80757F8240C08FB01F157F8202C09F102
:1036E000010908BF10461FFA89F257F81C3C08353B
:1036F000A2424FF0000203EB4101ABB228BF91465A
:1037000057F8282C21F81E009A422DD9A3EB0A0164
:10371000A14213D10CF1010C57F83C2C1FFA8CF18B
:1037200055468A4240F21001C2F2004108801BD97E
:103730000BF1010B5C457FF4BDAE09E040F21001D6
:10374000C2F2004108800BF1010B5C457FF4B2AE80
:103750006DE9028457F8440C57F8381C524657F864
:103760001C3C00F0EDFF02B040F2100057F8301C96
:10377000C2F20040018057F840DCA7F10C04A546D6
:10378000BDE8F08F000000002DE9F04F83B00D9FE1
:103790003E78A6F12005EDB25E2D2AD80C46804673
:1037A000104419440C9D01371FFA80F9C2461FFAD4
:1037B00081FB6A08029200BF1FFA8AF0484528BFC1
:1037C0002C44A1B2594514D2F2B2484528BF5FFA41
:1037D00088FA002300931FFA8AF02B46FFF7C8FCF3
:1037E00017F8016BA6F12000C0B25F28029882444E
:1037F000E2D303B0BDE8F08F2DE9F04F81B02DED9D
:10380000048B8AB040F2C00440F28008C2F2004447
:10381000C2F2004808F1080640F2600140F60005D7
:1038200040F20120A081C2F200413046C5F60205F7
:103830004FF00009C4F8089001F0F2FB40F21407C1
:103840000521C2F20047304622463B689847BA68D5
:1038500008F104013046904740F27C6B46F2480381
:10386000C2F2004BC9F2000300210022DBF8000085
:10387000C0F838903046BF6A0496B847FCF7D0FECF
:1038800080464FF400512846FCF7AAFE012800F0BC
:10389000AA804FF6184044F6D356CFF6FF704FF08B
:1038A000640AA0EB080905A8C1F2620640F6B83721
:1038B0000130039010E000BF04FB0AF0A0FB0601FA
:1038C000DBF80000890981634FF400512846FCF7BA
:1038D00087FE012800F087800A20FCF795FDFCF7A1
:1038E0009FFEA0EB0804FCF79BFEB4F57A7FA0EBEB
:1038F0000804E1D9FCF794FEBC426BD84CF6CD41EC
:103900004844CCF6CC414F46A0FB010105A8CA08AB
:10391000C1A102F031F99DF814200026A2F1200087
:10392000C0B25E2827D840F2C0000125C2F2004094
:10393000DDF80C900088A0F11E0B0BEB000A5C4632
:103940001FFA8AF0A3B2834228BF1035A9B210290A
:1039500011D8D2B2834228BF5FFA8BF410230096AD
:10396000A0B2FFF705FC19F8012B0834A2F12000E2
:10397000C0B25F28E4D340F2C00640F21401C2F2A4
:103980000046C2F2004170688D6BC41EFCF748FE11
:103990003168384444F6D35622464843C1F26206A1
:1039A000B946A0FB0601032000904FF6FF70CB093B
:1039B000002101900498A84740F27C6B40F6000576
:1039C000C2F2004BC5F602054FF0640A40F6B83764
:1039D0007AE700BFA0EB0800B8427FF675AF02E0BF
:1039E0000A20FCF711FD4FF400512846FCF7F8FDC2
:1039F0000128F5D0DBF80000806B10B300EE100A50
:103A0000B8EE408A9FED860A88EE009AFCF708FE21
:103A1000064600BF0120FCF7F7FCFCF701FE801B07
:103A2000B0EE481A00EE100ADBF80010B0F5967FF1
:103A3000B8EE400AA0EE091ABCEEC10A81ED0E0AEA
:103A4000E8D340F2140040F2C004C2F20040C2F2D7
:103A5000004400210022876B4FF00008D4E90030B9
:103A600000900498CDF80480B84746F257504FF0C4
:103A70000409C6F24130059042F274005722C7F2A1
:103A80005340069046F275400127C6F669700790CC
:103A900020880DF1140A0426042404308DF82080B7
:103AA00085B200BFB0B2A84228BF1034A1B213291A
:103AB00012D8D2B2A84228BF4E461023CDF80080BB
:103AC000B0B2FFF755FB1AF8072008360137A2F10C
:103AD0002000C0B25F28E5D3FCF792FD05AC02469A
:103AE00050A1204602F048F89DF81420A2F12000D1
:103AF000C0B25E2827D840F2C0000134C2F20040B4
:103B000016264FF004084FF00009008804270430FF
:103B100085B200BFB8B2A84228BF1036B1B225297D
:103B200011D8D2B2A84228BF47461023CDF8009042
:103B3000B8B2FFF71DFB14F8012B0837A2F12000E3
:103B4000C0B25F28E6D340F2800005ACC2F200406C
:103B500038A14268204602F00FF89DF81420A2F127
:103B60002000C0B25E2826D840F2C0000134C2F264
:103B7000004028264FF004084FF000090088042771
:103B8000043085B2B8B2A84228BF1036B1B2372986
:103B900011D8D2B2A84228BF47461023CDF80090D2
:103BA000B8B2FFF7E5FA14F8012B0837A2F12000AC
:103BB000C0B25F28E6D3DBF80000806B642825D014
:103BC00000EE100A9FED1F1AB8EE408A9FED1C0A06
:103BD00038EE000A80EE019AFCF722FD044600BF91
:103BE0000120FCF711FCFCF71BFD001BB0EE481A8E
:103BF00000EE100ADBF80010C828B8EE400AA0EE6C
:103C0000091ABCEEC10A81ED0E0AE9D30AB0BDEC77
:103C1000048B01B0BDE8F08F253033640000000054
:103C2000000096C353544D333248377878203078AB
:103C3000255800004C43442049443A307825580028
:103C40000000C8C2000048C32DE9F04186B044F22C
:103C5000E0400026C5F60200059641F2000400226D
:103C60000168C5F6020441F01001016001680825F1
:103C700001F0100100910099016841F00401016018
:103C8000016801F0040100910099016841F0800190
:103C90000160016801F0800100910099016841F024
:103CA000010101600068082100F001000090009807
:103CB0002046FCF79DFC4FF42051012220464FF492
:103CC00020580127FCF794FCCDE9015701AD2046AF
:103CD0002946CDE90366FCF7ABFB4FF400502946BB
:103CE000CDE9010602200390A4F50060FCF7A0FBDB
:103CF0000320049020462946CDE901870396FCF76E
:103D000097FB06B0BDE8F081B0B586B040F2D05068
:103D100041F20004C2F20040C5F602040021A4F5FD
:103D2000E832CDE90211CDE90011C0E900217F227E
:103D30008260FF22C161C0E90321C0E90511FEF7DD
:103D400047F808B1FCF744FB40F2D0500121C2F221
:103D50000040FDF7BDFF43F2F22188423AD144F220
:103D6000D045C5F60205286800020CD508210122BD
:103D70002046FCF73DFC0920FCF746FB0821002209
:103D80002046FCF735FC286840021CD5082101229A
:103D90002046FCF72DFC0920FCF736FB0821002209
:103DA0002046FCF725FC6320FCF72EFB08210122AE
:103DB0002046FCF71DFC0920FCF726FB0821002209
:103DC0002046FCF715FC286840F48030286006B0D7
:103DD000B0BD00BF40F2D0540121C2F2004443F212
:103DE000F2222046FDF77CFF1220ADF804000020EF
:103DF0008DF80600CDE9040001A901222046FEF756
:103E000023F908B1FCF7E4FA40F201606946C2F216
:103E10000100009040F2D0500122C2F20040FEF7B3
:103E20006BF80028D3D0FCF7D3FA06B0B0BD000081
:103E300010B540F2F45443F20040C2F20044C4F220
:103E400001004FF0806120604FF4800060604FF40B
:103E5000C020A0600720E0600020C4E90400A16148
:103E60004FF00051C4E90710C4E90900E0624FF0C7
:103E70008040606304F138002421FCF730FA2046CA
:103E8000FEF7A6F9002808BF10BDBDE81040FCF7FA
:103E90009FBA000000000000B0B59AB00025684647
:103EA0002C210024CDE91044CDE90E44CDE90C4489
:103EB000C4F201050B94FCF712FA40F27C600B216E
:103EC000C2F200400560C0E9011440F2E731C0E9E8
:103ED0000314C0E90544FFF7FBF808B1FCF778FAD2
:103EE00040F27C6012A9C2F200401494CDE9124461
:103EF000FEF79AFD08B1FCF76BFA60200B900024E6
:103F00000820CDE90E0440F27C600BA9C2F200400B
:103F10000422CDE90C44CDE91044FEF779FE08B146
:103F2000FCF756FA04944FF40050CDE90244CDE971
:103F30000044CDE9050407944FF00070CDE9080472
:103F40000A9440F27C64C2F2004469462046FEF7BF
:103F50001BFD08B1FCF73CFA2068A84202D01AB059
:103F6000B0BD00BF44F2E040C5F60200016841F078
:103F700010010160006815A900F010001590159857
:103F80004FF480601590022016900020CDE91700B4
:103F90000120199041F20000C5F60200FCF748FA32
:103FA0001AB0B0BD00000000FEE7000000000000F5
:103FB0007047000000000000704700000000000093
:103FC000F0B581B044F22C47C5F6020757F8042C2F
:103FD00002F00302032A03D1012001B0F0BD00BFAB
:103FE000054657F82C0C0C4620F0806047F82C0C46
:103FF000FCF716FB064600BF57F82C0C000105D550
:10400000FCF70EFB801B0228F6D964E057F8040C7D
:10401000EE6895E80E0020F47C30012C40EA013077
:10402000A2F101016FF35F214FF47E4202EB4322C4
:1040300047F8040C92B24FF0FE4302EB01004FF43C
:10404000FE012A6901EB064101F4FE0103EB026265
:10405000084402F0FE410844F8603868696920F0BD
:10406000C00040EA010038603868A96920F02000EB
:1040700040EA0100386038684FF6F87120F010000F
:1040800038603869EA6920EA01004FF4001140EA1B
:10409000C2003861386808BF4FF4801140F010004A
:1040A000002C386008BF4FF400213868084338609E
:1040B00057F82C0C40F0806047F82C0CFCF7B0FA55
:1040C000044600BF57F82C0C000107D4FCF7A8FAEF
:1040D000001B0328F6D3032001B0F0BD002001B07F
:1040E000F0BD000000000000F0B581B044F22C47A4
:1040F000C5F6020757F8042C02F00302032A03D185
:10410000012001B0F0BD00BF054657F82C0C0C464D
:1041100020F0805047F82C0CFCF782FA064600BFCE
:1041200057F82C0C800005D5FCF77AFA801B022882
:10413000F6D964E057F8040CEE6895E80E0020F01C
:104140007C70012C40EA0150A2F101016FF35F2164
:104150004FF47E4202EB432247F8040C92B24FF038
:10416000FE4302EB01004FF4FE012A6901EB064118
:1041700001F4FE0103EB0262084402F0FE41084430
:1041800078613868696920F4406040EA010038606D
:104190003868A96920F4007040EA01003860386886
:1041A0004FF6F87120F480703860B869EA6920EA47
:1041B00001004FF0807140EAC200B861386808BF62
:1041C0004FF4000140F48070002C386008BF4FF4B9
:1041D000800138680843386057F82C0C40F0805054
:1041E00047F82C0CFCF71CFA044600BF57F82C0CBF
:1041F000800007D4FCF714FA001B0328F6D3032031
:1042000001B0F0BD002001B0F0BD000000000000D2
:1042100070B544F208060446C5F600064FF65F7016
:10422000C0F20300716821F04001716031688906B5
:1042300012D42168C860FCF7F3F905462068C0680D
:10424000800625D4FCF7ECF9401BB0F57A7FF5D950
:10425000032084F8210070BD316821F02001316015
:104260002168C860FCF7DCF9054600BF2068C0681B
:1042700080060FD4FCF7D4F9401BB0F57A7FF5D94E
:10428000032084F82100316841F02001316070BDC5
:10429000002070BD0020316841F02001316070BD08
:1042A000016840F26F32D1F814C08B6943F0080303
:1042B0008B618B6943F010038B610B6823F0010362
:1042C0000B600B6923EA02020A618A6822F4404209
:1042D0008A6090F88120042A18BF1CF0200209D0BF
:1042E000D0F8842042F08002C0F884208A6942F02D
:1042F00020028A6190F88120032A18BF1CF0400236
:104300000CD15FEA8C5216D45FEACC5220D4002143
:10431000A0F86210A0F86A10704700BFD0F884209F
:1043200042F00402C0F884208A6942F040028A61A7
:104330005FEA8C52E8D5D0F8842042F00102C0F840
:1043400084208A6942F400728A615FEACC52DED529
:10435000D0F8842042F00802C0F884208A6942F430
:1043600080728A610021A0F86210A0F86A1070477C
:1043700000207047000000002DE9F04182B00646A1
:10438000002006F120048DF807000DF1070213212B
:104390000023204601F0ECFB8046F0698047074689
:1043A000F0698047C01B0A28FAD30DF107022821C3
:1043B0000023204601F0DCFB0746F06980470546F4
:1043C000F0698047401B0A28FAD30DF10705362112
:1043D000002320462A4601F0CBFB40F2C00141F207
:1043E000F023C2F20041C9F201038A68097B03EBA2
:1043F000C202002907EB0801526801EB000608BF62
:1044000042F00802204629468DF80720012201F0DB
:10441000ABFB4042301A18BF4FF0FF3002B0BDE88E
:10442000F0810000000000002DE9F04182B0064656
:10443000002006F120048DF807000DF1070213217A
:104440000023204601F094FB8046F0698047074630
:10445000F0698047C01B0A28FAD30DF10702292111
:104460000023204601F084FB0746F069804705469B
:10447000F0698047401B0A28FAD30DF10705362161
:10448000002320462A4601F073FB40F2C00141F2AE
:10449000F023C2F20041C9F201038A68097B03EBF1
:1044A000C202002907EB0801526801EB000608BFB1
:1044B00042F00802204629468DF80720012201F02B
:1044C00053FB4042301A18BF4FF0FF3002B0BDE836
:1044D000F0810000000000002DE9F04F83B040F2B1
:1044E000C0090446C2F20049D3F816000F46024440
:1044F000D9F804101E468D1AD3F802B0D3F80AA0DA
:104500003946D3F81230009020462A4600F03CFE8F
:1045100030B14FF0FF35284603B0BDE8F08F00BF43
:10452000D9F8080041F2F022C9F2010299F80C1002
:1045300004F12008012352F83000002908BF40F0A0
:1045400008000DF1090236218DF80900404601F0FE
:104550000FFB28B14FF0FF35284603B0BDE8F08FC0
:10456000204639462A4600F093FD28B14FF0FF352A
:10457000284603B0BDE8F08FABEB0A075644002590
:104580000DF10A0A70190222514640788DF80A008E
:10459000705D8DF80B00404601F0E6FA20B9023557
:1045A000BD42EFD3002601E04FF0FF3641F2F0228A
:1045B000D9F80800C9F2010299F80C1002EBC0000A
:1045C0000DF1090200294FF0360140684FF0010358
:1045D00008BF40F008008DF80900404601F0C8FA15
:1045E00000284FF0FF3596D1D9E900300021002294
:1045F0000090204600F0C8FD002808BF3546284638
:1046000003B0BDE8F08F0000F0B581B01C4640F269
:10461000C003C2F2004366181B689E4203D80746D7
:1046200000F036FD20B14FF0FF3001B0F0BD00BF0B
:10463000B4B3621E0698032A40F2D0024FEA10215A
:1046400004F0030CC2F2004202D2002311E000BFCA
:1046500024F00305002300BFD618D154043D03F114
:1046600008037070B170F07031717071B171F071D8
:10467000F2D1BCF1000F13D043F00106BCF1010FE1
:10468000D15490550CD09E1CBCF1020F46F0010590
:104690009155505504D0043343F00106D154905540
:1046A00040F2D00107F120006200C2F2004101F0A7
:1046B0005BFA002818BF4FF0FF3001B0F0BD0000DA
:1046C0002DE9F04F81B040F2C00A1C46C2F2004A08
:1046D00015461A44DAF804309A4205D94FF0FF30F3
:1046E00001B0BDE8F08F00BF2CB307460A980E4614
:1046F000010241EA102B07F120080DF10209DAF856
:104700000000ADF802B0B04284BFDAF80400A8425D
:10471000E4D9384631462A4600F0BAFC0028DDD1FB
:1047200002224046494601F01FFA0028D6D1013C3A
:1047300005F10105E3D1002001B0BDE8F08F0000D4
:104740002DE9F04F87B040F2C007109CC2F200473D
:10475000661802913D680390AE4207D8DDF84480A8
:10476000934608EB02007A68904205D94FF0FF307B
:1047700007B0BDE8F08F00BFB8F1000F7CD0002C6F
:10478000039F07F1200005904FEA4400049077D082
:10479000601E04F0030124F0030940F250341E4669
:1047A00001904FF0000AC2F200440020029D0091E7
:1047B0000FE000BF023605982146049A01F0D4F9B3
:1047C0000028069818BF4FF0FF300AF1010AC245D1
:1047D0007CD006900AEB0B023846294600F058FCC4
:1047E00030B14FF0FF300AF1010AC245F1D16DE05E
:1047F0000198032804D20020009B2BBBDBE700BFFD
:104800000021002006EB400216F8103004F81030AA
:104810006318577804EB40055F7004309778814542
:10482000AF7001F10801D778DF7017792F715779D0
:104830005F719779AF71D279DA71E3D10E44DDE916
:104840000257009B002BB6D0327804EB400104F8ED
:104850001020012B70784870ACD0B078022B887093
:10486000F078C87002D10436A5E700BF307908712E
:104870007079063648719EE7002007B0BDE8F08FDA
:1048800040F250340020C2F20044029D0FE000BF0D
:1048900005982146049A01F067F90028304618BFB0
:1048A0004FF0FF30B8F101080BF1010B0ED00646B6
:1048B000384629465A4600F0EBFB0028E8D04FF076
:1048C000FF30B8F101080BF1010BF0D107B0BDE8E2
:1048D000F08F0000000000002DE9F04F87B0109D20
:1048E000002D00F0908014460F460646002B03EB87
:1048F0000100069006F1200005904FEA4300049065
:1049000064D0CDE90267DDF8448040F2D0074FEA79
:10491000182903F0030B23F0030A0026C2F2004714
:10492000581E019040F2C0000699C2F20040006893
:1049300081426DD8DDE90201224600F0A9FB002882
:1049400066D10198032801D200201BE000206FF0FF
:10495000040100BF7A1807EB400307F810900430F9
:10496000824501F1080182F8068083F8029082F8FE
:10497000088083F8049082F80A8083F8069082F811
:104980000C80E7D1BBF1000F14D007EB4001BBF165
:10499000010F07F8109081F801800BD0BBF1020FD6
:1049A00081F8029081F8038004D081F8049081F8A6
:1049B000058000BF05983946049A01F0D5F838BB48
:1049C00001360134AE42ADD11DE000BF40F2C00956
:1049D00040F2D008C2F20049C2F20048D9F8000003
:1049E0000699814214D830463946224600F050FBE1
:1049F00070B905984146049A01F0B6F840B9013DF6
:104A000004F10104EAD1002007B0BDE8F08F00BF37
:104A10004FF0FF3007B0BDE8F08F0000000000004D
:104A20004FF0FF307047000040F2C0020020C2F299
:104A3000004292680A607047F0B581B01C46054696
:104A400000F026FB20350DF1010706462E212846F1
:104A50003A4601F081F8064401222846394601F021
:104A60007FF806440DF103010122284601F078F891
:104A700006440DF102010122284601F071F89DF86B
:104A8000021040429DF80320301A18BF4FF0FF304B
:104A900042EA0121216001B0F0BD000000000000E9
:104AA00040F2C0020020C2F2004212680A60704761
:104AB00040F2C0020020C2F2004252680A60704711
:104AC0002DE9F04F83B00028029100F06D8204467A
:104AD000914604F1200600208DF807000DF1070231
:104AE00001210023304601F043F8E0698047054684
:104AF000E0698047401B7828FAD300208DF8070032
:104B00000DF1070201210023304601F031F805467E
:104B1000E0698047074600BFE0698047C01B7828EE
:104B2000FAD30DF1070700208DF8070011210123AA
:104B300030463A464FF0010B01F01AF80544B12116
:104B4000002330463A4601F013F80544012230466E
:104B500039468DF807B001F007F805442C208DF890
:104B600007000122304639464FF02C0800F0FCFFC8
:104B700005440122304639464FF02D0A8DF807A032
:104B800000F0F2FF0544B221012330463A468DF889
:104B900007B000F0EDFF05440122304639468DF89C
:104BA00007804FF02C0800F0DFFF0544012230465B
:104BB00039468DF807A000F0D7FF0544B321012343
:104BC00030463A468DF807B000F0D2FF0544012286
:104BD000304639468DF807804FF02C0800F0C4FFAE
:104BE00005440122304639468DF807A000F0BCFF8D
:104BF00005440122304639468DF807B000F0B4FF75
:104C000005440122304639468DF8078000F0ACFF9C
:104C100005440122304639468DF807A000F0A4FF74
:104C2000054407208DF80700B421012330463A4699
:104C300000F09EFF0544A2208DF80700C02101234B
:104C400030463A4600F094FF054402208DF80700F4
:104C500001223046394600F087FF054484208DF854
:104C6000070001223046394600F07EFF0544C5208A
:104C70008DF80700C121012330463A4600F078FF45
:104C800005440A208DF80700C221012330463A4628
:104C900000F06EFF054400208DF807000122304629
:104CA000394600F061FF0544C321012330463A46EE
:104CB0004FF08A088DF8078000F05AFF05442A203B
:104CC0008DF8070001223046394600F04DFF0544BB
:104CD000C421012330463A468DF8078000F048FF92
:104CE0000544EE208DF8070001223046394600F0D9
:104CF0003BFF05440E208DF80700C52101233046F7
:104D00003A4600F035FF99F80C2020210544002395
:104D1000002A30463A4608BF212100F029FF054409
:104D200002AA3A210123304600F022FF0544022066
:104D30008DF80700E021012330463A4600F018FFC5
:104D400005441C208DF8070001223046394600F04A
:104D50000BFF054407208DF8070001223046394635
:104D600000F002FF054412208DF8070001223046B2
:104D7000394600F0F9FE054437208DF8070001227E
:104D80003046394600F0F0FE054432208DF8070029
:104D900001223046394600F0E7FE05440122304644
:104DA0003946CDF800904FF029098DF8079000F0B2
:104DB000DBFE05440122304639468DF807A000F09D
:104DC000D3FE05440122304639468DF8079000F0A5
:104DD000CBFE054425208DF80700012230463946D8
:104DE00000F0C2FE05442B208DF80700012230465A
:104DF000394600F0B9FE054439208DF8070001223C
:104E00003046394600F0B0FE054400208DF807001A
:104E100001223046394600F0A7FE05440122304603
:104E200039468DF807B000F09FFE05440122304658
:104E300039464FF003088DF8078000F095FE0544D1
:104E40000122304639464FF0100B8DF807B000F0C4
:104E50008BFE0544E121012330463A468DF8078058
:104E600000F086FE05441D208DF807000122304623
:104E7000394600F079FE054407208DF8070001222D
:104E80003046394600F070FE054406208DF80700D4
:104E900001223046394600F067FE054401223046C3
:104EA00039464FF02E088DF8078000F05DFE05446E
:104EB0002C208DF8070001223046394600F054FEC0
:104EC00005440122304639468DF8079000F04CFE2B
:104ED00005440122304639468DF807A000F044FE13
:104EE00005440122304639468DF8078000F03CFE2B
:104EF00005440122304639468DF8078000F034FE23
:104F0000054437208DF8070001223046394600F06D
:104F10002BFE05443F208DF807000122304639461C
:104F200000F022FE05440122304639464FF00008C9
:104F30008DF8078000F018FE0544012230463946FE
:104F40008DF807804FF0000800F00EFE05440220A7
:104F50008DF8070001223046394600F005FE054471
:104F60000122304639468DF807B000F0FDFD0544BA
:104F70001321012330463A468DF8078000F0F8FDF2
:104F800005442921012330463A4600F0F1FD05444D
:104F90002046009900F094F92844B0FA80F04009C6
:104FA000013803B0BDE8F08F4FF0FF3003B0BDE82B
:104FB000F08F00000000000070B582B000F1200505
:104FC0000DF105060C46DA212846324600F0C4FDF4
:104FD00058B9721CDB21284600F0BEFD28B9B21C6E
:104FE000DC21284600F0B8FD20B14FF0FF3002B0C0
:104FF00070BD00BFBDF806009DF8051040BA40EA3C
:1050000001402060002002B070BD000000000000E0
:105010000369084611461847836908461146184730
:1050200040B3D1E900C3C0E900C30B89CA6803815A
:105030000B69C0E903234A6942618A69C969C16190
:1050400045F21101C9F20001416245F2B131BCF1F2
:10505000000FC9F20001016245F281018261C9F2CB
:105060000001816245F219010063C9F20001C162C9
:1050700000D060474FF0FF30704700000000000094
:1050800043690846114618474FF0FF30704700004B
:105090002DE9F04182B040F2C0039046C2F20043D5
:1050A0000D469E685F7B012E06D8012F0CD1197B1F
:1050B000F1B1183523E000BF012F0FD1197BD9B111
:1050C00008F118081BE000BF022F18D1197B012935
:1050D00004BF023508F1010811E000BF022F0ED114
:1050E000197B012904BF013508F1020807E000BF60
:1050F0001A3508F1010802E0013508F11A0800F13B
:1051000020060DF107072A21002330463A4600F019
:105110002FFD0446280A8DF8070001223046394643
:1051200000F022FD04440122304639468DF8075034
:1051300000F01AFD04442B21002330463A4600F0CB
:1051400017FD04444FEA18208DF80700012230466D
:10515000394600F009FD04440122304639468DF8F5
:10516000078000F001FD04442C21002330463A461C
:1051700000F0FEFC4042201A18BF4FF0FF3002B092
:10518000BDE8F081000000002DE9F04782B040F258
:10519000C0079846C2F200479146DDF828A0BE68D5
:1051A0007D7B012E0E4605D8012D0BD1397BE9B14F
:1051B000183621E0012D0FD1397B0136D1B109F12B
:1051C000180919E0022D17D1397B012904BF0236D5
:1051D00009F1010910E000BF022D0DD1397B012931
:1051E00004BF013609F1020906E000BF1A3609F1D1
:1051F000010901E009F11A0900F120070DF1070585
:105200002A21002338462A4600F0B2FC0446300A20
:105210008DF8070001223846294600F0A5FC044419
:105220000122384629468DF8076000F09DFC08EB06
:10523000060104444E1E0122300A8DF8070038464C
:10524000294600F091FC04440122384629468DF895
:10525000076000F089FC04442B21002338462A46CD
:1052600000F086FC04444FEA19208DF80700012263
:105270003846294600F078FC044401223846294685
:105280008DF8079000F070FC0AEB090104444E1EF3
:105290000122300A8DF807003846294600F064FCE8
:1052A00004440122384629468DF8076000F05CFC72
:1052B0004042201A18BF4FF0FF3002B0BDE8F0871F
:1052C000B0B582B08B684A7B40F2C005012B044622
:1052D000C2F200450AD8032A13D246F22C004FF03E
:1052E000A00CC9F2000050F8220008E0032A08D2FE
:1052F00046F22C00C9F2000050F822C0A020C5E9F7
:10530000000C087BAB60287300216A730022D5E98A
:10531000003000902046FFF737FFA96841F2F022E5
:10532000C9F201022B7B02EBC1010546002B04F1FF
:10533000200049680DF1070208BF41F00801012370
:105340008DF80710362100F013FC4042281A18BFD0
:105350004FF0FF3002B0B0BD70B582B040F2C00473
:105360000646C2F20044180240EA1320ADF80600D7
:1053700025684FF0FF308D4215D96368934212D9EA
:105380003046FFF785FE18B14FF0FF3002B070BD18
:1053900006F120000DF10601022200F0E5FB0028D5
:1053A00018BF4FF0FF3002B070BD000000000000D9
:1053B000D0F80CC0084611461A46604700000000AD
:1053C0007047000000000000FBF732B90000000049
:1053D00070B59CB044F6180540F22C4409A84C2145
:1053E000C5F60205C5F60004FAF779FF022000268B
:1053F000CDE90766CDE90566CDE90366CDE901662D
:10540000FBF722FA0096206820F001002060206857
:1054100000F001000090286840F4404028602868AF
:1054200000F44040009000982868800409D428685F
:1054300080045CBF28685FEA804002D4286880044A
:10544000F2D54FF6DC40CFF6FF70295841F002014B
:105450002950285800F00200009000980020009089
:10546000286840F440402860286800F440400090DC
:10547000206840F001002060206800F001000090EA
:1054800000982868800409D4286880045CBF2868D4
:105490005FEA804002D428688004F2D541F200041B
:1054A000C5F60204FBF7F8F9FBF7B2F84FF65841DE
:1054B00041F20402CFF6FF71102390424FF008062C
:1054C000685838BF082320F0180018446850052099
:1054D00009904FF480310A9101210B91022114901F
:1054E00060201996CDE9150109A80025CDE9121112
:1054F000CDE91711CDE91A55FCF73AF988B1082121
:1055000001222046FBF774F840F2F310FAF77CFF13
:10551000082100222046FBF76BF840F2F310FAF75F
:1055200073FF02A93F200190032061C101A801215E
:10553000CDE90555CDE90755FBF75AFF88B108219C
:1055400001222046FBF754F840F2F310FAF75CFF13
:10555000082100222046FBF74BF840F2F310FAF73F
:1055600053FF1CB070BD00004EF6885C4EF67F50B5
:10557000CEF2000CCEF6F620DCF8001041F47001FB
:10558000CCF8001044F20041C5F602010A6842F06E
:1055900001020A6000220A610B68184008608A61F3
:1055A000CA610A628A62CA620A634A638A63CA6318
:1055B0000A644A64086820F48020086041F2000010
:1055C0000A66C5F600400068B2EB507F05D148F28C
:1055D00008100121C5F2001001604FF000604CF886
:1055E000800C70470000000010B540F6FF32C4F296
:1055F0000002904202680FDCB0F1804F1DD040F2F3
:105600000043C4F20003984217D040F60003C4F2EE
:105610000003984211D014E040F60043C4F20003A6
:1056200098420AD040F20043C4F20103984204D0E9
:105630000023C4F20103984203D122F070024B68A8
:105640001A434FF6FF7343F6FF7CC4F20003C4F223
:10565000010C984214DD604522DD44F20003C4F2DF
:105660000103984234D044F60003C4F20103984287
:105670002ED044F20043C4F20103984228D02BE01C
:1056800040F2FF73C4F20003984215DCB0F1804F82
:105690001ED040F20043C4F20003984218D01BE031
:1056A0000023C4F20103984212D040F20043C4F236
:1056B000010398420CD00FE040F60003C4F200034F
:1056C000984205D040F60043C4F20003984203D14B
:1056D00022F44072CB681A4322F080024C69604584
:1056E000D1F800E08B6842EA04020260C362C0F8AD
:1056F00028E015DD44F20002C4F2010290421AD003
:1057000044F60002C4F20102904214D044F2004276
:10571000C4F2010290420ED00121416110BD00BFD0
:105720000022C4F20102904205D040F20042C4F2CD
:1057300001029042F0D1096901630121416110BD6C
:10574000FEE7000000000000FAF76ABF000000005A
:1057500080B540F27C600421C2F20040FDF7CCF934
:10576000002080BD00000000F0B581B041F20004CF
:105770000D46C5F602048DF803004FF400610022C7
:105780002046FAF735FF4FF4005100222046FAF781
:105790002FFF40F2F4560DF10301C2F20046012240
:1057A00064233046FCF780FF07464FF40051012286
:1057B0002046FAF71DFF01224FF4FA7330462946BE
:1057C000FCF72EFE05464FF4006101222046FAF751
:1057D0000FFF6842381A18BF4FF0FF3001B0F0BD1C
:1057E00070B541F200060C46C5F6020605464FF4B8
:1057F000006100223046FAF7FBFEA2B240F2F450FC
:10580000C2F200404FF4FA732946FCF709FE044641
:105810004FF4006101223046FAF7EAFE002C18BF6F
:105820004FF0FF34204670BD70B541F200060C46C3
:10583000C5F6020605464FF4006100223046FAF72D
:10584000D7FEA2B240F2F450C2F2004064232946CF
:10585000FCF72AFF04464FF4006101223046FAF7B4
:10586000C7FE002C18BF4FF0FF34204670BD00006B
:10587000F0B581B041F200041646C5F602040D46AB
:105880008DF803004FF4006100222046FAF7B0FEC5
:105890004FF4005100222046FAF7AAFE40F2F450DD
:1058A0000DF10301C2F2004001226423FCF7FCFE6B
:1058B00007464FF4005101222046FAF799FE56B1EF
:1058C000B2B240F2F450C2F200404FF4FA732946EB
:1058D000FCF7EAFE07444FF4006101222046FAF784
:1058E00087FE002F18BF4FF0FF37384601B0F0BDDC
:1058F00090B04EF660754FF6A850CEF20005CFF688
:10590000FF704FF0104701242F500B94FAF72CFF33
:105910000E940BAC1B208DF8340020460C974FF0F2
:1059200000088DF837804FF48076ADF83560FAF7CF
:10593000EBFE40F20110ADF82C0016208DF834007B
:1059400005208DF8370000200C97C0F201100E9052
:105950002046ADF83560FAF7D7FE0420FAF714FFB9
:105960004FF6B451CFF6FF716858800311D4BFF3DE
:105970004F8FBFF36F8F45F8108CBFF34F8FBFF37E
:105980006F8F685840F400306850BFF34F8FBFF3FB
:105990006F8F6858C00365D44FF624600021CFF69E
:1059A000FF70012343F6E07B29504FF62060CFF6CD
:1059B000FF70BFF34F8F2858C208C0F34E31C0F3B9
:1059C000C90C03EBD000ACF101079307ACF1020A5C
:1059D00000F00306BA0704924FEA8A700390ACF114
:1059E0000300029004E000BF0029A1F101012BD0C7
:1059F0000BEA411062468EB1012E43EA00022A6092
:105A00003A460BD0049A022E42EA00022A6052461D
:105A100004D0039A02432A60029A00BFBCF1030F2C
:105A2000E2D340EA8270013200F1404880F0004940
:105A300000F1804E043A2860C5F80080C5F8009057
:105A4000C5F800E0F6D1CFE74FF6B451CFF6FF71BD
:105A5000BFF34F8F685840F480306850BFF34F8FCA
:105A6000BFF36F8F41F20005C5F60205FAF7F0FDAE
:105A7000FFF7AEFCFEF7E8F8FEF746F9FEF7D8F9B7
:105A8000FEF70AFAFDF7B8FE40F2D0560DF12809EC
:105A9000C2F200460FF2900A0FF29C0B4FF0100872
:105AA00029A700BF0022304605A9FCF755F90022BE
:105AB00030464946FCF71CF99DF8160059469DF8FA
:105AC00014209DF81530C007204608BF514600F04D
:105AD00053F804203A21A0221023CDF8008001942D
:105AE000FDF752FEFAF79CFD02462046394600F0CB
:105AF00043F804204A21A0221023CDF8008001940D
:105B0000FDF742FE082101222846FAF771FD022026
:105B1000FAF77AFC082100222846FAF769FD40F2DC
:105B2000F310FAF771FCBDE754696D653A20253032
:105B3000326420253032640054696D653A20253086
:105B400032643A25303264005469636B3A2025642C
:105B5000206D7300000000004368006918470000D2
:105B6000D0E9033018470000836800691847000037
:105B7000D0F800C0006960470FB4084B10B504A905
:105B800002AA039800F01CF8044602A9002000F0C5
:105B900048FA204610BC5DF814FB0000236000901A
:105BA00002E008C8121F08C1002AFAD170477047E6
:105BB000002001E001C1121F002AFBD17047000044
:105BC0002DE9FF4F8DB00F460546002606E025283B
:105BD0000BD0DDE90F1290476D1C761C2878002849
:105BE000F5D111B03046BDE8F08F0024A246A146A1
:105BF0000122EC4900E0044315F8013F203B02FA82
:105C000003F00842F7D128782A2810D06FF02F022D
:105C10002878A0F13001092914D80AEB8A0102EB97
:105C2000410144F0020400EB010A6D1CF0E701CFD2
:105C30005FEA000A03D544F40054CAF1000A44F0B4
:105C400002046D1C28782E2817D115F8010F44F096
:105C500004042A280ED06FF02F022878A0F130011A
:105C600009290AD809EB890102EB410100EB01097E
:105C70006D1CF2E757F8049B6D1C28786C280FD038
:105C800006DC4C2817D068280DD06A2814D104E00F
:105C9000742810D07A280FD10DE044F400140AE0E3
:105CA00044F4801401E044F440146978814202D144
:105CB00004F580146D1C6D1C2A786E2A1FD00CDC34
:105CC000632A31D004DC002A8BD0582A11D1A3E0FA
:105CD000642A68D0692A0CD165E0732A2ED004DCCE
:105CE0006F2A73D0702A04D19BE0752A6FD0782A6E
:105CF0006ED01046DDE90F129047761C50E1C4F3D8
:105D00000250022806D0032809D0042801CF09D068
:105D1000066045E101CFF117C0E9006140E101CF24
:105D200006803DE106703BE117F8040B8DF800009A
:105D300000208DF80100EB46012003E057F804BB7A
:105D40004FF0FF3061074FF0000102D40DE008F181
:105D50000101884649450FDA8045F8DB1BF8081039
:105D60000029F4D108E008F1010188468142FADBFC
:105D70001BF808100029F6D1DDE90F23AAEB080073
:105D80008146214600F036F9304400EB080604E075
:105D9000DDE90F121BF8010B9047B8F10108F7D2AB
:105DA00021464846F7E00A21C4F302534FF0000BA6
:105DB0000891022B04D001CFC117032B09D00AE0B0
:105DC000FF1D27F00707F7E8020108E032E01FE0B7
:105DD00020E000B2C117042B01D140B2C117031E4D
:105DE00071F1000307DA4FF0000CD0EB0C006CEB04
:105DF00001012D2302E0230504D52B238DF8243047
:105E0000012303E0E30701D02023F7E7984658E099
:105E10000A2110E010210EE010204FF0000B089036
:105E20000CE010214FF0000B44F004044FF008097F
:105E3000089103E008214FF0000B0891C4F30253CE
:105E4000022B04D001CF0021032B06D006E0FF1D5A
:105E500027F00707F7E8020103E080B2042B00D126
:105E6000C0B24FF0000823072BD5702A07D0DDF809
:105E700020C08CF0100C5CEA0B0C05D00EE0402327
:105E80008DF82430012308E050EA010306D03023C6
:105E90008DF824308DF8252002239846DDF820C0A7
:105EA0008CF0080C5CEA0B0C0BD150EA010301D119
:105EB000630706D530238DF824304FF00108A9F18F
:105EC0000109582A04D038A20B9208AA0A920BE0C2
:105ED0003AA2F9E75B46089AFAF70CFA0B9B9B5C2F
:105EE0000A9A521E0A92137050EA0102F2D10A98DD
:105EF000ADEB000000F1200B600702D524F48034E4
:105F000001E04FF00109D94502DDA9EB0B0000E0EB
:105F1000002000EB0B0141440890AAEB010AE003CA
:105F200006D4DDE90F232146504600F063F806440D
:105F30004FF0000908E009A911F80900DDE90F1286
:105F4000904709F10109761CC145F4DBE0030CD54B
:105F5000DDE90F232146504600F04CF8064404E0EA
:105F6000DDE90F1230209047761C0899481E0890F2
:105F70000029F5DC08E00A980A990078491C0A9182
:105F8000DDE90F129047761CBBF10001ABF1010B6C
:105F9000F1DC21465046DDE90F2300F019F80644F4
:105FA0006D1C1BE609280100303132333435363799
:105FB0003839616263646566000000003031323355
:105FC00034353637383941424344454600000000F5
:105FD0002DE9F041044600251E461746880404D4E6
:105FE00005E039462020B0476D1C641EF9D52846CF
:105FF000BDE8F0812DE9F041044600251E4690469B
:10600000C80301D5302700E02027880404D505E027
:1060100041463846B0476D1C641EF9D52846BDE898
:10602000F0810A68531C0B601070704780000000FC
:106030005000000080000000000000000102030486
:106040000102030406070809424D42A800000000AF
:106050000000420000002800000080000000A800AE
:106060000000010010000300000000A80000120B57
:106070000000120B0000000000000000000000F80B
:106080000000E00700001F0000000000000000000A
:106090000000000000000000000000000000000000
:1060A00000000000000000000000000000000000F0
:1060B00000000000000000000000000000000000E0
:1060C00000000000000000000000000000000000D0
:10884000242196B55DEFFFFFFFFFFBDEB294000031
:108850000000000000000000000000000000000018
:108860000000000000000000000000000000000008
:1088700000000000000000000000000000000000F8
:1088800000000000000000000000000000000000E8
:1088900000000000000000000000000000000000D8
:1088A00000000000000000000000000000000000C8
:1088B00000000000000000000000000000000000B8
:1088C00000000000000000000000000000000000A8
:1088D0000000000000000000000000000000000098
:1088E0000000000000000000000000000000000088
:1088F0000000000000000000000000000000000078
:108900000000000000000000000000000000000067
:108910000000000000000000000000000000000057
:108920000000000000000000000000000000000047
:108930000000000000000000000000000000AA523B
:10894000BEF7FFFFBEF796B514A5F7BDBEF75DEF06
:10895000AA5200000000000000000000000000001B
:108960000000000000000000000000000000000007
:1089700000000000000000000000000000000000F7
:1089800000000000000000000000000000000000E7
:1089900000000000000000000000000000000000D7
:1089A00000000000000000000000000000000000C7
:1089B00000000000000000000000000024212C63E3
:1089C0002C632C6300000000000000000000000089
:1089D0000000000000000000000000000000000097
:1089E0000000000000000000000000000000000087
:1089F000000000000000000000000000E7392C63C8
:108A00002C63AA52000000000000000000000000DB
:108A10000000000000000000000000000000000056
:108A200000000000E7392C632C632C632C632C635B
:108A3000E739000000000000000000002421BEF71C
:108A4000FFFFBEF7AA52000000000000E739FBDE7E
:108A5000BEF7AA5200000000000000000000000065
:108A60000000000000002C632C632C632C63AA52CE
:108A700000000000000000000000000000000000F6
:108A800000000000000000000000000000000000E6
:108A900000000000000000000000000000000000D6
:108AA00000000000000000000000000000000000C6
:108AB00000000000FFFFFFFFFFFFFFFFFFFFFFFFC2
:108AC000FFFFFFFFBAD6000000000000000000001A
:108AD0005DEFFFFFFFFFFFFFFFFFFFFFFFFFF7BDA2
:108AE0000000000000000000000000000000000086
:108AF0000000CF7BFFFFFFFFFFFFFFFFFFFFFFFF38
:108B0000FFFFFFFF14A500000000000000000000B0
:108B100000000000000059CEFFFFFFFFFFFFFFFF36
:108B2000FFFFFFFFFFFFFFFFFFFFFFFFFFFFFFFF55
:108B3000FFFFBAD6242100000000000014A5FFFFAB
:108B4000FFFF2C6300000000000000000000242153
:108B5000FBDEFBDE00000000000000003084FFFFB1
:108B6000FFFFFFFFFFFFFFFFFFFFFFFFFFFFFFFF15
:108B7000BEF7F7BD2C6300000000000000000000FD
:108B800000000000000000000000000000000000E5
:108B900000000000000000000000000000000000D5
:108BA00000000000000000000000000000000000C5
:108BB000000000002C6330845DEFFFFFFFFFF7BD76
:108BC00000000000E7390000000000000000000085
:108BD000AA523084BEF7FFFFFFFFB2942C63AA5263
:108BE0000000000000000000000000000000000085
:108BF000000024212C6314A5BEF7FFFFFFFF308483
:108C000000000000E7390000000000000000000044
:108C1000000000000000E7393084FBDEFFFFFFFFAB
:108C20005DEF5DEFFFFFFFFF5DEF59CEB2942C6368
:108C3000B294FFFFF7BD0000000000005DEFFFFFF2
:108C40005DEF0000000000000000000000000000D8
:108C5000AA5296B5000000000000000000000000CD
:108C6000AA52FFFFFFFFFBDE2C632C632C63B29440
:108C7000FBDEFFFFFFFF59CE2421000000000000B3
:108C800000000000000000000000000000000000E4
:108C900000000000000000000000000000000000D4
:108CA00000000000000000000000000000000000C4
:108CB0000000000000000000AA52FFFFFFFF5DEF70
:108CC00000000000000000000000000000000000A4
:108CD000000000003084FFFFFFFF96B50000000099
:108CE0000000000000000000000000000000000084
:108CF0000000000000000000B294FFFFFFFFF7BD7E
:108D00000000000000000000000000000000000063
:108D10000000000000000000000024215DEFFFFFC4
:108D2000BEF7242100000000000000000000000049
:108D30002421FFFFFFFF000000002421FFFFFFFFB1
:108D4000F7BD00000000000000000000000000006F
:108D50000000000000000000000000000000000013
:108D6000000059CEFFFFFFFFE739000000000000C0
:108D700000002C63BEF7FFFFFBDE24210000000093
:108D800000000000000000000000000000000000E3
:108D900000000000000000000000000000000000D3
:108DA00000000000000000000000000000000000C3
:108DB00000000000000000000000FBDEFFFFFFFFDE
:108DC000242100000000000000000000000000005E
:108DD000000000002421FFFFFFFFFBDE0000000079
:108DE0000000000000000000000000000000000083
:108DF00000000000000000002421FFFFFFFFFBDE59
:108E00000000000000000000000000000000000062
:108E1000000000000000000000000000B294FFFF0E
:108E2000FFFF308400000000000000000000000090
:108E30002C63FFFFBEF7000000002C63FFFFFFFF65
:108E400014A5000000000000000000000000000069
:108E500000000000000000000000242114A5AA5218
:108E600000003084FFFFFFFFB2940000000000000C
:108E700000000000AA52BEF7FFFFFBDE000000006A
:108E800000000000000000000000000000000000E2
:108E900000000000000000000000000000000000D2
:108EA00000000000000000000000000000000000C2
:108EB00000000000000000000000B294FFFFFFFF70
:108EC00030840000000000000000000000000000EE
:108ED00000000000000059CEFFFFFFFF242100002A
:108EE0000000000000000000000000000000000082
:108EF00000000000000000000000BAD6FFFFFFFFE6
:108F0000242100000000000000000000000000001C
:108F1000000000000000000000000000E739FFFF33
:108F2000FFFF59CE0000000000000000000000001C
:108F300000003084AA52000000002C63FFFFFFFFF6
:108F400014A5000000000000000000000000000068
:108F500000000000000000000000BAD6FFFFBAD6F3
:108F600000002421FFFFFFFFFBDE000000000000E7
:108F70000000000000002C63FFFFFFFF14A50000AD
:108F800000000000000000000000000000000000E1
:108F900000000000000000000000000000000000D1
:108FA00000000000000000000000000000000000C1
:108FB00000000000000000000000AA52FFFFFFFFB9
:108FC000F7BD0000000000000000000000000000ED
:108FD000000000000000B294FFFFFFFF308400009B
:108FE0000000000000000000000000000000000081
:108FF00000000000000000000000B294FFFFFFFF2F
:1090000030840000000000000000000000000000AC
:1090100000000000000000000000000000005DEF04
:10902000FFFFFFFF00000000000000000000000044
:1090300000000000000000000000AA52FFFFFFFF38
:1090400014A5000000000000000000000000000067
:109050000000000000000000CF7BFFFFBEF730845F
:1090600000000000BAD6FFFFFFFF2421000000002F
:109070000000000000000000F7BDFFFFBEF7242144
:1090800000000000000000000000000000000000E0
:1090900000000000000000000000000000000000D0
:1090A00000000000000000000000000000000000C0
:1090B000000000000000000000000000BEF7FFFFFD
:1090C0005DEF000000000000000000000000FBDE7B
:1090D000FFFFAA520000AA52FFFFFFFFF7BD0000EA
:1090E00000000000AA52242100000000000000003F
:1090F00000000000000000000000AA52FFFFFFFF78
:10910000F7BD0000000000000000000000000000AB
:109110000000000000000000000000000000F7BD9B
:10912000FFFFFFFFCF7B00000000000000000000F9
:10913000000000000000000000000000FFFFFFFF33
:10914000BAD600000000000000000000000000008F
:10915000000000000000000014A5FFFF2C630000C9
:109160000000000014A5FFFFFFFFCF7B0000000000
:109170000000000000000000CF7BFFFFFFFF3084F5
:1091800000000000000000000000000000000000DF
:1091900000000000000000000000000000000000CF
:1091A000000000000000000000000000000030840B
:1091B000BAD6CF7B0000000000000000F7BDFFFF23
:1091C000FFFFE7390000000000000000AA52FFFF87
:1091D000FFFFAA52000000005DEFFFFFFBDE000072
:1091E00000000000BAD614A500000000000096B5EB
:1091F00059CEE7390000000000000000BEF7FFFF75
:109200005DEF000000000000000000000000000012
:10921000000000000000000000000000000030849A
:10922000FFFFFFFF96B500000000000000000000F7
:10923000000000000000000000000000BAD6FFFFA0
:10924000BEF7000000000000000000000000000069
:10925000000000000000000059CEFBDE000000000E
:10926000000000002C63FFFFFFFF14A500000000BA
:1092700000000000000000000000FFFFFFFFF7BD3E
:1092800000000000000000000000000000000000DE
:1092900000000000000000000000000000000000CE
:1092A00000000000000000000000000000005DEF72
:1092B000FFFF14A500000000000000003084FFFF45
:1092C000FFFF308400000000000000002C63FFFF5F
:1092D000F7BD000000000000F7BDFFFFFFFFBAD69A
:1092E000BAD6BAD6FFFFF7BD00000000E739FFFF8E
:1092F000FFFF2C630000000000000000F7BDFFFF2F
:10930000FFFFE7390000000000000000000000003F
:109310000000000000000000000000000000E7392D
:10932000FFFFFFFFFBDE0000000000000000000068
:10933000000000000000000000000000B294FFFFE9
:10934000FFFFAA5200000000000000000000000023
:10935000000000000000000014A5FBDE000000007B
:10936000000000000000FFFFFFFFBAD60000000071
:1093700000000000000000000000FFFFFFFFBAD661
:1093800000000000000000000000000000000000DD
:1093900000000000000000000000000000000000CD
:1093A0000000000000000000000000000000FFFFBF
:1093B000FFFFAA520000000000000000E739FFFF95
:1093C000FFFFF7BD00000000000000002C63FFFF5E
:1093D00030840000000000003084FFFFFFFF59CE02
:1093E00014A514A559CE5DEF000000002C63FFFF0B
:1093F000FBDE000000000000000000003084FFFFE2
:10940000FFFF3084000000000000000000000000AA
:10941000000000000000000000000000000000004C
:10942000FBDEFFFFFFFFE739000000000000000047
:109430000000000000000000000000002421FFFFE9
:10944000FFFFF7BD0000000000000000000000006A
:1094500000000000000000003084FFFFE73900003A
:10946000000000000000BAD6FFFFFFFF0000000070
:1094700000000000000000000000FFFFFFFFBAD660
:1094800000000000000000000000000000000000DC
:1094900000000000000000000000000000000000CC
:1094A0000000000000000000000000000000FFFFBE
:1094B000F7BD0000000000000000000000005DEFAC
:1094C000FFFF5DEF0000000000000000AA52FFFF58
:1094D000B294000000000000E739FFFFFFFF96B5DF
:1094E00000000000AA52FFFF000000002C63FFFFF5
:1094F000308400000000000000000000E739FFFF9A
:10950000FFFFF7BD000000000000000000000000A9
:10951000000000000000000000000000000000004B
:10952000B294FFFFFFFFB2940000000000000000B3
:109530000000000000000000000000000000F7BD77
:10954000FFFFBEF724210000000000000000000023
:1095500000000000AA5296B52421BEF714A5000011
:1095600000000000000014A5FFFFFFFF2C630000B7
:1095700000000000000000000000FFFFFFFFBAD65F
:1095800000000000000000000000000000000000DB
:1095900000000000000000000000000000000000CB
:1095A0000000000000000000000000000000BEF706
:1095B00059CE000000000000000000000000F7BDD0
:1095C000FFFFFFFFE73900000000000000005DEF33
:1095D000BAD600000000000000005DEFFFFFFBDED8
:1095E000000000000000000000000000AA52FFFF81
:1095F000B2940000000000000000000000005DEFD9
:10960000FFFF5DEF00000000000000000000000010
:10961000000000000000000000000000000000004A
:10962000E739FFFFFFFFFBDE000000000000000045
:1096300000000000000000000000000000002421E5
:10964000BEF7FFFF96B5000000000000000000001C
:10965000000000002C63BAD6000014A5BEF7AA5281
:109660000000000000002C63FFFFFFFFB294000029
:109670000000000000000000CF7BFFFFFFFF96B559
:1096800000000000000000000000000000000000DA
:1096900000000000000000000000000000000000CA
:1096A0000000000000000000000000000000F7BD06
:1096B000FFFFE739000000000000000000003084D8
:1096C000FFFFFFFFB2940000000000000000CF7B0E
:1096D000FFFF3084000000000000F7BDFFFFFFFF28
:1096E000E7390000000000000000E739E7395DEFCE
:1096F000FBDE000000000000000000000000F7BDDD
:10970000FFFFFFFFE739000000000000000000003D
:109710000000000000000000000000000000000049
:109720000000F7BDFFFFFFFFE73900000000000069
:109730000000000000000000000000000000000029
:10974000CF7BFFFFFFFF2C63000000000000000044
:10975000000000002C63FFFF00000000FBDEFBDECA
:109760002421000000000000FFFFFFFF59CE000091
:109770000000000000000000BAD6FFFFFFFFE7393D
:1097800000000000000000000000000000000000D9
:1097900000000000000000000000000000000000C9
:1097A0000000000000000000000000000000E73999
:1097B000BEF7FBDE24210000000000000000E739B6
:1097C000FFFFFFFF59CE0000000000000000000076
:1097D00096B5BEF73084000000003084FFFFFFFF25
:1097E0003084000000000000000014A5BAD6CF7B32
:1097F000FFFFF7BD00000000000000000000308403
:10980000FFFFFFFFB2940000000000000000000016
:109810000000000000000000000000000000000048
:109820000000E739BEF7FFFF59CE0000000000003E
:10983000E739E739000000000000000000000000E8
:10984000000014A5FFFFBEF7AA52000000000000B0
:1098500000000000CF7BFFFFE73900002421FBDE82
:109860005DEFAA5200003084FFFFFFFFBEF700004B
:10987000000000000000B294FFFFFFFF96B500005B
:1098800000000000000000000000000000000000D8
:1098900000000000000000000000000000000000C8
:1098A00000000000000000000000000000000000B8
:1098B000CF7BFFFFBEF796B52C63E73900000000B1
:1098C0005DEFFFFFBEF70000000000000000000099
:1098D000000096B5FFFFBAD6CF7BAA52FFFFFFFF6D
:1098E00059CE000000000000000096B5BEF7000051
:1098F00096B5FFFF5DEFB2942C6324210000E73999
:10990000FFFFFFFF59CE0000000000000000000034
:109910000000000000000000000000000000000047
:1099200000000000CF7BFFFFFFFF30840000308489
:10993000BEF7BEF7000000000000000000000000BD
:10994000000000003084FFFFBEF7B294000000006A
:1099500000000000BAD6FFFFCF7B000000002421EA
:1099600059CEFFFFF7BDB29414A5F7BDFBDE2C6303
:1099700000002421F7BDFFFFFFFFF7BD000000003E
:1099800000000000000000000000000000000000D7
:1099900000000000000000000000000000000000C7
:1099A00000000000000000000000000000000000B7
:1099B0000000AA52FBDEFFFFFFFFFFFFFFFFFFFFDC
:1099C000FFFFFFFFFFFFFFFFFFFFFFFFFFFF59CE7E
:1099D0002C6300002C63F7BDBEF7FFFFFFFFFFFF06
:1099E000FFFFFFFFFFFFFFFFFFFFFFFFFFFFAA5289
:1099F0000000CF7BBEF7FFFFFFFFFFFFFFFFFFFF72
:109A0000FFFFFFFFFFFFFFFFFFFFFFFFBEF7F7BDF9
:109A1000E739000000000000000000000000000026
:109A20000000000000002C635DEFFFFF5DEFFFFF13
:109A3000FFFFBAD600000000000000000000000098
:109A4000000000000000AA52BAD6FFFF5DEFF7BD8C
:109A500096B55DEFFFFFBAD62C6300000000000052
:109A600000002C63BAD6FFFF5DEFF7BD14A514A567
:109A7000BAD6FFFFFFFFBEF7B2940000000000005F
:109A800000000000000000000000000000000000D6
:109A900000000000000000000000000000000000C6
:109AA00000000000000000000000000000000000B6
:109AB000000000000000CF7BF7BDBAD6BEF7FFFF65
:109AC000BEF7BAD6BAD659CE14A514A514A5FBDE96
:109AD000FFFF2C6300000000000024212C632C6396
:109AE0002C632C632C632C632C632C6396B5AA52D5
:109AF000000000002421308459CEBAD6FFFFFFFFBA
:109B00005DEFBAD6BAD6F7BD14A514A514A5BEF755
:109B1000BEF724210000000000000000000000004B
:109B2000000000000000000024213084F7BD59CE61
:109B3000B29424210000000000000000000000009A
:109B400000000000000000000000AA5214A5BAD6D0
:109B500059CE14A5E7390000000000000000000005
:109B6000000000000000E739308414A559CEBAD6B1
:109B7000F7BD14A5CF7B000000000000000000002E
:109B800000000000000000000000000000000000D5
:109B900000000000000000000000000000000000C5
:109BA00000000000000000000000000000000000B5
:109BB00000000000000000000000000000000000A5
:109BC0000000000000000000000000000000CF7B4B
:109BD000FFFF14A5000000000000000000000000CE
:109BE0000000000000000000000000000000000075
:109BF0000000000000000000000000000000000065
:109C0000000000000000000000000000000096B509
:109C1000FFFF2C63000000000000000000000000B7
:109C20000000000000000000000000000000000034
:109C30000000000000000000000000000000000024
:109C40000000000000000000000000000000000014
:109C50000000000000000000000000000000000004
:109C600000000000000000000000000000000000F4
:109C700000000000000000000000000000000000E4
:109C800000000000000000000000000000000000D4
:109C900000000000000000000000000000000000C4
:109CA00000000000000000000000000000000000B4
:109CB00000000000000000000000000000000000A4
:109CC0000000000000000000000000000000AA5298
:109CD000BEF7CF7B00000000000000000000000085
:109CE0000000000000000000000000000000000074
:109CF0000000000000000000000000000000000064
:109D0000000000000000000000000000000030849F
:109D1000BEF7E7390000000000000000000000006E
:109D20000000000000000000000000000000000033
:109D30000000000000000000000000000000000023
:109D40000000000000000000000000000000000013
:109D50000000000000000000000000000000000003
:10ABB000000000000000000000000000E7392C63E6
:10ABC0002C632C6324210000000000000000000022
:10ABD0000000000000000000000000000000000075
:10ABE0000000000000000000000000000000000065
:10ABF0000000000000000000000000000000000055
:10AC00000000000000000000000000000000000044
:10AC10000000000000000000000000000000000034
:10AC20000000000000000000000000000000000024
:10AC30000000000000000000000000000000000014
:10AC40000000000000000000000000000000000004
:10AC500000000000000000000000000000000000F4
:10AC600000000000000000000000000000000000E4
:10AC700000000000000000000000000000000000D4
:10AC800000000000000000000000000000000000C4
:10AC900000000000000000000000000000000000B4
:10ACA00000000000000000000000000000000000A4
:10ACB000000000000000E739F7BDBEF7BEF7BAD6C6
:10ACC000BAD6BEF7FFFF5DEFF7BDAA520000000045
:10ACD0000000000000000000000000003084FBDEE7
:10ACE000FFFFFFFFBEF7F7BD2C6300000000000070
:10ACF00000000000E739F7BD5DEFFFFFFFFFBEF783
:10AD000059CE308424210000AA52BAD6BAD6BAD677
:10AD1000BAD6BAD6BAD6BAD60000000000000000F3
:10AD200000000000242114A5FBDEFFFFFFFF5DEF04
:10AD300014A52421000096B5BAD6BAD6BAD6BAD68A
:10AD4000BAD6BAD63084000000003084BAD6BAD65B
:10AD5000BAD6BAD6BAD6BAD696B500000000000068
:10AD60000000000000000000CF7B59CE5DEFFFFF28
:10AD7000FFFFFBDEF7BDAA5200000000000000004C
:10AD800000000000000000000000000000000000C3
:10AD900000000000000000000000000000000000B3
:10ADA00000000000000000000000000000000000A3
:10ADB0000000242196B5FFFFF7BDAA520000000055
:10ADC00000002421FFFFFFFFFFFFFFFF59CE2421DA
:10ADD00000000000000000000000F7BDFFFFFFFFC3
:10ADE000FFFFFFFFFFFFFFFFFFFF96B50000000022
:10ADF0000000CF7BFFFFFFFFFFFFFFFFFFFFFFFF15
:10AE0000FFFFFFFFBEF714A52C63FFFFFFFFFFFF4F
:10AE1000FFFFFFFFFFFFFFFF00000000000000003A
:10AE200000003084BEF7FFFFFFFFFFFFFBDE14A52D
:10AE3000FBDE5DEFAA52BAD6FFFFFFFFFFFFFFFF69
:10AE4000FFFFFFFF14A50000000014A5FFFFFFFF98
:10AE5000FFFFFFFFFFFFFFFFBAD60000000000006A
:10AE600000000000E739BAD6FFFFFFFFFFFF14A57F
:10AE70000000E739B2945DEF59CE242100000000B4
:10AE800000000000000000000000000000000000C2
:10AE900000000000000000000000000000000000B2
:10AEA00000000000000000000000000000000000A2
:10AEB0002421FBDEFBDEAA5200000000000000009F
:10AEC00000002C63FFFFFFFFFFFFFFFFFFFFFBDE24
:10AED00000000000000000003084FFFFFFFFFFFFC4
:10AEE000FFFFFFFFFFFFB294E739FBDEB2940000E3
:10AEF0002421BEF7FFFFFFFFFFFFFFFFFFFFBEF7AD
:10AF00002421000030845DEFBEF7FFFFFFFFFFFF4D
:10AF1000FFFFFFFFFFFFFFFF000000000000000039
:10AF20003084FFFFFFFFFFFFFFFFFFFF2C630000E8
:10AF30000000B294BEF75DEFFFFFFFFFFFFFFFFFD2
:10AF4000FFFFFFFF14A50000000014A5FFFFFFFF97
:10AF5000FFFFFFFFFFFFFFFFBAD600000000000069
:10AF60000000AA52BEF7FFFFFFFFFFFFFFFF14A57F
:10AF7000000000000000000014A5FBDE24210000FA
:10AF800000000000000000000000000000000000C1
:10AF900000000000000000000000000000000000B1
:10AFA00000000000000000000000000000000000A1
:10AFB000E73959CE24210000000000000000000005
:10AFC000E739BEF7FFFFFFFFFFFFFFFFFFFFFFFFB8
:10AFD00014A5000000000000BAD6FFFFFFFFFFFF2E
:10AFE000FFFFFFFFFFFF2C630000E7395DEF242127
:10AFF000CF7BFFFFFFFFFFFFFFFFFFFFFFFFBAD683
:10B00000000000000000000096B5FFFFFFFFFFFFFB
:10B01000FFFFFFFFFFFFFFFF0000000000002C63A9
:10B02000FFFFFFFFFFFFFFFFFFFFFFFF2C6300009D
:10B03000000000003084FFFFFFFFFFFFFFFFFFFF66
:10B04000FFFFFFFF14A50000000014A5FFFFFFFF96
:10B05000FFFFFFFFFFFFFFFFBAD600000000000068
:10B060002421BEF7FFFFFFFFFFFFFFFFFFFF14A537
:10B0700000000000000000000000B294BAD60000FA
:10B0800000000000000000000000000000000000C0
:10B0900000000000000000000000000000000000B0
:10B0A00000000000000000000000000000000000A0
:10B0B000000000000000000000000000000024214B
:10B0C000FBDEFFFFFFFFFFFFFFFFFFFFFFFFFFFFB5
:10B0D0005DEF000000000000FFFFFFFFFFFFFFFF2C
:10B0E000FFFFFFFFFFFF2C6300000000F7BD2C6394
:10B0F00014A5FFFFFFFFFFFFFFFFFFFFFFFFBAD613
:10B1000000000000000000002C63FFFFFFFFFFFFB6
:10B11000FFFFFFFFFFFFFFFF0000000000005DEFEB
:10B12000FFFFFFFFFFFFFFFFFFFFFFFF2C6300009C
:10B13000000000000000BAD6FFFFFFFFFFFFFFFF87
:10B14000FFFFFFFF14A50000000014A5FFFFFFFF95
:10B15000FFFFFFFFFFFFFFFFBAD600000000000067
:10B16000F7BDFFFFFFFFFFFFFFFFFFFFFFFF14A57E
:10B17000000000000000000000000000BAD630848B
:10B1800000000000000000000000000000000000BF
:10B1900000000000000000000000000000000000AF
:10B1A000000000000000000000000000000000009F
:10B1B0000000000000000000000000002421FBDE71
:10B1C000FFFFFFFFFFFFFFFFFFFFFFFFFFFFFFFF8F
:10B1D000FFFF000000000000FFFFFFFFFFFFFFFF79
:10B1E000FFFFFFFFFFFF2C630000000000000000D6
:10B1F00014A5FFFFFFFFFFFFFFFFFFFFFFFFBAD612
:10B2000000000000000000002C63FFFFFFFFFFFFB5
:10B21000FFFFFFFFFFFFFFFF00000000CF7BFFFFEE
:10B22000FFFFFFFFFFFFFFFFFFFFFFFF2C6300009B
:10B23000000000000000BAD6FFFFFFFFFFFFFFFF86
:10B24000FFFFFFFF14A50000000014A5FFFFFFFF94
:10B25000FFFFFFFFFFFFFFFFBAD600000000242121
:10B26000FFFFFFFFFFFFFFFFFFFFFFFFFFFF14A533
:10B270000000000000000000000000002C63BAD6AF
:10B2800000000000000000000000000000000000BE
:10B2900000000000000000000000000000000000AE
:10B2A000000000000000000000000000000000009E
:10B2B000000000000000000000002421FBDEFFFF72
:10B2C000FFFFFFFFFFFFFFFFFFFFFFFFFFFFFFFF8E
:10B2D000BEF7000000000000FFFFFFFFFFFFFFFFC1
:10B2E000FFFFFFFFFFFF2C630000000000000000D5
:10B2F00014A5FFFFFFFFFFFFFFFFFFFFFFFFBAD611
:10B3000000000000000000002C63FFFFFFFFFFFFB4
:10B31000FFFFFFFFFFFFFFFF0000000096B5FFFFEC
:10B32000FFFFFFFFFFFFFFFFFFFFFFFF2C6300009A
:10B33000000000000000BAD6FFFFFFFFFFFFFFFF85
:10B34000FFFFFFFF14A50000000014A5FFFFFFFF93
:10B35000FFFFFFFFFFFFFFFFBAD600000000CF7B1B
:10B36000FFFFFFFFFFFFFFFFFFFFFFFFFFFF14A532
:10B370000000000000000000000000000000BEF718
:10B380002421000000000000000000000000000078
:10B3900000000000000000000000000000000000AD
:10B3A000000000000000000000000000000000009D
:10B3B00000000000000000002421FBDEFFFFFFFF73
:10B3C000FFFFFFFFFFFFFFFFFFFFFFFFFFFFFFFF8D
:10B3D000F7BD000000000000FFFFFFFFFFFFFFFFC1
:10B3E000FFFFFFFFFFFF2C630000000000000000D4
:10B3F00014A5FFFFFFFFFFFFFFFFFFFFFFFFBAD610
:10B4000000000000000000002C63FFFFFFFFFFFFB3
:10B41000FFFFFFFFFFFFFFFF00000000BAD6FFFFA6
:10B42000FFFFFFFFFFFFFFFFFFFFFFFF2C63000099
:10B43000000000000000BAD6FFFFFFFFFFFFFFFF84
:10B44000FFFFFFFF14A50000000014A5FFFFFFFF92
:10B45000FFFFFFFFFFFFFFFFBAD60000000014A5AB
:10B46000FFFFFFFFFFFFFFFFFFFFFFFFFFFF14A531
:10B470000000000000000000000000000000BAD63C
:10B480002C6300000000000000000000000000002D
:10B4900000000000000000000000000000000000AC
:10B4A000000000000000000000000000000000009C
:10B4B0000000000000000000F7BDFFFFFFFFFFFFDE
:10B4C000FFFFFFFFFFFFFFFFFFFFFFFFFFFFFFFF8C
:10B4D000E739000000000000FFFFFFFFFFFFFFFF54
:10B4E000FFFFFFFFFFFF2C630000000000000000D3
:10B4F00014A5FFFFFFFFFFFFFFFFFFFFFFFFBAD60F
:10B5000000000000000000002C63FFFFFFFFFFFFB2
:10B51000FFFFFFFFFFFFFFFF00000000BAD6FFFFA5
:10B52000FFFFFFFFFFFFFFFFFFFFFFFF2C63000098
:10B53000000000000000BAD6FFFFFFFFFFFFFFFF83
:10B54000FFFFFFFF14A50000000014A5FFFFFFFF91
:10B55000FFFFFFFFFFFFFFFFBAD60000000014A5AA
:10B56000FFFFFFFFFFFFFFFFFFFFFFFFFFFF14A530
:10B570000000000000000000000000000000BAD63B
:10B580002C6300000000000000000000000000002C
:10B5900000000000000000000000000000000000AB
:10B5A000000000000000000000000000000000009B
:10B5B00000000000000096B5FFFFFFFFFFFFFFFF48
:10B5C000FFFFFFFFFFFFFFFFFFFFFFFFFFFF14A5D0
:10B5D0000000000000000000FFFFFFFFFFFFFFFF73
:10B5E000FFFFFFFFFFFF2C630000000000000000D2
:10B5F00014A5FFFFFFFFFFFFFFFFFFFFFFFFBAD60E
:10B6000000000000000000002C63FFFFFFFFFFFFB1
:10B61000FFFFFFFFFFFFFFFF00000000BAD6FFFFA4
:10B62000FFFFFFFFFFFFFFFFFFFFFFFF2C63000097
:10B63000000000000000BAD6FFFFFFFFFFFFFFFF82
:10B64000FFFFFFFF14A50000000014A5FFFFFFFF90
:10B65000FFFFFFFFFFFFFFFFBAD600000000B2941C
:10B66000FFFFFFFFFFFFFFFFFFFFFFFFFFFF14A52F
:10B6700000000000000000000000000000005DEF7E
:10B68000E73900000000000000000000000000009A
:10B6900000000000000000000000000000000000AA
:10B6A000000000000000000000000000000000009A
:10B6B00000000000CF7BFFFFFFFFFFFFFFFFFFFF4A
:10B6C000FFFFFFFFFFFFFFFFFFFFFFFF59CE00005F
:10B6D0000000000000000000FFFFFFFFFFFFFFFF72
:10B6E000FFFFFFFFFFFF2C630000000000000000D1
:10B6F00014A5FFFFFFFFFFFFFFFFFFFFFFFFBAD60D
:10B7000000000000000000002C63FFFFFFFFFFFFB0
:10B71000FFFFFFFFFFFFFFFF0000000014A5FFFF7A
:10B72000FFFFFFFFFFFFFFFFFFFFFFFF2C63000096
:10B73000000000000000BAD6FFFFFFFFFFFFFFFF81
:10B74000FFFFFFFF14A50000000014A5FFFFFFFF8F
:10B75000FFFFFFFFFFFFFFFFBAD600000000AA5265
:10B76000FFFFFFFFFFFFFFFFFFFFFFFFFFFF14A52E
:10B77000000000000000000000000000E739BEF7F4
:10B7800000000000000000000000000000000000B9
:10B7900000000000000000000000000000000000A9
:10B7A0000000000000000000000000000000000099
:10B7B00000002421BEF7FFFFFFFFFFFFFFFFFFFF99
:10B7C000FFFFFFFFFFFFFFFFFFFFFBDE2421000065
:10B7D0000000000000000000FFFFFFFFFFFFFFFF71
:10B7E000FFFFFFFFFFFF2C630000000000000000D0
:10B7F00014A5FFFFFFFFFFFFFFFFFFFFFFFFBAD60C
:10B8000000000000000000002C63FFFFFFFFFFFFAF
:10B81000FFFFFFFFFFFFFFFF00000000AA52FFFF36
:10B82000FFFFFFFFFFFFFFFFFFFFFFFF2C63000095
:10B83000000000000000BAD6FFFFFFFFFFFFFFFF80
:10B84000FFFFFFFF14A50000000014A5FFFFFFFF8E
:10B85000FFFFFFFFFFFFFFFFBAD600000000000060
:10B860005DEFFFFFFFFFFFFFFFFFFFFFFFFF14A5DF
:10B8700000000000000000000000000014A596B5C4
:10B8800000000000000000000000000000000000B8
:10B8900000000000000000000000000000000000A8
:10B8A0000000000000000000000000000000000098
:10B8B000000014A5FFFFFFFFFFFFFFFFFFFFFFFFDB
:10B8C000FFFFFFFFFFFFFFFF5DEF242100000000EF
:10B8D0000000000000000000FFFFFFFFFFFFFFFF70
:10B8E000FFFFFFFFFFFF2C630000000000000000CF
:10B8F00014A5FFFFFFFFFFFFFFFFFFFFFFFFBAD60B
:10B9000000000000000000002C63FFFFFFFFFFFFAE
:10B91000FFFFFFFFFFFFFFFF00000000000059CE08
:10B92000FFFFFFFFFFFFFFFFFFFFFFFF2C63000094
:10B93000000000000000BAD6FFFFFFFFFFFFFFFF7F
:10B94000FFFFFFFF14A50000000014A5FFFFFFFF8D
:10B95000FFFFFFFFFFFFFFFFBAD60000000000005F
:10B96000CF7BFFFFFFFFFFFFFFFFFFFFFFFF14A5E0
:10B9700000000000000000000000AA525DEF24213A
:10B9800000000000000000000000000000000000B7
:10B9900000000000000000000000000000000000A7
:10B9A0000000000000000000000000000000000097
:10B9B00000005DEFFFFFFFFFFFFFFFFFFFFFFFFF47
:10B9C000FFFFFFFFFFFFBEF7AA52000000000000CC
:10B9D0000000000000000000FFFFFFFFFFFFFFFF6F
:10B9E000FFFFFFFFFFFF2C630000000000000000CE
:10B9F00014A5FFFFFFFFFFFFFFFFFFFFFFFFBAD60A
:10BA000000000000000000002C63FFFFFFFFFFFFAD
:10BA1000FFFFFFFFFFFFFFFF0000000000002421E9
:10BA20005DEFFFFFFFFFFFFFFFFFFFFF2C63000045
:10BA30000000000024215DEFFFFFFFFFFFFFFFFF7D
:10BA4000FFFFFFFF14A50000000014A5FFFFFFFF8C
:10BA5000FFFFFFFFFFFFFFFFBAD60000000000005E
:10BA60000000F7BDFFFFFFFFFFFFFFFFFFFF14A573
:10BA70000000000000000000AA52BEF73084000061
:10BA800000000000000000000000000000000000B6
:10BA900000000000000000000000000000000000A6
:10BAA0000000000000000000000000000000000096
:10BAB0000000FFFFFFFFFFFFFFFFFFFFFFFFFFFF94
:10BAC000FFFFFFFFBEF7AA520000000000000000C9
:10BAD0000000000000000000FFFFFFFFFFFFFFFF6E
:10BAE000FFFFFFFFFFFF2C630000000000000000CD
:10BAF00014A5FFFFFFFFFFFFFFFFFFFFFFFFBAD609
:10BB000000000000000000002C63FFFFFFFFFFFFAC
:10BB1000FFFFFFFFFFFFFFFF00000000000000002D
:10BB2000AA52FBDEFFFFFFFFFFFFFFFF2C630000B9
:10BB300000002C63FBDE5DEFFFFFFFFFFFFFFFFF59
:10BB4000FFFFFFFF14A50000000014A5FFFFFFFF8B
:10BB5000FFFFFFFFFFFFFFFFBAD60000000000005D
:10BB60000000000096B5FFFFFFFFFFFFFFFF14A5D9
:10BB7000000000000000B2945DEF3084000000007F
:10BB800000000000000000000000000000000000B5
:10BB900000000000000000000000000000000000A5
:10BBA0000000000000000000000000000000000095
:10BBB0000000FFFFFFFFFFFFFFFFFFFFFFFFFFFF93
:10BBC000FFFFFFFFAA52000000000000000000007D
:10BBD0000000E739BAD6BAD6FFFFFFFFFFFFFFFF2D
:10BBE000FFFFFFFFFFFFFBDEBAD6BAD630840000AE
:10BBF00014A5FFFFFFFFFFFFFFFFFFFFFFFFBAD608
:10BC000000000000000000002C63FFFFFFFFFFFFAB
:10BC1000FFFFFFFFFFFFFFFF00000000000000002C
:10BC20000000242114A5BEF7FFFFFFFFFBDE14A5D3
:10BC3000FBDEBAD6E739BAD6FFFFFFFFFFFFFFFFF3
:10BC4000FFFFFFFF14A50000000014A5FFFFFFFF8A
:10BC5000FFFFFFFFFFFFFFFFBAD60000000000005C
:10BC60000000000000002C63BAD6FFFFFFFFBAD629
:10BC700014A5F7BDBEF7F7BDE739000000000000CE
:10BC800000000000000000000000000000000000B4
:10BC900000000000000000000000000000000000A4
:10BCA0000000000000000000000000000000000094
:10BCB000000059CEFFFFFFFFFFFFFFFFFFFFFFFF69
:10BCC000FFFF3084000000000000000000000000C2
:10BCD000000024212C632C63FFFFFFFFFFFFFFFF09
:10BCE000FFFFFFFFFFFF2C632C632C63E73900008D
:10BCF000E7392C632C632C632C632C632C63AA52CE
:10BD0000000000000000000024212C632C632C6341
:10BD10002C632C632C632C630000000000000000E7
:10BD200000000000000000002C6314A514A530845E
:10BD3000E73900000000BAD6FFFFFFFFFFFFFFFF5B
:10BD4000FFFFFFFF14A500000000E7392C632C6300
:10BD50002C632C632C632C63AA52000000000000AB
:10BD600000000000000000000000E739308414A546
:10BD700014A5CF7B2421000000000000000000007B
:10BD800000000000000000000000000000000000B3
:10BD900000000000000000000000000000000000A3
:10BDA0000000000000000000000000000000000093
:10BDB0000000AA52FFFFFFFFFFFFFFFFFFFFFFFF93
:10BDC00014A500000000000000000000AA52AA52C2
:10BDD0000000000000000000FFFFFFFFFFFFFFFF6B
:10BDE000FFFFFFFFFFFF2421000000000000000014
:10BDF0000000000000000000000000000000000043
:10BE00000000000000000000000000000000000032
:10BE10000000000000000000000000000000000022
:10BE20000000000000000000000000000000000012
:10BE3000000000000000BAD6FFFFFFFFFFFFFFFF7A
:10BE4000FFFFFFFF14A50000000000002421308444
:10BE500014A514A53084E73900000000000000009C
:10BE600000000000000000000000000000000000D2
:10BE700000000000000000000000000000000000C2
:10BE800000000000000000000000000000000000B2
:10BE900000000000000000000000000000000000A2
:10BEA0000000000000000000000000000000000092
:10BEB000000000003084FFFFFFFFFFFFFFFFFFFFD8
:10BEC00024210000000000000000B294FFFF2C635A
:10BED0000000000000000000E73914A55DEFFFFF3F
:10BEE000FFFFFFFFFFFF2C630000000000000000C9
:10BEF0000000000000000000000000000000000042
:10BF00000000000000000000000000000000000031
:10BF10000000000000000000000000000000000021
:10BF20000000000000000000000000000000000011
:10BF3000000000000000BAD6FFFFFFFFFFFFFFFF79
:10BF4000FFFFFFFF14A500000000E739BEF7FFFF69
:10BF5000FFFFFFFFFFFFBEF7CF7B000000000000E8
:10BF600000000000000000000000000000000000D1
:10BF700000000000000000000000000000000000C1
:10BF800000000000000000000000000000000000B1
:10BF900000000000000000000000000000000000A1
:10BFA0000000000000000000000000000000000091
:10BFB000000000000000AA52BAD6FFFFFFFFFFFFFB
:10BFC00014A52C632C6396B55DEFBAD6AA52000077
:10BFD00000000000000000000000000000003084AD
:10BFE0005DEFFFFFFFFF2C6300000000000000007A
:10BFF0000000000000000000000000000000000041
:10C000000000000000000000000000000000000030
:10C010000000000000000000000000000000000020
:10C020000000000000000000000000000000000010
:10C03000000000000000BAD6FFFFFFFFFFFFFFFF78
:10C04000FFFFFFFF14A50000000014A5FFFFFFFF86
:10C05000FFFFFFFFFFFFFFFFBAD600000000000058
:10C0600000000000000000000000000000000000D0
:10C0700000000000000000000000000000000000C0
:10C0800000000000000000000000000000000000B0
:10C0900000000000000000000000000000000000A0
:10C0A0000000000000000000000000000000000090
:10C0B00000000000000000000000E739B294F7BD66
:10C0C000BAD6BAD659CE14A5AA5200000000000074
:10C0D0000000000000000000000000000000000060
:10C0E000000030845DEF2C630000000000000000C1
:10C0F0000000000000000000000000000000000040
:10C10000000000000000000000000000000000002F
:10C11000000000000000000000000000000000001F
:10C12000000000000000000000000000000000000F
:10C13000000000000000AA522C632C632C632C63C7
:10C140002C632C63E739000000002C63FFFFFFFF26
:10C15000FFFFFFFFFFFFFFFF14A50000000000002E
:10C1600000000000000000000000000000000000CF
:10C1700000000000000000000000000000000000BF
:10C1800000000000000000000000000000000000AF
:10C19000000000000000000000000000000000009F
:10C1A000000000000000000000000000000000008F
:10C1B000000000000000000000000000000000007F
:10C1C000000000000000000000000000000000006F
:10C1D000000000000000000000000000000000005F
:10C1E00000000000242124210000000000000000C5
:10C1F000000000000000000000000000000000003F
:10C20000000000000000000000000000000000002E
:10C21000000000000000000000000000000000001E
:10C22000000000000000000000000000000000000E
:10C2300000000000000000000000000000000000FE
:10C240000000000000000000000000002C63F7BDAB
:10C25000BAD6BAD659CE30840000000000000000E3
:10C2600000000000000000000000000000000000CE
:10C2700000000000000000000000000000000000BE
:10C2800000000000000000000000000000000000AE
:10C29000000000000000000000000000000000009E
:10CCA000000000000000000024210000000000003F
:10CCB0000000000000000000000000000000000074
:10CCC000000024210000000000000000000000001F
:10CCD0000000000000000000000000000000000054
:10CCE0000000000000000000000000000000000044
:10CCF0000000000000000000000000000000000034
:10CD00000000000000000000000000000000000023
:10CD10000000000000000000000000000000000013
:10CD20000000000000000000000000000000000003
:10CD300000000000000000000000000000000000F3
:10CD400000000000000000000000000000000000E3
:10CD500000000000000000000000000000000000D3
:10CD600000000000000000000000000000000000C3
:10CD700000000000000000000000000000000000B3
:10CD800000000000000000000000000000000000A3
:10CD90000000000000000000000000000000000093
:10CDA0000000000000000000F7BD000000000000CF
:10CDB0000000000000000000000000000000000073
:10CDC000242159CE000000000000000000000000F7
:10CDD0000000000000000000000000000000000053
:10CDE0000000000000000000000000000000000043
:10CDF0000000000000000000AA5200000000000037
:10CE00000000000000000000000000000000000022
:10CE10000000000000000000000000000000000012
:10CE20000000000000000000000000000000000002
:10CE300000000000000000000000000000000000F2
:10CE400000000000000000000000000000000000E2
:10CE500000000000000000000000000000000000D2
:10CE600000000000000000000000000000000000C2
:10CE700000000000000000000000000000000000B2
:10CE800000000000000000000000000000000000A2
:10CE90000000000000000000000000000000000092
:10CEA000000000000000CF7BFFFF2C6300000000AB
:10CEB0000000000000000000000000000000000072
:10CEC00014A5FFFFE739000000000000000000008B
:10CED0000000000000000000000000000000E73932
:10CEE00096B5FBDEFFFFFFFFBEF759CE308424214D
:10CEF00000000000000000005DEFCF7B000000009C
:10CF00000000000000000000000000000000000021
:10CF10000000E739BAD6BAD6BAD6BAD6BAD6BAD691
:10CF2000BAD6BAD6BAD6BAD624210000000000007C
:10CF30000000308459CE5DEFFFFFFFFF5DEFF7BDCE
:10CF40002C63000000000000000000000000000052
:10CF5000242114A55DEFFFFFFFFF5DEF96B5E739D4
:10CF600000000000000000000000000000000000C1
:10CF700000000000000000000000000000000000B1
:10CF800000000000000000000000000000000000A1
:10CF90000000000000000000000000000000000091
:10CFA00000000000000059CEFFFF5DEF0000000010
:10CFB0000000000000000000000000000000E73951
:10CFC000FFFFFFFFF7BD00000000000000000000B1
:10CFD00000000000000000000000000014A5FFFF9A
:10CFE000FFFFBEF7AA5200002421CF7BBAD6BEF7BE
:10CFF000B29400000000000030845DEF24210000A6
:10D000000000000000000000000000000000000020
:10D010000000F7BDFFFFFFFFFFFFFFFFFFFFFFFF68
:10D02000FFFFFFFFFFFF14A5000000000000AA5251
:10D03000FBDEFFFFFFFFFFFF59CE00002421CF7B67
:10D04000BAD6BAD6E739000000000000000024215B
:10D05000FBDEFFFFFFFFFFFFFFFFFFFFFFFFBEF74E
:10D06000308400000000000000000000000000000C
:10D0700000000000000000000000000000000000B0
:10D0800000000000000000000000000000000000A0
:10D090000000000000000000000000000000000090
:10D0A00000000000E739FFFFFFFFFFFF30840000B2
:10D0B0000000000000000000000000000000F7BDBC
:10D0C000FFFFFFFFFFFF2421000000000000000021
:10D0D00000000000000000000000F7BDFFFFFFFFA0
:10D0E000FFFFBAD6000000000000000000002C6323
:10D0F000BEF759CE242100000000BAD6F7BD2C633C
:10D100002C632C632C632C632C632C632C632C63A7
:10D110003084FFFFFFFFFFFFFFFFFFFFFFFFFFFF69
:10D12000FFFFFFFFBEF7242100000000AA52BEF758
:10D13000FFFFFFFFFFFFFFFF14A50000000000003E
:10D140000000CF7B5DEFAA52000000000000F7BD99
:10D15000FFFFFFFFFFFFFFFFFFFFFFFFAA522C6350
:10D16000BEF7AA520000000000000000000000000E
:10D1700000000000000000000000000000000000AF
:10D18000000000000000000000000000000000009F
:10D19000000000000000000000000000000000008F
:10D1A0000000000014A5FFFFFFFFFFFFBEF72421D2
:10D1B000000000000000000000000000E739FFFF51
:10D1C000FFFFFFFFFFFF14A50000000000000000AC
:10D1D000000000000000000014A5FFFFFFFFFFFF9C
:10D1E000FFFFBAD6000000000000000000000000B1
:10D1F0002421FBDEBAD6000000002C63FFFFFBDE1B
:10D20000BAD6BAD6BAD6BAD6BAD6BAD6BAD6BAD69E
:10D21000BEF7FFFFFFFFFFFFFFFFFFFFFFFFFFFF67
:10D22000FFFFFFFFB294000000002421BEF7FFFFC4
:10D23000FFFFFFFFFFFFFFFF14A50000000000003D
:10D2400000000000AA525DEFAA5200000000FFFF9C
:10D25000FFFFFFFFFFFFFFFFFFFFFFFF00000000DA
:10D26000CF7BBAD6000000000000000000000000E4
:10D2700000000000000000000000000000000000AE
:10D28000000000000000000000000000000000009E
:10D29000000000000000000000000000000000008E
:10D2A000000000005DEFFFFFFFFFFFFFFFFF14A581
:10D2B000000000000000000000000000F7BDFFFFBC
:10D2C000FFFFFFFFFFFFBEF70000000000000000AF
:10D2D000000000000000E739FFFFFFFFFFFFFFFF36
:10D2E000FFFFBAD6000000000000000000000000B0
:10D2F0000000AA52BEF7AA5200000000F7BDF7BD19
:10D300000000000000000000000000000000AA5221
:10D31000FFFFFFFFFFFFFFFFFFFFFFFFFFFFFFFF1D
:10D32000FFFF5DEF000000000000F7BDFFFFFFFF03
:10D33000FFFFFFFFFFFFFFFF14A50000000000003C
:10D34000000000000000B29459CE00002C63FFFFE3
:10D35000FFFFFFFFFFFFFFFFFFFFFFFF00000000D9
:10D3600000005DEF00000000000000000000000071
:10D3700000000000000000000000000000000000AD
:10D38000000000000000000000000000000000009D
:10D39000000000000000000000000000000000008D
:10D3A0000000CF7BFFFFFFFFFFFFFFFFFFFFBEF788
:10D3B000242100000000000000002C63FFFFFFFF9D
:10D3C000FFFFFFFFFFFFFFFF3084000000000000B1
:10D3D00000000000000014A5FFFFFFFFFFFFFFFF9C
:10D3E000FFFFBAD6000000000000000000000000AF
:10D3F00000000000E7390000000000002421BEF713
:10D40000AA52000000000000000000000000BAD690
:10D41000FFFFFFFFFFFFFFFFFFFFFFFFFFFFFFFF1C
:10D42000FFFFCF7B000000002421FFFFFFFFFFFF75
:10D43000FFFFFFFFFFFFFFFF14A50000000000003B
:10D440000000000000000000E73900002C63FFFF2F
:10D45000FFFFFFFFFFFFFFFFFFFFFFFF00000000D8
:10D4600000000000000000000000000000000000BC
:10D4700000000000000000000000000000000000AC
:10D48000000000000000000000000000000000009C
:10D49000000000000000000000000000000000008C
:10D4A0000000BAD6FFFFFFFFFFFFFFFFFFFFFFFFF8
:10D4B000F7BD0000000000000000BAD6FFFFFFFF2C
:10D4C000FFFFFFFFFFFFFFFF5DEF00000000000018
:10D4D000000000000000FBDEFFFFFFFFFFFFFFFF7B
:10D4E000FFFFBAD6000000000000000000000000AE
:10D4F0000000000000000000000000000000B294E6
:10D50000BAD6000000000000000000002C63FFFFFE
:10D51000FFFFFFFFFFFFFFFFFFFFFFFFFFFFFFFF1B
:10D52000BAD6000000000000CF7BFFFFFFFFFFFF27
:10D53000FFFFFFFFFFFFFFFF14A50000000000003A
:10D540000000000000000000000000002C63FFFF4E
:10D55000FFFFFFFFFFFFFFFFFFFFFFFF00000000D7
:10D5600000000000000000000000000000000000BB
:10D5700000000000000000000000000000000000AB
:10D58000000000000000000000000000000000009B
:10D59000000000000000000000000000000000008B
:10D5A000E739FFFFFFFFFFFFFFFFFFFFFFFFFFFF69
:10D5B000FFFFE739000000002C63FFFFFFFFFFFFC4
:10D5C000FFFFFFFFFFFFFFFFFFFF2C6300000000D6
:10D5D000000000000000FFFFFFFFFFFFFFFFFFFF55
:10D5E000FFFFFBDE2C632C632C632C632C632C630A
:10D5F0002C632C632C63AA52000000000000000082
:10D600005DEFCF7B0000000000000000BAD6FFFFF6
:10D61000FFFFFFFFFFFFFFFFFFFFFFFFFFFFFFFF1A
:10D620002C6300000000000014A5FFFFFFFFFFFFB8
:10D63000FFFFFFFFFFFFFFFF14A500000000000039
:10D640000000000000000000000000002C63FFFF4D
:10D65000FFFFFFFFFFFFFFFFFFFFFFFF00000000D6
:10D6600000000000000000000000000000000000BA
:10D6700000000000000000000000000000000000AA
:10D68000000000000000000000000000000000009A
:10D69000000000000000000000000000000000008A
:10D6A00096B5FFFFFFFFFFFFFFFFFFFFFFFFFFFF3D
:10D6B000FFFFBAD6000000005DEFFFFFFFFFFFFF96
:10D6C000FFFFFFFFFFFFFFFFFFFFBAD600000000D4
:10D6D000000000000000FFFFFFFFFFFFFFFFFFFF54
:10D6E000FFFFBEF7BAD6BAD6BAD6FBDEFFFFFFFF02
:10D6F000FFFFFFFFFFFFBAD60000000000000000A0
:10D700002C635DEF2421000000003084FFFFFFFF49
:10D71000FFFFFFFFFFFFFFFFFFFFFFFFFFFFF7BD63
:10D72000000000000000000014A5FFFFFFFFFFFF46
:10D73000FFFFFFFFFFFFFFFF14A500000000000038
:10D740000000000000000000000000002C63FFFF4C
:10D75000FFFFFFFFFFFFFFFFFFFFFFFF00000000D5
:10D7600000000000000000000000000000000000B9
:10D7700000000000000000000000000000000000A9
:10D780000000000000000000000000000000000099
:10D790000000000000000000000000000000000089
:10D7A000BEF7FFFFFFFFFFFFFFFFFFFFFFFFFFFFD2
:10D7B000FFFFFFFF2C63B294FFFFFFFFFFFFFFFFA0
:10D7C000FFFFFFFFFFFFFFFFFFFFBEF7AA520000B2
:10D7D0000000000000005DEFFFFFFFFFFFFFFFFF05
:10D7E000FFFFBAD60000000000002C63FFFFFFFF20
:10D7F000FFFFFFFFFFFFF7BD00000000000000007B
:10D80000000059CE14A5000000005DEFFFFFFFFFF0
:10D81000FFFFFFFFFFFFFFFFFFFFFFFFBEF7E7393F
:10D820000000000000000000B294FFFFFFFFFFFFB8
:10D83000FFFFFFFFFFFFFFFF14A500000000000037
:10D840000000000000000000000000002C63FFFF4B
:10D85000FFFFFFFFFFFFFFFFFFFFFFFF00000000D4
:10D8600000000000000000000000000000000000B8
:10D8700000000000000000000000000000000000A8
:10D880000000000000000000000000000000000098
:10D8900000000000000000000000000000003084D4
:10D8A000FFFFFFFFFFFFFFFFFFFFFFFFFFFFFFFF88
:10D8B000F7BD14A55DEFBEF7FFFFFFFFFFFFFFFF02
:10D8C000FFFFFFFFFFFFFFFFF7BDF7BDF7BD000044
:10D8D000000000000000F7BDFFFFFFFFFFFFFFFF9C
:10D8E000FFFFBAD60000000000002C63FFFFFFFF1F
:10D8F000FFFFFFFFFFFFB2940000000000000000E8
:10D900000000E7395DEFE7393084FFFFFFFFFFFFDD
:10D91000FFFFFFFFFFFFFFFFFFFFFFFF14A500005A
:10D920000000000000000000AA52FFFFFFFFFFFF01
:10D93000FFFFFFFFFFFFFFFF14A500000000000036
:10D940000000000000000000000000002C63FFFF4A
:10D95000FFFFFFFFFFFFFFFFFFFFFFFF00000000D3
:10D9600000000000000000000000000000000000B7
:10D9700000000000000000000000000000000000A7
:10D980000000000000000000000000000000000097
:10D990000000000000000000000000000000BAD6F7
:10D9A000FFFFFFFFFFFFFFFFFFFFFFFFFFFFFFFF87
:10D9B000AA522421BEF7FFFFFFFFFFFFFFFFFFFF7B
:10D9C000FFFFFFFFFFFFBEF72421E739FFFFE73925
:10D9D0000000000000002C63FFFFFFFFFFFFFFFFC0
:10D9E000FFFFBAD60000000000002C63FFFFFFFF1E
:10D9F000FFFFFFFFFFFFE73900000000000000000D
:10DA00000000000014A559CE5DEFFFFFFFFFFFFFF0
:10DA1000FFFFFFFFFFFFFFFFFFFFBEF72421000016
:10DA2000000000000000000000005DEFFFFFFFFFAE
:10DA3000FFFFFFFFFFFFFFFF14A500000000000035
:10DA40000000000000000000000000002C63FFFF49
:10DA5000FFFFFFFFFFFFFFFFFFFFFFFF00000000D2
:10DA600000000000000000000000000000000000B6
:10DA700000000000000000000000000000000000A6
:10DA80000000000000000000000000000000000096
:10DA9000000000000000000000000000E739FFFF68
:10DAA000FFFFFFFFFFFFFFFFFFFFFFFFFFFFBAD6F4
:10DAB000000000003084FFFFFFFFFFFFFFFFFFFFBC
:10DAC000FFFFFFFFFFFF14A50000000059CE14A5C3
:10DAD0000000000000000000BAD6FFFFFFFFFFFFBC
:10DAE000FFFFBAD60000000000002C63FFFFFFFF1D
:10DAF000FFFFFFFF96B500000000000000000000DF
:10DB00000000000024215DEFFFFFFFFFFFFFFFFF8C
:10DB1000FFFFFFFFFFFFFFFFFFFF3084000000005B
:10DB200000000000000000000000CF7BFFFFFFFFAF
:10DB3000FFFFFFFFFFFFFFFF14A500000000000034
:10DB4000000000002421F7BD000000002C63FFFF4F
:10DB5000FFFFFFFFFFFFFFFFFFFFFFFF00000000D1
:10DB600000000000000000000000000000000000B5
:10DB700000000000000000000000000000000000A5
:10DB80000000000000000000000000000000000095
:10DB900000000000000000000000000096B5FFFF3C
:10DBA000FFFFFFFFFFFFFFFFFFFFFFFFFFFF3084CF
:10DBB0000000000000005DEFFFFFFFFFFFFFFFFF21
:10DBC000FFFFFFFF5DEF2421000000002C63BEF784
:10DBD0002421000000000000E739BEF7FFFFFFFF2F
:10DBE000FFFFBAD60000000000002C63FFFFFFFF1C
:10DBF000FFFFFBDE24210000000000000000000009
:10DC0000000000000000CF7BFFFFFFFFFFFFFFFFD2
:10DC1000FFFFFFFFFFFFFFFF5DEF000000000000C0
:10DC2000000000000000000000000000F7BDFFFF42
:10DC3000FFFFFFFFFFFFFFFF14A500000000000033
:10DC400000000000F7BDBAD6000000002C63FFFF03
:10DC5000FFFFFFFFFFFFFFFFFFFFFFFF00000000D0
:10DC600000000000000000000000000000000000B4
:10DC700000000000000000000000000000000000A4
:10DC80000000000000000000000000000000000094
:10DC9000000000000000000000002421BEF7FFFF8C
:10DCA000FFFFFFFFFFFFFFFFFFFFFFFFBEF70000CB
:10DCB0000000000000002C63FFFFFFFFFFFFFFFFDD
:10DCC000FFFFFFFF308400000000000000005DEF58
:10DCD00030840000000000000000AA525DEFFFFF4A
:10DCE000FFFF5DEF000000000000CF7BFFFFFFFFA4
:10DCF000FBDE242100000000000000000000000006
:10DD00000000000000000000BAD6FFFFFFFFFFFF89
:10DD1000FFFFFFFFFFFFFFFF2C630000000000007C
:10DD2000000000000000000000000000000096B5A8
:10DD3000FFFFFFFFFFFFFFFF96B5000000000000A0
:10DD40002C63BAD6FBDE2421000000002C63FFFF09
:10DD5000FFFFFFFFFFFFFFFFFFFFFFFF00000000CF
:10DD600000000000000000000000000000000000B3
:10DD700000000000000000000000000000000000A3
:10DD80000000000000000000000000000000000093
:10DD9000000000000000000000003084FFFFFFFFD3
:10DDA000FFFFFFFFFFFFFFFFFFFFFFFF14A50000C6
:10DDB0000000000000000000BAD6FFFFFFFFFFFFD9
:10DDC000FFFF5DEF00000000000000000000B294C3
:10DDD0005DEF00000000000000000000242114A5F9
:10DDE000BEF7FFFFBAD614A596B5BEF75DEF14A532
:10DDF0000000000000000000000000000000000023
:10DE00000000000000000000E739FFFFFFFFFFFFF8
:10DE1000FFFFFFFFFFFFBAD6000000000000000078
:10DE200000000000000000000000000000000000F2
:10DE30002C63BAD6FFFFFFFFBEF796B514A5FBDE35
:10DE40005DEF14A500000000CF7BBAD6FBDEFFFF1C
:10DE5000FFFFFFFFFFFFFFFFFFFFFFFFBAD6BAD6AE
:10DE6000BAD6AA5200000000000000000000000026
:10DE700000000000000000000000000000000000A2
:10DE80000000000000000000000000000000000092
:10DE9000000000000000000000005DEFFFFFFFFF3A
:10DEA000FFFFFFFFFFFFFFFFFFFFFFFFE73900005E
:10DEB00000000000000000002C63FFFFFFFFFFFFD9
:10DEC000FFFF2C6300000000000000000000242180
:10DED000BEF73084000000000000000000000000D9
:10DEE00000002C6314A514A514A52C6300000000E9
:10DEF0000000000000000000000000000000000022
:10DF00000000000000000000000014A5FFFFFFFF5C
:10DF1000FFFFFFFFFFFFAA5200000000000000000B
:10DF200000000000000000000000000000000000F1
:10DF300000000000E739308414A514A5B2942C63C6
:10DF40000000000000000000E7392C63B294FFFFDE
:10DF5000FFFFFFFFFFFFFFFFFFFFFBDE2C632C63D4
:10DF60002C632421000000000000000000000000DD
:10DF700000000000000000000000000000000000A1
:10DF80000000000000000000000000000000000091
:10DF900000000000000000002C63FFFFFFFFFFFFF8
:10DFA000FFFFFFFFFFFFFFFFFFFF59CE0000000054
:10DFB00000000000000000000000F7BDFFFFFFFFB1
:10DFC000BAD60000000000000000000000000000C1
:10DFD000F7BDBAD6000000000000000000000000FD
:10DFE0000000000000000000000000000000000031
:10DFF0000000000000000000000000000000000021
:10E00000000000000000000000002421BEF7FFFF18
:10E01000FFFFFFFFF7BD0000000000000000000050
:10E0200000000000000000000000000000000000F0
:10E0300000000000000000000000000000000000E0
:10E040000000000000000000000000002C63FFFF43
:10E05000FFFFFFFFFFFFFFFFFFFFFBDE00000000F1
:10E0600000000000000000000000000000000000B0
:10E0700000000000000000000000000000000000A0
:10E080000000000000000000000000000000000090
:10E09000000000000000000059CEFFFFFFFFFFFF5F
:10E0A000FFFFFFFFFFFFFFFFFFFF308400000000C6
:10E0B00000000000000000000000E739FFFFFFFF44
:10E0C0002C630000000000000000000000000000C1
:10E0D000AA52FFFF2C6300000000000000000000B7
:10E0E0000000000000000000000000000000000030
:10E0F0000000000000000000000000000000000020
:10E100000000000000000000000000003084FFFF5D
:10E11000FFFFBEF724210000000000000000000007
:10E1200000000000000000000000000000000000EF
:10E1300000000000000000000000000000000000DF
:10E140000000000000000000000000000000AA52D3
:10E15000F7BDBEF7FFFFFFFFFFFFFFFF000000005E
:10E1600000000000000000000000000000000000AF
:10E17000000000000000000000000000000000009F
:10E18000000000000000000000000000000000008F
:10E19000000000000000E739FFFFFFFFFFFFFFFF67
:10E1A000FFFFFFFFFFFFFFFFBEF7000000000000C2
:10E1B00000000000000000000000000096B5BAD684
:10E1C000000000000000000000000000000000004F
:10E1D0000000FBDEF7BD00000000000000000000B2
:10E1E000000000000000000000000000000000002F
:10E1F000000000000000000000000000000000001F
:10E200000000000000000000000000000000BAD67E
:10E21000FFFF14A500000000000000000000000047
:10E2200000000000000000000000000000000000EE
:10E2300000000000000000000000000000000000DE
:10E2400000000000000000000000000000000000CE
:10E250000000242114A5BEF7FFFFFFFF000000000F
:10E2600000000000000000000000000000000000AE
:10E27000000000000000000000000000000000009E
:10E28000000000000000000000000000000000008E
:10E29000000000000000E7392C632C632C632C6322
:10E2A0002C632C632C632C63AA5200000000000036
:10E2B00000000000000000000000000024212C638A
:10E2C000000000000000000000000000000000004E
:10E2D0000000E739E73900000000000000000000FE
:10E2E000000000000000000000000000000000002E
:10E2F000000000000000000000000000000000001E
:10E3000000000000000000000000000000002C637E
:10E310005DEF24210000000000000000000000006C
:10E3200000000000000000000000000000000000ED
:10E3300000000000000000000000000000000000DD
:10E3400000000000000000000000000000000000CD
:10E35000000000000000242114A5BEF7000000000A
:10E3600000000000000000000000000000000000AD
:10E37000000000000000000000000000000000009D
:10E38000000000000000000000000000000000008D
:10E39000000000000000000000000000000000007D
:10E3A000000000000000000000000000000000006D
:10E3B000000000000000000000000000000000005D
:10E3C000000000000000000000000000000000004D
:10E3D000000000000000000000000000000000003D
:10E3E000000000000000000000000000000000002D
:10E3F000000000000000000000000000000000001D
:10E40000000000000000000000000000000000000C
:10E41000E7390000000000000000000000000000DC
:10E4200000000000000000000000000000000000EC
:10E4300000000000000000000000000000000000DC
:10E4400000000000000000000000000000000000CC
:10E4500000000000000000000000E739000000009C
:10E4600000000000000000000000000000000000AC
:10E47000000000000000000000000000000000009C
:10E48000000000000000000000000000000000008C
:10E49000000000000000000000000000000000007C
:10FC8000000000000000000000000000000000F87C
:10FC900000F800F800F800F800F800F800F800F8A4
:10FCA00000F800F800F800F800F800F800F800F894
:10FCB00000F80000000000000000E007E007E00797
:10FCC000E007E007E007E007E007E007E007E007FC
:10FCD000E007E007E007E007E007E007E0070000D3
:10FCE0000000000000001F001F001F001F001F0079
:10FCF0001F001F001F001F001F001F001F001F000C
:10FD00001F001F001F001F001F0000000000000058
:10FD100000000000000000000000000000000000E3
:10FD200000000000000000000000000000000000D3
:10FD300000000000000000000000000000000000C3
:10FD400000000000000000000000000000000000B3
:10FD500000000000000000000000000000000000A3
:10FD60000000000000000000000000000000000093
:10FD70000000000000000000000000000000000083
:10FD8000000000000000000000000000000000F87B
:10FD900000F800F800F800F800F800F800F800F8A3
:10FDA00000F800F800F800F800F800F800F800F893
:10FDB00000F80000000000000000E007E007E00796
:10FDC000E007E007E007E007E007E007E007E007FB
:10FDD000E007E007E007E007E007E007E0070000D2
:10FDE0000000000000001F001F001F001F001F0078
:10FDF0001F001F001F001F001F001F001F001F000B
:10FE00001F001F001F001F001F0000000000000057
:10FE100000000000000000000000000000000000E2
:10FE200000000000000000000000000000000000D2
:10FE300000000000000000000000000000000000C2
:10FE400000000000000000000000000000000000B2
:10FE500000000000000000000000000000000000A2
:10FE60000000000000000000000000000000000092
:10FE70000000000000000000000000000000000082
:10FE8000000000000000000000000000000000F87A
:10FE900000F800F800F800F800F800F800F800F8A2
:10FEA00000F800F800F800F800F800F800F800F892
:10FEB00000F80000000000000000E007E007E00795
:10FEC000E007E007E007E007E007E007E007E007FA
:10FED000E007E007E007E007E007E007E0070000D1
:10FEE0000000000000001F001F001F001F001F0077
:10FEF0001F001F001F001F001F001F001F001F000A
:10FF00001F001F001F001F001F0000000000000056
:10FF100000000000000000000000000000000000E1
:10FF200000000000000000000000000000000000D1
:10FF300000000000000000000000000000000000C1
:10FF400000000000000000000000000000000000B1
:10FF500000000000000000000000000000000000A1
:10FF60000000000000000000000000000000000091
:10FF70000000000000000000000000000000000081
:10FF8000000000000000000000000000000000F879
:10FF900000F800F800F800F800F800F800F800F8A1
:10FFA00000F800F800F800F800F800F800F800F891
:10FFB00000F80000000000000000E007E007E00794
:10FFC000E007E007E007E007E007E007E007E007F9
:10FFD000E007E007E007E007E007E007E0070000D0
:10FFE0000000000000001F001F001F001F001F0076
:10FFF0001F001F001F001F001F001F001F001F0009
:02000004900169
:100000001F001F001F001F001F0000000000000055
:1000100000000000000000000000000000000000E0
:1000200000000000000000000000000000000000D0
:1000300000000000000000000000000000000000C0
:1000400000000000000000000000000000000000B0
:1000500000000000000000000000000000000000A0
:100060000000000000000000000000000000000090
:100070000000000000000000000000000000000080
:10008000000000000000000000000000000000F878
:1000900000F800F800F800F800F800F800F800F8A0
:1000A00000F800F800F800F800F800F800F800F890
:1000B00000F80000000000000000E007E007E00793
:1000C000E007E007E007E007E007E007E007E007F8
:1000D000E007E007E007E007E007E007E0070000CF
:1000E0000000000000001F001F001F001F001F0075
:1000F0001F001F001F001F001F001F001F001F0008
:100100001F001F001F001F001F0000000000000054
:1001100000000000000000000000000000000000DF
:1001200000000000000000000000000000000000CF
:1001300000000000000000000000000000000000BF
:1001400000000000000000000000000000000000AF
:10015000000000000000000000000000000000009F
:10016000000000000000000000000000000000008F
:10017000000000000000000000000000000000007F
:10018000000000000000000000000000000000F877
:1001900000F800F800F800F800F800F800F800F89F
:1001A00000F800F800F800F800F800F800F800F88F
:1001B00000F80000000000000000E007E007E00792
:1001C000E007E007E007E007E007E007E007E007F7
:1001D000E007E007E007E007E007E007E0070000CE
:1001E0000000000000001F001F001F001F001F0074
:1001F0001F001F001F001F001F001F001F001F0007
:100200001F001F001F001F001F0000000000000053
:1002100000000000000000000000000000000000DE
:1002200000000000000000000000000000000000CE
:1002300000000000000000000000000000000000BE
:1002400000000000000000000000000000000000AE
:10025000000000000000000000000000000000009E
:10026000000000000000000000000000000000008E
:10027000000000000000000000000000000000007E
:10028000000000000000000000000000000000F876
:1002900000F800F800F800F800F800F800F800F89E
:1002A00000F800F800F800F800F800F800F800F88E
:1002B00000F80000000000000000E007E007E00791
:1002C000E007E007E007E007E007E007E007E007F6
:1002D000E007E007E007E007E007E007E0070000CD
:1002E0000000000000001F001F001F001F001F0073
:1002F0001F001F001F001F001F001F001F001F0006
:100300001F001F001F001F001F0000000000000052
:1003100000000000000000000000000000000000DD
:1003200000000000000000000000000000000000CD
:1003300000000000000000000000000000000000BD
:1003400000000000000000000000000000000000AD
:1008900000000000000000000000003F40000000D9
:1008A000000000000030004000300040000000095F
:1008B000000BC03D000BC03D00090018C024407F64
:1008C000E0224031800000180024C01B000D80325F
:1008D00040018003801C4027401C800740004010DE
:1008E00000600000000000000000000000000000A8
:1008F000001F80204040200000402020401F80003A
:10090000000000090006001F800600090000000426
:100910000004003F8004000400000000100060009C
:1009200000000000000000040004000400040004B3
:100930000000000000004000000000000000000077
:100940002001C006003800400000001F8020402029
:100950004020401F800000000010403FC0004000C9
:1009600000000018C0214022402440184000001020
:10097000802040244024401B80000002000D001114
:10098000003FC0014000003C80244024402440231C
:100990008000001F80244024403440038000003049
:1009A00000200027C03800200000001B80244024C5
:1009B0004024401B8000001C0022C0224022401F17
:1009C000800000000000000840000000000000005F
:1009D0000000000460000000000000000004000AA5
:1009E00000110020804040090009000900090009A9
:1009F00000000000004040208011000A00040018A0
:100A000000200023402400180000001F8020402701
:100A10004029401F400000004007C039000F00017E
:100A2000C0004020403FC0244024401B8000001FE5
:100A3000802040204020403080000020403FC020E7
:100A40004020401F80000020403FC024402E403006
:100A5000C0000020403FC024402E00300000000FA6
:100A6000001080204022403380020020403FC0041C
:100A70000004003FC02040204020403FC0204020D4
:100A80004000000060202020203FC02000200020E7
:100A9000403FC024400B0030C0204020403FC020D9
:100AA000400040004000C03FC03C0003C03C003F4D
:100AB000C0000020403FC00C4023003FC020001F6A
:100AC000802040204020401F80000020403FC02464
:100AD000402400180000001F802140214020E01F1A
:100AE000A0000020403FC02440260019C00040184C
:100AF000C024402440224031800000300020403F8C
:100B0000C020403000000020003F80004000403FF7
:100B100080200020003E0001C0070038002000387F
:100B20000007C03C0007C038000000204039C00664
:100B30000039C0204000002000384007C038402065
:100B4000000000304021C02640384020C000000096
:100B50000000007FE0402040200000000070000CFA
:100B6000000380004000000000402040207FE000A3
:100B700000000000002000400020000000000000F5
:100B800010001000100010001000100000000040C5
:100B90000000000000000000000280054005400346
:100BA000C0004020003FC00440044003800000001B
:100BB000000380044004400640000000000380045D
:100BC0004024403FC0004000000380054005400332
:100BD000400000000004401FC024402440200000CA
:100BE0000002E0055005500650042020403FC0049C
:100BF00040040003C000400000044027C000400043
:100C000000000000100010041027E0000000002089
:100C1000403FC00140070004C00440204020403F46
:100C2000C000400040000007C0040007C0040003EB
:100C3000C00000044007C00440040003C00040009E
:100C40000003800440044003800000041007F00407
:100C5000500440038000000000038004400450075B
:100C6000F00010044007C00240040004000000002F
:100C70000006400540054004C00000000004001FBD
:100C8000800440004000000400078000400440074A
:100C9000C000400400070004C001800600040006F4
:100CA0000001C0070001C006000000044006C001AA
:100CB0000006C0044000000410071004E001800694
:100CC0000004000000044005C0064004400000008D
:100CD00000000004007BE040200000000000000055
:100CE00000FFF000000000000040207BE004000056
:100CF0000000004000800040002000200040000074
:100D000000000000000000000000000000000000E3
:100D100000000000001FCC000C00000000000000DC
:100D20000008003000600008003000600000000291
:100D30002003FC1E20022003FC1E200220000000D5
:100D4000000E1811043FFF10840C78000000000F03
:100D50000010840F3800C007781884007800000065
:100D6000780F8410C411240E9800E4008400080851
:100D7000006800700000000000000000000000009B
:100D8000000000000007E0181820044002000000E6
:100D90000040022004181807E000000000000002D4
:100DA00040024001800FF00180024002400000003C
:100DB00080008000800FF80080008000800000002C
:100DC00001000D000E000000000000000000000007
:100DD0000000800080008000800080008000800093
:100DE00000000C000C0000000000000000000000EB
:100DF00000000600180060018006001800200000B6
:100E00000007F0080810041004080807F0000000AC
:100E100000080408041FFC00040004000000000097
:100E2000000E0C10141024104411840E0C0000004D
:100E3000000C1810041104110412880C700000003A
:100E40000000E00320042408241FFC00240000000C
:100E5000001F981084110411041088107000000005
:100E60000007F008881104110418880070000000C1
:100E7000001C00100010FC13001C001000000000FB
:100E8000000E3811441084108411440E3800000004
:100E9000000700088C10441044088807F000000088
:100EA0000000000000030C030C0000000000000024
:100EB000000000000101060000000000000000002A
:100EC0000000800140022004100808100400000205
:100ED0002002200220022002200220022000000026
:100EE00000100408080410022001400080000000E7
:100EF000000E001200100C106C10800F0000000398
:100F0000E00C1813E4142417C4082807D0000000CC
:100F100004003C03C41C40074000E4001C00041013
:100F2000041FFC1104110411040E8800700000035A
:100F3000E00C1810041004100410081C100000101D
:100F4000041FFC100410041004080807F00000102F
:100F5000041FFC1104110417C41004081800001029
:100F6000041FFC1104110017C0100008000000034A
:100F7000E00C181004100410441C7800400000100D
:100F8000041FFC10840080008010841FFC100400EB
:100F900000100410041FFC100410040000000000E6
:100FA000030001100110011FFE10001000000010CE
:100FB000041FFC110403801464181C1004000010AA
:100FC000041FFC1004000400040004000C000010C6
:100FD000041FFC1F0000FC1F001FFC100400001079
:100FE000041FFC0C04030000E010181FFC10000795
:100FF000F00808100410041004080807F00000109E
:10100000041FFC10841080108010800F0000000767
:10101000F0081810241024101C080A07F200001011
:10102000041FFC1104110011C011300E0C0004004B
:10103000000E1C11041084108410441C3800001889
:1010400000100010041FFC10041000180000001015
:10105000001FF810040004000410041FF810001012
:10106000001E0011E0001C007013801C0010001F07
:10107000C0103C00E01F0000E0103C1FC00000104A
:1010800004180C163401C001C01634180C100410DA
:10109000001C00130400FC13041C001000000008D6
:1010A00004101C1064108413041C041018000000A9
:1010B00000000000007FFE400240024002000000ED
:1010C0000030000C0003800060001C0003000000E2
:1010D000004002400240027FFE00000000000000CD
:1010E0000000002000400040004000200000000000
:1010F00001000100010001000100010001000100E8
:10110000004000400020000000000000000000003F
:10111000000098012401440144014400FC00041033
:10112000001FFC008801040104008800700000001A
:101130000000700088010401040104008800000020
:1011400000007000880104010411081FFC00040065
:101150000000F8014401440144014400C8000000BB
:1011600000010401040FFC11041104110018000017
:101170000000D601290129012901C901060000103A
:10118000041FFC008401000100010400FC000400B5
:10119000000104190419FC00040004000000000010
:1011A00000000300010101190119FE0000000010F8
:1011B000041FFC0024004001B4010C0104000000E5
:1011C00000100410041FFC000400040000000001D3
:1011D0000401FC0104010001FC0104010000FC0108
:1011E0000401FC008401000100010400FC00040073
:1011F0000000F8010401040104010400F8000001EA
:101200000101FF0085010401040088007000000056
:10121000000070008801040104010501FF000101C4
:1012200004010401FC0084010401000180000000AD
:101230000000CC01240124012401240198000000B5
:10124000000100010007F801040104000000000192
:101250000001F8000400040004010801FC0004017E
:101260000001800170000C0010016001800100018C
:10127000F0010C003001C00030010C01F001000051
:10128000000104018C00740170018C010400000154
:101290000101810171000E00180160018001000050
:1012A000000184010C013401440184010C000000A0
:1012B0000000000000000001003EFC40024002006F
:1012C00000000000000000FFFF0000000000000020
:1012D00000400240023EFC0100000000000000004F
:1012E00000600080008000400040002000200000DE
:1012F00040000000C000000080000000000000006E
:101300002000000060000000E0000000A0000000DD
:10131000301301900000002480000000A05B0090CA
:10132000B013019080000024500A0000B05B0090D0
:1013300001000000100000000090D0030090D003D6
:10134000FFFF0000C14A009071430090B94F009028
:10135000294400907943009089500090214A0090E0
:10136000C1520090294A009091500090D9440090B9
:101370004147009009460090C1460090D94800902E
:10138000394A009059530090A14A0090B14A009008
:1013900051570090000000000000000071580090BC
:1013A0006957009029580090E157009049570090E4
:0400000590000299CC
:00000001FF
