:020000040800F2
:10000000380B0024AD0200088B360008B92E00081A
:100010008936000851060008154E0008000000004F
:100020000000000000000000000000006B49000814
:1000300053060008000000008F3B00086D490008CF
:10004000C7020008C7020008C7020008C70200086C
:10005000C7020008C7020008C7020008C70200085C
:10006000C7020008C7020008C7020008C70200084C
:10007000C7020008C7020008C7020008C70200083C
:10008000C7020008C7020008C7020008C70200082C
:10009000C7020008C7020008C7020008C70200081C
:1000A000C7020008C7020008C7020008C70200080C
:1000B000C7020008C7020008C7020008C7020008FC
:1000C000C7020008C7020008C7020008C7020008EC
:1000D000C7020008C7020008C7020008C7020008DC
:1000E000C7020008C702000800000000C70200089D
:1000F000C7020008C7020008C7020008C7020008BC
:10010000C7020008C7020008C7020008C7020008AB
:10011000C7020008C7020008C7020008C70200089B
:10012000C7020008C7020008C7020008C70200088B
:10013000C7020008C7020008C7020008C70200087B
:1001400000000000000000000000000000000000AF
:10015000C7020008C7020008C7020008C70200085B
:10016000C7020008C7020008C7020008C70200084B
:10017000C7020008C7020008C7020008C70200083B
:10018000C7020008C7020008C7020008C70200082B
:10019000C7020008C7020008C7020008C70200081B
:1001A000C7020008C7020008C7020008C70200080B
:1001B000C7020008C7020008C7020008C7020008FB
:1001C000C7020008C7020008C7020008C7020008EB
:1001D000C7020008C7020008C7020008C7020008DB
:1001E000C7020008C7020008C7020008C7020008CB
:1001F000C7020008C7020008C7020008C7020008BB
:10020000C7020008C7020008C7020008C7020008AA
:10021000C7020008C7020008C7020008C70200089A
:10022000C7020008C7020008C7020008000000005B
:10023000C7020008C702000800000000C70200084B
:10024000C7020008C7020008C7020008C70200086A
:10025000C7020008C7020008C7020008C70200085A
:10026000C7020008C7020008C7020008C70200084A
:10027000C7020008C7020008C7020008000000000B
:10028000C7020008C7020008C702000800000000FB
:1002900000000000C7020008DFF80CD000F05CF896
:1002A00000480047594F0008380B00240648804793
:1002B00006480047FEE7FEE7FEE7FEE7FEE7FEE74B
:1002C000FEE7FEE7FEE7FEE7454A00089902000860
:1002D000D2B201E000F8012B491EFBD27047002288
:1002E000F6E710B513460A4604461946FFF7F0FF35
:1002F000204610BD2DE9F05F0546002092469B4642
:1003000088460646814640241BE02846414647462B
:10031000224600F042F853465A46C01A914110D383
:1003200011461846224600F029F82D1A67EB0108FD
:100330004F4622460120002100F020F817EB00096B
:100340004E41201EA4F10104DFDC484631462A4616
:100350004346BDE8F09F0000064C074D06E0E0680C
:1003600040F0010394E8070098471034AC42F6D3FC
:10037000FFF796FF1CC500083CC50008202A04DBD7
:10038000203A00FA02F1002070479140C2F12003A8
:1003900020FA03F3194390407047202A04DB203AE7
:1003A00021FA02F00021704721FA02F3D040C2F195
:1003B000200291400843194670470000B0B504463A
:1003C0000068364940F48070884214BF9F48344822
:1003D000006810F4403F0ED001F05EFE05466068F4
:1003E000B0F5803F05D0B0F5403F20D0B0F5003FDC
:1003F0001ED1000C18E04FF40020002101F01CF881
:1004000005466068A0F580214FEAB1410A290FD85E
:10041000DFE801F00606060606063A3C3E404200CA
:100420006FF0010101EA5040B5FBF0F500E0AD08C6
:1004300000F006FE41F20301884209D820681C4AF8
:100440009542816834BF21F4807141F4807119E0D4
:100450001448854204D82068816821F4407111E075
:100460001148854203D820680122816805E0206890
:100470000E4A9542816803D8022262F3092101E005
:1004800041F440718160B0BD2D09D1E76D09CFE71E
:10049000AD09CDE7ED09CBE72D0AC9E70021024000
:1004A0000823024021BCBE0041787D0181F0FA02A0
:1004B000012D310170B5044600688268836802F03E
:1004C000040203F00803D21801D1002070BDC268F5
:1004D00092010CD5627D012A09D1227D012A06D123
:1004E0001E490268520607D40139FAD133E00229C5
:1004F00005D10221082610E0402101600121826817
:10050000520707D58268920704D482684D4B1A407F
:1005100010328260042601290DD08268120707D5A7
:100520008268920704D48268464B1A402032826067
:10053000032908BF0C2600F089FD05462068806865
:100540003042C2D000F082FD401B0628F6D320685E
:1005500080683042F2D003F0A2F870BD01DC0C00DC
:10056000B0B5016804468A688868C0074FF000008B
:1005700020D012F002021DD1886800F00D00012881
:1005800016D188682F4A1040023088600320086026
:1005900000F05CFD054620688068C0070BD000F0C5
:1005A00055FD401B0328F6D320688068C007F2D0B1
:1005B00003F075F8B0BD0020B0BD00BF2DE9F843D1
:1005C000044600688168C90724D11E4E816806F17F
:1005D0007F02114203D003F062F8BDE8F88381681E
:1005E000314041F001018160174800F5807800F545
:1005F0004277814600F02AFD0546206813494045B0
:1006000008BF3946484508BF39460968404504D106
:10061000C90602D00020BDE8F8830168C907F9D1F6
:100620008168C90704D18168314041F001018160CE
:1006300000F00CFD411B20680329EED30168C907B7
:10064000EBD1C8E7C0FFFF7F0020024008630258DB
:10065000FEE770474FF4FA7002F0B0FEFAE70000D0
:100660007CB504460020019094F85000012804BF96
:1006700002207CBD012084F8500016460D4603F090
:1006800074F9616D10B141F0100127E041F20212DE
:10069000914305F48032144D0231616506F08041CA
:1006A0000A4421688B682B401A4402F100428A6098
:1006B0000E4A8B68B3F1FF3F0CDC019B01330193C1
:1006C000019B9342F5D3606D40F0100020F00201D1
:1006D000012003E0616D012262F30101002284F830
:1006E000502061657CBD00BFC0FFFE3F00F8C32500
:1006F000F8B504460020009094F85000012804BF8B
:100700000220F8BD20680D46012184F8501082684F
:10071000520700F13381D5E90023160392FAA2F6BD
:10072000B6FA86F608BF960EC2F3846206F01F067C
:10073000B140C6693143C1611F2603F01F01C3F3F5
:1007400001238E4002FA01F100EB83031F6B27EABD
:1007500006063143196303F0FDF971D12968AA68CF
:1007600002F042FE9D48006800F07040B0F1805FEA
:1007700008D120680E22C16802EA51016A6902FAB2
:1007800001F10BE020686969C368C2685208DB06A2
:100790004CBF02F0080202F00E0291402A69042ABE
:1007A00026D12968026E890602F0F8428A4203D1F6
:1007B000026E22F000420266426E02F0F8428A4265
:1007C00003D1426E22F000424266826E02F0F8428D
:1007D0008A4203D1826E22F000428266C26E02F02B
:1007E000F8428A422CD1C16E21F00041C16627E057
:1007F0002B6803F0F843194300F1600353F82260BB
:1008000006F00046314343F82210296953F82120AD
:100810006E7E22F00042012E08BF02F1004243F832
:100820002120297E2A6902F01F020139B1FA81F1E3
:100830004909C9029140026922F4F0421143016161
:100840008168C9075BD1644B2968EE68D0F8C07035
:1008500001EA03029C4606F018032CFA03F39743BF
:100860000B403B43C0F8C0305D4B9E4244D1EAB1DF
:1008700091FAA1F1B1FA81F2511C01F01E03092B8A
:1008800013461ED8013201F01F01012602F01F029B
:1008900006FA01F14FF0806606EB836302EB420239
:1008A00003F0F84343EA0252114321E00122C1F36D
:1008B000846302EB916202F01E068A0E591C0A2E16
:1008C000E0D30132474E01F01F0102F01F0202EB9C
:1008D000420206EB02524FF0806606EB836303F0A0
:1008E000F8431A43012303FA01F1114341F0007167
:1008F000AA6802F079FD2968B1F1FF3F01DD00200F
:1009000041E0B5482368384AB44F00F5807543F498
:100910008076AB42154604BF42F20005C4F20205E0
:10092000834208BF1D46BE4245F442752D6811BF83
:1009300090688668D0F808013043C0071ED12B4864
:1009400005F0E076814208BF15F400001DD028486C
:10095000814208BF15F0807031D00020254FB94288
:1009600011D115F4800108BF93420CD1D2F80803CD
:1009700020F0E070304340F4800029E0606D40F0EA
:1009800020006065012003F0CFB89342B7D1D2F8C0
:100990000803904920F0E070304340F40000C2F8B2
:1009A00008038B480068B0FBF1F0022101EB400026
:1009B000009000980028A2D000980138F8E79342F0
:1009C0009DD1D2F8080320F0E070304340F08070F1
:1009D000C2F8080393E700BFFFFF0F000010005CA0
:1009E0000000FF47000020FE00600258000084CB9A
:1009F000000052C70000B8CF0068006C70470000CC
:100A0000F8B5044600200090A4B3606D30B92046CC
:100A100000F0F0F8002084F85000A065206881689C
:100A2000890003D58168694A114081608168C900E5
:100A300013D46649826801F180511140654A01F181
:100A40008051816062490968B1FBF2F10131009186
:100A5000009911B100990139F9E78168C9000BD4F7
:100A6000616D012541F010016165A16D41F0010149
:100A7000A16502E00125A6E000258168626D01F014
:100A8000040102F010028918616D11D121F4817105
:100A9000023161658168C90725D140F480724F4BEE
:100AA000EA499A4208D18A68D1F808311A4305E028
:100AB00041F01000012585E0494A1268D20712D1A1
:100AC00001F5807201F54273454E90421A4618BFF7
:100AD00006F54072884208BF1A461068616820F423
:100AE0007C100843106000F0ABFA41F203010022D1
:100AF000884288BF0122A068637DA0F11001B1FA8D
:100B000081F149091140226B16460CBF5E035A035E
:100B1000237F42EA03423243002918BF1C2042EAE5
:100B20000001012B04D1206A2E4A02EB4040014310
:100B3000606A20B1A26A00F4787010430143206813
:100B4000294BC2681A401143C16003F003F82AD14F
:100B5000C16844F20302E36A9143227D43EA823290
:100B60001143C160016994F83820012A0FD104F1C2
:100B70003C0C1E4EA76C9CE80C1006EB02421C4E6F
:100B800031401943114341EA0C01394301E021F09E
:100B900001010161616B026922F070421143016140
:100BA0002046FFF70BFC2068E268012A016B21F068
:100BB0000F0102D1A269013A114301630121606D65
:100BC00061F3010060652846F8BD00BFC0FFFF5F0C
:100BD00008000024400D03000020024000210240D4
:100BE000086002580000FEFF03C0F0FF0100FFFF95
:100BF0001EF800FCB0B5B2B0044602A8B821083017
:100C0000FFF76DFB1D4D216805F5D950814233D1A9
:100C1000002003904FF4002002904FF480302B907E
:100C20004FF4007012904FF48060119002201090E9
:100C3000CDE90E003C200D900A200C9002A800F097
:100C400043FD08B1FFF706FD28684FF0806140F0D2
:100C500080702860286800F08070019001982868F2
:100C600040F004002860286800F00400019001981A
:100C70004FF0806001F07AFF32B0B0BDE04402581E
:100C80002DE9F84F0446714B8B460068704903F517
:100C9000807A03F54272D4F81080504508BF11469F
:100CA000984208BF11460A6802F01F09B8F1080F00
:100CB00001D108270DE0B9F1090F5DD8012240F2FA
:100CC000212302FA09F21A4256D0C068C00757D150
:100CD000042700F0BBF906460BF101052068016806
:100CE000394211D1002DF9D000F0B0F9801B5845E0
:100CF00002D8BBF1000FF1D1206800683842EDD175
:100D000002F0A5FEBDE8F88F616D41F400716165E8
:100D1000C16811F4406F0FD1617D69B9016809079D
:100D20000AD5616D21F480716165616DC90403D4D8
:100D3000616D41F0010161655045444B014618BFAA
:100D4000034683420BD0B9F1090F07D8012140F2C5
:100D5000212201FA09F11142014600D11946C96860
:100D6000B8F1080F01D1082102E0490401D40C2197
:100D700001600020BDE8F88F086810F4404FA7D04C
:100D8000606D40F0200060650120BDE8F88F00BF75
:100D9000F8B52E4D044600682D4A05F5807605F518
:100DA0004271B04208BF0A46A84208BF0A46176807
:100DB0008068400703D494F85000012801D1022034
:100DC000F8BD02F088FE08B102F0AEBE02F075FD7B
:100DD00018BF0546854218BF002903D1626D22F471
:100DE00080126265626D0023D20444BFA36D23F0BC
:100DF0000603A365002284F850201C22026085426D
:100E000008D0092915D8012202FA01F140F2212265
:100E100011420ED0C168890104D5616D012262F3CF
:100E20000D31616581680B4A1140043181600020F9
:100E3000F8BD606D40F480106065E8688001F6D50B
:100E4000606D012161F30D306065F0E70020024024
:100E500008630258C0FFFF7F10B502F001FD04BF18
:100E6000022010BD02F060FC20B902F0CCFC08B9F1
:100E700002F0A1FC002184F8501010BDB0B504466A
:100E800000F0E4F805469C48611C007818BF044453
:100E900000F0DCF8401BA042FAD3B0BD2DE9FC4FB6
:100EA0005B4A0A244FF0000A4FF0000B9042594A67
:100EB00008BF092402444FEAB223092B38BF4FEA86
:100EC000B2240094012700220E6836FA02F500F0E1
:100ED0009C8007FA02F916EA090E00F090800323BD
:100EE000D1F804C003FA0BF50CF00308EE43A8F1A7
:100EF0000105012D12D885685346D1F80CA00AFAD5
:100F00000BF435409A462C438460CCF300144568BA
:100F1000944025EA09052C43446005E0B8F1030F2D
:100F200002D14FF0030820E0C4688D68344005FA10
:100F30000BF52C43C460B8F1020F16D10AF01C0463
:100F40000F2303FA04FC6FF0030303EA5203034484
:100F50001D6A25EA0C0C0D6905FA04F444EA0C0438
:100F60001C62D1F804C00CF00308046808FA0BF303
:100F70003440234303601CF4403F40D08E4C274E46
:100F8000236843F00203236023680F2403F0020365
:100F90000193019D0AF00C0322F003059C40AF5918
:100FA00027EA0404009F07FA03F32343AB514FF0F1
:100FB000B04633684D6843EA0E04EF0258BF23EA97
:100FC0000E043460144EAF02336843EA0E0458BF77
:100FD00023EA0E043460AF03D6F880304FF00107E7
:100FE00043EA0E0458BF23EA0E04C6F88040ED031E
:100FF000F36F43EA0E0458BF23EA0E04F4670AF1C4
:10100000040A0BF1020B01325EE7BDE8FC8F00BF62
:10101000002402580000FEA70400005808040058ED
:101020000069084018BF01207047002A08BF090462
:1010300081617047044800686FF31F30704700BF3C
:1010400001480068000C70470010005C054800680B
:10105000704700BF2848034900780A6810440860B8
:10106000704700BF3007002480B5032000F0CCF8A3
:1010700001F03EF80E49824B0A68096801F00F0141
:10108000C2F30322595C9A5C01F01F0102F01F02B7
:10109000D0401A4A1060C84006490860002000F09D
:1010A0000BF808B1012080BD00F06AF8002080BD77
:1010B000184402580C00002470B50F4E04463078D6
:1010C000B0B14FF47A71B1FBF0F00C490968B1FB93
:1010D000F0F001F061FD01250F2C0AD848B94FF05E
:1010E000FF3021460022002500F068F8746000E01F
:1010F0000125284670BD00BF000000240800002420
:101100000278114943780B60D2B143684B60037B8E
:1011100042EA0372C37A42EA0362837A42EAC34232
:10112000437B42EA8342837B42EA4342C37B42EAF7
:101130000342437A007A42EA032242EA400001E095
:10114000002048608860704798ED00E00B48BFF3CE
:101150005F8F016821F480310160002101677047D1
:10116000064940F001000867086840F480300860D4
:10117000BFF34F8FBFF36F8F704700BF24ED00E0C8
:10118000E0B50D48016841F002010160016801F01D
:10119000020101910199016841F400410160006878
:1011A00000F400400090009801F0EAFC0220BDE845
:1011B0008C4001F0E9BC00BFF4440258F0B5184B74
:1011C0004FF0FF361C68C4F30224E51E84F00704C8
:1011D00038BF002506FA05F7BA43042C28BF0424BB
:1011E00006FA04F4A14300F00F04A940043C1143A3
:1011F000044A234409010244002848BF03F10C02B9
:101200001170F0BD00E400E005494FF6FF030A68E5
:101210001A4060F30A22034810430860704700BF79
:101220000CED00E00000FA05B0B50F4D2A68296802
:10123000520705D401F00701081A18BF0120B0BDFC
:1012400021F00701084302F07FFA044655F8080C24
:10125000800406D4FFF7FAFE02F045FAF6D9012021
:10126000B0BD0020B0BD00BF0C48025880B500F0F2
:1012700013FF0249024A02F0F8BA00BF20440258A4
:101280003C560008B0B522498B6A8A6ACD6A4C6B1D
:10129000C2F30512BAB105F0010503F003036D4274
:1012A00005EAD404022B6FF35F3400EE104AB8EE67
:1012B000400A0CD0012B0DD013B90B689B060CD43F
:1012C0009FED161A13E00021C0E900111DE09FED0B
:1012D000121A0CE09FED0F1A09E00B68104CC3F3D3
:1012E000C10324FA03F301EE103AB8EE411A0B6B76
:1012F0009FED0C3A02F0F5FB0A6B02F0DDF90A6B88
:1013000002F084FB096B02F067FB8160B0BD00BF97
:10131000004402580024744A20BCBE4B0024744C84
:101320000090D00300000039B0B51B498B6A8A6A6F
:10133000CC6ACD6BC2F30532AAB1E40602F066FABC
:1013400015D0BBB90B689B0651BF9FED161A0B68F1
:10135000C3F3C103144C42BF24FA03F301EE103A65
:10136000B8EE411A08E00021C0E9001112E09FED3B
:101370000C1A01E09FED091A8B6B9FED0C3A02F0FD
:10138000B0FB8A6B02F098F98A6B02F03FFB896B25
:1013900002F022FB8160B0BD004402580024744A70
:1013A00020BCBE4B0024744C0090D00300000039D8
:1013B000B0B51B498B6A8A6ACC6A4D6CC2F3055280
:1013C000AAB1E40502F022FA15D0BBB90B689B065E
:1013D00051BF9FED161A0B68C3F3C103144C42BFF3
:1013E00024FA03F301EE103AB8EE411A08E00021A6
:1013F000C0E9001112E09FED0C1A01E09FED091AFF
:101400000B6C9FED0C3A02F06CFB0A6C02F054F985
:101410000A6C02F0FBFA096C02F0DEFA8160B0BDE2
:10142000004402580024744A20BCBE4B0024744C73
:101430000090D00300000039F8B580F400220A4380
:1014400000F0808080F400720A4332D080F4806221
:101450000A4300F0888080F400620A4338D080F4A8
:1014600080520A4300F08C8080F400520A4300F05E
:10147000958080F480420A4337D080F400420A43CA
:1014800043D080F480320A434FD080F48070084308
:1014900040F0DC808749086D00F00702042A00F262
:1014A000D5808848DFE812F0780089009000D300EA
:1014B00098008049086DC0F38212042A00F2C680A9
:1014C0008048DFE812F069007A008100C4008900DA
:1014D0007849886DC0F30262042A00F2B780794827
:1014E000DFE802F05A6B72B57A007248816DC1F381
:1014F0000271052900F2AA80DFE801F003869198C5
:101500009F8DBDE88F40FFF7B1BE6A48016D01F0C5
:101510004051B1F1005F00F07780B1F1805F00F0E1
:101520009280002940F0928075E06248C16C0068AA
:10153000C90340F18980000140F1888001A8FFF7CC
:10154000F3FE9FE05B48816D01F44031B1F5003F4F
:1015500000F08480B1F5803F00F08E80002940F0DB
:10156000758000682AE05349886DC0F34252042A0E
:1015700000F26C805348DFE802F00F20276A2F004A
:101580004C49086DC0F30232042A5FD84D48DFE8A9
:1015900002F003141B5E2300086855E04548016D06
:1015A000C1F30241052951D8DFE801F0032E39408B
:1015B0004735BDE88F4000F08DBD0868000145D576
:1015C00001A8FFF7B1FE05E0086880003ED501A83C
:1015D000FFF7EEFE01983AE0C86C0B680A6800F06D
:1015E00040505B0701D5002840D0D20502D5B0F1AC
:1015F000805F4ED00022B0F1005F04BF47F640028A
:10160000C0F27D1208684FE0006800011ED501A8F5
:10161000FFF78AFE20E000682749800310E0006899
:10162000800013D501A8FFF7C3FE15E00168490744
:101630000CD50068C0F3C1001AE000681F49C0055E
:1016400001EAE07003E00068800102D4002004B0E9
:1016500080BD01A8FFF716FE0298F8E7C16C036889
:10166000026801F040515B070ED569B9C2F3C100B1
:10167000134921FA00F0EAE700688000E6D501A8E6
:10168000FFF796FE0398E2E7D20504D5B1F1805F3B
:1016900001D10A48DBE70022B1F1005F04BF47F641
:1016A0004002C0F27D12006810F4003018BF1046EE
:1016B000CDE700BF0044025840787D0100093D009D
:1016C0000090D0030080BB002DE9F0470446C078AD
:1016D000A74F00071CD5A06E4FEA3051032908D848
:1016E000DFE801F002090C11F96941F40031F961F8
:1016F00009E001260DE002F078F801E002F040F97F
:10170000064630B9A06E396C21F4401108433864A4
:1017100000266078BA46C00701D1354620E0A06DAA
:1017200004280BD83546DFE800F0030C0F12120036
:10173000F869354640F40030F86108E001250127DA
:101740000FE001F0FCFF01E002F03DF805462F46F6
:101750003DB9A06D02F077F821F0070102F0A9F879
:101760003746607880071ED5E06D4FEAB010042838
:1017700007D8DFE800F003090C0F0F0002F0B1F802
:1017800008E0012501260FE001F0D9FF01E002F099
:101790001AF805462E463DB9E06D02F054F821F4E2
:1017A000E07102F086F83E466078400702D4B04609
:1017B000574623E0D4F8A80057464FEA7050042853
:1017C00007D8DFE800F0030A0D10100002F06CF8F3
:1017D00009E001254FF0010810E001F0B0FF01E041
:1017E00001F0F1FF0546A84645B9D4F8A800B96C48
:1017F0000025B04621F460010843B8646078000712
:1018000020D5D4F8AC004FEA3060042807D8DFE8D0
:1018100000F003090C0F0F0002F046F808E0012564
:10182000012710E001F08BFF01E001F0CCFF05463D
:101830002F4645B9D4F8AC0001F0FBFF21F0E06180
:1018400002F020F84746E07880071DD5E06C4FEAAB
:101850003010032806D8DFE800F00B02080B02F076
:1018600040F805E0012501260FE001F0BEFF054626
:101870002E4655B9E06CDAF83C100025524621F0AE
:1018800030010843CAF83C003E466078C0061ED5C9
:10189000206E4FEA3030042807D8DFE800F0030953
:1018A0000C0F0F0002F01DF808E0012501270FE0E2
:1018B00001F045FF01E001F086FF05462F463DB9E6
:1018C000206E01F0C0FF21F4E04101F0F2FF374645
:1018D000607880061BD5606E4FEA3040052807D837
:1018E000DFE800F00C03090C0C0C02F03BF904E0FB
:1018F000012501260CE002F01BF905462E463DB9F4
:10190000606E01F0A0FF21F4E02101F0D2FF3E461D
:10191000607840061DD5D4F8B0004FEA3070052835
:1019200007D8DFE800F00C03090C0C0C02F01AF9E0
:1019300004E0012501270DE002F0FAF805462F46E4
:1019400045B9D4F8B00001F074FF21F0E04101F096
:1019500099FF37466078000618D5206F68B1B0F15E
:10196000005F07D0B0F1805F22D101F0BAFF04E040
:101970001044025802F0F6F805462E463DB9206F95
:1019800001F061FF21F0405101F093FF3E46E07805
:10199000C00702D1B04657461EE0A06C5746032848
:1019A00009D8DFE800F00F020C0F01F07DFF09E01D
:1019B00001250126EBE701254FF001080CE001F0BD
:1019C00014FF0546A8463DB9A06CF96B0025B0464A
:1019D00021F003010843F863A078400601D447468C
:1019E00016E0D7F8F00340F48070C7F8F003FFF773
:1019F0002DFB0646D7F8F003C00507D4FFF726FBFA
:101A0000801B6428F6D90325032701E02F467DB10A
:101A10002078C00746D0E06F4FEAF000052832D8A2
:101A2000DFE800F037033437373702F09BF82FE058
:101A3000DAF86010D4F8B4005546414011F4407F04
:101A40000BD0296E2A6E42F480322A6621F440714E
:101A50002A6E22F480322A662966B0F5807F40F033
:101A6000FC81FFF7F3FA064641F288390327DAF8DA
:101A70006000800700F1EE81FFF7E8FA801B032584
:101A80004845F4D9C4E7012501260CE002F050F8DE
:101A900005462E463DB9E06F01F0FDFE21F038010C
:101AA00001F038FF3E462078800719D5A06F052841
:101AB00007D8DFE800F00C03090C0C0C02F052F818
:101AC00004E0012501270CE002F032F805462F461C
:101AD0003DB9A06F01F0DFFE21F0070101F01AFF10
:101AE0003746207840071BD5D4F89400052807D83E
:101AF000DFE800F00C03090C0C0C02F033F804E0F2
:101B0000012501260DE002F013F805462E4645B9E1
:101B1000D4F8940001F08DFE21F0070101F0B2FE2F
:101B20003E46207880061DD5D4F890004FEA3070EC
:101B3000052807D8DFE800F00C03090C0C0C01F0B5
:101B4000FEFD04E0012501270DE001F019FF054627
:101B50002F4645B9D4F8900001F09DFE21F0E041F8
:101B600001F0D8FE3746207840061DD5D4F89C00F9
:101B70004FEAB020052807D8DFE800F00C03090C75
:101B80000C0C01F0DCFD04E0012501260DE001F064
:101B9000F7FE05462E4645B9D4F89C0001F049FEF3
:101BA00021F4E05101F06EFE3E46207800061DD57E
:101BB000D4F8A0004FEA7030052807D8DFE800F01D
:101BC0000C03090C0C0C01F0BAFD04E001250127FF
:101BD0000DE001F0D5FE05462F4645B9D4F8A0002A
:101BE00001F027FE21F4604101F04CFE37462068E9
:101BF000010713D5D4F88400B0F5805F06D101F059
:101C0000BFFE002818BF0127D4F88400DAF844107A
:101C1000524621F4405101F07DFE2068C10613D5E3
:101C2000D4F89800B0F5807F06D101F0A9FE002815
:101C300018BF0127D4F89800DAF84810524621F46A
:101C4000407101F01FFE2068000318D5D4F8A400ED
:101C5000B0F5003F09D0B0F5803F03D010BB01F0D4
:101C60006EFD01E001F08CFE05462E4645B9D4F824
:101C7000A40001F0DEFD21F4403101F003FE3E46F8
:101C8000A07840071ED5D4F88800B0F5401F0FD0CB
:101C9000B0F5001F09D0B0F5801F40F0D68001F0EC
:101CA00020FE05E001250126EAE701F041FF054697
:101CB0002F4645B9D4F8880001F0EDFD21F440111C
:101CC00001F028FE3746A078C00701D13E4619E052
:101CD000206DB0F5803F03D090B901F002FE02E024
:101CE00001F083FD05462E4665B9206DDAF83C10FB
:101CF0000025524621F480310843CAF83C00E5E74C
:101D0000012501262168880001D4606806E001F001
:101D100037FE002818BF0126D4E900108A031BD51E
:101D2000D4F880206FF0010303EB3223022B0BD396
:101D30004FEA322343B1012B40F08A80DAF81C309D
:101D400043F40033CAF81C303DB9DAF8443023F4C8
:101D500040731A43CAF844203546CA0207D5626F59
:101D6000DAF8403023F000431A43CAF84020CA0092
:101D700008D5D4F8B820DAF8003023F480431A43A9
:101D8000CAF800208A0207D5E26EDAF8403023F064
:101D900080731A43CAF840204A000CD5DAF80020B4
:101DA00022F40042CAF80020D4F8BC20DAF800304F
:101DB0001A43CAF80020CA0F07D0626DDAF83C3027
:101DC00023F040531A43CAF83C20090208D5D4F83E
:101DD0008C10DAF8442022F440021143CAF844106F
:101DE000C10705D001F0ABFC002818BF05466068AC
:101DF000810705D501F0B6FE002818BF05466068CA
:101E0000410705D501F0F1FC002818BF05466068C0
:101E1000010705D501F0D7FC002818BF054660680A
:101E2000C10605D501F084FE002818BF054660688C
:101E3000800604D501F0A4FD002818BF0125002D5F
:101E400018BF01252846BDE8F087012501273AE79C
:101E5000012582E75546D4F8B4002A68094900F400
:101E6000407322F47C5201EA1011B3F5407F6FF306
:101E70001F3008BF0A432A60296E084328660025E0
:101E8000ADE500BFCFFFFF002DE9F843002800F0CB
:101E9000FB807F4D04468846286800F00F0088428A
:101EA0000BD2286820F00F0040EA0800286028685C
:101EB00000F00F00404540F0E7802068C24F410726
:101EC00009D52169BA6901F083FD04D9BA6922F004
:101ED00070021143B961010709D56169FA6901F01E
:101EE00077FD04D9FA6922F070021143F961C10645
:101EF0000AD5A169FA6902F4E062914204D9FA694B
:101F000022F4E0621143F961810609D5E1693A6A78
:101F100001F05EFD04D93A6A22F070021143396281
:101F200010F002010AD0E268BB6903F00F039A4285
:101F300004D9BB6923F00F031A43BA61C2073AD030
:101F4000D4E90101BA6922F470621143B961012830
:101F500007D0032809D002280BD1396889030CD493
:101F600092E03968C90508D48EE03968890104D443
:101F70008AE03968490740F187803969A94621F02C
:101F8000070108433861FFF761F8064641F28835DA
:101F90006068396901F03801B1EBC00F07D0FFF775
:101FA00055F8801BA842F3D90320BDE8F8832068C8
:101FB0004D4600F0020151B1E168BA6902F00F022A
:101FC000914204D2BA6922F00F021143B961296823
:101FD00001F00F0141450AD9296821F00F0141EABA
:101FE00008012960296801F00F0141454CD14107E2
:101FF00009D52169BA6901F0EBFC04D2BA6922F073
:1020000070021143B961010709D56169FA6901F0EC
:10201000DFFC04D2FA6922F070021143F961C106B3
:102020000AD5A169FA6902F4E062914204D2FA6920
:1020300022F4E0621143F96180060AD5E069396A49
:1020400001F07001884204D2396A21F0700108431E
:10205000386200F04DF8B969244A1C4BC1F30321E2
:10206000515C01F01F01C840B969186001F00F010F
:10207000515C01F01F01C84015490860054800681F
:10208000BDE8F843FFF718B80120BDE8F88300BFAA
:10209000002000520400002480B500F029F80A490D
:1020A000124B0A68096801F00F01C2F30322595C60
:1020B0009A5C01F01F0102F01F02D040034A106039
:1020C000C8400349086080BD184402580800002435
:1020D0000C00002480B5FFF7DFFF0349034A0968BD
:1020E000C1F3021101F08DBC1C4402583C5600089B
:1020F00010B535490869C0F3C20003280FD0022883
:1021000004BF334810BD40B90868800634485AD52A
:102110000968C1F3C101C84010BD2C4810BD8A6ACE
:10212000886ACC6A4B6BC0F3051000B304F001045D
:1021300002F00302644204EAD303022A6FF35F331E
:1021400000EE103AB8EE400A13D0AAB90A68920617
:1021500051BF9FED221A0A68C2F3C102204B42BF51
:1021600023FA02F201EE102AB8EE411A06E000202E
:1021700010BD9FED191A01E09FED161A0A6B9FED35
:10218000193A6FF35F2202EE102AB8EE422A00EEEF
:10219000032AB7EE000A32EE000A02EE100A086BBC
:1021A000C0F34620B8EE422A013081EE021A21EE39
:1021B000000A01EE100AB8EE411A80EE010ABCEEE8
:1021C000C00A10EE100A10BD0044025800093D007C
:1021D00040787D010024744A20BCBE4B0024744C1E
:1021E0000090D00300000039F8B5002800F03F81CE
:1021F00004460078D74EC0071FD12078800740F1F1
:102200009C80306910F03801B06A35D0182901D1AE
:10221000800731D03068E168002955D020F01900DE
:10222000084301F046FA0546306840073BD4FEF704
:102230000DFF401B0228F7D951E1306900F0380149
:10224000B06A102905D018290AD100F0030002282D
:1022500006D130688003D0D560680028CDD106E172
:10226000606800283ED0B0F5A02F4BD0B0F5803F7D
:102270004CD001F02EFB4CE0E0683168490702D5F4
:10228000002800F0F480316821F01901084301F0C2
:1022900010FA05463068400705D4FEF7D7FE01F076
:1022A0004AFAF7D9F8BDFEF7CBFE41F203018842A6
:1022B0003CD82069716821F47C31402814BF41EA80
:1022C000003041F4003037E020F0010001F0F1F976
:1022D00005463068400730D5FEF7B8FE01F02BFA0E
:1022E000F7D9DFE701F0F5FA01F0E3F905463068C8
:1022F00080037FF582AFFEF7A9FE411B032064290E
:10230000F5D9CFE7306840F480203060306840F481
:10231000803001F0CEF90546306880033FF56DAF9F
:10232000FEF794FE401B6428F6D9D8E02069716856
:1023300021F0FE4141EA006070602078C0063ED581
:10234000306900F03801B06A082905D018291CD17D
:1023500000F00300012818D13068C00503D5E069FA
:10236000802840F08480FEF76BFE41F20301884232
:102370001ED8206A716821F0F841202814BF41EA74
:10238000806041F08040706019E03068E1690029A8
:1023900000F0D08040F0800001F08BF905463068F5
:1023A000C005E0D4FEF752FE01F0C5F9F7D979E790
:1023B000206AF16821F07C5141EA0060F0602078E9
:1023C000000756D42078800665D42078400774D45E
:1023D000676A002F49D0306900F03800182840F0B3
:1023E000BB80B16A306B012F41D0A26A01F00303B8
:1023F00093423CD1E26AC1F30511914237D10146C3
:10240000226B6FF35F21013A914230D1626BC0F3CE
:102410004621013A91422AD1A26BC0F30641013A0A
:10242000914224D1E16BC0F30660013988421ED18C
:10243000A06C716BC1F3CC01884216D0F06A20F019
:102440000100F062FEF702FE0546FEF7FFFDA8421E
:10245000FBD0706B4FF6F8718843A16C40EAC10065
:102460007063F06A40F00100F0620020F8BD0120C6
:10247000F8BD706F6169A1B340F001007067FEF7AD
:10248000E5FD0546706F80079CD4FEF7DFFD401B1D
:102490000228F7D923E03068A169E1B340F4805005
:1024A00001F007F90546306880043FF58EAFFEF76E
:1024B000CDFD401B0228F6D911E0D6F8000440F407
:1024C0008070C6F80004FEF7C1FD0546D6F800048A
:1024D000C00516D4FEF7BAFD401B6428F6D90320C8
:1024E000F8BD20F001007067FEF7B0FD0546706F83
:1024F00080077FF567AFFEF7A9FD01F01CF9F6D95B
:10250000D0E6A068002842D0052853D0012855D035
:1025100001F02EFA55E020F4805001F0CAF805468B
:10252000306880047FF551AFFEF790FD01F003F9AC
:10253000F6D9B7E620F0800001F0BBF80546306818
:10254000C0057FF53CAFFEF781FD01F0F4F8F6D948
:10255000A8E600BF00440258306820F0807001F007
:10256000A8F80546022F08D1306880013AD5FEF759
:102570006DFD01F0E0F8F7D994E6306880017FF551
:1025800074AFFEF763FD01F0D6F8F6D98AE601F0E4
:10259000EFF93067FEF75AFD054641F28837306F94
:1025A00080077FF515AFFEF751FD411B0320B942AF
:1025B000F5D977E6306F40F004003067306F40F0B7
:1025C00001003067FEF742FD054641F28837306F63
:1025D00080073FF5FDAEFEF739FD411B0320B942F0
:1025E000F5D95FE604F12805B06A40F2F33188437B
:1025F0002ECD0843591E40EA0210B0626FF35F21EE
:102600004FF4FE024FF47E4000EB452080B20844B8
:10261000A16B02EB01414FF0FE4201F4FE010844C0
:10262000E16B02EB016101F0FE41084430634FF6BB
:10263000F871F06A20F00100F062706B8843A16CC1
:1026400040EAC1007063206CF16A21F00C0108437C
:10265000F062F06A616C20F002000843F062F06AF8
:1026600040F48030F062F06A40F40030F062F06ACA
:1026700040F48020F062F06A40F00100F0623068BF
:1026800040F0807001F015F80446306880013FF595
:10269000ECAEFEF7DBFC011B03200229F5D901E6B5
:1026A0002DE9F84348B3044600205D4AA062206843
:1026B000904208D05B49884205D05B49884202D0ED
:1026C000E1680F2919D8E168E36B0125083105EBB2
:1026D0005313C908594390420DD0534A90420AD02F
:1026E000504A904218BF082907D802F5744398420F
:1026F00018BF904204D1102902D90120BDE8F88307
:1027000094F8810020B901F0CBF8204600F08EF853
:10271000022084F88100D4E90009D4F81880B8F1C7
:10272000806F036823F001030360836803F4F81EDD
:1027300012D1B9F1000F07D0B9F5800F0CD1A56BFC
:1027400035B14FF480090DE0A56BB5F1805F64D120
:10275000056845F4805505605FEA492502D44FF0CD
:10276000010C0DE0E668072E08D3256D07684FF0D1
:10277000000C27F480773D43056006E04FF0000C25
:10278000066826F480760660E668E269A16AA768B2
:10279000D4E9045342EA0E021143E26B1143314380
:1027A0008160616A626B1143A26B1143226A294303
:1027B00019431143D4E91223194339431143A26D3C
:1027C000114341EA0801B9F1000F41EA0901C16072
:1027D0000DD0016DBCF1000F21F00101016514D194
:1027E000616DC26822F000421143C1600DE0816852
:1027F000012262F3CC2181600222816862F34A21C6
:102800008160016D21F0010101650020C4F88400A0
:10281000012184F88110BDE8F8834FF000099EE79C
:1028200000380040003C00400030014010B5B8B016
:10283000044602A8B8210830FDF751FD2068184968
:1028400088422BD14FF4005000240394029002A838
:10285000FEF73AFF08B1FDF7FDFE1248016941F4A9
:1028600000510161016901F400513391339901680C
:1028700041F010010160006800F010000190052097
:1028800037900120CDE93540022034904FF4A0402C
:102890003390019833A90448FEF700FB38B010BD0F
:1028A00000340140E0440258001002582DE9F8437A
:1028B00001F0BBF825D001201D4617460E4600F05A
:1028C00087FF01F072F81AD1F6B1EFB1042000F0E1
:1028D00091FFA4F86A70A4F868706666A4F86000B6
:1028E000E065C4E91C00A4F86200A1682068B1F5A5
:1028F000C02F0DD1016821F4006101600DE000F0EE
:10290000CFFF0220BDE8F88301F00FF8BDE8F8839F
:10291000C168022262F35241C16001F0BAF801D1EC
:1029200001F00BF9E06810281ED348F208066F1C6E
:10293000B4F86A00002847D020684169314206D0C7
:10294000006B616E01C1616600F0D3FFF0E7FEF736
:102950007DFB002FECD000F0EDFFE9D300F078FF15
:1029600000F0C8FEBDE8F8836E1C072817D9B4F83C
:102970006A0048B320684069C00707D1FEF766FBCC
:10298000002EF4D000F0D6FFF1D3E7E7B9F830001D
:10299000616E21F8020B616600F0ABFFE7E7B4F867
:1029A0006A0088B120684169C90707D1FEF74EFB6C
:1029B000002EF4D000F0BEFFF1D3CFE700F0C2FF4D
:1029C000606600F096FFEAE700F042FF00F0DDFFEE
:1029D00018BF0120BDE8F8832DE9F04701F025F884
:1029E00025D001201D4617460E4600F0F1FE00F0EE
:1029F000DCFF1AD1F6B1EFB1032000F0FBFEA4F822
:102A00006270A4F86070E665A4F868006066C4E9C6
:102A10001C00A4F86A00A1682068B1F5C02F0DD190
:102A2000016841F4006101600DE000F039FF02200F
:102A3000BDE8F08700F079FFBDE8F087C1680122AA
:102A400062F35241C16001F024F801D101F075F840
:102A5000E068102819D36E1CB4F8620000286FD00B
:102A600000F06CFF07D4FEF7F1FA002EF4D000F06E
:102A700061FFF1D374E0E16D04C90262E165B4F86D
:102A800062000138A4F86200E6E7072824D900F0C4
:102A900091FFB4F86200002852D000F04FFF07D435
:102AA000FEF7D4FA002EF4D000F044FFF1D357E043
:102AB000B4F86210022906D3E16B21B1E16D04C9BB
:102AC0000262504605E0E16D31F8020BA9F82000E2
:102AD000384600F076FFDCE700F06CFFB4F86200E7
:102AE00070B300F02BFF07D4FEF7B0FA002EF5D03C
:102AF00000F020FFF2D333E0B4F86210042908D3C9
:102B0000E16B412905D3E16D04C902624FF6FC7007
:102B100013E0B4F86210022908D3E16B31B1E16D22
:102B200031F8020BA9F82000504606E0E16D097863
:102B300080F82010E06D411C384600F042FFCDE7E0
:102B400020462946424601F03BF908B100F006FF55
:102B500000F07EFE00F019FF18BF0120BDE8F087ED
:102B600000F076FE00F0C6FDBDE8F087034A13686A
:102B700023EA000008431060704700BF04040058B7
:102B8000044800F0E4BD00BF02490A6822F00202D6
:102B900000F0ADBD003C0058411E0020B0EB116FAD
:102BA00001D001207047044AF023516003490B70A3
:102BB000906007211160704710E000E023ED00E015
:102BC00070B590F83C20012A01D1022133E091E850
:102BD0003C001A4E25F47C5524F47054334022F402
:102BE00077222C43624D23431A430B6923F4762347
:102BF0001A434B691A438B6A22F4742223F470231C
:102C00001A438B6942EA0343026842F48064AC428F
:102C10000DD1D1E90745496A094E23F07C7306EAD4
:102C20000151194324F00073194341EA05030021BF
:102C300080F83C105364084670BD00BFFF87F0FF6A
:102C40000000F0FC70B590F83C300222012B2CD033
:102C500080F83D20464C026842F4806655689368CF
:102C6000A64202BF25F470054E6835430E6825F074
:102C7000700535435560B2F1804F0BD0374DAA42F5
:102C80001CBF374DAA4205D0364DAA421CBF364D57
:102C9000AA420CD123F08003896819439160002275
:102CA00080F83C20012180F83D10104670BD804D19
:102CB000AA42EFD02D4DAA4218BFA242EAD0EEE7B9
:102CC00010B5044641B108290ED0042914BF04F1FF
:102CD000470004F1450009E094F84400012812D1AE
:102CE000022084F8440012E004F146000078012834
:102CF00009D10220082908D0042914BF84F847000C
:102D000084F8450003E0012010BD84F846002068E7
:102D1000042201F02DFF00F03AFD0BD00F48814254
:102D20001CBF0F48814205D00E4881421CBF0E488F
:102D3000814208D188680F4A00F0F0FD18BFB2F553
:102D4000803F09D110BD5A488142F3D007488142E3
:102D5000F0D007488142EDD000F0D0BE0004004022
:102D600000080040000C00400018004000400140F6
:102D70000004014007000100FEB500684C4988428C
:102D800017D10D48016841F010010160006800F0A2
:102D900010000090012005900020CDE903000220E2
:102DA00002904FF480600190009801A90348FEF75B
:102DB00075F806B080BD00BFE0440258001002580C
:102DC000B0B500F0ACFE04BF0220B0BD00F0A0FE24
:102DD000052948D8DFE801F0030B131B23332068D3
:102DE000294601F0D5FE206850F8181F1EE0206823
:102DF000294601F00DFF206850F8181F26E02068D2
:102E0000294601F03DFF206850F81C1F0EE02068A5
:102E1000294601F071FF206850F81C1F16E0206859
:102E2000294601F099FF206850F8541F41F008012D
:102E30000160016821F00401016029690FE0206848
:102E4000294601F0B3FF206850F8541F41F4006197
:102E50000160016821F4806101602969090202684A
:102E6000114301600020002184F83C10B0BD58B12E
:102E700010B500F0E7FD03D100F06BFD00F006F89F
:102E800000F075FE00F068BC0120704781B000685A
:102E90000749884209D10748016841F001010160F2
:102EA000006800F001000090009801B0704700BF7A
:102EB00000000140F0440258FEE7000070B52DED1F
:102EC000048B194E0C463168896B814228D03CB383
:102ED00000EE101A01EE104AB8EE408A00EE100A19
:102EE000B8EE411AB8EE400A30EE480A80EE019A78
:102EF000FEF7ACF805460120FDF7C0FFFEF7A6F887
:102F0000401BB0EE481A316800EE100AA042B8EE3D
:102F1000400AA0EE091ABCEEC10A81ED0E0AEAD3FE
:102F2000BDEC048B70BD00BFE40600242DE9F04F1A
:102F300003AF8FB0814608208A468F4C1D46164647
:102F40000C2B08BF062047F81C0C47F838DC584308
:102F5000072101EB4000218820F0070047F8201CE2
:102F6000ADEB000047F8280C8546DFF80C84A7F18C
:102F7000180108F1080B584601F0FEF8A7F11401FA
:102F8000584647F844BC01F0FDF8A6F1200047F888
:102F9000409CC1B2B86947F82C1C002867D0208833
:102FA000C846002257F8146C4FF0000C54464FF0FE
:102FB000000900BA000C47F8240C57F8180C47F821
:102FC0003C0C6E4800EB011047F8300CAC4500F0AB
:102FD000BA8057F8300C01EB4101694B0C2D4FF0D2
:102FE000000E604403EB810108BF01EB0C0057F8B1
:102FF000283C2CF0010100780B4404F1080147F84B
:10300000341CBEF1070F2BD841B2B1F1FF3F09DCF0
:103010001FFA89F157F81C2C514357F8242C23F838
:10302000112000220134A1B28E4240F2998009F1B0
:103030000109A1EB0A010EF1010E1FFA89FBAB4554
:1030400028BF91464000A942DBD1404657F83C1CBE
:10305000544608F10100804680B2814202D87FE0E8
:1030600057F8344C0CF1010C57F82C1CAEE7B8F8AB
:10307000000057F8148C00265446002347F83C9C67
:1030800000BA4FEA104C57F8180C47F8480C3B4868
:1030900000EB011047F8300CAE4254D057F8300C1A
:1030A00001EB4101364A0C2D4FF0000E304402EB8B
:1030B000810108BF881957F8282C47F8246C26F09E
:1030C0000101007802EB010904F108012A4A47F8DE
:1030D000341CBEF1070F2DD841B257F8202C00291F
:1030E000614648BF51BA9AB257F81C6C013472431A
:1030F0001FFA84FB29F81210D84531D901330EF19B
:10310000010E9AB2AA424FF0000228BF1346ABEB61
:103110000A024000AA42184ADBD157F83C0C118041
:1031200057F8481C5446013047F83C0C80B28142A5
:1031300003D815E057F8344C118057F8246C57F831
:103140002C1C0136A8E782B057F81C0CCDE900050D
:10315000524657F8283C57E9110100F061FF02B0D0
:10316000054857F8201C018057F838DCA7F10C04FB
:10317000A546BDE8F08F00BF1000002409BF00087D
:1031800095BA00082DE9FE4F83465818DDF830A0A7
:103190000C460D9F00264FEA5A091FFA80F85D463B
:1031A00002EB0B0102913A78A2F12000C0B25E2836
:1031B00014D80298ABB280B2834228BF5444A1B263
:1031C00041450BD28342009628BF5FFA8BF5A8B227
:1031D0005346FFF7ABFE4D440137E4E7BDE8FE8FF1
:1031E0002DE9F04F87B0634D4FF48070624C634916
:1031F00004F1080BA8810320A860584601F00AFAE0
:103200005F4E584605212A4633689847B268211D0B
:1032100058469047DFF86CA100215B4B0022DAF89A
:103220000000816358460021B46AA047FDF70EFFF5
:1032300006465648564D6427A0EB060900F065FB8C
:10324000012858D00A20FDF719FEFDF7FFFE0446BD
:10325000FDF7FCFEA0EB0608A01BB0F57A7F09D8AD
:1032600008FB07F04FF47A71B0FBF1F0DAF80010C8
:103270008863E3E7FDF7EAFE40F6B831884531D8C8
:1032800048440A2102ACB0FBF1F2204641A101F012
:1032900075FFDFF8E080102001211023B8F800202E
:1032A000CDE90004A2F11E0080B2FFF76BFF3448A5
:1032B0002F46D8F80450846BFDF7C8FED8F80010EC
:1032C00048440322009248434FF6FF724FF4FA61DC
:1032D0000192EA1E3D466427B0FBF1F358460021F7
:1032E000A047ABE7801B40F6B9318842A6D302E085
:1032F0000A20FDF7C3FD00F008FB0128F8D00020EC
:103300004FF496710024FFF7D9FD1D48194E002196
:103310000022856BD6E90030CDE900045846A84765
:103320001E480290102310241CA0D0E90112CDE900
:103330000312007B32888DF81400042004210094CD
:1033400002AD0195FFF71EFFFDF774FE024617A1BF
:10335000284601F013FF3288042016211023CDE9FE
:103360000045FFF70FFF6420C82107B0BDE8F04F0C
:10337000FFF7A4BDE8000024A8000024600000249A
:1033800014000024E40600244C56000818FCFFFF3B
:10339000000802582530336400000000576541637F
:1033A000742053747564696F0000000053544D33EA
:1033B000324837787820307825580000B0B56D4D08
:1033C0000446082101222846FDF72FFE601EFDF766
:1033D00055FD284608210022FDF727FE40F2F31094
:1033E000BDE8B040FDF74ABD10B5C1F30453C1F3C9
:1033F000406107249C409A4000EB81004169A14351
:103400001143416110BD0000F0B587B0264C27483C
:1034100015210125002704260697206004F12400C9
:1034200025622577A661A782C4E902752661FCF7AB
:1034300056FF2046FDF7E4FA08B1FDF70BF940F21C
:10344000FF70039069468DF81970CDE90467062076
:103450000290CDE900501448FDF74AF908B1FDF794
:10346000F9F80C2001906946114800900E48FDF7CC
:103470003FF908B1FDF7EEF81220019069460D48BA
:1034800000900948FDF734F908B1FDF7E3F818207A
:1034900001906946084800900348FDF729F908B1F2
:1034A000FDF7D8F807B0F0BDF80500240060025819
:1034B0000000B8CF000084CB000052C72DE9F043D4
:1034C00087B02B48002606962A4C00220825016862
:1034D00041F010010160016801F0100101910199B2
:1034E000016841F004010160016801F004010191EB
:1034F0000199016841F080010160016801F08001DB
:1035000001910199016841F0010101600068082101
:1035100000F00100019001982046FDF786FD20464D
:103520004FF4205101224FF420584FF00109FDF7CC
:103530007CFDCDE90466CDE9025902AD0E4F20466F
:103540002946B8470220CDE9036029464FF40050D0
:103550000290A4F50060B8470320CDE90460294635
:10356000CDE902892046B84707B0BDE8F08300BF27
:10357000E0440258001002589D0E0008F8B5144CA3
:1035800000204FF000514FF0806207234FF4C02518
:103590004FF480060F4F2062C4E90400C4E909001B
:1035A000E0624FF08040C4E9062160632421C4E951
:1035B0000076C4E9025304F13800FCF790FE20467F
:1035C000FFF76EF818B1BDE8F840FDF743B8F8BD55
:1035D0005C06002400340140B0B596B00CA81C2154
:1035E000FCF77DFE01A82C21FCF779FE244800247D
:1035F00040F2E7310B22234BC0E90032C0E902411F
:10360000C0E904448461FFF732FC08B1FDF722F8F9
:103610001594CDE913441A4813A9FFF713FB08B119
:10362000FDF718F808200F9000251295CDE91055E8
:10363000CDE90D55042260200C900CA91048FFF72D
:10364000BFFB08B1FDF706F801AC14212046FCF7DA
:1036500046FE4FF0007009902146CDE90A55CDE9AC
:1036600007554FF4005006900548FFF7A9FA08B136
:10367000FCF7F0FF0248FFF77FFB16B0B0BD00BFBC
:10368000E406002400000140FEE77047026842F4AF
:1036900040420260026802F4404200927047606D4E
:1036A00040F010006065A06D40F00100A0650120B1
:1036B00070473060FDF7CABCC2F34622B8EE433A09
:1036C00032EE002A81EE031A21EE021A02EE102ACF
:1036D000B8EE422A32EE002A81EE022ABCEEC22A5D
:1036E00080ED002A7047001BB0F57A7F70471043C9
:1036F00008607047D4F8840040F48070C4F88400F7
:10370000002084F88000012084F8810003207047A5
:103710008DF8EF00394601223046584720464FF4D5
:1037200000610122FDF781BC012084F850000321D3
:103730002046FCF7BFBE411B03200229704704F15D
:103740000800002100F024BA2860FDF77FBC016862
:1037500021F0010101607047012084F8480084F8DD
:103760003E0084F83F0084F8400084F8410084F86B
:10377000420084F8430084F8440084F8450084F84B
:10378000460084F8470084F83D00002010BD216801
:10379000B1F1804F486C40F40040486470473046B7
:1037A0003946012270470D4606464FF4006100225B
:1037B0002046FDF73ABC606D41F2011188430130AB
:1037C00060650020704704F12800002100F040BA35
:1037D000D4F8009084F88000FDF738BC1321002352
:1037E00007F120044A462046284704F10800022138
:1037F00000F0CEB984F881000020C4F8840070473E
:103800000846114618472046FCF7AABEED0803F00B
:10381000030305EAE474022B6FF35F3400EE104AF1
:10382000B8EE400A70473846294601228DF81360E9
:103830004047DAF8481000255246704720463621A6
:103840004A4600232847DAF84010002552467047C0
:10385000204600F05FBA3A4601238DF8EF902047EA
:10386000044690F85000012870470968C1F302111E
:10387000515C01F01F01C84080BD3A4601238DF81C
:10388000EF5020470843CAF8480070478DF8EF0012
:10389000394601227047DAF8441000255246704735
:1038A000002084F880007047F86940F40030F86127
:1038B00070470843CAF8400070472068626D40F6C0
:1038C000017307F01F019A43B04202F580726265EE
:1038D0007047306820F480303060306820F48020F9
:1038E0007047DAF81C00514640F40030CAF81C005A
:1038F0007047B4F86A000138A4F86A00704730468F
:10390000394601228DF8EF90584728464FF4005170
:10391000FDF786BB0843CAF8440070470240002008
:10392000062A70473860FDF791BB002084F88000BC
:1039300001207047A0EB0800A84270472068416949
:103940008907704790F83000616E0870606E013032
:103950007047002084F83C0020467047D4F884006B
:1039600040F02000C4F8840070472046FCF7F8BD02
:10397000306F20F001003067306F20F00400704796
:1039800004F12800022100F063B9012084F88100CD
:10399000002084F88000D4F8840000287047304666
:1039A000394601228DF8EF505847804694F881003F
:1039B000012870474FF6FC706E1C00F1020AC71C0C
:1039C0007047E165B4F862100844A4F862007047DB
:1039D00002F0700291427047C1F3066102EE101AC4
:1039E000B8EE422A32EE000A81EE000ABCEEC00AAE
:1039F00010EE101A70473046394601228DF8EF80DC
:103A00005847515C01F01F01C84080BDC2F3064217
:103A100002EE102AB8EE422A32EE002A81EE022A85
:103A2000BCEEC22A80ED012A7047044690F880005F
:103A3000012870470D188DF80320204649460122C1
:103A400001F094BB044690F83D0000287047002028
:103A500084F85000606D40F00400606503207047FA
:103A6000B8626FF35F214FF47E4000EB42204FF0CD
:103A7000FE4280B208444FF4FE0101EB034101F421
:103A8000FE010844296902EB016101F0FE4108448E
:103A9000704741684FF6FF729143394441600168B5
:103AA00041F0010101606168B1F5800F704738464F
:103AB0000A2100F06FBB0262B842026A46680C68D5
:103AC0008B68456D70470262B042D1F800C08B68C8
:103AD000046A45687047012084F850002046FCF7CE
:103AE0006DBD6FF35F2302EE103AB8EE422A00EE8E
:103AF000032A03EE102AB7EE000A7047086840F068
:103B000001000860002010BD3A46012330462047DE
:103B10000D4601204FEAB20184F83C00704704468C
:103B200090F83C0001287047002184F85010F8BD3F
:103B300004F12800012100F08BB8016841F4007104
:103B4000016070473046394601228DF8EF804FF012
:103B50002D0858478168826801F0040102F00802CC
:103B60008918704704F10800012100F011B8022003
:103B700084F83D00211D206800F09EBF8A68097B03
:103B800003EBC202002906EB080152687047704738
:103B9000F8B55F4F0546B86A00F00300032804BF7C
:103BA0000120F8BD38680C4620F08060FFF7BAFEAF
:103BB00006463868000105D5FDF748FA801B022843
:103BC000F7D941E095E80F00BE6A26F47C3601394A
:103BD00046EA0030FFF744FFB8636869F96A21F0EC
:103BE000C0010843F862A869F96A21F0200108437E
:103BF000F8624FF6F871F86A20F01000F862F86B7E
:103C00008843E969012C40EAC100F863F86A40F092
:103C10001000F8624FF4001008BF4FF48010002C21
:103C200008BF4FF40020F96A0843F862386840F092
:103C30008060FFF777FE04463868000106D4FDF780
:103C400005FA001B0328F7D30320F8BD0020F8BDB8
:103C5000F8B52F4F0546B86A00F00300032804BFEB
:103C60000120F8BD38680C4620F08050FFF75AFE5E
:103C700006463868800005D5FDF7E8F9801B022864
:103C8000F7D941E095E80F00BE6A26F07C7601394D
:103C900046EA0050FFF7E4FE38646869F96A21F4E7
:103CA00040610843F862A869F96A21F40071084389
:103CB000F8624FF6F871F86A20F48070F862786C58
:103CC0008843E969012C40EAC1007864F86A40F44D
:103CD0008070F8624FF0807008BF4FF40000002C35
:103CE00008BF4FF48000F96A0843F862386840F072
:103CF0008050FFF717FE04463868800006D4FDF7B1
:103D0000A5F9001B0328F7D30320F8BD0020F8BD58
:103D10000044025810B5016840F26F344A698B695B
:103D200043F008038B618B6943F010038B610B68D0
:103D300023F001030B600B69A3430B618B6823F431
:103D400040438B6090F88130042B0BD0930609D54B
:103D5000D0F8843043F08003C0F884308B6943F09E
:103D600020038B6190F88130032B0BD0530609D5CB
:103D7000D0F8843043F00403C0F884308B6943F0FA
:103D800040038B61930509D5D0F8843043F00103DB
:103D9000C0F884308B6943F400738B61D20509D578
:103DA000D0F8842042F00802C0F884208A6942F4E6
:103DB00080728A610021A0F86210A0F86A1010BD1C
:103DC000F8B514460D4606464F1C3068406900079A
:103DD00008D4FDF73BF9002FF7D0001BA842F4D31D
:103DE0000320F8BD0020F8BD002070472DE9F843FE
:103DF000074600200DF103098DF80300234DFFF75E
:103E0000EDFC8046FFF753FE204628214A4600235A
:103E1000A8470646FFF74BFEFFF710FDDC495A4B5B
:103E2000FFF7ACFE08BF42F00802FFF703FE404276
:103E3000281A18BF4FF0FF30BDE8F8832DE9F8438A
:103E4000074600200DF103098DF803000F4DFFF721
:103E5000C5FC8046FFF72BFE204629214A46002359
:103E6000A8470646FFF723FEFFF7E8FCC849464B84
:103E7000FFF784FE08BF42F00802FFF7DBFD404277
:103E8000281A18BF4FF0FF30BDE8F88373510008BF
:103E90002DE9FE4F1E46DFF8BC9A0F460446D3F8C4
:103EA00002B0D3F80AA0D3F81230D6F81610009159
:103EB000D9F804001144451A204639462A4600F034
:103EC0004DFCE0B9D9F808002F4904F120080DF1A4
:103ED000090251F8300099F80C10002908BF40F091
:103EE00008008DF8090040463621012301F041F910
:103EF00028B9204639462A4600F0BCFB20B14FF0D5
:103F0000FF352846BDE8FE8F5644ABEB0A07002577
:103F10000DF10A0A705D514602228DF80B007019EE
:103F200040788DF80A00404601F020F920B90235AA
:103F3000BD42EFD3002601E04FF0FF361249D9F819
:103F400008000DF1090201EBC00099F80C1040685F
:103F5000002908BF40F008008DF809003621012330
:103F6000404601F006F94FF0FF350028C9D1D9E9E4
:103F70000030009000210022204600F0EFFB0028D6
:103F800008BF3546BDE700BFFCC4000870B5054654
:103F90001C4658187E4B1B68984203D8284600F0F0
:103FA00069FB10B14FF0FF3070BD049800220B4B3D
:103FB000010A944206D003EB420603F812100132C4
:103FC0007070F6E705F120006200044901F0CEF8B8
:103FD000002818BF4FF0FF3070BD00BFF80000246C
:103FE0002DE9F0410E466A4907469818496888420B
:103FF0000ED81C461546DDF818806CB1384631469F
:104000002A46434600F082FC0135013C0028F4D0EA
:104010004FF0FF30BDE8F0810020BDE8F08100BF27
:104020002DE9FE4F83465A48DDF8309015460E467E
:1040300049440268914202D94FF0FF3806E00D99D9
:1040400040684FF0FF382944814202D94046BDE81C
:10405000FE8F4FEA49001C464FF00008164F4FF004
:10406000000A02900BF1200001900D988245EDD0DE
:104070000AEB05025846314600F0FCFA10B14FF049
:10408000FF3816E00020814509D0217807F810108C
:1040900007EB40010130627802344A70F3E701987F
:1040A0003946029A01F062F800284FF0FF3018BF3D
:1040B00080460AF1010AD8E7780300242DE9F84385
:1040C000994615460E460746DDE908485CB1384674
:1040D00031462A464B46CDF80080FFF757FF28B9F6
:1040E000013C0135F2E70020BDE8F8834FF0FF30D6
:1040F000BDE8F8834FF0FF30704700002448806827
:1041000008600020704700BF2DE9FC47984606462E
:1041100000F0B0FA0DF1050406F1200781462E21CA
:104120003846224601F01CF88246124E3846214697
:104130000122B04704460DF1070138460122B0477D
:1041400005460DF1060138460122B0479DF80610DC
:104150009DF80720404242EA0121C8F800100AEB0E
:10416000090121442944081A18BF4FF0FF30BDE867
:10417000FC8700BF67510008054800680860002000
:10418000704700BF0248406808600020704700BFC9
:10419000E800002470B50546C0690C468047064615
:1041A000E8698047801BA042FAD370BD2DE9F04F2B
:1041B000BDB000283A923C9100F0F98100210DF148
:1041C000EF0700F120068DF8EF100546FA4C0023AA
:1041D0004FF00009304601213A46A0472846782191
:1041E0003995FFF7D7FF304601213A4600238DF875
:1041F000EF90A047389028467821FFF7CBFF304654
:104200001121FFF728FB37903046B1213A460023B1
:10421000A0473690DFF868B6FFF7C1FA01258DF8A0
:10422000EF50D84735902C20FFF730FB4FF02C098A
:104230003046D84734902D20FFF728FB4FF02D084B
:104240003046D84733903046B2213A4601238DF8A4
:10425000EF504FF0010AA047329030463946012214
:104260008DF8EF902C25D8473190FFF76BFC3090FC
:104270003046B3213A4601238DF8EFA04FF00109F3
:10428000A0472F903046394601228DF8EF502C255B
:10429000D8472E90FFF756FC2D90FFF730FB2C905F
:1042A000FFF77DFB2B90FFF7A6FB2A9007208DF8E8
:1042B000EF00B4213A4601234FF007083046A047EB
:1042C0002990A2208DF8EF00C021FFF71DFC289057
:1042D0000220FFF7DBFA4FF002093046D84727905B
:1042E0008420FFF715FA2690C5208DF8EF00C12134
:1042F000FFF70AFC25900A208DF8EF00C221FFF796
:1043000003FC24900020FFF703FA23903046C321DA
:104310003A4601238A258DF8EF50A04722902A20A3
:10432000FFF7F6F921903046C421FFF7A6FA209056
:10433000EE20FFF7EDF91F900E208DF8EF00C5215C
:10434000FFF7E2FB1E903A9820213A46007B0028B6
:1043500008BF212130460023A0471D903CAA3046CB
:104360003A210123A0471C903046E021FFF773FA61
:104370001B901C20FFF7CCF91A90FFF73CFB19901B
:104380001220FFF7C5F91890FFF709FA4FF0370828
:104390008DF8EF80D84717903220FFF7B9F91690C3
:1043A000FFF7FDF94FF029098DF8EF90D8471590E8
:1043B000FFF7F5F94FF02D0A8DF8EFA0D8471490CC
:1043C000FFF79DFA13902520FFF7A2F912902B20FA
:1043D000FFF79EF911903920FFF79AF9109000200D
:1043E000FFF796F90F900120FFF792F90E90FFF773
:1043F000D6F903258DF8EF50D8470D901020FFF720
:1044000087F90C903046E121FFF737FA0B901D2019
:10441000FFF77EF90A900720FFF77AF90990062046
:10442000FFF776F90890FFF7BAF92E258DF8EF50CF
:10443000D84707902C20FFF76BF90690FFF75FFA3B
:104440000590FFF7ACF98DF8EFA0D8470490FFF77F
:10445000A6FA0390FFF7A3FA0290FFF7CCFA0190B7
:104460003F20FFF755F98146FFF799F900248DF8B1
:10447000EF40D8470546FFF792F98DF8EF404FF02F
:104480000008D84782460220FFF742F90446102070
:10449000FFF73EF9DDE9372101238DF8EF80114464
:1044A000369A1144359A1144349A1144339A11447E
:1044B000329A1144319A1144309A11442F9A11447E
:1044C0002E9A11442D9A11442C9A11442B9A11447E
:1044D0002A9A1144299A1144289A1144279A11447E
:1044E000269A1144259A1144249A1144239A11447E
:1044F000229A1144219A1144209A11441F9A11447E
:104500001E9A11441D9A11441C9A11441B9A11447D
:104510001A9A1144199A1144189A1144179A11447D
:10452000169A1144159A1144149A1144139A11447D
:10453000129A1144119A1144109A11440F9A11447D
:104540000E9A11440D9A11440C9A11440B9A11447D
:104550000A9A1144099A1144089A1144079A11447D
:10456000069A1144059A1144049A1144039A11447D
:10457000029A1144019A11443A4649442944764D1D
:10458000514421440C1830461321A84704443046B6
:1045900029213A460123A8470444DDE9390100F006
:1045A00071F92044B0FA80F04009013801E04FF081
:1045B000FF303DB0BDE8F08F735100087CB500F1CD
:1045C00020050DF105060C46DA212846324600F09A
:1045D000C7FD58B9721C2846DB2100F0C1FD28B97F
:1045E000B21C2846DC2100F0BBFD10B14FF0FF30BB
:1045F0007CBDBDF806009DF8051040BA40EA0140B8
:10460000206000207CBD0369FFF7FAB88369FFF7DB
:10461000F7B80000E8B1B0B50F4A4262D1E90345EE
:10462000C0E9034500630D4AC2620D4A82620D4A29
:104630000262D1E90023C0E900230B8903814B69A1
:1046400043618B69C9698361C161BDE8B04002B152
:1046500010474FF0FF307047074600080D4600082E
:1046600069460008594900084369FFF7C9B84FF087
:10467000FF3070472DE9F84F0C46B6498B684D7BEB
:10468000012B05D8012D0AD1097BD9B1183417E0C7
:10469000012D0DD1097BC9B102F1180919E0022DD4
:1046A0000ED1097B01290BD102F10109023410E07E
:1046B000022D05D1097B012902D102F1020907E08F
:1046C000914606E002F101091A3402E002F11A09EA
:1046D000013400F120060DF103071F4D2A210023AC
:1046E00030463A46A8478246200A8DF80300DFF894
:1046F0009081394601223046C0478346FFF74FF884
:104700008DF80340C047044630462B213A4600232B
:10471000A84705464FEA19208DF8030039460122C3
:104720003046C0470BEB0A0101228DF8039021446B
:1047300029440C1830463946C047044430462C21E1
:104740003A460023044DA8474042201A18BF4FF0B4
:10475000FF30BDE8F88F00BF735100082DE9F04F1E
:1047600085B00E467B491C4692468B684A7B012BDE
:1047700009D8012A12D1097B002912BF18360AF183
:10478000010A1A361BE0012A11D1097B01360029E2
:1047900014BF0AF1180A0AF11A0A10E0022A0ED10F
:1047A000097B012904BF0AF1010A023607E0022A47
:1047B00005D1097B012904BF0AF1020A013600F183
:1047C00020070DF113052A21002338462A4600F060
:1047D000D0FC0390300A8DF81300DFF8A48029463E
:1047E00001223846C0470290FFF71DF80190A0193A
:1047F00029460122441E200A8DF813003846C0477E
:1048000000903846294601228DF81340C0470446DF
:1048100038462B212A46002300F0ABFC81464FEAA4
:104820001A208DF81300294601223846C047564603
:104830008246FEF7F8FF83460E982946012230444F
:10484000461E300A8DF813003846C047DDE90221C4
:104850008DF813601144019A1144009A1144012209
:1048600021444944514459440C1838462946C0470C
:104870004042201A18BF4FF0FF3005B0BDE8F08F5E
:104880006D5100087CB591F90D3004468868012807
:10489000DAB206D8032A0DD21A4D55F82350A023B8
:1048A00005E0032A06D2174D55F82330A025294EDE
:1048B000C6E90053274EB060087B727300210022C6
:1048C0003073D6E9003000902046FFF747FF0546D9
:1048D000B0680D490DF1070201EBC000317B406863
:1048E000002908BF40F008008DF807003621012399
:1048F00004F1200000F03DFC4042281A18BF4FF0A0
:10490000FF307CBD30560008FCC40008BCB504462E
:10491000180240EA13200F4BADF806004FF0FF30AD
:104920001D688D4214D95B68934211D92046FFF768
:10493000A1FE10B14FF0FF30BCBD04F120000DF11D
:104940000601022200F012FC002818BF4FF0FF30D1
:10495000BCBD00BFE800002410B51C46C368084673
:1049600011462246BDE8104018477047FCF772BB5D
:10497000B0B59CB009A84C21FBF7B1FC01A82021DF
:10498000FBF7ADFC0220FCF74FFC2B490020009008
:10499000086820F001000860086800F0010000903D
:1049A0002648FEF773FE009A02689204FCD5244A5A
:1049B000835843F002038350825802F002020092AF
:1049C000009A00220092FEF761FE0A6842F001029E
:1049D0000A60096801F001010091009901688904E9
:1049E000FCD502201890CDE91600CDE91200602117
:1049F000002408251591CDE91A4419954FF480300B
:104A00000A90052114910120099009A8FDF7ECFBFB
:104A100080B9032002900594CDE90345CDE9064411
:104A2000089401213F20019001A8FDF72DFA08B953
:104A30001CB0B0BDFBF70EFE2C04005818480258FD
:104A4000DCFCFFFF10B51748184CD0F8801041F47B
:104A50007001C0F8801014490A6842F001020A602F
:104A600000220A610B6823400B608A61CA610A62F6
:104A70008A62CA620A634A638A63CA630A644A64CE
:104A80000B6823F480230B600A6609490968B2EBBE
:104A9000517F02D1074901220A604FF00061016095
:104AA00010BD00BF08ED00E0004402587FEDF6EABB
:104AB0000010005C0881005170B5D04A0368904234
:104AC00022D0B0F1804F1CBF264CA04240D123F031
:104AD00070034C682343B0F1804F19D0214CA042A1
:104AE0001CBF214CA04213D0204CA0421CBFC44C80
:104AF000A0420DD0C34CA0420AD0C34CA04207D064
:104B0000C24CA04204D007E023F070034C6823435A
:104B1000CC6823F4407323434E6923F080030C6870
:104B20008D6833430360C562846290420BD0B44AFF
:104B3000904208D0B34A904205D0B34A904202D086
:104B4000B24A904201D1096901630121416170BDFE
:104B5000054CA042BBD0AA4CA042B8D0034CA04206
:104B6000B5D0B8E70004004000080040000C004049
:104B700010B501F01F010423046A8B4002FA01F111
:104B800024EA03030362026A1143016210BD0000BC
:104B9000F0B5026A994E22F0010202620A688B683F
:104BA000046A456824F0020423438469B0420BD0B0
:104BB000934FB84208D0934FB84205D0924FB842B5
:104BC00002D0924FB84207D1CF6823F00C0327F0F0
:104BD00004073B43B0420BD0894EB04208D0894E07
:104BE000B04205D0884EB04202D0884EB04205D1C6
:104BF00025F44075D1E9056735433D4345603D4D9A
:104C00002C4022438261496841630362F0BD00BFCA
:104C1000F0B5026A794E22F01002FEF754FF24F03C
:104C2000200444EA0313846903D006F58067B84280
:104C300009D1CF686FF0400223F0C00302EA0712E7
:104C40001343B0420BD06E4A904208D06D4A904256
:104C500005D06D4A904202D06C4A904206D125F4AC
:104C60004062D1E90556354342EA8505394A456037
:104C7000224042EA0C228261496881630362F0BDEE
:104C8000F0B5026A5D4E22F48072FEF71CFF24F438
:104C9000007444EA0323C46903D006F58067B84270
:104CA0000AD1CF6840F2FF4223F440633F0227EA73
:104CB00002021343B0420BD0514A904208D0514AED
:104CC000904205D0504A904202D0504A904206D1BC
:104CD00025F44052D1E90556354342EA0515054A07
:104CE0004560224042EA0C02C2614968C163036226
:104CF000F0BD00BF8CFFFEFFF0B5026A3F4F22F40B
:104D000080520262B842026A46680C688B68C569C4
:104D10001CBF3B4FB84212D14F6926F4804646EA89
:104D2000871646600B4E354045EA0424C461496845
:104D3000016422F4005141EA03310162F0BD314FB8
:104D4000B842E9D0304FB842E6D0304FB842E3D055
:104D5000E7E700BFFF8CFFFEF0B5026A274F22F4A1
:104D60008032FEF7A8FE1CBF254FB84211D14F6913
:104D700026F4803646EA072646600B4E35402C4323
:104D800044654968816522F4003141EA03410162CA
:104D9000F0BD1C4FB842EAD01B4FB842E7D01B4FC2
:104DA000B842E4D0E8E700BF8FFFFEFFF0B5026A2B
:104DB000124F22F48012FEF77EFE1CBF104FB84245
:104DC00012D14F6926F4802646EA87264660104EA7
:104DD000354045EA042444654968C16522F4001160
:104DE00041EA03510162F0BD064FB842E9D0064FD7
:104DF000B842E6D0054FB842E3D0E7E700000140F3
:104E000000040140004001400048014000440140CE
:104E1000FF8FFFFEFEE7FCF719B9000080B50348DD
:104E20000421FDF74DFF002080BD00BFE4060024F3
:104E30002DE9FC41454C88468DF80700444E4FF45F
:104E4000006100222046B04720464FF40051002266
:104E5000B047404D0DF10701012264232846FDF7BC
:104E6000BBFD074620464FF400510122B0472846BB
:104E7000414601224FF4FA73FDF718FD054620461E
:104E80004FF400610122B0476842381A18BF4FF052
:104E9000FF30BDE8FC8100BF70B52C4CFEF783FCF1
:104EA000AAB22C4831464FF4FA73FDF7FFFC0546D1
:104EB000FEF734FC002D18BF4FF0FF35284670BDBB
:104EC00070B5224CFEF76FFCAAB22248314664232B
:104ED000FDF782FD0546FEF721FC002D18BF4FF0BF
:104EE000FF35284670BD00BF2DE9FC41174C164622
:104EF00088468DF80700164D4FF4006100222046C9
:104F0000A84720464FF400510022A84711480DF150
:104F1000070101226423FDF75FFD074620464FF499
:104F200000510122A8473EB1B2B20A4841464FF4AF
:104F3000FA73FDF751FD0744FEF7F0FB002F18BF91
:104F40004FF0FF373846BDE8FC8100BF0010025823
:104F50002B1000085C0600248AB001240294FCF7A0
:104F6000F5F81B200DF1080B8DF8100000254FF00F
:104F7000104605944FF480748DF813500396ADF8E5
:104F800011405846FCF7BCF805208DF81300039635
:104F9000ADF8114016208DF8100040F20110ADF868
:104FA00008005D4805905846FCF7AAF80420FCF775
:104FB000D7F85A480168890311D4BFF34F8FBFF364
:104FC0006F8FC0F83C52BFF34F8FBFF36F8F0168F4
:104FD00041F400310160BFF34F8FBFF36F8F016861
:104FE000C90327D40021016743F6E07CBFF34F8F4C
:104FF000C36EDA08C3F34E31C3F3C90392075C1CD6
:105000000CEA41161746234647EA060507F14047D2
:10501000013BC0F84C52F7D14B1E00291946EFD185
:10502000BFF34F8F016841F480310160BFF34F8FB0
:10503000BFF36F8FFCF718F8FFF79AFCFEF73EFA04
:10504000FEF7E2F9FEF79AFAFEF7C6FAFEF7C8F89D
:105050003348002140F2FF72FBF702FB002859D1D0
:105060004FF0000A2E4D2F4E0C2740F6E4494FF624
:10507000FF782846BAF1040F1AD0FBF789FE002802
:1050800048D128466421FBF7FBFD002842D1284681
:1050900006EB4A04FBF7B0FC208206EB8A000AF11B
:1050A000010A218A01FB09F1B1FBF8F18161E0E716
:1050B000FBF7D2FEB269F369306A0224716AC6E96D
:1050C0000023A0F51B70890090FBF4F01E30C6E9A8
:1050D000020115A1584600F051F8194C00202E216C
:1050E0001023CDE9007B4FF0000A2288FEF74AF832
:1050F000D6E90223584613A100F040F82288002088
:105100003E211023CDE9007BFEF73CF80320FEF79B
:1051100055F9AEE7FBF79EFA0000010114ED00E03F
:10512000F805002480000024205043323A20253422
:10513000646D5620567265663A202534646D5600BB
:10514000E800002474656D703A20253364202743FD
:1051500020766261743A202534646D5600000000A8
:10516000436800691847D0E903301847836800692D
:105170001847D0F800C00069604700000FB4084B22
:1051800010B504A902AA039800F01CF8044602A96D
:10519000002000F048FA204610BC5DF814FB000027
:1051A0002756000802E008C8121F08C1002AFAD1D9
:1051B00070477047002001E001C1121F002AFBD197
:1051C000704700002DE9FF4F8DB00F4605460026C1
:1051D00006E025280BD0DDE90F1290476D1C761CE8
:1051E00028780028F5D111B03046BDE8F08F0024B2
:1051F000A246A1460122EC4900E0044315F8013F14
:10520000203B02FA03F00842F7D128782A2810D070
:105210006FF02F022878A0F13001092914D80AEB89
:105220008A0102EB410144F0020400EB010A6D1C0B
:10523000F0E701CF5FEA000A03D544F40054CAF155
:10524000000A44F002046D1C28782E2817D115F8A6
:10525000010F44F004042A280ED06FF02F022878A2
:10526000A0F1300109290AD809EB890102EB4101BB
:1052700000EB01096D1CF2E757F8049B6D1C2878C0
:105280006C280FD006DC4C2817D068280DD06A286F
:1052900014D104E0742810D07A280FD10DE044F422
:1052A00000140AE044F4801401E044F440146978E6
:1052B000814202D104F580146D1C6D1C2A786E2A7F
:1052C0001FD00CDC632A31D004DC002A8BD0582A92
:1052D00011D1A3E0642A68D0692A0CD165E0732A51
:1052E0002ED004DC6F2A73D0702A04D19BE0752A7B
:1052F0006FD0782A6ED01046DDE90F129047761CE9
:1053000050E1C4F30250022806D0032809D0042833
:1053100001CF09D0066045E101CFF117C0E9006176
:1053200040E101CF06803DE106703BE117F8040B38
:105330008DF8000000208DF80100EB46012003E00D
:1053400057F804BB4FF0FF3061074FF0000102D463
:105350000DE008F10101884649450FDA8045F8DB88
:105360001BF808100029F4D108E008F10101884673
:105370008142FADB1BF808100029F6D1DDE90F2382
:10538000AAEB08008146214600F036F9304400EBD4
:10539000080604E0DDE90F121BF8010B9047B8F195
:1053A0000108F7D221464846F7E00A21C4F3025328
:1053B0004FF0000B0891022B04D001CFC117032B33
:1053C00009D00AE0FF1D27F00707F7E8020108E00F
:1053D00032E01FE020E000B2C117042B01D140B23F
:1053E000C117031E71F1000307DA4FF0000CD0EB78
:1053F0000C006CEB01012D2302E0230504D52B23C7
:105400008DF82430012303E0E30701D02023F7E7E0
:10541000984658E00A2110E010210EE010204FF0CD
:10542000000B08900CE010214FF0000B44F0040436
:105430004FF00809089103E008214FF0000B089194
:10544000C4F30253022B04D001CF0021032B06D05A
:1054500006E0FF1D27F00707F7E8020103E080B22E
:10546000042B00D1C0B24FF0000823072BD5702ABF
:1054700007D0DDF820C08CF0100C5CEA0B0C05D0D6
:105480000EE040238DF82430012308E050EA0103A8
:1054900006D030238DF824308DF82520022398463D
:1054A000DDF820C08CF0080C5CEA0B0C0BD150EA44
:1054B000010301D1630706D530238DF824304FF066
:1054C0000108A9F10109582A04D038A20B9208AAB0
:1054D0000A920BE03AA2F9E75B46089AFAF70AFF4C
:1054E0000B9B9B5C0A9A521E0A92137050EA0102AF
:1054F000F2D10A98ADEB000000F1200B600702D555
:1055000024F4803401E04FF00109D94502DDA9EB14
:105510000B0000E0002000EB0B0141440890AAEBD7
:10552000010AE00306D4DDE90F232146504600F0CE
:1055300063F806444FF0000908E009A911F80900D2
:10554000DDE90F12904709F10109761CC145F4DB32
:10555000E0030CD5DDE90F232146504600F04CF85E
:10556000064404E0DDE90F1230209047761C0899CC
:10557000481E08900029F5DC08E00A980A9900788E
:10558000491C0A91DDE90F129047761CBBF100011E
:10559000ABF1010BF1DC21465046DDE90F2300F0B1
:1055A00019F806446D1C1BE609280100303132331E
:1055B000343536373839616263646566000000004F
:1055C0003031323334353637383941424344454639
:1055D000000000002DE9F041044600251E46174654
:1055E000880404D405E039462020B0476D1C641EB1
:1055F000F9D52846BDE8F0812DE9F04104460025A3
:105600001E469046C80301D5302700E020278804B5
:1056100004D505E041463846B0476D1C641EF9D5F7
:105620002846BDE8F0810A68531C0B601070704773
:10563000800000005000000080000000000000001A
:10564000010203040102030406070809424D4864ED
:105650000000000000004600000038000000A0002C
:105660000000500000000100100003000000026470
:105670000000120B0000120B0000000000000000F0
:10568000000000F80000E00700001F00000000001C
:10569000000000000000000000000000000000000A
:1056A00000000000000000000000000000000000FA
:1056B00000000000000000000000000000000000EA
:1056C00000000000000000000000000000000000DA
:1065F0000000000000000000000000000000084251
:106600002D6B2D6B2D6B242100000000000000007D
:10661000000000000000000000000000000000007A
:10662000000000000000000000000000000000006A
:10663000000000000000000000000000000000005A
:10664000000000000000000000000000000000004A
:10665000000000000000000000000000000000003A
:10666000000000000000000000000000000000002A
:10667000000000000000000000000000000000001A
:10668000000000000000000000000000000000000A
:1066900000000000000000000000000000000000FA
:1066A00000000000000000000000000000000000EA
:1066B00000000000000000000000000000000000DA
:1066C00000000000000000000000000000000000CA
:1066D00000000000000000000000000000000000BA
:1066E00000000000000000000000000000000000AA
:1066F000000000000000000000000000000000009A
:106700000000000000000000000000000000000089
:106710000000000000000000000000000000000079
:106720000000000000000000000000000000000069
:1067300000000000000000000842D7BDBEF7BEF711
:106740009AD69AD6BEF7FFFF5CE7D7BDAA520000E3
:106750000000000000000000000000000000308485
:10676000FBDEFFFFFFFFBEF7D7BD2D6B0000000073
:106770000000000000000842D7BD5CE7FFFFFFFFFC
:10678000BEF738C6308424210000AA529AD69AD681
:106790009AD69AD69AD69AD69AD6000000000000C9
:1067A000000000000000242114A5FBDEFFFFFFFF16
:1067B0005CE714A52421000075AD9AD69AD69AD626
:1067C0009AD69AD69AD630840000000030849AD6A1
:1067D0009AD69AD69AD69AD69AD675AD0000000067
:1067E00000000000000000000000CF7B38C65CE71E
:1067F000FFFFFFFFFBDED7BDAA5200000000000034
:106800000000000000000000000000000000000088
:106810000000000000000000000000000000000078
:106820000000000000000000000000000000000068
:106830000000000000000000000000000000000058
:106840000000000000000000000000000000000048
:106850000000000000000000000000000000000038
:106860000000000000000000000000000000000028
:1068700000000000242175ADFFFFD7BDAA52000023
:10688000000000002421FFFFFFFFFFFFFFFF38C6CD
:10689000242100000000000000000000D7BDFFFF21
:1068A000FFFFFFFFFFFFFFFFFFFFFFFF75AD0000D2
:1068B00000000000CF7BFFFFFFFFFFFFFFFFFFFF98
:1068C000FFFFFFFFFFFFBEF714A52D6BFFFFFFFFCC
:1068D000FFFFFFFFFFFFFFFFFFFF000000000000C2
:1068E000000000003084BEF7FFFFFFFFFFFFFBDE6C
:1068F00014A5FBDE5CE7AA529AD6FFFFFFFFFFFF5D
:10690000FFFFFFFFFFFF14A50000000014A5FFFF1D
:10691000FFFFFFFFFFFFFFFFFFFF9AD60000000011
:1069200000000000000008429AD6FFFFFFFFFFFFB3
:1069300014A500000842B2945CE738C62421000088
:106940000000000000000000000000000000000047
:106950000000000000000000000000000000000037
:106960000000000000000000000000000000000027
:106970000000000000000000000000000000000017
:106980000000000000000000000000000000000007
:1069900000000000000000000000000000000000F7
:1069A00000000000000000000000000000000000E7
:1069B00000002421FBDEFBDEAA52000000000000E4
:1069C000000000002D6BFFFFFFFFFFFFFFFFFFFF39
:1069D000FBDE00000000000000003084FFFFFFFF2E
:1069E000FFFFFFFFFFFFFFFFB2940842FBDEB29400
:1069F00000002421BEF7FFFFFFFFFFFFFFFFFFFFA7
:106A0000BEF72421000030845CE7BEF7FFFFFFFFE4
:106A1000FFFFFFFFFFFFFFFFFFFF00000000000080
:106A200000003084FFFFFFFFFFFFFFFFFFFF2D6B24
:106A300000000000B294BEF75CE7FFFFFFFFFFFF1E
:106A4000FFFFFFFFFFFF14A50000000014A5FFFFDC
:106A5000FFFFFFFFFFFFFFFFFFFF9AD600000000D0
:106A600000000000AA52BEF7FFFFFFFFFFFFFFFF7D
:106A700014A5000000000000000014A5FBDE242186
:106A80000000000000000000000000000000000006
:106A900000000000000000000000000000000000F6
:106AA00000000000000000000000000000000000E6
:106AB00000000000000000000000000000000000D6
:106AC00000000000000000000000000000000000C6
:106AD00000000000000000000000000000000000B6
:106AE00000000000000000000000000000000000A6
:106AF0000000084238C62421000000000000000009
:106B000000000842BEF7FFFFFFFFFFFFFFFFFFFF90
:106B1000FFFF14A50000000000009AD6FFFFFFFF52
:106B2000FFFFFFFFFFFFFFFF2D6B000008425CE748
:106B30002421CF7BFFFFFFFFFFFFFFFFFFFFFFFFD2
:106B40009AD6000000000000000075ADFFFFFFFFB7
:106B5000FFFFFFFFFFFFFFFFFFFF0000000000003F
:106B60002D6BFFFFFFFFFFFFFFFFFFFFFFFF2D6B01
:106B70000000000000003084FFFFFFFFFFFFFFFF69
:106B8000FFFFFFFFFFFF14A50000000014A5FFFF9B
:106B9000FFFFFFFFFFFFFFFFFFFF9AD6000000008F
:106BA00000002421BEF7FFFFFFFFFFFFFFFFFFFFF5
:106BB00014A500000000000000000000B2949AD666
:106BC00000000000000000000000000000000000C5
:106BD00000000000000000000000000000000000B5
:106BE00000000000000000000000000000000000A5
:106BF0000000000000000000000000000000000095
:106C00000000000000000000000000000000000084
:106C10000000000000000000000000000000000074
:106C20000000000000000000000000000000000064
:106C30000000000000000000000000000000000054
:106C40002421FBDEFFFFFFFFFFFFFFFFFFFFFFFF32
:106C5000FFFF5CE7000000000000FFFFFFFFFFFFF9
:106C6000FFFFFFFFFFFFFFFF2D6B00000000D7BD00
:106C70002D6B14A5FFFFFFFFFFFFFFFFFFFFFFFFCF
:106C80009AD600000000000000002D6BFFFFFFFF00
:106C9000FFFFFFFFFFFFFFFFFFFF000000000000FE
:106CA0005CE7FFFFFFFFFFFFFFFFFFFFFFFF2D6B15
:106CB00000000000000000009AD6FFFFFFFFFFFF6A
:106CC000FFFFFFFFFFFF14A50000000014A5FFFF5A
:106CD000FFFFFFFFFFFFFFFFFFFF9AD6000000004E
:106CE0000000D7BDFFFFFFFFFFFFFFFFFFFFFFFF1C
:106CF00014A50000000000000000000000009AD66B
:106D000030840000000000000000000000000000CF
:106D10000000000000000000000000000000000073
:106D20000000000000000000000000000000000063
:106D30000000000000000000000000000000000053
:106D40000000000000000000000000000000000043
:106D50000000000000000000000000000000000033
:106D60000000000000000000000000000000000023
:106D700000000000000000000000000000002421CE
:106D8000FBDEFFFFFFFFFFFFFFFFFFFFFFFFFFFF38
:106D9000FFFFFFFF000000000000FFFFFFFFFFFFFD
:106DA000FFFFFFFFFFFFFFFF2D6B00000000000053
:106DB000000014A5FFFFFFFFFFFFFFFFFFFFFFFF26
:106DC0009AD600000000000000002D6BFFFFFFFFBF
:106DD000FFFFFFFFFFFFFFFFFFFF00000000CF7B73
:106DE000FFFFFFFFFFFFFFFFFFFFFFFFFFFF2D6B19
:106DF00000000000000000009AD6FFFFFFFFFFFF29
:106E0000FFFFFFFFFFFF14A50000000014A5FFFF18
:106E1000FFFFFFFFFFFFFFFFFFFF9AD6000000000C
:106E20002421FFFFFFFFFFFFFFFFFFFFFFFFFFFF2B
:106E300014A50000000000000000000000002D6B01
:106E40009AD60000000000000000000000000000D2
:106E50000000000000000000000000000000000032
:106E60000000000000000000000000000000000022
:106E70000000000000000000000000000000000012
:106E80000000000000000000000000000000000002
:106E900000000000000000000000000000000000F2
:106EA00000000000000000000000000000000000E2
:106EB0000000000000000000000000002421FBDEB4
:106EC000FFFFFFFFFFFFFFFFFFFFFFFFFFFFFFFFD2
:106ED000FFFFBEF7000000000000FFFFFFFFFFFF05
:106EE000FFFFFFFFFFFFFFFF2D6B00000000000012
:106EF000000014A5FFFFFFFFFFFFFFFFFFFFFFFFE5
:106F00009AD600000000000000002D6BFFFFFFFF7D
:106F1000FFFFFFFFFFFFFFFFFFFF0000000075AD59
:106F2000FFFFFFFFFFFFFFFFFFFFFFFFFFFF2D6BD7
:106F300000000000000000009AD6FFFFFFFFFFFFE7
:106F4000FFFFFFFFFFFF14A50000000014A5FFFFD7
:106F5000FFFFFFFFFFFFFFFFFFFF9AD600000000CB
:106F6000CF7BFFFFFFFFFFFFFFFFFFFFFFFFFFFFE5
:106F700014A5000000000000000000000000000058
:106F8000BEF7242100000000000000000000000007
:106F900000000000000000000000000000000000F1
:106FA00000000000000000000000000000000000E1
:106FB00000000000000000000000000000000000D1
:106FC00000000000000000000000000000000000C1
:106FD00000000000000000000000000000000000B1
:106FE00000000000000000000000000000000000A1
:106FF000000000000000000000002421FBDEFFFF75
:10700000FFFFFFFFFFFFFFFFFFFFFFFFFFFFFFFF90
:10701000FFFFD7BD000000000000FFFFFFFFFFFFE4
:10702000FFFFFFFFFFFFFFFF2D6B000000000000D0
:10703000000014A5FFFFFFFFFFFFFFFFFFFFFFFFA3
:107040009AD600000000000000002D6BFFFFFFFF3C
:10705000FFFFFFFFFFFFFFFFFFFF000000009AD6CA
:10706000FFFFFFFFFFFFFFFFFFFFFFFFFFFF2D6B96
:1070700000000000000000009AD6FFFFFFFFFFFFA6
:10708000FFFFFFFFFFFF14A50000000014A5FFFF96
:10709000FFFFFFFFFFFFFFFFFFFF9AD6000000008A
:1070A00014A5FFFFFFFFFFFFFFFFFFFFFFFFFFFF35
:1070B00014A5000000000000000000000000000017
:1070C0009AD62D6B000000000000000000000000B8
:1070D00000000000000000000000000000000000B0
:1070E00000000000000000000000000000000000A0
:1070F0000000000000000000000000000000000090
:10710000000000000000000000000000000000007F
:10711000000000000000000000000000000000006F
:10712000000000000000000000000000000000005F
:1071300000000000000000000000D7BDFFFFFFFFBF
:10714000FFFFFFFFFFFFFFFFFFFFFFFFFFFFFFFF4F
:10715000FFFF0842000000000000FFFFFFFFFFFFED
:10716000FFFFFFFFFFFFFFFF2D6B0000000000008F
:10717000000014A5FFFFFFFFFFFFFFFFFFFFFFFF62
:107180009AD600000000000000002D6BFFFFFFFFFB
:10719000FFFFFFFFFFFFFFFFFFFF000000009AD689
:1071A000FFFFFFFFFFFFFFFFFFFFFFFFFFFF2D6B55
:1071B00000000000000000009AD6FFFFFFFFFFFF65
:1071C000FFFFFFFFFFFF14A50000000014A5FFFF55
:1071D000FFFFFFFFFFFFFFFFFFFF9AD60000000049
:1071E00014A5FFFFFFFFFFFFFFFFFFFFFFFFFFFFF4
:1071F00014A50000000000000000000000000000D6
:107200009AD62D6B00000000000000000000000076
:10721000000000000000000000000000000000006E
:10722000000000000000000000000000000000005E
:10723000000000000000000000000000000000004E
:10724000000000000000000000000000000000003E
:10725000000000000000000000000000000000002E
:10726000000000000000000000000000000000001E
:10727000000000000000000075ADFFFFFFFFFFFFF2
:10728000FFFFFFFFFFFFFFFFFFFFFFFFFFFFFFFF0E
:1072900014A50000000000000000FFFFFFFFFFFF3B
:1072A000FFFFFFFFFFFFFFFF2D6B0000000000004E
:1072B000000014A5FFFFFFFFFFFFFFFFFFFFFFFF21
:1072C0009AD600000000000000002D6BFFFFFFFFBA
:1072D000FFFFFFFFFFFFFFFFFFFF000000009AD648
:1072E000FFFFFFFFFFFFFFFFFFFFFFFFFFFF2D6B14
:1072F00000000000000000009AD6FFFFFFFFFFFF24
:10730000FFFFFFFFFFFF14A50000000014A5FFFF13
:10731000FFFFFFFFFFFFFFFFFFFF9AD60000000007
:10732000B294FFFFFFFFFFFFFFFFFFFFFFFFFFFF25
:1073300014A5000000000000000000000000000094
:107340005CE70842000000000000000000000000B0
:10735000000000000000000000000000000000002D
:10736000000000000000000000000000000000001D
:10737000000000000000000000000000000000000D
:1073800000000000000000000000000000000000FD
:1073900000000000000000000000000000000000ED
:1073A00000000000000000000000000000000000DD
:1073B000000000000000CF7BFFFFFFFFFFFFFFFF8B
:1073C000FFFFFFFFFFFFFFFFFFFFFFFFFFFF38C6CD
:1073D00000000000000000000000FFFFFFFFFFFFB3
:1073E000FFFFFFFFFFFFFFFF2D6B0000000000000D
:1073F000000014A5FFFFFFFFFFFFFFFFFFFFFFFFE0
:107400009AD600000000000000002D6BFFFFFFFF78
:10741000FFFFFFFFFFFFFFFFFFFF0000000014A5BD
:10742000FFFFFFFFFFFFFFFFFFFFFFFFFFFF2D6BD2
:1074300000000000000000009AD6FFFFFFFFFFFFE2
:10744000FFFFFFFFFFFF14A50000000014A5FFFFD2
:10745000FFFFFFFFFFFFFFFFFFFF9AD600000000C6
:10746000AA52FFFFFFFFFFFFFFFFFFFFFFFFFFFF2E
:1074700014A5000000000000000000000000084209
:10748000BEF7000000000000000000000000000047
:1074900000000000000000000000000000000000EC
:1074A00000000000000000000000000000000000DC
:1074B00000000000000000000000000000000000CC
:1074C00000000000000000000000000000000000BC
:1074D00000000000000000000000000000000000AC
:1074E000000000000000000000000000000000009C
:1074F000000000002421BEF7FFFFFFFFFFFFFFFF9A
:10750000FFFFFFFFFFFFFFFFFFFFFFFFFBDE242169
:1075100000000000000000000000FFFFFFFFFFFF71
:10752000FFFFFFFFFFFFFFFF2D6B000000000000CB
:10753000000014A5FFFFFFFFFFFFFFFFFFFFFFFF9E
:107540009AD600000000000000002D6BFFFFFFFF37
:10755000FFFFFFFFFFFFFFFFFFFF00000000AA5239
:10756000FFFFFFFFFFFFFFFFFFFFFFFFFFFF2D6B91
:1075700000000000000000009AD6FFFFFFFFFFFFA1
:10758000FFFFFFFFFFFF14A50000000014A5FFFF91
:10759000FFFFFFFFFFFFFFFFFFFF9AD60000000085
:1075A00000005CE7FFFFFFFFFFFFFFFFFFFFFFFFA4
:1075B00014A500000000000000000000000014A559
:1075C00075AD000000000000000000000000000099
:1075D00000000000000000000000000000000000AB
:1075E000000000000000000000000000000000009B
:1075F000000000000000000000000000000000008B
:10760000000000000000000000000000000000007A
:10761000000000000000000000000000000000006A
:10762000000000000000000000000000000000005A
:107630000000000014A5FFFFFFFFFFFFFFFFFFFF9B
:10764000FFFFFFFFFFFFFFFFFFFF5CE724210000BC
:1076500000000000000000000000FFFFFFFFFFFF30
:10766000FFFFFFFFFFFFFFFF2D6B0000000000008A
:10767000000014A5FFFFFFFFFFFFFFFFFFFFFFFF5D
:107680009AD600000000000000002D6BFFFFFFFFF6
:10769000FFFFFFFFFFFFFFFFFFFF000000000000F4
:1076A00038C6FFFFFFFFFFFFFFFFFFFFFFFF2D6B50
:1076B00000000000000000009AD6FFFFFFFFFFFF60
:1076C000FFFFFFFFFFFF14A50000000014A5FFFF50
:1076D000FFFFFFFFFFFFFFFFFFFF9AD60000000044
:1076E0000000CF7BFFFFFFFFFFFFFFFFFFFFFFFF5C
:1076F00014A500000000000000000000AA525CE792
:107700002421000000000000000000000000000034
:107710000000000000000000000000000000000069
:107720000000000000000000000000000000000059
:107730000000000000000000000000000000000049
:107740000000000000000000000000000000000039
:107750000000000000000000000000000000000029
:107760000000000000000000000000000000000019
:10777000000000005CE7FFFFFFFFFFFFFFFFFFFFD0
:10778000FFFFFFFFFFFFFFFFBEF7AA520000000050
:1077900000000000000000000000FFFFFFFFFFFFEF
:1077A000FFFFFFFFFFFFFFFF2D6B00000000000049
:1077B000000014A5FFFFFFFFFFFFFFFFFFFFFFFF1C
:1077C0009AD600000000000000002D6BFFFFFFFFB5
:1077D000FFFFFFFFFFFFFFFFFFFF000000000000B3
:1077E00024215CE7FFFFFFFFFFFFFFFFFFFF2D6B83
:1077F00000000000000024215CE7FFFFFFFFFFFF07
:10780000FFFFFFFFFFFF14A50000000014A5FFFF0E
:10781000FFFFFFFFFFFFFFFFFFFF9AD60000000002
:1078200000000000D7BDFFFFFFFFFFFFFFFFFFFFCE
:1078300014A50000000000000000AA52BEF730842A
:107840000000000000000000000000000000000038
:107850000000000000000000000000000000000028
:107860000000000000000000000000000000000018
:107870000000000000000000000000000000000008
:1078800000000000000000000000000000000000F8
:1078900000000000000000000000000000000000E8
:1078A00000000000000000000000000000000000D8
:1078B00000000000FFFFFFFFFFFFFFFFFFFFFFFFD4
:1078C000FFFFFFFFFFFFBEF7AA520000000000000D
:1078D00000000000000000000000FFFFFFFFFFFFAE
:1078E000FFFFFFFFFFFFFFFF2D6B00000000000008
:1078F000000014A5FFFFFFFFFFFFFFFFFFFFFFFFDB
:107900009AD600000000000000002D6BFFFFFFFF73
:10791000FFFFFFFFFFFFFFFFFFFF00000000000071
:107920000000AA52FBDEFFFFFFFFFFFFFFFF2D6BF2
:10793000000000002D6BFBDE5CE7FFFFFFFFFFFF99
:10794000FFFFFFFFFFFF14A50000000014A5FFFFCD
:10795000FFFFFFFFFFFFFFFFFFFF9AD600000000C1
:1079600000000000000075ADFFFFFFFFFFFFFFFFFD
:1079700014A5000000000000B2945CE73084000011
:1079800000000000000000000000000000000000F7
:1079900000000000000000000000000000000000E7
:1079A00000000000000000000000000000000000D7
:1079B00000000000000000000000000000000000C7
:1079C00000000000000000000000000000000000B7
:1079D00000000000000000000000000000000000A7
:1079E0000000000000000000000000000000000097
:1079F00000000000FFFFFFFFFFFFFFFFFFFFFFFF93
:107A0000FFFFFFFFFFFFAA52000000000000000080
:107A10000000000008429AD69AD6FFFFFFFFFFFF42
:107A2000FFFFFFFFFFFFFFFFFBDE9AD69AD63084F1
:107A3000000014A5FFFFFFFFFFFFFFFFFFFFFFFF99
:107A40009AD600000000000000002D6BFFFFFFFF32
:107A5000FFFFFFFFFFFFFFFFFFFF00000000000030
:107A600000000000242114A5BEF7FFFFFFFFFBDE8E
:107A700014A5FBDE9AD608429AD6FFFFFFFFFFFF50
:107A8000FFFFFFFFFFFF14A50000000014A5FFFF8C
:107A9000FFFFFFFFFFFFFFFFFFFF9AD60000000080
:107AA00000000000000000002D6B9AD6FFFFFFFFD2
:107AB0009AD614A5D7BDBEF7D7BD08420000000076
:107AC00000000000000000000000000000000000B6
:107AD00000000000000000000000000000000000A6
:107AE0000000000000000000000000000000000096
:107AF0000000000000000000000000000000000086
:107B00000000000000000000000000000000000075
:107B10000000000000000000000000000000000065
:107B20000000000000000000000000000000000055
:107B30000000000038C6FFFFFFFFFFFFFFFFFFFF51
:107B4000FFFFFFFF30840000000000000000000085
:107B50000000000024212D6B2D6BFFFFFFFFFFFFB6
:107B6000FFFFFFFFFFFFFFFF2D6B2D6B2D6B08420B
:107B7000000008422D6B2D6B2D6B2D6B2D6B2D6B2B
:107B8000AA52000000000000000024212D6B2D6B84
:107B90002D6B2D6B2D6B2D6B2D6B000000000000ED
:107BA000000000000000000000002D6B14A514A5CB
:107BB00030840842000000009AD6FFFFFFFFFFFF5D
:107BC000FFFFFFFFFFFF14A50000000008422D6B20
:107BD0002D6B2D6B2D6B2D6B2D6BAA5200000000B1
:107BE0000000000000000000000000000842308497
:107BF00014A514A5CF7B2421000000000000000084
:107C00000000000000000000000000000000000074
:107C10000000000000000000000000000000000064
:107C20000000000000000000000000000000000054
:107C30000000000000000000000000000000000044
:107C40000000000000000000000000000000000034
:107C50000000000000000000000000000000000024
:107C60000000000000000000000000000000000014
:107C700000000000AA52FFFFFFFFFFFFFFFFFFFF12
:107C8000FFFF14A500000000000000000000AA5241
:107C9000AA520000000000000000FFFFFFFFFFFFEE
:107CA000FFFFFFFFFFFFFFFF242100000000000097
:107CB00000000000000000000000000000000000C4
:107CC00000000000000000000000000000000000B4
:107CD00000000000000000000000000000000000A4
:107CE0000000000000000000000000000000000094
:107CF00000000000000000009AD6FFFFFFFFFFFF1A
:107D0000FFFFFFFFFFFF14A500000000000024217B
:107D1000308414A514A5308408420000000000003F
:107D20000000000000000000000000000000000053
:107D30000000000000000000000000000000000043
:107D40000000000000000000000000000000000033
:107D50000000000000000000000000000000000023
:107D60000000000000000000000000000000000013
:107D70000000000000000000000000000000000003
:107D800000000000000000000000000000000000F3
:107D900000000000000000000000000000000000E3
:107DA00000000000000000000000000000000000D3
:107DB0000000000000003084FFFFFFFFFFFFFFFF17
:107DC000FFFF24210000000000000000B294FFFF2C
:107DD0002D6B0000000000000000084214A55CE7C5
:107DE000FFFFFFFFFFFFFFFF2D6B00000000000003
:107DF0000000000000000000000000000000000083
:107E00000000000000000000000000000000000072
:107E10000000000000000000000000000000000062
:107E20000000000000000000000000000000000052
:107E300000000000000000009AD6FFFFFFFFFFFFD8
:107E4000FFFFFFFFFFFF14A5000000000842BEF780
:107E5000FFFFFFFFFFFFFFFFBEF7CF7B000000002B
:107E60000000000000000000000000000000000012
:107E70000000000000000000000000000000000002
:107E800000000000000000000000000000000000F2
:107E900000000000000000000000000000000000E2
:107EA00000000000000000000000000000000000D2
:107EB00000000000000000000000000000000000C2
:107EC00000000000000000000000000000000000B2
:107ED00000000000000000000000000000000000A2
:107EE0000000000000000000000000000000000092
:107EF0000000000000000000AA529AD6FFFFFFFF1A
:107F0000FFFF14A52D6B2D6B75AD5CE79AD6AA52B9
:107F10000000000000000000000000000000000061
:107F200030845CE7FFFFFFFF2D6B000000000000C6
:107F30000000000000000000000000000000000041
:107F40000000000000000000000000000000000031
:107F50000000000000000000000000000000000021
:107F60000000000000000000000000000000000011
:107F700000000000000000009AD6FFFFFFFFFFFF97
:107F8000FFFFFFFFFFFF14A50000000014A5FFFF87
:107F9000FFFFFFFFFFFFFFFFFFFF9AD6000000007B
:107FA00000000000000000000000000000000000D1
:107FB00000000000000000000000000000000000C1
:107FC00000000000000000000000000000000000B1
:107FD00000000000000000000000000000000000A1
:107FE0000000000000000000000000000000000091
:107FF0000000000000000000000000000000000081
:108000000000000000000000000000000000000070
:108010000000000000000000000000000000000060
:108020000000000000000000000000000000000050
:108030000000000000000000000000000842B294B0
:10804000D7BD9AD69AD638C614A5AA520000000009
:108050000000000000000000000000000000000020
:108060000000000030845CE72D6B00000000000081
:108070000000000000000000000000000000000000
:1080800000000000000000000000000000000000F0
:1080900000000000000000000000000000000000E0
:1080A00000000000000000000000000000000000D0
:1080B0000000000000000000AA522D6B2D6B2D6BFC
:1080C0002D6B2D6B2D6B0842000000002D6BFFFF08
:1080D000FFFFFFFFFFFFFFFFFFFF14A500000000F1
:1080E0000000000000000000000000000000000090
:1080F0000000000000000000000000000000000080
:10810000000000000000000000000000000000006F
:10811000000000000000000000000000000000005F
:10812000000000000000000000000000000000004F
:10813000000000000000000000000000000000003F
:10814000000000000000000000000000000000002F
:10815000000000000000000000000000000000001F
:10816000000000000000000000000000000000000F
:1081700000000000000000000000000000000000FF
:1081800000000000000000000000000000000000EF
:1081900000000000000000000000000000000000DF
:1081A0000000000000002421242100000000000045
:1081B00000000000000000000000000000000000BF
:1081C00000000000000000000000000000000000AF
:1081D000000000000000000000000000000000009F
:1081E000000000000000000000000000000000008F
:1081F000000000000000000000000000000000007F
:1082000000000000000000000000000000002D6BD6
:10821000D7BD9AD69AD638C6308400000000000038
:10822000000000000000000000000000000000004E
:10823000000000000000000000000000000000003E
:10824000000000000000000000000000000000002E
:10825000000000000000000000000000000000001E
:1087600000000000000000000000000024210000C4
:1087700000000000000000000000000000000000F9
:1087800000000000000024210000000000000000A4
:1087900000000000000000000000000000000000D9
:1087A00000000000000000000000000000000000C9
:1087B00000000000000000000000000000000000B9
:1087C00000000000000000000000000000000000A9
:1087D0000000000000000000000000000000000099
:1087E0000000000000000000000000000000000089
:1087F0000000000000000000000000000000000079
:108800000000000000000000000000000000000068
:108810000000000000000000000000000000000058
:108820000000000000000000000000000000000048
:108830000000000000000000000000000000000038
:108840000000000000000000000000000000000028
:108850000000000000000000000000000000000018
:108860000000000000000000000000000000000008
:1088700000000000000000000000000000000000F8
:1088800000000000000000000000000000000000E8
:1088900000000000000000000000000000000000D8
:1088A000000000000000000000000000D7BD000034
:1088B00000000000000000000000000000000000B8
:1088C00000000000242138C6000000000000000065
:1088D0000000000000000000000000000000000098
:1088E0000000000000000000000000000000000088
:1088F000000000000000000000000000AA5200007C
:108900000000000000000000000000000000000067
:108910000000000000000000000000000000000057
:108920000000000000000000000000000000000047
:108930000000000000000000000000000000000037
:108940000000000000000000000000000000000027
:108950000000000000000000000000000000000017
:108960000000000000000000000000000000000007
:1089700000000000000000000000000000000000F7
:1089800000000000000000000000000000000000E7
:1089900000000000000000000000000000000000D7
:1089A00000000000000000000000000000000000C7
:1089B00000000000000000000000000000000000B7
:1089C00000000000000000000000000000000000A7
:1089D0000000000000000000000000000000000097
:1089E00000000000000000000000CF7BFFFF2D6BA7
:1089F0000000000000000000000000000000000077
:108A00000000000014A5FFFF084200000000000065
:108A10000000000000000000000000000000000056
:108A20000000084275ADFBDEFFFFFFFFBEF738C652
:108A30003084242100000000000000005CE7CF7BB0
:108A40000000000000000000000000000000000026
:108A500000000000000008429AD69AD69AD69AD60C
:108A60009AD69AD69AD69AD69AD69AD62421000021
:108A7000000000000000308438C65CE7FFFFFFFF05
:108A80005CE7D7BD2D6B0000000000000000000077
:108A900000000000242114A55CE7FFFFFFFF5CE756
:108AA00075AD08420000000000000000000000005A
:108AB00000000000000000000000000000000000B6
:108AC00000000000000000000000000000000000A6
:108AD0000000000000000000000000000000000096
:108AE0000000000000000000000000000000000086
:108AF0000000000000000000000000000000000076
:108B00000000000000000000000000000000000065
:108B10000000000000000000000000000000000055
:108B20000000000000000000000038C6FFFF5CE706
:108B30000000000000000000000000000000000035
:108B400000000842FFFFFFFFD7BD0000000000004B
:108B50000000000000000000000000000000000015
:108B600014A5FFFFFFFFBEF7AA5200002421CF7B10
:108B70009AD6BEF7B29400000000000030845CE793
:108B800024210000000000000000000000000000A0
:108B9000000000000000D7BDFFFFFFFFFFFFFFFF49
:108BA000FFFFFFFFFFFFFFFFFFFF14A50000000016
:108BB0000000AA52FBDEFFFFFFFFFFFF38C60000E8
:108BC0002421CF7B9AD69AD60842000000000000EC
:108BD00000002421FBDEFFFFFFFFFFFFFFFFFFFF81
:108BE000FFFFBEF73084000000000000000000001E
:108BF0000000000000000000000000000000000075
:108C00000000000000000000000000000000000064
:108C10000000000000000000000000000000000054
:108C20000000000000000000000000000000000044
:108C30000000000000000000000000000000000034
:108C40000000000000000000000000000000000024
:108C50000000000000000000000000000000000014
:108C600000000000000000000842FFFFFFFFFFFFC0
:108C70003084000000000000000000000000000040
:108C80000000D7BDFFFFFFFFFFFF24210000000011
:108C90000000000000000000000000000000D7BD40
:108CA000FFFFFFFFFFFF9AD600000000000000005A
:108CB00000002D6BBEF738C62421000000009AD6B4
:108CC000D7BD2D6B2D6B2D6B2D6B2D6B2D6B2D6BE8
:108CD0002D6B2D6B3084FFFFFFFFFFFFFFFFFFFFBA
:108CE000FFFFFFFFFFFFFFFFBEF724210000000092
:108CF000AA52BEF7FFFFFFFFFFFFFFFF14A5000012
:108D0000000000000000CF7B5CE7AA5200000000DA
:108D10000000D7BDFFFFFFFFFFFFFFFFFFFFFFFFCB
:108D2000AA522D6BBEF7AA520000000000000000FE
:108D30000000000000000000000000000000000033
:108D40000000000000000000000000000000000023
:108D50000000000000000000000000000000000013
:108D60000000000000000000000000000000000003
:108D700000000000000000000000000000000000F3
:108D800000000000000000000000000000000000E3
:108D900000000000000000000000000000000000D3
:108DA000000000000000000014A5FFFFFFFFFFFF10
:108DB000BEF72421000000000000000000000000B9
:108DC0000842FFFFFFFFFFFFFFFF14A500000000A8
:108DD00000000000000000000000000014A5FFFFDC
:108DE000FFFFFFFFFFFF9AD6000000000000000019
:108DF000000000002421FBDE9AD6000000002D6B4D
:108E0000FFFFFBDE9AD69AD69AD69AD69AD69AD6EB
:108E10009AD69AD6BEF7FFFFFFFFFFFFFFFFFFFFC7
:108E2000FFFFFFFFFFFFFFFFB294000000002421BF
:108E3000BEF7FFFFFFFFFFFFFFFFFFFF14A50000CE
:108E40000000000000000000AA525CE7AA520000E7
:108E50000000FFFFFFFFFFFFFFFFFFFFFFFFFFFF20
:108E600000000000CF7B9AD6000000000000000048
:108E700000000000000000000000000000000000F2
:108E800000000000000000000000000000000000E2
:108E900000000000000000000000000000000000D2
:108EA00000000000000000000000000000000000C2
:108EB00000000000000000000000000000000000B2
:108EC00000000000000000000000000000000000A2
:108ED0000000000000000000000000000000000092
:108EE00000000000000000005CE7FFFFFFFFFFFF45
:108EF000FFFF14A5000000000000000000000000BB
:108F0000D7BDFFFFFFFFFFFFFFFFBEF70000000020
:108F1000000000000000000000000842FFFFFFFF0B
:108F2000FFFFFFFFFFFF9AD60000000000000000D7
:108F3000000000000000AA52BEF7AA520000000084
:108F4000D7BDD7BD000000000000000000000000F9
:108F50000000AA52FFFFFFFFFFFFFFFFFFFFFFFF21
:108F6000FFFFFFFFFFFF5CE7000000000000D7BD30
:108F7000FFFFFFFFFFFFFFFFFFFFFFFF14A5000044
:108F800000000000000000000000B29438C600009D
:108F90002D6BFFFFFFFFFFFFFFFFFFFFFFFFFFFF47
:108FA0000000000000005CE700000000000000007E
:108FB00000000000000000000000000000000000B1
:108FC00000000000000000000000000000000000A1
:108FD0000000000000000000000000000000000091
:108FE0000000000000000000000000000000000081
:108FF0000000000000000000000000000000000071
:109000000000000000000000000000000000000060
:109010000000000000000000000000000000000050
:10902000000000000000CF7BFFFFFFFFFFFFFFFFFE
:10903000FFFFBEF7242100000000000000002D6BA0
:10904000FFFFFFFFFFFFFFFFFFFFFFFF3084000078
:109050000000000000000000000014A5FFFFFFFF5B
:10906000FFFFFFFFFFFF9AD6000000000000000096
:1090700000000000000000000842000000000000A6
:109080002421BEF7AA5200000000000000000000EA
:1090900000009AD6FFFFFFFFFFFFFFFFFFFFFFFF6C
:1090A000FFFFFFFFFFFFCF7B000000002421FFFF39
:1090B000FFFFFFFFFFFFFFFFFFFFFFFF14A5000003
:1090C0000000000000000000000000000842000056
:1090D0002D6BFFFFFFFFFFFFFFFFFFFFFFFFFFFF06
:1090E0000000000000000000000000000000000080
:1090F0000000000000000000000000000000000070
:10910000000000000000000000000000000000005F
:10911000000000000000000000000000000000004F
:10912000000000000000000000000000000000003F
:10913000000000000000000000000000000000002F
:10914000000000000000000000000000000000001F
:10915000000000000000000000000000000000000F
:109160000000000000009AD6FFFFFFFFFFFFFFFF97
:10917000FFFFFFFFD7BD00000000000000009AD6EF
:10918000FFFFFFFFFFFFFFFFFFFFFFFF5CE70000A8
:1091900000000000000000000000FBDEFFFFFFFFFA
:1091A000FFFFFFFFFFFF9AD6000000000000000055
:1091B00000000000000000000000000000000000AF
:1091C0000000B2949AD600000000000000000000E9
:1091D0002D6BFFFFFFFFFFFFFFFFFFFFFFFFFFFF05
:1091E000FFFFFFFF9AD6000000000000CF7BFFFFCB
:1091F000FFFFFFFFFFFFFFFFFFFFFFFF14A50000C2
:10920000000000000000000000000000000000005E
:109210002D6BFFFFFFFFFFFFFFFFFFFFFFFFFFFFC4
:10922000000000000000000000000000000000003E
:10923000000000000000000000000000000000002E
:10924000000000000000000000000000000000001E
:10925000000000000000000000000000000000000E
:1092600000000000000000000000000000000000FE
:1092700000000000000000000000000000000000EE
:1092800000000000000000000000000000000000DE
:1092900000000000000000000000000000000000CE
:1092A000000000000842FFFFFFFFFFFFFFFFFFFF7E
:1092B000FFFFFFFFFFFF0842000000002D6BFFFFD4
:1092C000FFFFFFFFFFFFFFFFFFFFFFFFFFFF2D6B14
:1092D00000000000000000000000FFFFFFFFFFFF94
:1092E000FFFFFFFFFFFFFBDE2D6B2D6B2D6B2D6B4B
:1092F0002D6B2D6B2D6B2D6B2D6BAA52000000007A
:10930000000000005CE7CF7B0000000000000000D0
:109310009AD6FFFFFFFFFFFFFFFFFFFFFFFFFFFFEB
:10932000FFFFFFFF2D6B00000000000014A5FFFFF2
:10933000FFFFFFFFFFFFFFFFFFFFFFFF14A5000080
:10934000000000000000000000000000000000001D
:109350002D6BFFFFFFFFFFFFFFFFFFFFFFFFFFFF83
:1093600000000000000000000000000000000000FD
:1093700000000000000000000000000000000000ED
:1093800000000000000000000000000000000000DD
:1093900000000000000000000000000000000000CD
:1093A00000000000000000000000000000000000BD
:1093B00000000000000000000000000000000000AD
:1093C000000000000000000000000000000000009D
:1093D000000000000000000000000000000000008D
:1093E0000000000075ADFFFFFFFFFFFFFFFFFFFF65
:1093F000FFFFFFFFFFFF9AD6000000005CE7FFFFC2
:10940000FFFFFFFFFFFFFFFFFFFFFFFFFFFF9AD6FA
:1094100000000000000000000000FFFFFFFFFFFF52
:10942000FFFFFFFFFFFFBEF79AD69AD69AD6FBDE64
:10943000FFFFFFFFFFFFFFFFFFFF9AD600000000C6
:10944000000000002D6B5CE7242100000000308448
:10945000FFFFFFFFFFFFFFFFFFFFFFFFFFFFFFFF1C
:10946000FFFFD7BD000000000000000014A5FFFFB3
:10947000FFFFFFFFFFFFFFFFFFFFFFFF14A500003F
:1094800000000000000000000000000000000000DC
:109490002D6BFFFFFFFFFFFFFFFFFFFFFFFFFFFF42
:1094A00000000000000000000000000000000000BC
:1094B00000000000000000000000000000000000AC
:1094C000000000000000000000000000000000009C
:1094D000000000000000000000000000000000008C
:1094E000000000000000000000000000000000007C
:1094F000000000000000000000000000000000006C
:10950000000000000000000000000000000000005B
:10951000000000000000000000000000000000004B
:1095200000000000BEF7FFFFFFFFFFFFFFFFFFFF90
:10953000FFFFFFFFFFFFFFFF2D6BB294FFFFFFFF59
:10954000FFFFFFFFFFFFFFFFFFFFFFFFFFFFBEF774
:10955000AA5200000000000000005CE7FFFFFFFFD0
:10956000FFFFFFFFFFFF9AD60000000000002D6BF9
:10957000FFFFFFFFFFFFFFFFFFFFD7BD0000000061
:1095800000000000000038C614A5000000005CE7E1
:10959000FFFFFFFFFFFFFFFFFFFFFFFFFFFFFFFFDB
:1095A000BEF708420000000000000000B294FFFF78
:1095B000FFFFFFFFFFFFFFFFFFFFFFFF14A50000FE
:1095C000000000000000000000000000000000009B
:1095D0002D6BFFFFFFFFFFFFFFFFFFFFFFFFFFFF01
:1095E000000000000000000000000000000000007B
:1095F000000000000000000000000000000000006B
:10960000000000000000000000000000000000005A
:10961000000000000000000000000000000000004A
:10962000000000000000000000000000000000003A
:10963000000000000000000000000000000000002A
:10964000000000000000000000000000000000001A
:10965000000000000000000000000000000000000A
:1096600000003084FFFFFFFFFFFFFFFFFFFFFFFF52
:10967000FFFFFFFFD7BD14A55CE7BEF7FFFFFFFFAD
:10968000FFFFFFFFFFFFFFFFFFFFFFFFD7BDD7BDBE
:10969000D7BD0000000000000000D7BDFFFFFFFFA6
:1096A000FFFFFFFFFFFF9AD60000000000002D6BB8
:1096B000FFFFFFFFFFFFFFFFFFFFB294000000006E
:1096C00000000000000008425CE708423084FFFF11
:1096D000FFFFFFFFFFFFFFFFFFFFFFFFFFFFFFFF9A
:1096E00014A500000000000000000000AA52FFFFC7
:1096F000FFFFFFFFFFFFFFFFFFFFFFFF14A50000BD
:109700000000000000000000000000000000000059
:109710002D6BFFFFFFFFFFFFFFFFFFFFFFFFFFFFBF
:109720000000000000000000000000000000000039
:109730000000000000000000000000000000000029
:109740000000000000000000000000000000000019
:109750000000000000000000000000000000000009
:1097600000000000000000000000000000000000F9
:1097700000000000000000000000000000000000E9
:1097800000000000000000000000000000000000D9
:1097900000000000000000000000000000000000C9
:1097A00000009AD6FFFFFFFFFFFFFFFFFFFFFFFF55
:1097B000FFFFFFFFAA522421BEF7FFFFFFFFFFFFBD
:1097C000FFFFFFFFFFFFFFFFFFFFBEF7242108425F
:1097D000FFFF08420000000000002D6BFFFFFFFFAD
:1097E000FFFFFFFFFFFF9AD60000000000002D6B77
:1097F000FFFFFFFFFFFFFFFFFFFF08420000000029
:10980000000000000000000014A538C65CE7FFFF60
:10981000FFFFFFFFFFFFFFFFFFFFFFFFFFFFBEF7A1
:1098200024210000000000000000000000005CE7B0
:10983000FFFFFFFFFFFFFFFFFFFFFFFF14A500007B
:109840000000000000000000000000000000000018
:109850002D6BFFFFFFFFFFFFFFFFFFFFFFFFFFFF7E
:1098600000000000000000000000000000000000F8
:1098700000000000000000000000000000000000E8
:1098800000000000000000000000000000000000D8
:1098900000000000000000000000000000000000C8
:1098A00000000000000000000000000000000000B8
:1098B00000000000000000000000000000000000A8
:1098C0000000000000000000000000000000000098
:1098D0000000000000000000000000000000000088
:1098E0000842FFFFFFFFFFFFFFFFFFFFFFFFFFFF3C
:1098F000FFFF9AD6000000003084FFFFFFFFFFFF4C
:10990000FFFFFFFFFFFFFFFFFFFF14A500000000A8
:1099100038C614A500000000000000009AD6FFFF22
:10992000FFFFFFFFFFFF9AD60000000000002D6B35
:10993000FFFFFFFFFFFFFFFF75AD0000000000000D
:10994000000000000000000024215CE7FFFFFFFF93
:10995000FFFFFFFFFFFFFFFFFFFFFFFFFFFF308461
:109960000000000000000000000000000000CF7BAD
:10997000FFFFFFFFFFFFFFFFFFFFFFFF14A500003A
:1099800000000000000000002421D7BD00000000FE
:109990002D6BFFFFFFFFFFFFFFFFFFFFFFFFFFFF3D
:1099A00000000000000000000000000000000000B7
:1099B00000000000000000000000000000000000A7
:1099C0000000000000000000000000000000000097
:1099D0000000000000000000000000000000000087
:1099E0000000000000000000000000000000000077
:1099F0000000000000000000000000000000000067
:109A00000000000000000000000000000000000056
:109A10000000000000000000000000000000000046
:109A200075ADFFFFFFFFFFFFFFFFFFFFFFFFFFFF22
:109A3000FFFF30840000000000005CE7FFFFFFFF35
:109A4000FFFFFFFFFFFFFFFF5CE724210000000096
:109A50002D6BBEF724210000000000000842BEF775
:109A6000FFFFFFFFFFFF9AD60000000000002D6BF4
:109A7000FFFFFFFFFFFFFBDE2421000000000000CE
:109A800000000000000000000000CF7BFFFFFFFF90
:109A9000FFFFFFFFFFFFFFFFFFFFFFFF5CE700008F
:109AA00000000000000000000000000000000000B6
:109AB000D7BDFFFFFFFFFFFFFFFFFFFF14A5000063
:109AC0000000000000000000D7BD9AD60000000092
:109AD0002D6BFFFFFFFFFFFFFFFFFFFFFFFFFFFFFC
:109AE0000000000000000000000000000000000076
:109AF0000000000000000000000000000000000066
:109B00000000000000000000000000000000000055
:109B10000000000000000000000000000000000045
:109B20000000000000000000000000000000000035
:109B30000000000000000000000000000000000025
:109B40000000000000000000000000000000000015
:109B500000000000000000000000000000002421C0
:109B6000BEF7FFFFFFFFFFFFFFFFFFFFFFFFFFFF4E
:109B7000BEF700000000000000002D6BFFFFFFFF9C
:109B8000FFFFFFFFFFFFFFFF308400000000000029
:109B900000005CE730840000000000000000AA52D2
:109BA0005CE7FFFFFFFF5CE7000000000000CF7BE9
:109BB000FFFFFFFFFBDE242100000000000000008B
:109BC0000000000000000000000000009AD6FFFF27
:109BD000FFFFFFFFFFFFFFFFFFFFFFFF2D6B0000F9
:109BE0000000000000000000000000000000000075
:109BF000000075ADFFFFFFFFFFFFFFFF75AD000029
:109C0000000000002D6B9AD6FBDE2421000000002E
:109C10002D6BFFFFFFFFFFFFFFFFFFFFFFFFFFFFBA
:109C20000000000000000000000000000000000034
:109C30000000000000000000000000000000000024
:109C40000000000000000000000000000000000014
:109C50000000000000000000000000000000000004
:109C600000000000000000000000000000000000F4
:109C700000000000000000000000000000000000E4
:109C800000000000000000000000000000000000D4
:109C90000000000000000000000000000000308410
:109CA000FFFFFFFFFFFFFFFFFFFFFFFFFFFFFFFFC4
:109CB00014A5000000000000000000009AD6FFFF7D
:109CC000FFFFFFFFFFFF5CE7000000000000000057
:109CD0000000B2945CE700000000000000000000FB
:109CE000242114A5BEF7FFFF9AD614A575ADBEF7C3
:109CF0005CE714A500000000000000000000000068
:109D00000000000000000000000000000842FFFF0B
:109D1000FFFFFFFFFFFFFFFFFFFF9AD600000000DD
:109D20000000000000000000000000000000000033
:109D3000000000002D6B9AD6FFFFFFFFBEF775AD48
:109D400014A5FBDE5CE714A500000000CF7B9AD6CB
:109D5000FBDEFFFFFFFFFFFFFFFFFFFFFFFFFFFF38
:109D60009AD69AD69AD6AA520000000000000000A7
:109D700000000000000000000000000000000000E3
:109D800000000000000000000000000000000000D3
:109D900000000000000000000000000000000000C3
:109DA00000000000000000000000000000000000B3
:109DB00000000000000000000000000000000000A3
:109DC0000000000000000000000000000000000093
:109DD00000000000000000000000000000005CE740
:109DE000FFFFFFFFFFFFFFFFFFFFFFFFFFFFFFFF83
:109DF0000842000000000000000000002D6BFFFF83
:109E0000FFFFFFFFFFFF2D6B0000000000000000C0
:109E100000002421BEF73084000000000000000094
:109E20000000000000002D6B14A514A514A52D6BD7
:109E30000000000000000000000000000000000022
:109E4000000000000000000000000000000014A559
:109E5000FFFFFFFFFFFFFFFFFFFFAA520000000010
:109E600000000000000000000000000000000000F2
:109E700000000000000000000842308414A514A572
:109E8000B2942D6B000000000000000008422D6B12
:109E9000B294FFFFFFFFFFFFFFFFFFFFFFFFFBDEAF
:109EA0002D6B2D6B2D6B24210000000000000000A5
:109EB00000000000000000000000000000000000A2
:109EC0000000000000000000000000000000000092
:109ED0000000000000000000000000000000000082
:109EE0000000000000000000000000000000000072
:109EF0000000000000000000000000000000000062
:109F00000000000000000000000000000000000051
:109F10000000000000000000000000002D6BFFFFAB
:109F2000FFFFFFFFFFFFFFFFFFFFFFFFFFFF38C641
:109F30000000000000000000000000000000D7BD8D
:109F4000FFFFFFFF9AD600000000000000000000A5
:109F500000000000D7BD9AD60000000000000000FD
:109F600000000000000000000000000000000000F1
:109F700000000000000000000000000000000000E1
:109F8000000000000000000000000000000024218C
:109F9000BEF7FFFFFFFFFFFFD7BD0000000000007E
:109FA00000000000000000000000000000000000B1
:109FB00000000000000000000000000000000000A1
:109FC0000000000000000000000000000000000091
:109FD0002D6BFFFFFFFFFFFFFFFFFFFFFFFFFBDE1C
:109FE0000000000000000000000000000000000071
:109FF0000000000000000000000000000000000061
:10A000000000000000000000000000000000000050
:10A010000000000000000000000000000000000040
:10A020000000000000000000000000000000000030
:10A030000000000000000000000000000000000020
:10A040000000000000000000000000000000000010
:10A0500000000000000000000000000038C6FFFF04
:10A06000FFFFFFFFFFFFFFFFFFFFFFFFFFFF30844A
:10A070000000000000000000000000000000084296
:10A08000FFFFFFFF2D6B000000000000000000003C
:10A0900000000000AA52FFFF2D6B0000000000002E
:10A0A00000000000000000000000000000000000B0
:10A0B00000000000000000000000000000000000A0
:10A0C0000000000000000000000000000000000090
:10A0D0003084FFFFFFFFBEF72421000000000000D6
:10A0E0000000000000000000000000000000000070
:10A0F0000000000000000000000000000000000060
:10A10000000000000000000000000000000000004F
:10A110000000AA52D7BDBEF7FFFFFFFFFFFFFFFF02
:10A12000000000000000000000000000000000002F
:10A13000000000000000000000000000000000001F
:10A14000000000000000000000000000000000000F
:10A1500000000000000000000000000000000000FF
:10A1600000000000000000000000000000000000EF
:10A1700000000000000000000000000000000000DF
:10A1800000000000000000000000000000000000CF
:10A19000000000000000000000000842FFFFFFFF79
:10A1A000FFFFFFFFFFFFFFFFFFFFFFFFBEF7000006
:10A1B000000000000000000000000000000000009F
:10A1C00075AD9AD6000000000000000000000000FD
:10A1D000000000000000FBDED7BD00000000000012
:10A1E000000000000000000000000000000000006F
:10A1F000000000000000000000000000000000005F
:10A20000000000000000000000000000000000004E
:10A2100000009AD6FFFF14A5000000000000000017
:10A22000000000000000000000000000000000002E
:10A23000000000000000000000000000000000001E
:10A24000000000000000000000000000000000000E
:10A25000000000000000242114A5BEF7FFFFFFFF4F
:10A2600000000000000000000000000000000000EE
:10A2700000000000000000000000000000000000DE
:10A2800000000000000000000000000000000000CE
:10A2900000000000000000000000000000000000BE
:10A2A00000000000000000000000000000000000AE
:10A2B000000000000000000000000000000000009E
:10A2C000000000000000000000000000000000008E
:10A2D0000000000000000000000008422D6B2D6B04
:10A2E0002D6B2D6B2D6B2D6B2D6B2D6BAA520000E2
:10A2F000000000000000000000000000000000005E
:10A3000024212D6B00000000000000000000000070
:10A3100000000000000008420842000000000000A9
:10A32000000000000000000000000000000000002D
:10A33000000000000000000000000000000000001D
:10A34000000000000000000000000000000000000D
:10A3500000002D6B5CE724210000000000000000DD
:10A3600000000000000000000000000000000000ED
:10A3700000000000000000000000000000000000DD
:10A3800000000000000000000000000000000000CD
:10A3900000000000000000000000242114A5BEF70A
:10A3A00000000000000000000000000000000000AD
:10A3B000000000000000000000000000000000009D
:10A3C000000000000000000000000000000000008D
:10A3D000000000000000000000000000000000007D
:10A3E000000000000000000000000000000000006D
:10A3F000000000000000000000000000000000005D
:10A40000000000000000000000000000000000004C
:10A41000000000000000000000000000000000003C
:10A42000000000000000000000000000000000002C
:10A43000000000000000000000000000000000001C
:10A44000000000000000000000000000000000000C
:10A4500000000000000000000000000000000000FC
:10A4600000000000000000000000000000000000EC
:10A4700000000000000000000000000000000000DC
:10A4800000000000000000000000000000000000CC
:10A490000000000008420000000000000000000072
:10A4A00000000000000000000000000000000000AC
:10A4B000000000000000000000000000000000009C
:10A4C000000000000000000000000000000000008C
:10A4D0000000000000000000000000000000084232
:10A4E000000000000000000000000000000000006C
:10A4F000000000000000000000000000000000005C
:10A50000000000000000000000000000000000004B
:10A51000000000000000000000000000000000003B
:10B1D000000000F800F800F800F800F800F800F8A7
:10B1E00000F800F800F800F800F800F800F800F89F
:10B1F00000F800F800F80000000000000000E00780
:10B20000E007E007E007E007E007E007E007E00706
:10B21000E007E007E007E007E007E007E007E007F6
:10B22000E00700000000000000001F001F001F00DA
:10B230001F001F001F001F001F001F001F001F0016
:10B240001F001F001F001F001F001F001F00000025
:10B2500000000000000000000000000000000000EE
:10B2600000000000000000000000000000000000DE
:10B2700000000000000000000000000000000000CE
:10B2800000000000000000000000000000000000BE
:10B2900000000000000000000000000000000000AE
:10B2A000000000000000000000000000000000009E
:10B2B000000000000000000000000000000000008E
:10B2C000000000000000000000000000000000007E
:10B2D000000000000000000000000000000000006E
:10B2E000000000000000000000000000000000005E
:10B2F000000000000000000000000000000000004E
:10B30000000000000000000000000000000000003D
:10B31000000000F800F800F800F800F800F800F865
:10B3200000F800F800F800F800F800F800F800F85D
:10B3300000F800F800F80000000000000000E0073E
:10B34000E007E007E007E007E007E007E007E007C5
:10B35000E007E007E007E007E007E007E007E007B5
:10B36000E00700000000000000001F001F001F0099
:10B370001F001F001F001F001F001F001F001F00D5
:10B380001F001F001F001F001F001F001F000000E4
:10B3900000000000000000000000000000000000AD
:10B3A000000000000000000000000000000000009D
:10B3B000000000000000000000000000000000008D
:10B3C000000000000000000000000000000000007D
:10B3D000000000000000000000000000000000006D
:10B3E000000000000000000000000000000000005D
:10B3F000000000000000000000000000000000004D
:10B40000000000000000000000000000000000003C
:10B41000000000000000000000000000000000002C
:10B42000000000000000000000000000000000001C
:10B43000000000000000000000000000000000000C
:10B4400000000000000000000000000000000000FC
:10B45000000000F800F800F800F800F800F800F824
:10B4600000F800F800F800F800F800F800F800F81C
:10B4700000F800F800F80000000000000000E007FD
:10B48000E007E007E007E007E007E007E007E00784
:10B49000E007E007E007E007E007E007E007E00774
:10B4A000E00700000000000000001F001F001F0058
:10B4B0001F001F001F001F001F001F001F001F0094
:10B4C0001F001F001F001F001F001F001F000000A3
:10B4D000000000000000000000000000000000006C
:10B4E000000000000000000000000000000000005C
:10B4F000000000000000000000000000000000004C
:10B50000000000000000000000000000000000003B
:10B51000000000000000000000000000000000002B
:10B52000000000000000000000000000000000001B
:10B53000000000000000000000000000000000000B
:10B5400000000000000000000000000000000000FB
:10B5500000000000000000000000000000000000EB
:10B5600000000000000000000000000000000000DB
:10B5700000000000000000000000000000000000CB
:10B5800000000000000000000000000000000000BB
:10B59000000000F800F800F800F800F800F800F8E3
:10B5A00000F800F800F800F800F800F800F800F8DB
:10B5B00000F800F800F80000000000000000E007BC
:10B5C000E007E007E007E007E007E007E007E00743
:10B5D000E007E007E007E007E007E007E007E00733
:10B5E000E00700000000000000001F001F001F0017
:10B5F0001F001F001F001F001F001F001F001F0053
:10B600001F001F001F001F001F001F001F00000061
:10B61000000000000000000000000000000000002A
:10B62000000000000000000000000000000000001A
:10B63000000000000000000000000000000000000A
:10B6400000000000000000000000000000000000FA
:10B6500000000000000000000000000000000000EA
:10B6600000000000000000000000000000000000DA
:10B6700000000000000000000000000000000000CA
:10B6800000000000000000000000000000000000BA
:10B6900000000000000000000000000000000000AA
:10B6A000000000000000000000000000000000009A
:10B6B000000000000000000000000000000000008A
:10B6C000000000000000000000000000000000007A
:10B6D000000000F800F800F800F800F800F800F8A2
:10B6E00000F800F800F800F800F800F800F800F89A
:10B6F00000F800F800F80000000000000000E0077B
:10B70000E007E007E007E007E007E007E007E00701
:10B71000E007E007E007E007E007E007E007E007F1
:10B72000E00700000000000000001F001F001F00D5
:10B730001F001F001F001F001F001F001F001F0011
:10B740001F001F001F001F001F001F001F00000020
:10B7500000000000000000000000000000000000E9
:10B7600000000000000000000000000000000000D9
:10B7700000000000000000000000000000000000C9
:10B7800000000000000000000000000000000000B9
:10B7900000000000000000000000000000000000A9
:10B7A0000000000000000000000000000000000099
:10B7B0000000000000000000000000000000000089
:10B7C0000000000000000000000000000000000079
:10B7D0000000000000000000000000000000000069
:10B7E0000000000000000000000000000000000059
:10B7F0000000000000000000000000000000000049
:10B800000000000000000000000000000000000038
:10B81000000000F800F800F800F800F800F800F860
:10B8200000F800F800F800F800F800F800F800F858
:10B8300000F800F800F80000000000000000E00739
:10B84000E007E007E007E007E007E007E007E007C0
:10B85000E007E007E007E007E007E007E007E007B0
:10B86000E00700000000000000001F001F001F0094
:10B870001F001F001F001F001F001F001F001F00D0
:10B880001F001F001F001F001F001F001F000000DF
:10B8900000000000000000000000000000000000A8
:10B8A0000000000000000000000000000000000098
:10B8B0000000000000000000000000000000000088
:10B8C0000000000000000000000000000000000078
:10B8D0000000000000000000000000000000000068
:10B8E0000000000000000000000000000000000058
:10B8F0000000000000000000000000000000000048
:10B900000000000000000000000000000000000037
:10B910000000000000000000000000000000000027
:10B920000000000000000000000000000000000017
:10B930000000000000000000000000000000000007
:10B9400000000000000000000000000000000000F7
:10B95000000000F800F800F800F800F800F800F81F
:10B9600000F800F800F800F800F800F800F800F817
:10B9700000F800F800F80000000000000000E007F8
:10B98000E007E007E007E007E007E007E007E0077F
:10B99000E007E007E007E007E007E007E007E0076F
:10B9A000E00700000000000000001F001F001F0053
:10B9B0001F001F001F001F001F001F001F001F008F
:10B9C0001F001F001F001F001F001F001F0000009E
:10B9D0000000000000000000000000000000000067
:10B9E0000000000000000000000000000000000057
:10B9F0000000000000000000000000000000000047
:10BA00000000000000000000000000000000000036
:10BA10000000000000000000000000000000000026
:10BA20000000000000000000000000000000000016
:10BA30000000000000000000000000000000000006
:10BA400000000000000000000000000000000000F6
:10BA500000000000000000000000000000000000E6
:10BA600000000000000000000000000000000000D6
:10BA700000000000000000000000000000000000C6
:10BA800000000000000000000000000000000000B6
:10BA900000000000000000000000000000000000A6
:10BAA00000000000003F40000000000000000030E7
:10BAB00000400030004000000009000BC03D000BBA
:10BAC000C03D00090018C024407FE02240318000C2
:10BAD00000180024C01B000D803240018003801C30
:10BAE0004027401C8007400040100060000000001C
:10BAF00000000000000000000000001F8020404007
:10BB0000200000402020401F8000000000090006A7
:10BB1000001F80060009000000040004003F8004AC
:10BB200000040000000010006000000000000000A1
:10BB300000040004000400040004000000000000F1
:10BB4000400000000000000000002001C006003896
:10BB500000400000001F802040204020401F800047
:10BB600000000010403FC000400000000018C0214D
:10BB700040224024401840000010802040244024EF
:10BB8000401B80000002000D0011003FC00140007A
:10BB9000003C80244024402440238000001F802457
:10BBA0004024403440038000003000200027C0388B
:10BBB00000200000001B802440244024401B800003
:10BBC000001C0022C0224022401F80000000000014
:10BBD00000084000000000000000000000046000B9
:10BBE0000000000000000004000A00110020804056
:10BBF0004009000900090009000900000000004098
:10BC000040208011000A0004001800200023402476
:10BC100000180000001F802040274029401F4000DE
:10BC200000004007C039000F0001C0004020403F25
:10BC3000C0244024401B8000001F80204020402062
:10BC4000403080000020403FC0204020401F800046
:10BC50000020403FC024402E4030C0000020403F24
:10BC6000C024402E00300000000F00108020402231
:10BC7000403380020020403FC0040004003FC02049
:10BC800040204020403FC020402040000000602075
:10BC90002020203FC02000200020403FC024400B37
:10BCA0000030C0204020403FC02040004000400005
:10BCB000C03FC03C0003C03C003FC0000020403FEC
:10BCC000C00C4023003FC020001F802040204020A7
:10BCD000401F80000020403FC02440240018000086
:10BCE000001F802140214020E01FA0000020403F95
:10BCF000C02440260019C0004018C024402440221F
:10BD00004031800000300020403FC0204030000023
:10BD10000020003F80004000403F80200020003E87
:10BD20000001C0070038002000380007C03C0007B1
:10BD3000C038000000204039C0060039C020400053
:10BD4000002000384007C03840200000003040216B
:10BD5000C02640384020C00000000000007FE040C6
:10BD60002040200000000070000C00038000400014
:10BD7000000000402040207FE00000000000002084
:10BD80000040002000000000000010001000100023
:10BD90001000100010000000004000000000000033
:10BDA00000000002800540054003C0004020003F25
:10BDB000C0044004400380000000000380044004ED
:10BDC000400640000000000380044024403FC000C3
:10BDD00040000003800540054003400000000004CF
:10BDE000401FC0244024402000000002E005500510
:10BDF000500650042020403FC00440040003C0000F
:10BE0000400000044027C000400000000000100077
:10BE100010041027E00000000020403FC001400750
:10BE20000004C00440204020403FC00040004000CB
:10BE30000007C0040007C0040003C000000440075E
:10BE4000C00440040003C00040000003800440041C
:10BE50004003800000041007F004500440038000F9
:10BE600000000003800440045007F0001004400765
:10BE7000C002400400040000000000064005400528
:10BE80004004C00000000004001F80044000400087
:10BE900000040007800040044007C0004004000781
:10BEA0000004C0018006000400060001C007000174
:10BEB000C006000000044006C0010006C0044000A7
:10BEC000000410071004E0018006000400000004D4
:10BED0004005C00640044000000000000004007B54
:10BEE000E040200000000000000000FFF000000023
:10BEF00000000040207BE0040000000000400080C3
:10BF00000040002000200040000000000000000071
:10BF10000000000000000000000000000000001F02
:10BF2000CC000C00000000000000000800300060A1
:10BF3000000800300060000000022003FC1E200208
:10BF40002003FC1E200220000000000E1811043FF8
:10BF5000FF10840C78000000000F0010840F3800E0
:10BF6000C0077818840078000000780F8410C4118E
:10BF7000240E9800E40084000808006800700000A7
:10BF800000000000000000000000000000000007AA
:10BF9000E0181820044002000000004002200418AD
:10BFA0001807E00000000000000240024001800F7E
:10BFB000F001800240024000000080008000800FFD
:10BFC000F800800080008000000001000D000E00DD
:10BFD0000000000000000000000000008000800061
:10BFE0008000800080008000800000000C000C00B9
:10BFF0000000000000000000000000000600180023
:10C00000600180060018002000000007F0080810FA
:10C01000041004080807F000000000080408041FCA
:10C02000FC000400040000000000000E0C101410BE
:10C0300024104411840E0C000000000C1810041190
:10C0400004110412880C700000000000E0032004BA
:10C050002408241FFC0024000000001F98108411F5
:10C06000041104108810700000000007F008881107
:10C0700004110418880070000000001C001000105B
:10C08000FC13001C001000000000000E38114410CA
:10C0900084108411440E38000000000700088C1042
:10C0A000441044088807F00000000000000000036E
:10C0B0000C030C0000000000000000000000010163
:10C0C00006000000000000000000000080014002A7
:10C0D00020041008081004000002200220022002A0
:10C0E00020022002200220000000001004080804A2
:10C0F00010022001400080000000000E001200101D
:10C100000C106C10800F00000003E00C1813E414F6
:10C110002417C4082807D000000004003C03C41CF6
:10C1200040074000E4001C000410041FFC1104112F
:10C130000411040E880070000003E00C18100410B5
:10C1400004100410081C10000010041FFC10041040
:10C15000041004080807F0000010041FFC1104116B
:10C160000417C410040818000010041FFC11041167
:10C170000017C010000800000003E00C18100410A5
:10C180000410441C780040000010041FFC108400C0
:10C1900080008010841FFC10040000100410041F95
:10C1A000FC10041004000000000003000110011046
:10C1B000011FFE10001000000010041FFC110403FA
:10C1C000801464181C1004000010041FFC100400EC
:10C1D0000400040004000C000010041FFC1F0000F9
:10C1E000FC1F001FFC1004000010041FFC0C0403C3
:10C1F0000000E010181FFC100007F00808100410E1
:10C20000041004080807F0000010041FFC1084103C
:10C2100080108010800F00000007F0081810241014
:10C2200024101C080A07F2000010041FFC1104115E
:10C230000011C011300E0C000400000E1C1104107F
:10C2400084108410441C3800001800100010041FD3
:10C25000FC100410001800000010001FF81004006B
:10C2600004000410041FF8100010001E0011E0006C
:10C270001C007013801C0010001FC0103C00E01F49
:10C280000000E0103C1FC000001004180C16340120
:10C29000C001C01634180C100410001C0013040058
:10C2A000FC13041C00100000000804101C10641093
:10C2B0008413041C04101800000000000000007F1C
:10C2C000FE4002400240020000000030000C00036B
:10C2D000800060001C00030000000040024002409B
:10C2E000027FFE000000000000000000002000406F
:10C2F000004000400020000000000100010001009B
:10C300000100010001000100010000400040002088
:10C31000000000000000000000000000980124015F
:10C32000440144014400FC000410001FFC0088018B
:10C330000401040088007000000000007000880103
:10C34000040104010400880000000000700088015E
:10C3500004010411081FFC0004000000F80144015E
:10C36000440144014400C800000000010401040F1E
:10C37000FC1104110411001800000000D60129016D
:10C3800029012901C90106000010041FFC008401D5
:10C39000000100010400FC0004000001041904195C
:10C3A000FC00040004000000000000000300010184
:10C3B00001190119FE0000000010041FFC002400F8
:10C3C0004001B4010C010400000000100410041F1F
:10C3D000FC0004000400000000010401FC01040151
:10C3E0000001FC0104010000FC010401FC008401C7
:10C3F000000100010400FC0004000000F801040139
:10C40000040104010400F80000010101FF0085019E
:10C410000401040088007000000000007000880122
:10C42000040104010501FF00010104010401FC00F5
:10C43000840104010001800000000000CC012401FF
:10C4400024012401240198000000000100010007DC
:10C45000F80104010400000000010001F8000400DC
:10C46000040004010801FC000401000180017000C7
:10C470000C001001600180010001F0010C0030018E
:10C48000C00030010C01F0010000000104018C002B
:10C49000740170018C01040000010101810171002F
:10C4A0000E001801600180010000000184010C01F0
:10C4B0003401440184010C00000000000000000071
:10C4C0000001003EFC4002400200000000000000AD
:10C4D00000FFFF0000000000000000400240023E9C
:10C4E000FC010000000000000000006000800080EF
:10C4F000004000400020002000000000400000003C
:10C50000C0000000800000000000000020000000CB
:10C5100060000000E0000000A000000040C500082E
:10C520000000002480000000A4510008C0C50008DD
:10C5300080000024B80A0000B45100080000000088
:10C5400001000000100000000090D0030090D00314
:10C55000FFFF0000AD410008E93D0008BD450008AF
:10C560003D3E0008ED3D00086F460008F54000081C
:10C5700085480008FD40000875460008913E000807
:10C58000214000088D3F0008E13F0008BD40000841
:10C59000094100080D49000879410008854100085B
:10C5A0001D4E00080000000000000000E94E0008D9
:10C5B000314E0008C14E0008994E0008174E000881
:040000050800029954
:00000001FF
